{
	"Bank.sol": {
		"Bank": {
			"abi": [
				{
					"inputs": [],
					"stateMutability": "nonpayable",
					"type": "constructor"
				},
				{
					"inputs": [
						{
							"internalType": "uint256",
							"name": "",
							"type": "uint256"
						}
					],
					"name": "addressAccount",
					"outputs": [
						{
							"internalType": "address",
							"name": "",
							"type": "address"
						}
					],
					"stateMutability": "view",
					"type": "function"
				},
				{
					"inputs": [],
					"name": "deposit",
					"outputs": [],
					"stateMutability": "payable",
					"type": "function"
				},
				{
					"inputs": [],
					"name": "owner",
					"outputs": [
						{
							"internalType": "address payable",
							"name": "",
							"type": "address"
						}
					],
					"stateMutability": "view",
					"type": "function"
				},
				{
					"inputs": [],
					"name": "showBanlance",
					"outputs": [
						{
							"internalType": "uint256",
							"name": "",
							"type": "uint256"
						}
					],
					"stateMutability": "view",
					"type": "function"
				},
				{
					"inputs": [
						{
							"internalType": "uint256",
							"name": "",
							"type": "uint256"
						}
					],
					"name": "topThree",
					"outputs": [
						{
							"internalType": "address",
							"name": "",
							"type": "address"
						}
					],
					"stateMutability": "view",
					"type": "function"
				},
				{
					"inputs": [],
					"name": "withdraw",
					"outputs": [],
					"stateMutability": "payable",
					"type": "function"
				}
			],
			"devdoc": {
				"kind": "dev",
				"methods": {},
				"version": 1
			},
			"evm": {
				"assembly": "    /* \"Bank.sol\":60:1827  contract Bank{... */\n  mstore(0x40, 0x80)\n    /* \"Bank.sol\":397:398  3 */\n  0x03\n    /* \"Bank.sol\":383:399  new address[](3) */\n  0xffffffffffffffff\n  dup2\n  gt\n  iszero\n  tag_1\n  jumpi\n  tag_2\n  tag_3\n  jump\t// in\ntag_2:\ntag_1:\n  mload(0x40)\n  swap1\n  dup1\n  dup3\n  mstore\n  dup1\n  0x20\n  mul\n  0x20\n  add\n  dup3\n  add\n  0x40\n  mstore\n  dup1\n  iszero\n  tag_4\n  jumpi\n  dup2\n  0x20\n  add\n  0x20\n  dup3\n  mul\n  dup1\n  calldatasize\n  dup4\n  calldatacopy\n  dup1\n  dup3\n  add\n  swap2\n  pop\n  pop\n  swap1\n  pop\ntag_4:\n  pop\n    /* \"Bank.sol\":355:399  address[] public topThree = new address[](3) */\n  0x03\n  swap1\n  dup1\n  mload\n  swap1\n  0x20\n  add\n  swap1\n  tag_5\n  swap3\n  swap2\n  swap1\n  tag_6\n  jump\t// in\ntag_5:\n  pop\n    /* \"Bank.sol\":418:513  constructor(){... */\n  callvalue\n  dup1\n  iszero\n  tag_7\n  jumpi\n  revert(0x00, 0x00)\ntag_7:\n  pop\n    /* \"Bank.sol\":458:468  msg.sender */\n  caller\n    /* \"Bank.sol\":442:447  owner */\n  0x00\n  0x00\n    /* \"Bank.sol\":442:469  owner= payable (msg.sender) */\n  0x0100\n  exp\n  dup2\n  sload\n  dup2\n  0xffffffffffffffffffffffffffffffffffffffff\n  mul\n  not\n  and\n  swap1\n  dup4\n  0xffffffffffffffffffffffffffffffffffffffff\n  and\n  mul\n  or\n  swap1\n  sstore\n  pop\n    /* \"Bank.sol\":60:1827  contract Bank{... */\n  jump(tag_10)\ntag_6:\n  dup3\n  dup1\n  sload\n  dup3\n  dup3\n  sstore\n  swap1\n  0x00\n  mstore\n  keccak256(0x00, 0x20)\n  swap1\n  dup2\n  add\n  swap3\n  dup3\n  iszero\n  tag_11\n  jumpi\n  swap2\n  0x20\n  mul\n  dup3\n  add\ntag_12:\n  dup3\n  dup2\n  gt\n  iszero\n  tag_13\n  jumpi\n  dup3\n  mload\n  dup3\n  exp(0x0100, 0x00)\n  dup2\n  sload\n  dup2\n  0xffffffffffffffffffffffffffffffffffffffff\n  mul\n  not\n  and\n  swap1\n  dup4\n  0xffffffffffffffffffffffffffffffffffffffff\n  and\n  mul\n  or\n  swap1\n  sstore\n  pop\n  swap2\n  0x20\n  add\n  swap2\n  swap1\n  0x01\n  add\n  swap1\n  jump(tag_12)\ntag_13:\ntag_11:\n  pop\n  swap1\n  pop\n  tag_14\n  swap2\n  swap1\n  tag_15\n  jump\t// in\ntag_14:\n  pop\n  swap1\n  jump\t// out\ntag_15:\ntag_16:\n  dup1\n  dup3\n  gt\n  iszero\n  tag_17\n  jumpi\n  0x00\n  dup2\n  0x00\n  swap1\n  sstore\n  pop\n  0x01\n  add\n  jump(tag_16)\ntag_17:\n  pop\n  swap1\n  jump\t// out\n    /* \"#utility.yul\":7:187   */\ntag_3:\n    /* \"#utility.yul\":55:132   */\n  0x4e487b7100000000000000000000000000000000000000000000000000000000\n    /* \"#utility.yul\":52:53   */\n  0x00\n    /* \"#utility.yul\":45:133   */\n  mstore\n    /* \"#utility.yul\":152:156   */\n  0x41\n    /* \"#utility.yul\":149:150   */\n  0x04\n    /* \"#utility.yul\":142:157   */\n  mstore\n    /* \"#utility.yul\":176:180   */\n  0x24\n    /* \"#utility.yul\":173:174   */\n  0x00\n    /* \"#utility.yul\":166:181   */\n  revert\n    /* \"Bank.sol\":60:1827  contract Bank{... */\ntag_10:\n  dataSize(sub_0)\n  dup1\n  dataOffset(sub_0)\n  0x00\n  codecopy\n  0x00\n  return\nstop\n\nsub_0: assembly {\n        /* \"Bank.sol\":60:1827  contract Bank{... */\n      mstore(0x40, 0x80)\n      jumpi(tag_1, lt(calldatasize, 0x04))\n      shr(0xe0, calldataload(0x00))\n      dup1\n      0x25a17545\n      eq\n      tag_2\n      jumpi\n      dup1\n      0x3ccfd60b\n      eq\n      tag_3\n      jumpi\n      dup1\n      0x4dde2e63\n      eq\n      tag_4\n      jumpi\n      dup1\n      0x8da5cb5b\n      eq\n      tag_5\n      jumpi\n      dup1\n      0xbc11fa42\n      eq\n      tag_6\n      jumpi\n      dup1\n      0xd0e30db0\n      eq\n      tag_7\n      jumpi\n    tag_1:\n      revert(0x00, 0x00)\n        /* \"Bank.sol\":355:399  address[] public topThree = new address[](3) */\n    tag_2:\n      callvalue\n      dup1\n      iszero\n      tag_8\n      jumpi\n      revert(0x00, 0x00)\n    tag_8:\n      pop\n      tag_9\n      0x04\n      dup1\n      calldatasize\n      sub\n      dup2\n      add\n      swap1\n      tag_10\n      swap2\n      swap1\n      tag_11\n      jump\t// in\n    tag_10:\n      tag_12\n      jump\t// in\n    tag_9:\n      mload(0x40)\n      tag_13\n      swap2\n      swap1\n      tag_14\n      jump\t// in\n    tag_13:\n      mload(0x40)\n      dup1\n      swap2\n      sub\n      swap1\n      return\n        /* \"Bank.sol\":1708:1824  function  withdraw() public payable onlyOwner {... */\n    tag_3:\n      tag_15\n      tag_16\n      jump\t// in\n    tag_15:\n      stop\n        /* \"Bank.sol\":270:301  address[] public addressAccount */\n    tag_4:\n      callvalue\n      dup1\n      iszero\n      tag_17\n      jumpi\n      revert(0x00, 0x00)\n    tag_17:\n      pop\n      tag_18\n      0x04\n      dup1\n      calldatasize\n      sub\n      dup2\n      add\n      swap1\n      tag_19\n      swap2\n      swap1\n      tag_11\n      jump\t// in\n    tag_19:\n      tag_20\n      jump\t// in\n    tag_18:\n      mload(0x40)\n      tag_21\n      swap2\n      swap1\n      tag_14\n      jump\t// in\n    tag_21:\n      mload(0x40)\n      dup1\n      swap2\n      sub\n      swap1\n      return\n        /* \"Bank.sol\":108:137  address payable public  owner */\n    tag_5:\n      callvalue\n      dup1\n      iszero\n      tag_22\n      jumpi\n      revert(0x00, 0x00)\n    tag_22:\n      pop\n      tag_23\n      tag_24\n      jump\t// in\n    tag_23:\n      mload(0x40)\n      tag_25\n      swap2\n      swap1\n      tag_26\n      jump\t// in\n    tag_25:\n      mload(0x40)\n      dup1\n      swap2\n      sub\n      swap1\n      return\n        /* \"Bank.sol\":644:746  function showBanlance() external view returns (uint256){... */\n    tag_6:\n      callvalue\n      dup1\n      iszero\n      tag_27\n      jumpi\n      revert(0x00, 0x00)\n    tag_27:\n      pop\n      tag_28\n      tag_29\n      jump\t// in\n    tag_28:\n      mload(0x40)\n      tag_30\n      swap2\n      swap1\n      tag_31\n      jump\t// in\n    tag_30:\n      mload(0x40)\n      dup1\n      swap2\n      sub\n      swap1\n      return\n        /* \"Bank.sol\":550:636  function deposit() external payable {... */\n    tag_7:\n      tag_32\n      tag_33\n      jump\t// in\n    tag_32:\n      stop\n        /* \"Bank.sol\":355:399  address[] public topThree = new address[](3) */\n    tag_12:\n      0x03\n      dup2\n      dup2\n      sload\n      dup2\n      lt\n      tag_34\n      jumpi\n      0x00\n      dup1\n      revert\n    tag_34:\n      swap1\n      0x00\n      mstore\n      keccak256(0x00, 0x20)\n      add\n      0x00\n      swap2\n      pop\n      sload\n      swap1\n      0x0100\n      exp\n      swap1\n      div\n      0xffffffffffffffffffffffffffffffffffffffff\n      and\n      dup2\n      jump\t// out\n        /* \"Bank.sol\":1708:1824  function  withdraw() public payable onlyOwner {... */\n    tag_16:\n        /* \"Bank.sol\":1617:1622  owner */\n      0x00\n      0x00\n      swap1\n      sload\n      swap1\n      0x0100\n      exp\n      swap1\n      div\n      0xffffffffffffffffffffffffffffffffffffffff\n      and\n        /* \"Bank.sol\":1603:1622  msg.sender == owner */\n      0xffffffffffffffffffffffffffffffffffffffff\n      and\n        /* \"Bank.sol\":1603:1613  msg.sender */\n      caller\n        /* \"Bank.sol\":1603:1622  msg.sender == owner */\n      0xffffffffffffffffffffffffffffffffffffffff\n      and\n      eq\n        /* \"Bank.sol\":1595:1644  require(msg.sender == owner,\"mast owner address\") */\n      tag_37\n      jumpi\n      mload(0x40)\n      0x08c379a000000000000000000000000000000000000000000000000000000000\n      dup2\n      mstore\n      0x04\n      add\n      tag_38\n      swap1\n      tag_39\n      jump\t// in\n    tag_38:\n      mload(0x40)\n      dup1\n      swap2\n      sub\n      swap1\n      revert\n    tag_37:\n        /* \"Bank.sol\":1773:1783  msg.sender */\n      caller\n        /* \"Bank.sol\":1765:1793  payable(msg.sender).transfer */\n      0xffffffffffffffffffffffffffffffffffffffff\n      and\n        /* \"Bank.sol\":1765:1816  payable(msg.sender).transfer(address(this).balance) */\n      0x08fc\n        /* \"Bank.sol\":1794:1815  address(this).balance */\n      selfbalance\n        /* \"Bank.sol\":1765:1816  payable(msg.sender).transfer(address(this).balance) */\n      swap1\n      dup2\n      iszero\n      mul\n      swap1\n      mload(0x40)\n      0x00\n      mload(0x40)\n      dup1\n      dup4\n      sub\n      dup2\n      dup6\n      dup9\n      dup9\n      call\n      swap4\n      pop\n      pop\n      pop\n      pop\n      iszero\n      dup1\n      iszero\n      tag_42\n      jumpi\n      returndatacopy(0x00, 0x00, returndatasize)\n      revert(0x00, returndatasize)\n    tag_42:\n      pop\n        /* \"Bank.sol\":1708:1824  function  withdraw() public payable onlyOwner {... */\n      jump\t// out\n        /* \"Bank.sol\":270:301  address[] public addressAccount */\n    tag_20:\n      0x02\n      dup2\n      dup2\n      sload\n      dup2\n      lt\n      tag_43\n      jumpi\n      0x00\n      dup1\n      revert\n    tag_43:\n      swap1\n      0x00\n      mstore\n      keccak256(0x00, 0x20)\n      add\n      0x00\n      swap2\n      pop\n      sload\n      swap1\n      0x0100\n      exp\n      swap1\n      div\n      0xffffffffffffffffffffffffffffffffffffffff\n      and\n      dup2\n      jump\t// out\n        /* \"Bank.sol\":108:137  address payable public  owner */\n    tag_24:\n      0x00\n      0x00\n      swap1\n      sload\n      swap1\n      0x0100\n      exp\n      swap1\n      div\n      0xffffffffffffffffffffffffffffffffffffffff\n      and\n      dup2\n      jump\t// out\n        /* \"Bank.sol\":644:746  function showBanlance() external view returns (uint256){... */\n    tag_29:\n        /* \"Bank.sol\":691:698  uint256 */\n      0x00\n        /* \"Bank.sol\":717:738  address(this).balance */\n      selfbalance\n        /* \"Bank.sol\":710:738  return address(this).balance */\n      swap1\n      pop\n        /* \"Bank.sol\":644:746  function showBanlance() external view returns (uint256){... */\n      swap1\n      jump\t// out\n        /* \"Bank.sol\":550:636  function deposit() external payable {... */\n    tag_33:\n        /* \"Bank.sol\":597:628  transfer(msg.sender, msg.value) */\n      tag_47\n        /* \"Bank.sol\":606:616  msg.sender */\n      caller\n        /* \"Bank.sol\":618:627  msg.value */\n      callvalue\n        /* \"Bank.sol\":597:605  transfer */\n      tag_48\n        /* \"Bank.sol\":597:628  transfer(msg.sender, msg.value) */\n      jump\t// in\n    tag_47:\n        /* \"Bank.sol\":550:636  function deposit() external payable {... */\n      jump\t// out\n        /* \"Bank.sol\":789:1556  function transfer(address _address, uint value) internal   {... */\n    tag_48:\n        /* \"Bank.sol\":876:877  0 */\n      0x00\n        /* \"Bank.sol\":868:873  value */\n      dup2\n        /* \"Bank.sol\":868:877  value > 0 */\n      gt\n        /* \"Bank.sol\":860:904  require(value > 0,\"Must be greater than 0.\") */\n      tag_50\n      jumpi\n      mload(0x40)\n      0x08c379a000000000000000000000000000000000000000000000000000000000\n      dup2\n      mstore\n      0x04\n      add\n      tag_51\n      swap1\n      tag_52\n      jump\t// in\n    tag_51:\n      mload(0x40)\n      dup1\n      swap2\n      sub\n      swap1\n      revert\n    tag_50:\n        /* \"Bank.sol\":951:952  0 */\n      0x00\n        /* \"Bank.sol\":920:937  addressAccountMap */\n      0x01\n        /* \"Bank.sol\":920:947  addressAccountMap[_address] */\n      0x00\n        /* \"Bank.sol\":938:946  _address */\n      dup5\n        /* \"Bank.sol\":920:947  addressAccountMap[_address] */\n      0xffffffffffffffffffffffffffffffffffffffff\n      and\n      0xffffffffffffffffffffffffffffffffffffffff\n      and\n      dup2\n      mstore\n      0x20\n      add\n      swap1\n      dup2\n      mstore\n      0x20\n      add\n      0x00\n      keccak256\n      sload\n        /* \"Bank.sol\":920:952  addressAccountMap[_address] == 0 */\n      sub\n        /* \"Bank.sol\":917:1161  if(addressAccountMap[_address] == 0){... */\n      tag_53\n      jumpi\n        /* \"Bank.sol\":1000:1005  value */\n      dup1\n        /* \"Bank.sol\":970:987  addressAccountMap */\n      0x01\n        /* \"Bank.sol\":970:997  addressAccountMap[_address] */\n      0x00\n        /* \"Bank.sol\":988:996  _address */\n      dup5\n        /* \"Bank.sol\":970:997  addressAccountMap[_address] */\n      0xffffffffffffffffffffffffffffffffffffffff\n      and\n      0xffffffffffffffffffffffffffffffffffffffff\n      and\n      dup2\n      mstore\n      0x20\n      add\n      swap1\n      dup2\n      mstore\n      0x20\n      add\n      0x00\n      keccak256\n        /* \"Bank.sol\":970:1005  addressAccountMap[_address] = value */\n      dup2\n      swap1\n      sstore\n      pop\n        /* \"Bank.sol\":1020:1034  addressAccount */\n      0x02\n        /* \"Bank.sol\":1040:1048  _address */\n      dup3\n        /* \"Bank.sol\":1020:1049  addressAccount.push(_address) */\n      swap1\n      dup1\n      0x01\n      dup2\n      sload\n      add\n      dup1\n      dup3\n      sstore\n      dup1\n      swap2\n      pop\n      pop\n      0x01\n      swap1\n      sub\n      swap1\n      0x00\n      mstore\n      keccak256(0x00, 0x20)\n      add\n      0x00\n      swap1\n      swap2\n      swap1\n      swap2\n      swap1\n      swap2\n      0x0100\n      exp\n      dup2\n      sload\n      dup2\n      0xffffffffffffffffffffffffffffffffffffffff\n      mul\n      not\n      and\n      swap1\n      dup4\n      0xffffffffffffffffffffffffffffffffffffffff\n      and\n      mul\n      or\n      swap1\n      sstore\n      pop\n        /* \"Bank.sol\":917:1161  if(addressAccountMap[_address] == 0){... */\n      jump(tag_55)\n    tag_53:\n        /* \"Bank.sol\":1144:1149  value */\n      dup1\n        /* \"Bank.sol\":1114:1131  addressAccountMap */\n      0x01\n        /* \"Bank.sol\":1114:1141  addressAccountMap[_address] */\n      0x00\n        /* \"Bank.sol\":1132:1140  _address */\n      dup5\n        /* \"Bank.sol\":1114:1141  addressAccountMap[_address] */\n      0xffffffffffffffffffffffffffffffffffffffff\n      and\n      0xffffffffffffffffffffffffffffffffffffffff\n      and\n      dup2\n      mstore\n      0x20\n      add\n      swap1\n      dup2\n      mstore\n      0x20\n      add\n      0x00\n      keccak256\n      sload\n        /* \"Bank.sol\":1114:1149  addressAccountMap[_address] + value */\n      tag_56\n      swap2\n      swap1\n      tag_57\n      jump\t// in\n    tag_56:\n        /* \"Bank.sol\":1084:1101  addressAccountMap */\n      0x01\n        /* \"Bank.sol\":1084:1111  addressAccountMap[_address] */\n      0x00\n        /* \"Bank.sol\":1102:1110  _address */\n      dup5\n        /* \"Bank.sol\":1084:1111  addressAccountMap[_address] */\n      0xffffffffffffffffffffffffffffffffffffffff\n      and\n      0xffffffffffffffffffffffffffffffffffffffff\n      and\n      dup2\n      mstore\n      0x20\n      add\n      swap1\n      dup2\n      mstore\n      0x20\n      add\n      0x00\n      keccak256\n        /* \"Bank.sol\":1084:1149  addressAccountMap[_address] = addressAccountMap[_address] + value */\n      dup2\n      swap1\n      sstore\n      pop\n        /* \"Bank.sol\":917:1161  if(addressAccountMap[_address] == 0){... */\n    tag_55:\n        /* \"Bank.sol\":1177:1184  uint8 i */\n      0x00\n        /* \"Bank.sol\":1187:1188  0 */\n      0x00\n        /* \"Bank.sol\":1177:1188  uint8 i = 0 */\n      swap1\n      pop\n        /* \"Bank.sol\":1173:1549  for(uint8 i = 0; i < 3; i++){... */\n    tag_58:\n        /* \"Bank.sol\":1194:1195  3 */\n      0x03\n        /* \"Bank.sol\":1190:1191  i */\n      dup2\n        /* \"Bank.sol\":1190:1195  i < 3 */\n      0xff\n      and\n      lt\n        /* \"Bank.sol\":1173:1549  for(uint8 i = 0; i < 3; i++){... */\n      iszero\n      tag_59\n      jumpi\n        /* \"Bank.sol\":1217:1233  address vaddress */\n      0x00\n        /* \"Bank.sol\":1236:1244  topThree */\n      0x03\n        /* \"Bank.sol\":1245:1246  i */\n      dup3\n        /* \"Bank.sol\":1236:1247  topThree[i] */\n      0xff\n      and\n      dup2\n      sload\n      dup2\n      lt\n      tag_61\n      jumpi\n      tag_62\n      tag_63\n      jump\t// in\n    tag_62:\n    tag_61:\n      swap1\n      0x00\n      mstore\n      keccak256(0x00, 0x20)\n      add\n      0x00\n      swap1\n      sload\n      swap1\n      0x0100\n      exp\n      swap1\n      div\n      0xffffffffffffffffffffffffffffffffffffffff\n      and\n        /* \"Bank.sol\":1217:1247  address vaddress = topThree[i] */\n      swap1\n      pop\n        /* \"Bank.sol\":1261:1272  uint vvalue */\n      0x00\n        /* \"Bank.sol\":1275:1292  addressAccountMap */\n      0x01\n        /* \"Bank.sol\":1275:1302  addressAccountMap[vaddress] */\n      0x00\n        /* \"Bank.sol\":1293:1301  vaddress */\n      dup4\n        /* \"Bank.sol\":1275:1302  addressAccountMap[vaddress] */\n      0xffffffffffffffffffffffffffffffffffffffff\n      and\n      0xffffffffffffffffffffffffffffffffffffffff\n      and\n      dup2\n      mstore\n      0x20\n      add\n      swap1\n      dup2\n      mstore\n      0x20\n      add\n      0x00\n      keccak256\n      sload\n        /* \"Bank.sol\":1261:1302  uint vvalue = addressAccountMap[vaddress] */\n      swap1\n      pop\n        /* \"Bank.sol\":1329:1335  vvalue */\n      dup1\n        /* \"Bank.sol\":1321:1326  value */\n      dup5\n        /* \"Bank.sol\":1321:1335  value > vvalue */\n      gt\n        /* \"Bank.sol\":1318:1538  if(value > vvalue){... */\n      iszero\n      tag_65\n      jumpi\n        /* \"Bank.sol\":1371:1378  uint8 j */\n      0x00\n        /* \"Bank.sol\":1381:1382  2 */\n      0x02\n        /* \"Bank.sol\":1371:1382  uint8 j = 2 */\n      swap1\n      pop\n        /* \"Bank.sol\":1367:1462  for(uint8 j = 2; j > i; j--){... */\n    tag_66:\n        /* \"Bank.sol\":1388:1389  i */\n      dup4\n        /* \"Bank.sol\":1384:1389  j > i */\n      0xff\n      and\n        /* \"Bank.sol\":1384:1385  j */\n      dup2\n        /* \"Bank.sol\":1384:1389  j > i */\n      0xff\n      and\n      gt\n        /* \"Bank.sol\":1367:1462  for(uint8 j = 2; j > i; j--){... */\n      iszero\n      tag_67\n      jumpi\n        /* \"Bank.sol\":1429:1437  topThree */\n      0x03\n        /* \"Bank.sol\":1442:1443  1 */\n      0x01\n        /* \"Bank.sol\":1438:1439  j */\n      dup3\n        /* \"Bank.sol\":1438:1443  j - 1 */\n      tag_69\n      swap2\n      swap1\n      tag_70\n      jump\t// in\n    tag_69:\n        /* \"Bank.sol\":1429:1444  topThree[j - 1] */\n      0xff\n      and\n      dup2\n      sload\n      dup2\n      lt\n      tag_71\n      jumpi\n      tag_72\n      tag_63\n      jump\t// in\n    tag_72:\n    tag_71:\n      swap1\n      0x00\n      mstore\n      keccak256(0x00, 0x20)\n      add\n      0x00\n      swap1\n      sload\n      swap1\n      0x0100\n      exp\n      swap1\n      div\n      0xffffffffffffffffffffffffffffffffffffffff\n      and\n        /* \"Bank.sol\":1415:1423  topThree */\n      0x03\n        /* \"Bank.sol\":1424:1425  j */\n      dup3\n        /* \"Bank.sol\":1415:1426  topThree[j] */\n      0xff\n      and\n      dup2\n      sload\n      dup2\n      lt\n      tag_74\n      jumpi\n      tag_75\n      tag_63\n      jump\t// in\n    tag_75:\n    tag_74:\n      swap1\n      0x00\n      mstore\n      keccak256(0x00, 0x20)\n      add\n      0x00\n        /* \"Bank.sol\":1415:1444  topThree[j] = topThree[j - 1] */\n      0x0100\n      exp\n      dup2\n      sload\n      dup2\n      0xffffffffffffffffffffffffffffffffffffffff\n      mul\n      not\n      and\n      swap1\n      dup4\n      0xffffffffffffffffffffffffffffffffffffffff\n      and\n      mul\n      or\n      swap1\n      sstore\n      pop\n        /* \"Bank.sol\":1391:1394  j-- */\n      dup1\n      dup1\n      tag_77\n      swap1\n      tag_78\n      jump\t// in\n    tag_77:\n      swap2\n      pop\n      pop\n        /* \"Bank.sol\":1367:1462  for(uint8 j = 2; j > i; j--){... */\n      jump(tag_66)\n    tag_67:\n      pop\n        /* \"Bank.sol\":1492:1500  _address */\n      dup5\n        /* \"Bank.sol\":1478:1486  topThree */\n      0x03\n        /* \"Bank.sol\":1487:1488  i */\n      dup5\n        /* \"Bank.sol\":1478:1489  topThree[i] */\n      0xff\n      and\n      dup2\n      sload\n      dup2\n      lt\n      tag_79\n      jumpi\n      tag_80\n      tag_63\n      jump\t// in\n    tag_80:\n    tag_79:\n      swap1\n      0x00\n      mstore\n      keccak256(0x00, 0x20)\n      add\n      0x00\n        /* \"Bank.sol\":1478:1500  topThree[i] = _address */\n      0x0100\n      exp\n      dup2\n      sload\n      dup2\n      0xffffffffffffffffffffffffffffffffffffffff\n      mul\n      not\n      and\n      swap1\n      dup4\n      0xffffffffffffffffffffffffffffffffffffffff\n      and\n      mul\n      or\n      swap1\n      sstore\n      pop\n        /* \"Bank.sol\":1517:1522  break */\n      pop\n      pop\n      jump(tag_59)\n        /* \"Bank.sol\":1318:1538  if(value > vvalue){... */\n    tag_65:\n        /* \"Bank.sol\":1201:1549  {... */\n      pop\n      pop\n        /* \"Bank.sol\":1197:1200  i++ */\n      dup1\n      dup1\n      0x01\n      add\n      swap2\n      pop\n      pop\n        /* \"Bank.sol\":1173:1549  for(uint8 i = 0; i < 3; i++){... */\n      jump(tag_58)\n    tag_59:\n      pop\n        /* \"Bank.sol\":789:1556  function transfer(address _address, uint value) internal   {... */\n      pop\n      pop\n      jump\t// out\n        /* \"#utility.yul\":88:205   */\n    tag_83:\n        /* \"#utility.yul\":197:198   */\n      0x00\n        /* \"#utility.yul\":194:195   */\n      0x00\n        /* \"#utility.yul\":187:199   */\n      revert\n        /* \"#utility.yul\":334:411   */\n    tag_85:\n        /* \"#utility.yul\":371:378   */\n      0x00\n        /* \"#utility.yul\":400:405   */\n      dup2\n        /* \"#utility.yul\":389:405   */\n      swap1\n      pop\n        /* \"#utility.yul\":334:411   */\n      swap2\n      swap1\n      pop\n      jump\t// out\n        /* \"#utility.yul\":417:539   */\n    tag_86:\n        /* \"#utility.yul\":490:514   */\n      tag_107\n        /* \"#utility.yul\":508:513   */\n      dup2\n        /* \"#utility.yul\":490:514   */\n      tag_85\n      jump\t// in\n    tag_107:\n        /* \"#utility.yul\":483:488   */\n      dup2\n        /* \"#utility.yul\":480:515   */\n      eq\n        /* \"#utility.yul\":470:533   */\n      tag_108\n      jumpi\n        /* \"#utility.yul\":529:530   */\n      0x00\n        /* \"#utility.yul\":526:527   */\n      0x00\n        /* \"#utility.yul\":519:531   */\n      revert\n        /* \"#utility.yul\":470:533   */\n    tag_108:\n        /* \"#utility.yul\":417:539   */\n      pop\n      jump\t// out\n        /* \"#utility.yul\":545:684   */\n    tag_87:\n        /* \"#utility.yul\":591:596   */\n      0x00\n        /* \"#utility.yul\":629:635   */\n      dup2\n        /* \"#utility.yul\":616:636   */\n      calldataload\n        /* \"#utility.yul\":607:636   */\n      swap1\n      pop\n        /* \"#utility.yul\":645:678   */\n      tag_110\n        /* \"#utility.yul\":672:677   */\n      dup2\n        /* \"#utility.yul\":645:678   */\n      tag_86\n      jump\t// in\n    tag_110:\n        /* \"#utility.yul\":545:684   */\n      swap3\n      swap2\n      pop\n      pop\n      jump\t// out\n        /* \"#utility.yul\":690:1019   */\n    tag_11:\n        /* \"#utility.yul\":749:755   */\n      0x00\n        /* \"#utility.yul\":798:800   */\n      0x20\n        /* \"#utility.yul\":786:795   */\n      dup3\n        /* \"#utility.yul\":777:784   */\n      dup5\n        /* \"#utility.yul\":773:796   */\n      sub\n        /* \"#utility.yul\":769:801   */\n      slt\n        /* \"#utility.yul\":766:885   */\n      iszero\n      tag_112\n      jumpi\n        /* \"#utility.yul\":804:883   */\n      tag_113\n      tag_83\n      jump\t// in\n    tag_113:\n        /* \"#utility.yul\":766:885   */\n    tag_112:\n        /* \"#utility.yul\":924:925   */\n      0x00\n        /* \"#utility.yul\":949:1002   */\n      tag_114\n        /* \"#utility.yul\":994:1001   */\n      dup5\n        /* \"#utility.yul\":985:991   */\n      dup3\n        /* \"#utility.yul\":974:983   */\n      dup6\n        /* \"#utility.yul\":970:992   */\n      add\n        /* \"#utility.yul\":949:1002   */\n      tag_87\n      jump\t// in\n    tag_114:\n        /* \"#utility.yul\":939:1002   */\n      swap2\n      pop\n        /* \"#utility.yul\":895:1012   */\n      pop\n        /* \"#utility.yul\":690:1019   */\n      swap3\n      swap2\n      pop\n      pop\n      jump\t// out\n        /* \"#utility.yul\":1025:1151   */\n    tag_88:\n        /* \"#utility.yul\":1062:1069   */\n      0x00\n        /* \"#utility.yul\":1102:1144   */\n      0xffffffffffffffffffffffffffffffffffffffff\n        /* \"#utility.yul\":1095:1100   */\n      dup3\n        /* \"#utility.yul\":1091:1145   */\n      and\n        /* \"#utility.yul\":1080:1145   */\n      swap1\n      pop\n        /* \"#utility.yul\":1025:1151   */\n      swap2\n      swap1\n      pop\n      jump\t// out\n        /* \"#utility.yul\":1157:1253   */\n    tag_89:\n        /* \"#utility.yul\":1194:1201   */\n      0x00\n        /* \"#utility.yul\":1223:1247   */\n      tag_117\n        /* \"#utility.yul\":1241:1246   */\n      dup3\n        /* \"#utility.yul\":1223:1247   */\n      tag_88\n      jump\t// in\n    tag_117:\n        /* \"#utility.yul\":1212:1247   */\n      swap1\n      pop\n        /* \"#utility.yul\":1157:1253   */\n      swap2\n      swap1\n      pop\n      jump\t// out\n        /* \"#utility.yul\":1259:1377   */\n    tag_90:\n        /* \"#utility.yul\":1346:1370   */\n      tag_119\n        /* \"#utility.yul\":1364:1369   */\n      dup2\n        /* \"#utility.yul\":1346:1370   */\n      tag_89\n      jump\t// in\n    tag_119:\n        /* \"#utility.yul\":1341:1344   */\n      dup3\n        /* \"#utility.yul\":1334:1371   */\n      mstore\n        /* \"#utility.yul\":1259:1377   */\n      pop\n      pop\n      jump\t// out\n        /* \"#utility.yul\":1383:1605   */\n    tag_14:\n        /* \"#utility.yul\":1476:1480   */\n      0x00\n        /* \"#utility.yul\":1514:1516   */\n      0x20\n        /* \"#utility.yul\":1503:1512   */\n      dup3\n        /* \"#utility.yul\":1499:1517   */\n      add\n        /* \"#utility.yul\":1491:1517   */\n      swap1\n      pop\n        /* \"#utility.yul\":1527:1598   */\n      tag_121\n        /* \"#utility.yul\":1595:1596   */\n      0x00\n        /* \"#utility.yul\":1584:1593   */\n      dup4\n        /* \"#utility.yul\":1580:1597   */\n      add\n        /* \"#utility.yul\":1571:1577   */\n      dup5\n        /* \"#utility.yul\":1527:1598   */\n      tag_90\n      jump\t// in\n    tag_121:\n        /* \"#utility.yul\":1383:1605   */\n      swap3\n      swap2\n      pop\n      pop\n      jump\t// out\n        /* \"#utility.yul\":1611:1715   */\n    tag_91:\n        /* \"#utility.yul\":1656:1663   */\n      0x00\n        /* \"#utility.yul\":1685:1709   */\n      tag_123\n        /* \"#utility.yul\":1703:1708   */\n      dup3\n        /* \"#utility.yul\":1685:1709   */\n      tag_88\n      jump\t// in\n    tag_123:\n        /* \"#utility.yul\":1674:1709   */\n      swap1\n      pop\n        /* \"#utility.yul\":1611:1715   */\n      swap2\n      swap1\n      pop\n      jump\t// out\n        /* \"#utility.yul\":1721:1863   */\n    tag_92:\n        /* \"#utility.yul\":1824:1856   */\n      tag_125\n        /* \"#utility.yul\":1850:1855   */\n      dup2\n        /* \"#utility.yul\":1824:1856   */\n      tag_91\n      jump\t// in\n    tag_125:\n        /* \"#utility.yul\":1819:1822   */\n      dup3\n        /* \"#utility.yul\":1812:1857   */\n      mstore\n        /* \"#utility.yul\":1721:1863   */\n      pop\n      pop\n      jump\t// out\n        /* \"#utility.yul\":1869:2123   */\n    tag_26:\n        /* \"#utility.yul\":1978:1982   */\n      0x00\n        /* \"#utility.yul\":2016:2018   */\n      0x20\n        /* \"#utility.yul\":2005:2014   */\n      dup3\n        /* \"#utility.yul\":2001:2019   */\n      add\n        /* \"#utility.yul\":1993:2019   */\n      swap1\n      pop\n        /* \"#utility.yul\":2029:2116   */\n      tag_127\n        /* \"#utility.yul\":2113:2114   */\n      0x00\n        /* \"#utility.yul\":2102:2111   */\n      dup4\n        /* \"#utility.yul\":2098:2115   */\n      add\n        /* \"#utility.yul\":2089:2095   */\n      dup5\n        /* \"#utility.yul\":2029:2116   */\n      tag_92\n      jump\t// in\n    tag_127:\n        /* \"#utility.yul\":1869:2123   */\n      swap3\n      swap2\n      pop\n      pop\n      jump\t// out\n        /* \"#utility.yul\":2129:2247   */\n    tag_93:\n        /* \"#utility.yul\":2216:2240   */\n      tag_129\n        /* \"#utility.yul\":2234:2239   */\n      dup2\n        /* \"#utility.yul\":2216:2240   */\n      tag_85\n      jump\t// in\n    tag_129:\n        /* \"#utility.yul\":2211:2214   */\n      dup3\n        /* \"#utility.yul\":2204:2241   */\n      mstore\n        /* \"#utility.yul\":2129:2247   */\n      pop\n      pop\n      jump\t// out\n        /* \"#utility.yul\":2253:2475   */\n    tag_31:\n        /* \"#utility.yul\":2346:2350   */\n      0x00\n        /* \"#utility.yul\":2384:2386   */\n      0x20\n        /* \"#utility.yul\":2373:2382   */\n      dup3\n        /* \"#utility.yul\":2369:2387   */\n      add\n        /* \"#utility.yul\":2361:2387   */\n      swap1\n      pop\n        /* \"#utility.yul\":2397:2468   */\n      tag_131\n        /* \"#utility.yul\":2465:2466   */\n      0x00\n        /* \"#utility.yul\":2454:2463   */\n      dup4\n        /* \"#utility.yul\":2450:2467   */\n      add\n        /* \"#utility.yul\":2441:2447   */\n      dup5\n        /* \"#utility.yul\":2397:2468   */\n      tag_93\n      jump\t// in\n    tag_131:\n        /* \"#utility.yul\":2253:2475   */\n      swap3\n      swap2\n      pop\n      pop\n      jump\t// out\n        /* \"#utility.yul\":2481:2650   */\n    tag_94:\n        /* \"#utility.yul\":2565:2576   */\n      0x00\n        /* \"#utility.yul\":2599:2605   */\n      dup3\n        /* \"#utility.yul\":2594:2597   */\n      dup3\n        /* \"#utility.yul\":2587:2606   */\n      mstore\n        /* \"#utility.yul\":2639:2643   */\n      0x20\n        /* \"#utility.yul\":2634:2637   */\n      dup3\n        /* \"#utility.yul\":2630:2644   */\n      add\n        /* \"#utility.yul\":2615:2644   */\n      swap1\n      pop\n        /* \"#utility.yul\":2481:2650   */\n      swap3\n      swap2\n      pop\n      pop\n      jump\t// out\n        /* \"#utility.yul\":2656:2824   */\n    tag_95:\n        /* \"#utility.yul\":2796:2816   */\n      0x6d617374206f776e657220616464726573730000000000000000000000000000\n        /* \"#utility.yul\":2792:2793   */\n      0x00\n        /* \"#utility.yul\":2784:2790   */\n      dup3\n        /* \"#utility.yul\":2780:2794   */\n      add\n        /* \"#utility.yul\":2773:2817   */\n      mstore\n        /* \"#utility.yul\":2656:2824   */\n      pop\n      jump\t// out\n        /* \"#utility.yul\":2830:3196   */\n    tag_96:\n        /* \"#utility.yul\":2972:2975   */\n      0x00\n        /* \"#utility.yul\":2993:3060   */\n      tag_135\n        /* \"#utility.yul\":3057:3059   */\n      0x12\n        /* \"#utility.yul\":3052:3055   */\n      dup4\n        /* \"#utility.yul\":2993:3060   */\n      tag_94\n      jump\t// in\n    tag_135:\n        /* \"#utility.yul\":2986:3060   */\n      swap2\n      pop\n        /* \"#utility.yul\":3069:3162   */\n      tag_136\n        /* \"#utility.yul\":3158:3161   */\n      dup3\n        /* \"#utility.yul\":3069:3162   */\n      tag_95\n      jump\t// in\n    tag_136:\n        /* \"#utility.yul\":3187:3189   */\n      0x20\n        /* \"#utility.yul\":3182:3185   */\n      dup3\n        /* \"#utility.yul\":3178:3190   */\n      add\n        /* \"#utility.yul\":3171:3190   */\n      swap1\n      pop\n        /* \"#utility.yul\":2830:3196   */\n      swap2\n      swap1\n      pop\n      jump\t// out\n        /* \"#utility.yul\":3202:3621   */\n    tag_39:\n        /* \"#utility.yul\":3368:3372   */\n      0x00\n        /* \"#utility.yul\":3406:3408   */\n      0x20\n        /* \"#utility.yul\":3395:3404   */\n      dup3\n        /* \"#utility.yul\":3391:3409   */\n      add\n        /* \"#utility.yul\":3383:3409   */\n      swap1\n      pop\n        /* \"#utility.yul\":3455:3464   */\n      dup2\n        /* \"#utility.yul\":3449:3453   */\n      dup2\n        /* \"#utility.yul\":3445:3465   */\n      sub\n        /* \"#utility.yul\":3441:3442   */\n      0x00\n        /* \"#utility.yul\":3430:3439   */\n      dup4\n        /* \"#utility.yul\":3426:3443   */\n      add\n        /* \"#utility.yul\":3419:3466   */\n      mstore\n        /* \"#utility.yul\":3483:3614   */\n      tag_138\n        /* \"#utility.yul\":3609:3613   */\n      dup2\n        /* \"#utility.yul\":3483:3614   */\n      tag_96\n      jump\t// in\n    tag_138:\n        /* \"#utility.yul\":3475:3614   */\n      swap1\n      pop\n        /* \"#utility.yul\":3202:3621   */\n      swap2\n      swap1\n      pop\n      jump\t// out\n        /* \"#utility.yul\":3627:3800   */\n    tag_97:\n        /* \"#utility.yul\":3767:3792   */\n      0x4d7573742062652067726561746572207468616e20302e000000000000000000\n        /* \"#utility.yul\":3763:3764   */\n      0x00\n        /* \"#utility.yul\":3755:3761   */\n      dup3\n        /* \"#utility.yul\":3751:3765   */\n      add\n        /* \"#utility.yul\":3744:3793   */\n      mstore\n        /* \"#utility.yul\":3627:3800   */\n      pop\n      jump\t// out\n        /* \"#utility.yul\":3806:4172   */\n    tag_98:\n        /* \"#utility.yul\":3948:3951   */\n      0x00\n        /* \"#utility.yul\":3969:4036   */\n      tag_141\n        /* \"#utility.yul\":4033:4035   */\n      0x17\n        /* \"#utility.yul\":4028:4031   */\n      dup4\n        /* \"#utility.yul\":3969:4036   */\n      tag_94\n      jump\t// in\n    tag_141:\n        /* \"#utility.yul\":3962:4036   */\n      swap2\n      pop\n        /* \"#utility.yul\":4045:4138   */\n      tag_142\n        /* \"#utility.yul\":4134:4137   */\n      dup3\n        /* \"#utility.yul\":4045:4138   */\n      tag_97\n      jump\t// in\n    tag_142:\n        /* \"#utility.yul\":4163:4165   */\n      0x20\n        /* \"#utility.yul\":4158:4161   */\n      dup3\n        /* \"#utility.yul\":4154:4166   */\n      add\n        /* \"#utility.yul\":4147:4166   */\n      swap1\n      pop\n        /* \"#utility.yul\":3806:4172   */\n      swap2\n      swap1\n      pop\n      jump\t// out\n        /* \"#utility.yul\":4178:4597   */\n    tag_52:\n        /* \"#utility.yul\":4344:4348   */\n      0x00\n        /* \"#utility.yul\":4382:4384   */\n      0x20\n        /* \"#utility.yul\":4371:4380   */\n      dup3\n        /* \"#utility.yul\":4367:4385   */\n      add\n        /* \"#utility.yul\":4359:4385   */\n      swap1\n      pop\n        /* \"#utility.yul\":4431:4440   */\n      dup2\n        /* \"#utility.yul\":4425:4429   */\n      dup2\n        /* \"#utility.yul\":4421:4441   */\n      sub\n        /* \"#utility.yul\":4417:4418   */\n      0x00\n        /* \"#utility.yul\":4406:4415   */\n      dup4\n        /* \"#utility.yul\":4402:4419   */\n      add\n        /* \"#utility.yul\":4395:4442   */\n      mstore\n        /* \"#utility.yul\":4459:4590   */\n      tag_144\n        /* \"#utility.yul\":4585:4589   */\n      dup2\n        /* \"#utility.yul\":4459:4590   */\n      tag_98\n      jump\t// in\n    tag_144:\n        /* \"#utility.yul\":4451:4590   */\n      swap1\n      pop\n        /* \"#utility.yul\":4178:4597   */\n      swap2\n      swap1\n      pop\n      jump\t// out\n        /* \"#utility.yul\":4603:4783   */\n    tag_99:\n        /* \"#utility.yul\":4651:4728   */\n      0x4e487b7100000000000000000000000000000000000000000000000000000000\n        /* \"#utility.yul\":4648:4649   */\n      0x00\n        /* \"#utility.yul\":4641:4729   */\n      mstore\n        /* \"#utility.yul\":4748:4752   */\n      0x11\n        /* \"#utility.yul\":4745:4746   */\n      0x04\n        /* \"#utility.yul\":4738:4753   */\n      mstore\n        /* \"#utility.yul\":4772:4776   */\n      0x24\n        /* \"#utility.yul\":4769:4770   */\n      0x00\n        /* \"#utility.yul\":4762:4777   */\n      revert\n        /* \"#utility.yul\":4789:4980   */\n    tag_57:\n        /* \"#utility.yul\":4829:4832   */\n      0x00\n        /* \"#utility.yul\":4848:4868   */\n      tag_147\n        /* \"#utility.yul\":4866:4867   */\n      dup3\n        /* \"#utility.yul\":4848:4868   */\n      tag_85\n      jump\t// in\n    tag_147:\n        /* \"#utility.yul\":4843:4868   */\n      swap2\n      pop\n        /* \"#utility.yul\":4882:4902   */\n      tag_148\n        /* \"#utility.yul\":4900:4901   */\n      dup4\n        /* \"#utility.yul\":4882:4902   */\n      tag_85\n      jump\t// in\n    tag_148:\n        /* \"#utility.yul\":4877:4902   */\n      swap3\n      pop\n        /* \"#utility.yul\":4925:4926   */\n      dup3\n        /* \"#utility.yul\":4922:4923   */\n      dup3\n        /* \"#utility.yul\":4918:4927   */\n      add\n        /* \"#utility.yul\":4911:4927   */\n      swap1\n      pop\n        /* \"#utility.yul\":4946:4949   */\n      dup1\n        /* \"#utility.yul\":4943:4944   */\n      dup3\n        /* \"#utility.yul\":4940:4950   */\n      gt\n        /* \"#utility.yul\":4937:4973   */\n      iszero\n      tag_149\n      jumpi\n        /* \"#utility.yul\":4953:4971   */\n      tag_150\n      tag_99\n      jump\t// in\n    tag_150:\n        /* \"#utility.yul\":4937:4973   */\n    tag_149:\n        /* \"#utility.yul\":4789:4980   */\n      swap3\n      swap2\n      pop\n      pop\n      jump\t// out\n        /* \"#utility.yul\":4986:5166   */\n    tag_63:\n        /* \"#utility.yul\":5034:5111   */\n      0x4e487b7100000000000000000000000000000000000000000000000000000000\n        /* \"#utility.yul\":5031:5032   */\n      0x00\n        /* \"#utility.yul\":5024:5112   */\n      mstore\n        /* \"#utility.yul\":5131:5135   */\n      0x32\n        /* \"#utility.yul\":5128:5129   */\n      0x04\n        /* \"#utility.yul\":5121:5136   */\n      mstore\n        /* \"#utility.yul\":5155:5159   */\n      0x24\n        /* \"#utility.yul\":5152:5153   */\n      0x00\n        /* \"#utility.yul\":5145:5160   */\n      revert\n        /* \"#utility.yul\":5172:5258   */\n    tag_100:\n        /* \"#utility.yul\":5207:5214   */\n      0x00\n        /* \"#utility.yul\":5247:5251   */\n      0xff\n        /* \"#utility.yul\":5240:5245   */\n      dup3\n        /* \"#utility.yul\":5236:5252   */\n      and\n        /* \"#utility.yul\":5225:5252   */\n      swap1\n      pop\n        /* \"#utility.yul\":5172:5258   */\n      swap2\n      swap1\n      pop\n      jump\t// out\n        /* \"#utility.yul\":5264:5455   */\n    tag_70:\n        /* \"#utility.yul\":5302:5306   */\n      0x00\n        /* \"#utility.yul\":5322:5340   */\n      tag_154\n        /* \"#utility.yul\":5338:5339   */\n      dup3\n        /* \"#utility.yul\":5322:5340   */\n      tag_100\n      jump\t// in\n    tag_154:\n        /* \"#utility.yul\":5317:5340   */\n      swap2\n      pop\n        /* \"#utility.yul\":5354:5372   */\n      tag_155\n        /* \"#utility.yul\":5370:5371   */\n      dup4\n        /* \"#utility.yul\":5354:5372   */\n      tag_100\n      jump\t// in\n    tag_155:\n        /* \"#utility.yul\":5349:5372   */\n      swap3\n      pop\n        /* \"#utility.yul\":5396:5397   */\n      dup3\n        /* \"#utility.yul\":5393:5394   */\n      dup3\n        /* \"#utility.yul\":5389:5398   */\n      sub\n        /* \"#utility.yul\":5381:5398   */\n      swap1\n      pop\n        /* \"#utility.yul\":5420:5424   */\n      0xff\n        /* \"#utility.yul\":5414:5418   */\n      dup2\n        /* \"#utility.yul\":5411:5425   */\n      gt\n        /* \"#utility.yul\":5408:5448   */\n      iszero\n      tag_156\n      jumpi\n        /* \"#utility.yul\":5428:5446   */\n      tag_157\n      tag_99\n      jump\t// in\n    tag_157:\n        /* \"#utility.yul\":5408:5448   */\n    tag_156:\n        /* \"#utility.yul\":5264:5455   */\n      swap3\n      swap2\n      pop\n      pop\n      jump\t// out\n        /* \"#utility.yul\":5461:5628   */\n    tag_78:\n        /* \"#utility.yul\":5498:5501   */\n      0x00\n        /* \"#utility.yul\":5521:5543   */\n      tag_159\n        /* \"#utility.yul\":5537:5542   */\n      dup3\n        /* \"#utility.yul\":5521:5543   */\n      tag_100\n      jump\t// in\n    tag_159:\n        /* \"#utility.yul\":5512:5543   */\n      swap2\n      pop\n        /* \"#utility.yul\":5565:5569   */\n      0x00\n        /* \"#utility.yul\":5558:5563   */\n      dup3\n        /* \"#utility.yul\":5555:5570   */\n      sub\n        /* \"#utility.yul\":5552:5593   */\n      tag_160\n      jumpi\n        /* \"#utility.yul\":5573:5591   */\n      tag_161\n      tag_99\n      jump\t// in\n    tag_161:\n        /* \"#utility.yul\":5552:5593   */\n    tag_160:\n        /* \"#utility.yul\":5620:5621   */\n      0x01\n        /* \"#utility.yul\":5613:5618   */\n      dup3\n        /* \"#utility.yul\":5609:5622   */\n      sub\n        /* \"#utility.yul\":5602:5622   */\n      swap1\n      pop\n        /* \"#utility.yul\":5461:5628   */\n      swap2\n      swap1\n      pop\n      jump\t// out\n\n    auxdata: 0xa2646970667358221220a1f9c92b6dabb24231879f9a28e1b5483220e9cb7367612e003c9ff0dfe3807964736f6c634300081e0033\n}\n",
				"bytecode": {
					"linkReferences": {},
					"object": "6080604052600367ffffffffffffffff81111561001f5761001e610156565b5b60405190808252806020026020018201604052801561004d5781602001602082028036833780820191505090505b50600390805190602001906100639291906100b4565b5034801561006f575f5ffd5b50335f5f6101000a81548173ffffffffffffffffffffffffffffffffffffffff021916908373ffffffffffffffffffffffffffffffffffffffff160217905550610183565b828054828255905f5260205f2090810192821561012a579160200282015b82811115610129578251825f6101000a81548173ffffffffffffffffffffffffffffffffffffffff021916908373ffffffffffffffffffffffffffffffffffffffff160217905550916020019190600101906100d2565b5b509050610137919061013b565b5090565b5b80821115610152575f815f90555060010161013c565b5090565b7f4e487b71000000000000000000000000000000000000000000000000000000005f52604160045260245ffd5b610979806101905f395ff3fe608060405260043610610054575f3560e01c806325a17545146100585780633ccfd60b146100945780634dde2e631461009e5780638da5cb5b146100da578063bc11fa4214610104578063d0e30db01461012e575b5f5ffd5b348015610063575f5ffd5b5061007e6004803603810190610079919061068b565b610138565b60405161008b91906106f5565b60405180910390f35b61009c610173565b005b3480156100a9575f5ffd5b506100c460048036038101906100bf919061068b565b610247565b6040516100d191906106f5565b60405180910390f35b3480156100e5575f5ffd5b506100ee610282565b6040516100fb919061072e565b60405180910390f35b34801561010f575f5ffd5b506101186102a6565b6040516101259190610756565b60405180910390f35b6101366102ad565b005b60038181548110610147575f80fd5b905f5260205f20015f915054906101000a900473ffffffffffffffffffffffffffffffffffffffff1681565b5f5f9054906101000a900473ffffffffffffffffffffffffffffffffffffffff1673ffffffffffffffffffffffffffffffffffffffff163373ffffffffffffffffffffffffffffffffffffffff1614610201576040517f08c379a00000000000000000000000000000000000000000000000000000000081526004016101f8906107c9565b60405180910390fd5b3373ffffffffffffffffffffffffffffffffffffffff166108fc4790811502906040515f60405180830381858888f19350505050158015610244573d5f5f3e3d5ffd5b50565b60028181548110610256575f80fd5b905f5260205f20015f915054906101000a900473ffffffffffffffffffffffffffffffffffffffff1681565b5f5f9054906101000a900473ffffffffffffffffffffffffffffffffffffffff1681565b5f47905090565b6102b733346102b9565b565b5f81116102fb576040517f08c379a00000000000000000000000000000000000000000000000000000000081526004016102f290610831565b60405180910390fd5b5f60015f8473ffffffffffffffffffffffffffffffffffffffff1673ffffffffffffffffffffffffffffffffffffffff1681526020019081526020015f2054036103e6578060015f8473ffffffffffffffffffffffffffffffffffffffff1673ffffffffffffffffffffffffffffffffffffffff1681526020019081526020015f2081905550600282908060018154018082558091505060019003905f5260205f20015f9091909190916101000a81548173ffffffffffffffffffffffffffffffffffffffff021916908373ffffffffffffffffffffffffffffffffffffffff160217905550610471565b8060015f8473ffffffffffffffffffffffffffffffffffffffff1673ffffffffffffffffffffffffffffffffffffffff1681526020019081526020015f205461042f919061087c565b60015f8473ffffffffffffffffffffffffffffffffffffffff1673ffffffffffffffffffffffffffffffffffffffff1681526020019081526020015f20819055505b5f5f90505b60038160ff16101561064f575f60038260ff168154811061049a576104996108af565b5b905f5260205f20015f9054906101000a900473ffffffffffffffffffffffffffffffffffffffff1690505f60015f8373ffffffffffffffffffffffffffffffffffffffff1673ffffffffffffffffffffffffffffffffffffffff1681526020019081526020015f2054905080841115610640575f600290505b8360ff168160ff1611156105db57600360018261053091906108e8565b60ff1681548110610544576105436108af565b5b905f5260205f20015f9054906101000a900473ffffffffffffffffffffffffffffffffffffffff1660038260ff1681548110610583576105826108af565b5b905f5260205f20015f6101000a81548173ffffffffffffffffffffffffffffffffffffffff021916908373ffffffffffffffffffffffffffffffffffffffff16021790555080806105d39061091c565b915050610513565b508460038460ff16815481106105f4576105f36108af565b5b905f5260205f20015f6101000a81548173ffffffffffffffffffffffffffffffffffffffff021916908373ffffffffffffffffffffffffffffffffffffffff160217905550505061064f565b50508080600101915050610476565b505050565b5f5ffd5b5f819050919050565b61066a81610658565b8114610674575f5ffd5b50565b5f8135905061068581610661565b92915050565b5f602082840312156106a05761069f610654565b5b5f6106ad84828501610677565b91505092915050565b5f73ffffffffffffffffffffffffffffffffffffffff82169050919050565b5f6106df826106b6565b9050919050565b6106ef816106d5565b82525050565b5f6020820190506107085f8301846106e6565b92915050565b5f610718826106b6565b9050919050565b6107288161070e565b82525050565b5f6020820190506107415f83018461071f565b92915050565b61075081610658565b82525050565b5f6020820190506107695f830184610747565b92915050565b5f82825260208201905092915050565b7f6d617374206f776e6572206164647265737300000000000000000000000000005f82015250565b5f6107b360128361076f565b91506107be8261077f565b602082019050919050565b5f6020820190508181035f8301526107e0816107a7565b9050919050565b7f4d7573742062652067726561746572207468616e20302e0000000000000000005f82015250565b5f61081b60178361076f565b9150610826826107e7565b602082019050919050565b5f6020820190508181035f8301526108488161080f565b9050919050565b7f4e487b71000000000000000000000000000000000000000000000000000000005f52601160045260245ffd5b5f61088682610658565b915061089183610658565b92508282019050808211156108a9576108a861084f565b5b92915050565b7f4e487b71000000000000000000000000000000000000000000000000000000005f52603260045260245ffd5b5f60ff82169050919050565b5f6108f2826108dc565b91506108fd836108dc565b9250828203905060ff8111156109165761091561084f565b5b92915050565b5f610926826108dc565b91505f82036109385761093761084f565b5b60018203905091905056fea2646970667358221220a1f9c92b6dabb24231879f9a28e1b5483220e9cb7367612e003c9ff0dfe3807964736f6c634300081e0033",
					"opcodes": "PUSH1 0x80 PUSH1 0x40 MSTORE PUSH1 0x3 PUSH8 0xFFFFFFFFFFFFFFFF DUP2 GT ISZERO PUSH2 0x1F JUMPI PUSH2 0x1E PUSH2 0x156 JUMP JUMPDEST JUMPDEST PUSH1 0x40 MLOAD SWAP1 DUP1 DUP3 MSTORE DUP1 PUSH1 0x20 MUL PUSH1 0x20 ADD DUP3 ADD PUSH1 0x40 MSTORE DUP1 ISZERO PUSH2 0x4D JUMPI DUP2 PUSH1 0x20 ADD PUSH1 0x20 DUP3 MUL DUP1 CALLDATASIZE DUP4 CALLDATACOPY DUP1 DUP3 ADD SWAP2 POP POP SWAP1 POP JUMPDEST POP PUSH1 0x3 SWAP1 DUP1 MLOAD SWAP1 PUSH1 0x20 ADD SWAP1 PUSH2 0x63 SWAP3 SWAP2 SWAP1 PUSH2 0xB4 JUMP JUMPDEST POP CALLVALUE DUP1 ISZERO PUSH2 0x6F JUMPI PUSH0 PUSH0 REVERT JUMPDEST POP CALLER PUSH0 PUSH0 PUSH2 0x100 EXP DUP2 SLOAD DUP2 PUSH20 0xFFFFFFFFFFFFFFFFFFFFFFFFFFFFFFFFFFFFFFFF MUL NOT AND SWAP1 DUP4 PUSH20 0xFFFFFFFFFFFFFFFFFFFFFFFFFFFFFFFFFFFFFFFF AND MUL OR SWAP1 SSTORE POP PUSH2 0x183 JUMP JUMPDEST DUP3 DUP1 SLOAD DUP3 DUP3 SSTORE SWAP1 PUSH0 MSTORE PUSH1 0x20 PUSH0 KECCAK256 SWAP1 DUP2 ADD SWAP3 DUP3 ISZERO PUSH2 0x12A JUMPI SWAP2 PUSH1 0x20 MUL DUP3 ADD JUMPDEST DUP3 DUP2 GT ISZERO PUSH2 0x129 JUMPI DUP3 MLOAD DUP3 PUSH0 PUSH2 0x100 EXP DUP2 SLOAD DUP2 PUSH20 0xFFFFFFFFFFFFFFFFFFFFFFFFFFFFFFFFFFFFFFFF MUL NOT AND SWAP1 DUP4 PUSH20 0xFFFFFFFFFFFFFFFFFFFFFFFFFFFFFFFFFFFFFFFF AND MUL OR SWAP1 SSTORE POP SWAP2 PUSH1 0x20 ADD SWAP2 SWAP1 PUSH1 0x1 ADD SWAP1 PUSH2 0xD2 JUMP JUMPDEST JUMPDEST POP SWAP1 POP PUSH2 0x137 SWAP2 SWAP1 PUSH2 0x13B JUMP JUMPDEST POP SWAP1 JUMP JUMPDEST JUMPDEST DUP1 DUP3 GT ISZERO PUSH2 0x152 JUMPI PUSH0 DUP2 PUSH0 SWAP1 SSTORE POP PUSH1 0x1 ADD PUSH2 0x13C JUMP JUMPDEST POP SWAP1 JUMP JUMPDEST PUSH32 0x4E487B7100000000000000000000000000000000000000000000000000000000 PUSH0 MSTORE PUSH1 0x41 PUSH1 0x4 MSTORE PUSH1 0x24 PUSH0 REVERT JUMPDEST PUSH2 0x979 DUP1 PUSH2 0x190 PUSH0 CODECOPY PUSH0 RETURN INVALID PUSH1 0x80 PUSH1 0x40 MSTORE PUSH1 0x4 CALLDATASIZE LT PUSH2 0x54 JUMPI PUSH0 CALLDATALOAD PUSH1 0xE0 SHR DUP1 PUSH4 0x25A17545 EQ PUSH2 0x58 JUMPI DUP1 PUSH4 0x3CCFD60B EQ PUSH2 0x94 JUMPI DUP1 PUSH4 0x4DDE2E63 EQ PUSH2 0x9E JUMPI DUP1 PUSH4 0x8DA5CB5B EQ PUSH2 0xDA JUMPI DUP1 PUSH4 0xBC11FA42 EQ PUSH2 0x104 JUMPI DUP1 PUSH4 0xD0E30DB0 EQ PUSH2 0x12E JUMPI JUMPDEST PUSH0 PUSH0 REVERT JUMPDEST CALLVALUE DUP1 ISZERO PUSH2 0x63 JUMPI PUSH0 PUSH0 REVERT JUMPDEST POP PUSH2 0x7E PUSH1 0x4 DUP1 CALLDATASIZE SUB DUP2 ADD SWAP1 PUSH2 0x79 SWAP2 SWAP1 PUSH2 0x68B JUMP JUMPDEST PUSH2 0x138 JUMP JUMPDEST PUSH1 0x40 MLOAD PUSH2 0x8B SWAP2 SWAP1 PUSH2 0x6F5 JUMP JUMPDEST PUSH1 0x40 MLOAD DUP1 SWAP2 SUB SWAP1 RETURN JUMPDEST PUSH2 0x9C PUSH2 0x173 JUMP JUMPDEST STOP JUMPDEST CALLVALUE DUP1 ISZERO PUSH2 0xA9 JUMPI PUSH0 PUSH0 REVERT JUMPDEST POP PUSH2 0xC4 PUSH1 0x4 DUP1 CALLDATASIZE SUB DUP2 ADD SWAP1 PUSH2 0xBF SWAP2 SWAP1 PUSH2 0x68B JUMP JUMPDEST PUSH2 0x247 JUMP JUMPDEST PUSH1 0x40 MLOAD PUSH2 0xD1 SWAP2 SWAP1 PUSH2 0x6F5 JUMP JUMPDEST PUSH1 0x40 MLOAD DUP1 SWAP2 SUB SWAP1 RETURN JUMPDEST CALLVALUE DUP1 ISZERO PUSH2 0xE5 JUMPI PUSH0 PUSH0 REVERT JUMPDEST POP PUSH2 0xEE PUSH2 0x282 JUMP JUMPDEST PUSH1 0x40 MLOAD PUSH2 0xFB SWAP2 SWAP1 PUSH2 0x72E JUMP JUMPDEST PUSH1 0x40 MLOAD DUP1 SWAP2 SUB SWAP1 RETURN JUMPDEST CALLVALUE DUP1 ISZERO PUSH2 0x10F JUMPI PUSH0 PUSH0 REVERT JUMPDEST POP PUSH2 0x118 PUSH2 0x2A6 JUMP JUMPDEST PUSH1 0x40 MLOAD PUSH2 0x125 SWAP2 SWAP1 PUSH2 0x756 JUMP JUMPDEST PUSH1 0x40 MLOAD DUP1 SWAP2 SUB SWAP1 RETURN JUMPDEST PUSH2 0x136 PUSH2 0x2AD JUMP JUMPDEST STOP JUMPDEST PUSH1 0x3 DUP2 DUP2 SLOAD DUP2 LT PUSH2 0x147 JUMPI PUSH0 DUP1 REVERT JUMPDEST SWAP1 PUSH0 MSTORE PUSH1 0x20 PUSH0 KECCAK256 ADD PUSH0 SWAP2 POP SLOAD SWAP1 PUSH2 0x100 EXP SWAP1 DIV PUSH20 0xFFFFFFFFFFFFFFFFFFFFFFFFFFFFFFFFFFFFFFFF AND DUP2 JUMP JUMPDEST PUSH0 PUSH0 SWAP1 SLOAD SWAP1 PUSH2 0x100 EXP SWAP1 DIV PUSH20 0xFFFFFFFFFFFFFFFFFFFFFFFFFFFFFFFFFFFFFFFF AND PUSH20 0xFFFFFFFFFFFFFFFFFFFFFFFFFFFFFFFFFFFFFFFF AND CALLER PUSH20 0xFFFFFFFFFFFFFFFFFFFFFFFFFFFFFFFFFFFFFFFF AND EQ PUSH2 0x201 JUMPI PUSH1 0x40 MLOAD PUSH32 0x8C379A000000000000000000000000000000000000000000000000000000000 DUP2 MSTORE PUSH1 0x4 ADD PUSH2 0x1F8 SWAP1 PUSH2 0x7C9 JUMP JUMPDEST PUSH1 0x40 MLOAD DUP1 SWAP2 SUB SWAP1 REVERT JUMPDEST CALLER PUSH20 0xFFFFFFFFFFFFFFFFFFFFFFFFFFFFFFFFFFFFFFFF AND PUSH2 0x8FC SELFBALANCE SWAP1 DUP2 ISZERO MUL SWAP1 PUSH1 0x40 MLOAD PUSH0 PUSH1 0x40 MLOAD DUP1 DUP4 SUB DUP2 DUP6 DUP9 DUP9 CALL SWAP4 POP POP POP POP ISZERO DUP1 ISZERO PUSH2 0x244 JUMPI RETURNDATASIZE PUSH0 PUSH0 RETURNDATACOPY RETURNDATASIZE PUSH0 REVERT JUMPDEST POP JUMP JUMPDEST PUSH1 0x2 DUP2 DUP2 SLOAD DUP2 LT PUSH2 0x256 JUMPI PUSH0 DUP1 REVERT JUMPDEST SWAP1 PUSH0 MSTORE PUSH1 0x20 PUSH0 KECCAK256 ADD PUSH0 SWAP2 POP SLOAD SWAP1 PUSH2 0x100 EXP SWAP1 DIV PUSH20 0xFFFFFFFFFFFFFFFFFFFFFFFFFFFFFFFFFFFFFFFF AND DUP2 JUMP JUMPDEST PUSH0 PUSH0 SWAP1 SLOAD SWAP1 PUSH2 0x100 EXP SWAP1 DIV PUSH20 0xFFFFFFFFFFFFFFFFFFFFFFFFFFFFFFFFFFFFFFFF AND DUP2 JUMP JUMPDEST PUSH0 SELFBALANCE SWAP1 POP SWAP1 JUMP JUMPDEST PUSH2 0x2B7 CALLER CALLVALUE PUSH2 0x2B9 JUMP JUMPDEST JUMP JUMPDEST PUSH0 DUP2 GT PUSH2 0x2FB JUMPI PUSH1 0x40 MLOAD PUSH32 0x8C379A000000000000000000000000000000000000000000000000000000000 DUP2 MSTORE PUSH1 0x4 ADD PUSH2 0x2F2 SWAP1 PUSH2 0x831 JUMP JUMPDEST PUSH1 0x40 MLOAD DUP1 SWAP2 SUB SWAP1 REVERT JUMPDEST PUSH0 PUSH1 0x1 PUSH0 DUP5 PUSH20 0xFFFFFFFFFFFFFFFFFFFFFFFFFFFFFFFFFFFFFFFF AND PUSH20 0xFFFFFFFFFFFFFFFFFFFFFFFFFFFFFFFFFFFFFFFF AND DUP2 MSTORE PUSH1 0x20 ADD SWAP1 DUP2 MSTORE PUSH1 0x20 ADD PUSH0 KECCAK256 SLOAD SUB PUSH2 0x3E6 JUMPI DUP1 PUSH1 0x1 PUSH0 DUP5 PUSH20 0xFFFFFFFFFFFFFFFFFFFFFFFFFFFFFFFFFFFFFFFF AND PUSH20 0xFFFFFFFFFFFFFFFFFFFFFFFFFFFFFFFFFFFFFFFF AND DUP2 MSTORE PUSH1 0x20 ADD SWAP1 DUP2 MSTORE PUSH1 0x20 ADD PUSH0 KECCAK256 DUP2 SWAP1 SSTORE POP PUSH1 0x2 DUP3 SWAP1 DUP1 PUSH1 0x1 DUP2 SLOAD ADD DUP1 DUP3 SSTORE DUP1 SWAP2 POP POP PUSH1 0x1 SWAP1 SUB SWAP1 PUSH0 MSTORE PUSH1 0x20 PUSH0 KECCAK256 ADD PUSH0 SWAP1 SWAP2 SWAP1 SWAP2 SWAP1 SWAP2 PUSH2 0x100 EXP DUP2 SLOAD DUP2 PUSH20 0xFFFFFFFFFFFFFFFFFFFFFFFFFFFFFFFFFFFFFFFF MUL NOT AND SWAP1 DUP4 PUSH20 0xFFFFFFFFFFFFFFFFFFFFFFFFFFFFFFFFFFFFFFFF AND MUL OR SWAP1 SSTORE POP PUSH2 0x471 JUMP JUMPDEST DUP1 PUSH1 0x1 PUSH0 DUP5 PUSH20 0xFFFFFFFFFFFFFFFFFFFFFFFFFFFFFFFFFFFFFFFF AND PUSH20 0xFFFFFFFFFFFFFFFFFFFFFFFFFFFFFFFFFFFFFFFF AND DUP2 MSTORE PUSH1 0x20 ADD SWAP1 DUP2 MSTORE PUSH1 0x20 ADD PUSH0 KECCAK256 SLOAD PUSH2 0x42F SWAP2 SWAP1 PUSH2 0x87C JUMP JUMPDEST PUSH1 0x1 PUSH0 DUP5 PUSH20 0xFFFFFFFFFFFFFFFFFFFFFFFFFFFFFFFFFFFFFFFF AND PUSH20 0xFFFFFFFFFFFFFFFFFFFFFFFFFFFFFFFFFFFFFFFF AND DUP2 MSTORE PUSH1 0x20 ADD SWAP1 DUP2 MSTORE PUSH1 0x20 ADD PUSH0 KECCAK256 DUP2 SWAP1 SSTORE POP JUMPDEST PUSH0 PUSH0 SWAP1 POP JUMPDEST PUSH1 0x3 DUP2 PUSH1 0xFF AND LT ISZERO PUSH2 0x64F JUMPI PUSH0 PUSH1 0x3 DUP3 PUSH1 0xFF AND DUP2 SLOAD DUP2 LT PUSH2 0x49A JUMPI PUSH2 0x499 PUSH2 0x8AF JUMP JUMPDEST JUMPDEST SWAP1 PUSH0 MSTORE PUSH1 0x20 PUSH0 KECCAK256 ADD PUSH0 SWAP1 SLOAD SWAP1 PUSH2 0x100 EXP SWAP1 DIV PUSH20 0xFFFFFFFFFFFFFFFFFFFFFFFFFFFFFFFFFFFFFFFF AND SWAP1 POP PUSH0 PUSH1 0x1 PUSH0 DUP4 PUSH20 0xFFFFFFFFFFFFFFFFFFFFFFFFFFFFFFFFFFFFFFFF AND PUSH20 0xFFFFFFFFFFFFFFFFFFFFFFFFFFFFFFFFFFFFFFFF AND DUP2 MSTORE PUSH1 0x20 ADD SWAP1 DUP2 MSTORE PUSH1 0x20 ADD PUSH0 KECCAK256 SLOAD SWAP1 POP DUP1 DUP5 GT ISZERO PUSH2 0x640 JUMPI PUSH0 PUSH1 0x2 SWAP1 POP JUMPDEST DUP4 PUSH1 0xFF AND DUP2 PUSH1 0xFF AND GT ISZERO PUSH2 0x5DB JUMPI PUSH1 0x3 PUSH1 0x1 DUP3 PUSH2 0x530 SWAP2 SWAP1 PUSH2 0x8E8 JUMP JUMPDEST PUSH1 0xFF AND DUP2 SLOAD DUP2 LT PUSH2 0x544 JUMPI PUSH2 0x543 PUSH2 0x8AF JUMP JUMPDEST JUMPDEST SWAP1 PUSH0 MSTORE PUSH1 0x20 PUSH0 KECCAK256 ADD PUSH0 SWAP1 SLOAD SWAP1 PUSH2 0x100 EXP SWAP1 DIV PUSH20 0xFFFFFFFFFFFFFFFFFFFFFFFFFFFFFFFFFFFFFFFF AND PUSH1 0x3 DUP3 PUSH1 0xFF AND DUP2 SLOAD DUP2 LT PUSH2 0x583 JUMPI PUSH2 0x582 PUSH2 0x8AF JUMP JUMPDEST JUMPDEST SWAP1 PUSH0 MSTORE PUSH1 0x20 PUSH0 KECCAK256 ADD PUSH0 PUSH2 0x100 EXP DUP2 SLOAD DUP2 PUSH20 0xFFFFFFFFFFFFFFFFFFFFFFFFFFFFFFFFFFFFFFFF MUL NOT AND SWAP1 DUP4 PUSH20 0xFFFFFFFFFFFFFFFFFFFFFFFFFFFFFFFFFFFFFFFF AND MUL OR SWAP1 SSTORE POP DUP1 DUP1 PUSH2 0x5D3 SWAP1 PUSH2 0x91C JUMP JUMPDEST SWAP2 POP POP PUSH2 0x513 JUMP JUMPDEST POP DUP5 PUSH1 0x3 DUP5 PUSH1 0xFF AND DUP2 SLOAD DUP2 LT PUSH2 0x5F4 JUMPI PUSH2 0x5F3 PUSH2 0x8AF JUMP JUMPDEST JUMPDEST SWAP1 PUSH0 MSTORE PUSH1 0x20 PUSH0 KECCAK256 ADD PUSH0 PUSH2 0x100 EXP DUP2 SLOAD DUP2 PUSH20 0xFFFFFFFFFFFFFFFFFFFFFFFFFFFFFFFFFFFFFFFF MUL NOT AND SWAP1 DUP4 PUSH20 0xFFFFFFFFFFFFFFFFFFFFFFFFFFFFFFFFFFFFFFFF AND MUL OR SWAP1 SSTORE POP POP POP PUSH2 0x64F JUMP JUMPDEST POP POP DUP1 DUP1 PUSH1 0x1 ADD SWAP2 POP POP PUSH2 0x476 JUMP JUMPDEST POP POP POP JUMP JUMPDEST PUSH0 PUSH0 REVERT JUMPDEST PUSH0 DUP2 SWAP1 POP SWAP2 SWAP1 POP JUMP JUMPDEST PUSH2 0x66A DUP2 PUSH2 0x658 JUMP JUMPDEST DUP2 EQ PUSH2 0x674 JUMPI PUSH0 PUSH0 REVERT JUMPDEST POP JUMP JUMPDEST PUSH0 DUP2 CALLDATALOAD SWAP1 POP PUSH2 0x685 DUP2 PUSH2 0x661 JUMP JUMPDEST SWAP3 SWAP2 POP POP JUMP JUMPDEST PUSH0 PUSH1 0x20 DUP3 DUP5 SUB SLT ISZERO PUSH2 0x6A0 JUMPI PUSH2 0x69F PUSH2 0x654 JUMP JUMPDEST JUMPDEST PUSH0 PUSH2 0x6AD DUP5 DUP3 DUP6 ADD PUSH2 0x677 JUMP JUMPDEST SWAP2 POP POP SWAP3 SWAP2 POP POP JUMP JUMPDEST PUSH0 PUSH20 0xFFFFFFFFFFFFFFFFFFFFFFFFFFFFFFFFFFFFFFFF DUP3 AND SWAP1 POP SWAP2 SWAP1 POP JUMP JUMPDEST PUSH0 PUSH2 0x6DF DUP3 PUSH2 0x6B6 JUMP JUMPDEST SWAP1 POP SWAP2 SWAP1 POP JUMP JUMPDEST PUSH2 0x6EF DUP2 PUSH2 0x6D5 JUMP JUMPDEST DUP3 MSTORE POP POP JUMP JUMPDEST PUSH0 PUSH1 0x20 DUP3 ADD SWAP1 POP PUSH2 0x708 PUSH0 DUP4 ADD DUP5 PUSH2 0x6E6 JUMP JUMPDEST SWAP3 SWAP2 POP POP JUMP JUMPDEST PUSH0 PUSH2 0x718 DUP3 PUSH2 0x6B6 JUMP JUMPDEST SWAP1 POP SWAP2 SWAP1 POP JUMP JUMPDEST PUSH2 0x728 DUP2 PUSH2 0x70E JUMP JUMPDEST DUP3 MSTORE POP POP JUMP JUMPDEST PUSH0 PUSH1 0x20 DUP3 ADD SWAP1 POP PUSH2 0x741 PUSH0 DUP4 ADD DUP5 PUSH2 0x71F JUMP JUMPDEST SWAP3 SWAP2 POP POP JUMP JUMPDEST PUSH2 0x750 DUP2 PUSH2 0x658 JUMP JUMPDEST DUP3 MSTORE POP POP JUMP JUMPDEST PUSH0 PUSH1 0x20 DUP3 ADD SWAP1 POP PUSH2 0x769 PUSH0 DUP4 ADD DUP5 PUSH2 0x747 JUMP JUMPDEST SWAP3 SWAP2 POP POP JUMP JUMPDEST PUSH0 DUP3 DUP3 MSTORE PUSH1 0x20 DUP3 ADD SWAP1 POP SWAP3 SWAP2 POP POP JUMP JUMPDEST PUSH32 0x6D617374206F776E657220616464726573730000000000000000000000000000 PUSH0 DUP3 ADD MSTORE POP JUMP JUMPDEST PUSH0 PUSH2 0x7B3 PUSH1 0x12 DUP4 PUSH2 0x76F JUMP JUMPDEST SWAP2 POP PUSH2 0x7BE DUP3 PUSH2 0x77F JUMP JUMPDEST PUSH1 0x20 DUP3 ADD SWAP1 POP SWAP2 SWAP1 POP JUMP JUMPDEST PUSH0 PUSH1 0x20 DUP3 ADD SWAP1 POP DUP2 DUP2 SUB PUSH0 DUP4 ADD MSTORE PUSH2 0x7E0 DUP2 PUSH2 0x7A7 JUMP JUMPDEST SWAP1 POP SWAP2 SWAP1 POP JUMP JUMPDEST PUSH32 0x4D7573742062652067726561746572207468616E20302E000000000000000000 PUSH0 DUP3 ADD MSTORE POP JUMP JUMPDEST PUSH0 PUSH2 0x81B PUSH1 0x17 DUP4 PUSH2 0x76F JUMP JUMPDEST SWAP2 POP PUSH2 0x826 DUP3 PUSH2 0x7E7 JUMP JUMPDEST PUSH1 0x20 DUP3 ADD SWAP1 POP SWAP2 SWAP1 POP JUMP JUMPDEST PUSH0 PUSH1 0x20 DUP3 ADD SWAP1 POP DUP2 DUP2 SUB PUSH0 DUP4 ADD MSTORE PUSH2 0x848 DUP2 PUSH2 0x80F JUMP JUMPDEST SWAP1 POP SWAP2 SWAP1 POP JUMP JUMPDEST PUSH32 0x4E487B7100000000000000000000000000000000000000000000000000000000 PUSH0 MSTORE PUSH1 0x11 PUSH1 0x4 MSTORE PUSH1 0x24 PUSH0 REVERT JUMPDEST PUSH0 PUSH2 0x886 DUP3 PUSH2 0x658 JUMP JUMPDEST SWAP2 POP PUSH2 0x891 DUP4 PUSH2 0x658 JUMP JUMPDEST SWAP3 POP DUP3 DUP3 ADD SWAP1 POP DUP1 DUP3 GT ISZERO PUSH2 0x8A9 JUMPI PUSH2 0x8A8 PUSH2 0x84F JUMP JUMPDEST JUMPDEST SWAP3 SWAP2 POP POP JUMP JUMPDEST PUSH32 0x4E487B7100000000000000000000000000000000000000000000000000000000 PUSH0 MSTORE PUSH1 0x32 PUSH1 0x4 MSTORE PUSH1 0x24 PUSH0 REVERT JUMPDEST PUSH0 PUSH1 0xFF DUP3 AND SWAP1 POP SWAP2 SWAP1 POP JUMP JUMPDEST PUSH0 PUSH2 0x8F2 DUP3 PUSH2 0x8DC JUMP JUMPDEST SWAP2 POP PUSH2 0x8FD DUP4 PUSH2 0x8DC JUMP JUMPDEST SWAP3 POP DUP3 DUP3 SUB SWAP1 POP PUSH1 0xFF DUP2 GT ISZERO PUSH2 0x916 JUMPI PUSH2 0x915 PUSH2 0x84F JUMP JUMPDEST JUMPDEST SWAP3 SWAP2 POP POP JUMP JUMPDEST PUSH0 PUSH2 0x926 DUP3 PUSH2 0x8DC JUMP JUMPDEST SWAP2 POP PUSH0 DUP3 SUB PUSH2 0x938 JUMPI PUSH2 0x937 PUSH2 0x84F JUMP JUMPDEST JUMPDEST PUSH1 0x1 DUP3 SUB SWAP1 POP SWAP2 SWAP1 POP JUMP INVALID LOG2 PUSH5 0x6970667358 0x22 SLT KECCAK256 LOG1 EXTDELEGATECALL 0xC9 0x2B PUSH14 0xABB24231879F9A28E1B5483220E9 0xCB PUSH20 0x67612E003C9FF0DFE3807964736F6C634300081E STOP CALLER "
				},
				"gasEstimates": {
					"creation": {
						"codeDepositCost": "485000",
						"executionCost": "infinite",
						"totalCost": "infinite"
					},
					"external": {
						"addressAccount(uint256)": "4966",
						"deposit()": "infinite",
						"owner()": "2551",
						"showBanlance()": "400",
						"topThree(uint256)": "4922",
						"withdraw()": "infinite"
					},
					"internal": {
						"transfer(address,uint256)": "infinite"
					}
				},
				"methodIdentifiers": {
					"addressAccount(uint256)": "4dde2e63",
					"deposit()": "d0e30db0",
					"owner()": "8da5cb5b",
					"showBanlance()": "bc11fa42",
					"topThree(uint256)": "25a17545",
					"withdraw()": "3ccfd60b"
				}
			},
			"storageLayout": {
				"storage": [
					{
						"astId": 3,
						"contract": "Bank.sol:Bank",
						"label": "owner",
						"offset": 0,
						"slot": "0",
						"type": "t_address_payable"
					},
					{
						"astId": 7,
						"contract": "Bank.sol:Bank",
						"label": "addressAccountMap",
						"offset": 0,
						"slot": "1",
						"type": "t_mapping(t_address,t_uint256)"
					},
					{
						"astId": 10,
						"contract": "Bank.sol:Bank",
						"label": "addressAccount",
						"offset": 0,
						"slot": "2",
						"type": "t_array(t_address)dyn_storage"
					},
					{
						"astId": 18,
						"contract": "Bank.sol:Bank",
						"label": "topThree",
						"offset": 0,
						"slot": "3",
						"type": "t_array(t_address)dyn_storage"
					}
				],
				"types": {
					"t_address": {
						"encoding": "inplace",
						"label": "address",
						"numberOfBytes": "20"
					},
					"t_address_payable": {
						"encoding": "inplace",
						"label": "address payable",
						"numberOfBytes": "20"
					},
					"t_array(t_address)dyn_storage": {
						"base": "t_address",
						"encoding": "dynamic_array",
						"label": "address[]",
						"numberOfBytes": "32"
					},
					"t_mapping(t_address,t_uint256)": {
						"encoding": "mapping",
						"key": "t_address",
						"label": "mapping(address => uint256)",
						"numberOfBytes": "32",
						"value": "t_uint256"
					},
					"t_uint256": {
						"encoding": "inplace",
						"label": "uint256",
						"numberOfBytes": "32"
					}
				}
			},
			"userdoc": {
				"kind": "user",
				"methods": {},
				"version": 1
			}
		}
	}
}