{
	"FunctionModifier.sol": {
		"FunctionModifier": {
			"abi": [
				{
					"inputs": [],
					"name": "count",
					"outputs": [
						{
							"internalType": "uint256",
							"name": "",
							"type": "uint256"
						}
					],
					"stateMutability": "view",
					"type": "function"
				},
				{
					"inputs": [],
					"name": "dec",
					"outputs": [],
					"stateMutability": "nonpayable",
					"type": "function"
				},
				{
					"inputs": [],
					"name": "inc",
					"outputs": [],
					"stateMutability": "nonpayable",
					"type": "function"
				},
				{
					"inputs": [
						{
							"internalType": "uint256",
							"name": "_x",
							"type": "uint256"
						}
					],
					"name": "incBy",
					"outputs": [],
					"stateMutability": "nonpayable",
					"type": "function"
				},
				{
					"inputs": [],
					"name": "paused",
					"outputs": [
						{
							"internalType": "bool",
							"name": "",
							"type": "bool"
						}
					],
					"stateMutability": "view",
					"type": "function"
				},
				{
					"inputs": [
						{
							"internalType": "bool",
							"name": "_paused",
							"type": "bool"
						}
					],
					"name": "setPause",
					"outputs": [],
					"stateMutability": "nonpayable",
					"type": "function"
				}
			],
			"devdoc": {
				"kind": "dev",
				"methods": {},
				"version": 1
			},
			"evm": {
				"assembly": "    /* \"FunctionModifier.sol\":60:644  contract FunctionModifier{... */\n  mstore(0x40, 0x80)\n  callvalue\n  dup1\n  iszero\n  tag_1\n  jumpi\n  revert(0x00, 0x00)\ntag_1:\n  pop\n  dataSize(sub_0)\n  dup1\n  dataOffset(sub_0)\n  0x00\n  codecopy\n  0x00\n  return\nstop\n\nsub_0: assembly {\n        /* \"FunctionModifier.sol\":60:644  contract FunctionModifier{... */\n      mstore(0x40, 0x80)\n      callvalue\n      dup1\n      iszero\n      tag_1\n      jumpi\n      revert(0x00, 0x00)\n    tag_1:\n      pop\n      jumpi(tag_2, lt(calldatasize, 0x04))\n      shr(0xe0, calldataload(0x00))\n      dup1\n      0x06661abd\n      eq\n      tag_3\n      jumpi\n      dup1\n      0x371303c0\n      eq\n      tag_4\n      jumpi\n      dup1\n      0x5c975abb\n      eq\n      tag_5\n      jumpi\n      dup1\n      0x70119d06\n      eq\n      tag_6\n      jumpi\n      dup1\n      0xb3bcfa82\n      eq\n      tag_7\n      jumpi\n      dup1\n      0xbedb86fb\n      eq\n      tag_8\n      jumpi\n    tag_2:\n      revert(0x00, 0x00)\n        /* \"FunctionModifier.sol\":117:134  uint public count */\n    tag_3:\n      tag_9\n      tag_10\n      jump\t// in\n    tag_9:\n      mload(0x40)\n      tag_11\n      swap2\n      swap1\n      tag_12\n      jump\t// in\n    tag_11:\n      mload(0x40)\n      dup1\n      swap2\n      sub\n      swap1\n      return\n        /* \"FunctionModifier.sol\":316:383  function inc() external whenNotPaused {... */\n    tag_4:\n      tag_13\n      tag_14\n      jump\t// in\n    tag_13:\n      stop\n        /* \"FunctionModifier.sol\":92:110  bool public paused */\n    tag_5:\n      tag_15\n      tag_16\n      jump\t// in\n    tag_15:\n      mload(0x40)\n      tag_17\n      swap2\n      swap1\n      tag_18\n      jump\t// in\n    tag_17:\n      mload(0x40)\n      dup1\n      swap2\n      sub\n      swap1\n      return\n        /* \"FunctionModifier.sol\":556:641  function incBy(uint _x) external whenNotPaused cap( _x){... */\n    tag_6:\n      tag_19\n      0x04\n      dup1\n      calldatasize\n      sub\n      dup2\n      add\n      swap1\n      tag_20\n      swap2\n      swap1\n      tag_21\n      jump\t// in\n    tag_20:\n      tag_22\n      jump\t// in\n    tag_19:\n      stop\n        /* \"FunctionModifier.sol\":391:458  function dec() external whenNotPaused {... */\n    tag_7:\n      tag_23\n      tag_24\n      jump\t// in\n    tag_23:\n      stop\n        /* \"FunctionModifier.sol\":143:219  function setPause(bool _paused) external {... */\n    tag_8:\n      tag_25\n      0x04\n      dup1\n      calldatasize\n      sub\n      dup2\n      add\n      swap1\n      tag_26\n      swap2\n      swap1\n      tag_27\n      jump\t// in\n    tag_26:\n      tag_28\n      jump\t// in\n    tag_25:\n      stop\n        /* \"FunctionModifier.sol\":117:134  uint public count */\n    tag_10:\n      sload(0x01)\n      dup2\n      jump\t// out\n        /* \"FunctionModifier.sol\":316:383  function inc() external whenNotPaused {... */\n    tag_14:\n        /* \"FunctionModifier.sol\":271:277  paused */\n      0x00\n      0x00\n      swap1\n      sload\n      swap1\n      0x0100\n      exp\n      swap1\n      div\n      0xff\n      and\n        /* \"FunctionModifier.sol\":270:277  !paused */\n      iszero\n        /* \"FunctionModifier.sol\":262:288  require(!paused, \"paused\") */\n      tag_30\n      jumpi\n      mload(0x40)\n      0x08c379a000000000000000000000000000000000000000000000000000000000\n      dup2\n      mstore\n      0x04\n      add\n      tag_31\n      swap1\n      tag_32\n      jump\t// in\n    tag_31:\n      mload(0x40)\n      dup1\n      swap2\n      sub\n      swap1\n      revert\n    tag_30:\n        /* \"FunctionModifier.sol\":374:375  1 */\n      0x01\n        /* \"FunctionModifier.sol\":365:370  count */\n      dup1\n      0x00\n        /* \"FunctionModifier.sol\":365:375  count += 1 */\n      dup3\n      dup3\n      sload\n      tag_34\n      swap2\n      swap1\n      tag_35\n      jump\t// in\n    tag_34:\n      swap3\n      pop\n      pop\n      dup2\n      swap1\n      sstore\n      pop\n        /* \"FunctionModifier.sol\":316:383  function inc() external whenNotPaused {... */\n      jump\t// out\n        /* \"FunctionModifier.sol\":92:110  bool public paused */\n    tag_16:\n      0x00\n      0x00\n      swap1\n      sload\n      swap1\n      0x0100\n      exp\n      swap1\n      div\n      0xff\n      and\n      dup2\n      jump\t// out\n        /* \"FunctionModifier.sol\":556:641  function incBy(uint _x) external whenNotPaused cap( _x){... */\n    tag_22:\n        /* \"FunctionModifier.sol\":271:277  paused */\n      0x00\n      0x00\n      swap1\n      sload\n      swap1\n      0x0100\n      exp\n      swap1\n      div\n      0xff\n      and\n        /* \"FunctionModifier.sol\":270:277  !paused */\n      iszero\n        /* \"FunctionModifier.sol\":262:288  require(!paused, \"paused\") */\n      tag_37\n      jumpi\n      mload(0x40)\n      0x08c379a000000000000000000000000000000000000000000000000000000000\n      dup2\n      mstore\n      0x04\n      add\n      tag_38\n      swap1\n      tag_32\n      jump\t// in\n    tag_38:\n      mload(0x40)\n      dup1\n      swap2\n      sub\n      swap1\n      revert\n    tag_37:\n        /* \"FunctionModifier.sol\":608:610  _x */\n      dup1\n        /* \"FunctionModifier.sol\":512:515  100 */\n      0x64\n        /* \"FunctionModifier.sol\":507:509  _x */\n      dup2\n        /* \"FunctionModifier.sol\":507:515  _x < 100 */\n      lt\n        /* \"FunctionModifier.sol\":499:528  require(_x < 100, \"x >= 100\") */\n      tag_40\n      jumpi\n      mload(0x40)\n      0x08c379a000000000000000000000000000000000000000000000000000000000\n      dup2\n      mstore\n      0x04\n      add\n      tag_41\n      swap1\n      tag_42\n      jump\t// in\n    tag_41:\n      mload(0x40)\n      dup1\n      swap2\n      sub\n      swap1\n      revert\n    tag_40:\n        /* \"FunctionModifier.sol\":631:633  _x */\n      dup2\n        /* \"FunctionModifier.sol\":622:627  count */\n      0x01\n      0x00\n        /* \"FunctionModifier.sol\":622:633  count += _x */\n      dup3\n      dup3\n      sload\n      tag_44\n      swap2\n      swap1\n      tag_35\n      jump\t// in\n    tag_44:\n      swap3\n      pop\n      pop\n      dup2\n      swap1\n      sstore\n      pop\n        /* \"FunctionModifier.sol\":299:300  _ */\n      pop\n        /* \"FunctionModifier.sol\":556:641  function incBy(uint _x) external whenNotPaused cap( _x){... */\n      pop\n      jump\t// out\n        /* \"FunctionModifier.sol\":391:458  function dec() external whenNotPaused {... */\n    tag_24:\n        /* \"FunctionModifier.sol\":271:277  paused */\n      0x00\n      0x00\n      swap1\n      sload\n      swap1\n      0x0100\n      exp\n      swap1\n      div\n      0xff\n      and\n        /* \"FunctionModifier.sol\":270:277  !paused */\n      iszero\n        /* \"FunctionModifier.sol\":262:288  require(!paused, \"paused\") */\n      tag_46\n      jumpi\n      mload(0x40)\n      0x08c379a000000000000000000000000000000000000000000000000000000000\n      dup2\n      mstore\n      0x04\n      add\n      tag_47\n      swap1\n      tag_32\n      jump\t// in\n    tag_47:\n      mload(0x40)\n      dup1\n      swap2\n      sub\n      swap1\n      revert\n    tag_46:\n        /* \"FunctionModifier.sol\":449:450  1 */\n      0x01\n        /* \"FunctionModifier.sol\":440:445  count */\n      dup1\n      0x00\n        /* \"FunctionModifier.sol\":440:450  count -= 1 */\n      dup3\n      dup3\n      sload\n      tag_49\n      swap2\n      swap1\n      tag_50\n      jump\t// in\n    tag_49:\n      swap3\n      pop\n      pop\n      dup2\n      swap1\n      sstore\n      pop\n        /* \"FunctionModifier.sol\":391:458  function dec() external whenNotPaused {... */\n      jump\t// out\n        /* \"FunctionModifier.sol\":143:219  function setPause(bool _paused) external {... */\n    tag_28:\n        /* \"FunctionModifier.sol\":204:211  _paused */\n      dup1\n        /* \"FunctionModifier.sol\":195:201  paused */\n      0x00\n      0x00\n        /* \"FunctionModifier.sol\":195:211  paused = _paused */\n      0x0100\n      exp\n      dup2\n      sload\n      dup2\n      0xff\n      mul\n      not\n      and\n      swap1\n      dup4\n      iszero\n      iszero\n      mul\n      or\n      swap1\n      sstore\n      pop\n        /* \"FunctionModifier.sol\":143:219  function setPause(bool _paused) external {... */\n      pop\n      jump\t// out\n        /* \"#utility.yul\":7:84   */\n    tag_52:\n        /* \"#utility.yul\":44:51   */\n      0x00\n        /* \"#utility.yul\":73:78   */\n      dup2\n        /* \"#utility.yul\":62:78   */\n      swap1\n      pop\n        /* \"#utility.yul\":7:84   */\n      swap2\n      swap1\n      pop\n      jump\t// out\n        /* \"#utility.yul\":90:208   */\n    tag_53:\n        /* \"#utility.yul\":177:201   */\n      tag_72\n        /* \"#utility.yul\":195:200   */\n      dup2\n        /* \"#utility.yul\":177:201   */\n      tag_52\n      jump\t// in\n    tag_72:\n        /* \"#utility.yul\":172:175   */\n      dup3\n        /* \"#utility.yul\":165:202   */\n      mstore\n        /* \"#utility.yul\":90:208   */\n      pop\n      pop\n      jump\t// out\n        /* \"#utility.yul\":214:436   */\n    tag_12:\n        /* \"#utility.yul\":307:311   */\n      0x00\n        /* \"#utility.yul\":345:347   */\n      0x20\n        /* \"#utility.yul\":334:343   */\n      dup3\n        /* \"#utility.yul\":330:348   */\n      add\n        /* \"#utility.yul\":322:348   */\n      swap1\n      pop\n        /* \"#utility.yul\":358:429   */\n      tag_74\n        /* \"#utility.yul\":426:427   */\n      0x00\n        /* \"#utility.yul\":415:424   */\n      dup4\n        /* \"#utility.yul\":411:428   */\n      add\n        /* \"#utility.yul\":402:408   */\n      dup5\n        /* \"#utility.yul\":358:429   */\n      tag_53\n      jump\t// in\n    tag_74:\n        /* \"#utility.yul\":214:436   */\n      swap3\n      swap2\n      pop\n      pop\n      jump\t// out\n        /* \"#utility.yul\":442:532   */\n    tag_54:\n        /* \"#utility.yul\":476:483   */\n      0x00\n        /* \"#utility.yul\":519:524   */\n      dup2\n        /* \"#utility.yul\":512:525   */\n      iszero\n        /* \"#utility.yul\":505:526   */\n      iszero\n        /* \"#utility.yul\":494:526   */\n      swap1\n      pop\n        /* \"#utility.yul\":442:532   */\n      swap2\n      swap1\n      pop\n      jump\t// out\n        /* \"#utility.yul\":538:647   */\n    tag_55:\n        /* \"#utility.yul\":619:640   */\n      tag_77\n        /* \"#utility.yul\":634:639   */\n      dup2\n        /* \"#utility.yul\":619:640   */\n      tag_54\n      jump\t// in\n    tag_77:\n        /* \"#utility.yul\":614:617   */\n      dup3\n        /* \"#utility.yul\":607:641   */\n      mstore\n        /* \"#utility.yul\":538:647   */\n      pop\n      pop\n      jump\t// out\n        /* \"#utility.yul\":653:863   */\n    tag_18:\n        /* \"#utility.yul\":740:744   */\n      0x00\n        /* \"#utility.yul\":778:780   */\n      0x20\n        /* \"#utility.yul\":767:776   */\n      dup3\n        /* \"#utility.yul\":763:781   */\n      add\n        /* \"#utility.yul\":755:781   */\n      swap1\n      pop\n        /* \"#utility.yul\":791:856   */\n      tag_79\n        /* \"#utility.yul\":853:854   */\n      0x00\n        /* \"#utility.yul\":842:851   */\n      dup4\n        /* \"#utility.yul\":838:855   */\n      add\n        /* \"#utility.yul\":829:835   */\n      dup5\n        /* \"#utility.yul\":791:856   */\n      tag_55\n      jump\t// in\n    tag_79:\n        /* \"#utility.yul\":653:863   */\n      swap3\n      swap2\n      pop\n      pop\n      jump\t// out\n        /* \"#utility.yul\":950:1067   */\n    tag_57:\n        /* \"#utility.yul\":1059:1060   */\n      0x00\n        /* \"#utility.yul\":1056:1057   */\n      0x00\n        /* \"#utility.yul\":1049:1061   */\n      revert\n        /* \"#utility.yul\":1196:1318   */\n    tag_59:\n        /* \"#utility.yul\":1269:1293   */\n      tag_84\n        /* \"#utility.yul\":1287:1292   */\n      dup2\n        /* \"#utility.yul\":1269:1293   */\n      tag_52\n      jump\t// in\n    tag_84:\n        /* \"#utility.yul\":1262:1267   */\n      dup2\n        /* \"#utility.yul\":1259:1294   */\n      eq\n        /* \"#utility.yul\":1249:1312   */\n      tag_85\n      jumpi\n        /* \"#utility.yul\":1308:1309   */\n      0x00\n        /* \"#utility.yul\":1305:1306   */\n      0x00\n        /* \"#utility.yul\":1298:1310   */\n      revert\n        /* \"#utility.yul\":1249:1312   */\n    tag_85:\n        /* \"#utility.yul\":1196:1318   */\n      pop\n      jump\t// out\n        /* \"#utility.yul\":1324:1463   */\n    tag_60:\n        /* \"#utility.yul\":1370:1375   */\n      0x00\n        /* \"#utility.yul\":1408:1414   */\n      dup2\n        /* \"#utility.yul\":1395:1415   */\n      calldataload\n        /* \"#utility.yul\":1386:1415   */\n      swap1\n      pop\n        /* \"#utility.yul\":1424:1457   */\n      tag_87\n        /* \"#utility.yul\":1451:1456   */\n      dup2\n        /* \"#utility.yul\":1424:1457   */\n      tag_59\n      jump\t// in\n    tag_87:\n        /* \"#utility.yul\":1324:1463   */\n      swap3\n      swap2\n      pop\n      pop\n      jump\t// out\n        /* \"#utility.yul\":1469:1798   */\n    tag_21:\n        /* \"#utility.yul\":1528:1534   */\n      0x00\n        /* \"#utility.yul\":1577:1579   */\n      0x20\n        /* \"#utility.yul\":1565:1574   */\n      dup3\n        /* \"#utility.yul\":1556:1563   */\n      dup5\n        /* \"#utility.yul\":1552:1575   */\n      sub\n        /* \"#utility.yul\":1548:1580   */\n      slt\n        /* \"#utility.yul\":1545:1664   */\n      iszero\n      tag_89\n      jumpi\n        /* \"#utility.yul\":1583:1662   */\n      tag_90\n      tag_57\n      jump\t// in\n    tag_90:\n        /* \"#utility.yul\":1545:1664   */\n    tag_89:\n        /* \"#utility.yul\":1703:1704   */\n      0x00\n        /* \"#utility.yul\":1728:1781   */\n      tag_91\n        /* \"#utility.yul\":1773:1780   */\n      dup5\n        /* \"#utility.yul\":1764:1770   */\n      dup3\n        /* \"#utility.yul\":1753:1762   */\n      dup6\n        /* \"#utility.yul\":1749:1771   */\n      add\n        /* \"#utility.yul\":1728:1781   */\n      tag_60\n      jump\t// in\n    tag_91:\n        /* \"#utility.yul\":1718:1781   */\n      swap2\n      pop\n        /* \"#utility.yul\":1674:1791   */\n      pop\n        /* \"#utility.yul\":1469:1798   */\n      swap3\n      swap2\n      pop\n      pop\n      jump\t// out\n        /* \"#utility.yul\":1804:1920   */\n    tag_61:\n        /* \"#utility.yul\":1874:1895   */\n      tag_93\n        /* \"#utility.yul\":1889:1894   */\n      dup2\n        /* \"#utility.yul\":1874:1895   */\n      tag_54\n      jump\t// in\n    tag_93:\n        /* \"#utility.yul\":1867:1872   */\n      dup2\n        /* \"#utility.yul\":1864:1896   */\n      eq\n        /* \"#utility.yul\":1854:1914   */\n      tag_94\n      jumpi\n        /* \"#utility.yul\":1910:1911   */\n      0x00\n        /* \"#utility.yul\":1907:1908   */\n      0x00\n        /* \"#utility.yul\":1900:1912   */\n      revert\n        /* \"#utility.yul\":1854:1914   */\n    tag_94:\n        /* \"#utility.yul\":1804:1920   */\n      pop\n      jump\t// out\n        /* \"#utility.yul\":1926:2059   */\n    tag_62:\n        /* \"#utility.yul\":1969:1974   */\n      0x00\n        /* \"#utility.yul\":2007:2013   */\n      dup2\n        /* \"#utility.yul\":1994:2014   */\n      calldataload\n        /* \"#utility.yul\":1985:2014   */\n      swap1\n      pop\n        /* \"#utility.yul\":2023:2053   */\n      tag_96\n        /* \"#utility.yul\":2047:2052   */\n      dup2\n        /* \"#utility.yul\":2023:2053   */\n      tag_61\n      jump\t// in\n    tag_96:\n        /* \"#utility.yul\":1926:2059   */\n      swap3\n      swap2\n      pop\n      pop\n      jump\t// out\n        /* \"#utility.yul\":2065:2388   */\n    tag_27:\n        /* \"#utility.yul\":2121:2127   */\n      0x00\n        /* \"#utility.yul\":2170:2172   */\n      0x20\n        /* \"#utility.yul\":2158:2167   */\n      dup3\n        /* \"#utility.yul\":2149:2156   */\n      dup5\n        /* \"#utility.yul\":2145:2168   */\n      sub\n        /* \"#utility.yul\":2141:2173   */\n      slt\n        /* \"#utility.yul\":2138:2257   */\n      iszero\n      tag_98\n      jumpi\n        /* \"#utility.yul\":2176:2255   */\n      tag_99\n      tag_57\n      jump\t// in\n    tag_99:\n        /* \"#utility.yul\":2138:2257   */\n    tag_98:\n        /* \"#utility.yul\":2296:2297   */\n      0x00\n        /* \"#utility.yul\":2321:2371   */\n      tag_100\n        /* \"#utility.yul\":2363:2370   */\n      dup5\n        /* \"#utility.yul\":2354:2360   */\n      dup3\n        /* \"#utility.yul\":2343:2352   */\n      dup6\n        /* \"#utility.yul\":2339:2361   */\n      add\n        /* \"#utility.yul\":2321:2371   */\n      tag_62\n      jump\t// in\n    tag_100:\n        /* \"#utility.yul\":2311:2371   */\n      swap2\n      pop\n        /* \"#utility.yul\":2267:2381   */\n      pop\n        /* \"#utility.yul\":2065:2388   */\n      swap3\n      swap2\n      pop\n      pop\n      jump\t// out\n        /* \"#utility.yul\":2394:2563   */\n    tag_63:\n        /* \"#utility.yul\":2478:2489   */\n      0x00\n        /* \"#utility.yul\":2512:2518   */\n      dup3\n        /* \"#utility.yul\":2507:2510   */\n      dup3\n        /* \"#utility.yul\":2500:2519   */\n      mstore\n        /* \"#utility.yul\":2552:2556   */\n      0x20\n        /* \"#utility.yul\":2547:2550   */\n      dup3\n        /* \"#utility.yul\":2543:2557   */\n      add\n        /* \"#utility.yul\":2528:2557   */\n      swap1\n      pop\n        /* \"#utility.yul\":2394:2563   */\n      swap3\n      swap2\n      pop\n      pop\n      jump\t// out\n        /* \"#utility.yul\":2569:2725   */\n    tag_64:\n        /* \"#utility.yul\":2709:2717   */\n      0x7061757365640000000000000000000000000000000000000000000000000000\n        /* \"#utility.yul\":2705:2706   */\n      0x00\n        /* \"#utility.yul\":2697:2703   */\n      dup3\n        /* \"#utility.yul\":2693:2707   */\n      add\n        /* \"#utility.yul\":2686:2718   */\n      mstore\n        /* \"#utility.yul\":2569:2725   */\n      pop\n      jump\t// out\n        /* \"#utility.yul\":2731:3096   */\n    tag_65:\n        /* \"#utility.yul\":2873:2876   */\n      0x00\n        /* \"#utility.yul\":2894:2960   */\n      tag_104\n        /* \"#utility.yul\":2958:2959   */\n      0x06\n        /* \"#utility.yul\":2953:2956   */\n      dup4\n        /* \"#utility.yul\":2894:2960   */\n      tag_63\n      jump\t// in\n    tag_104:\n        /* \"#utility.yul\":2887:2960   */\n      swap2\n      pop\n        /* \"#utility.yul\":2969:3062   */\n      tag_105\n        /* \"#utility.yul\":3058:3061   */\n      dup3\n        /* \"#utility.yul\":2969:3062   */\n      tag_64\n      jump\t// in\n    tag_105:\n        /* \"#utility.yul\":3087:3089   */\n      0x20\n        /* \"#utility.yul\":3082:3085   */\n      dup3\n        /* \"#utility.yul\":3078:3090   */\n      add\n        /* \"#utility.yul\":3071:3090   */\n      swap1\n      pop\n        /* \"#utility.yul\":2731:3096   */\n      swap2\n      swap1\n      pop\n      jump\t// out\n        /* \"#utility.yul\":3102:3521   */\n    tag_32:\n        /* \"#utility.yul\":3268:3272   */\n      0x00\n        /* \"#utility.yul\":3306:3308   */\n      0x20\n        /* \"#utility.yul\":3295:3304   */\n      dup3\n        /* \"#utility.yul\":3291:3309   */\n      add\n        /* \"#utility.yul\":3283:3309   */\n      swap1\n      pop\n        /* \"#utility.yul\":3355:3364   */\n      dup2\n        /* \"#utility.yul\":3349:3353   */\n      dup2\n        /* \"#utility.yul\":3345:3365   */\n      sub\n        /* \"#utility.yul\":3341:3342   */\n      0x00\n        /* \"#utility.yul\":3330:3339   */\n      dup4\n        /* \"#utility.yul\":3326:3343   */\n      add\n        /* \"#utility.yul\":3319:3366   */\n      mstore\n        /* \"#utility.yul\":3383:3514   */\n      tag_107\n        /* \"#utility.yul\":3509:3513   */\n      dup2\n        /* \"#utility.yul\":3383:3514   */\n      tag_65\n      jump\t// in\n    tag_107:\n        /* \"#utility.yul\":3375:3514   */\n      swap1\n      pop\n        /* \"#utility.yul\":3102:3521   */\n      swap2\n      swap1\n      pop\n      jump\t// out\n        /* \"#utility.yul\":3527:3707   */\n    tag_66:\n        /* \"#utility.yul\":3575:3652   */\n      0x4e487b7100000000000000000000000000000000000000000000000000000000\n        /* \"#utility.yul\":3572:3573   */\n      0x00\n        /* \"#utility.yul\":3565:3653   */\n      mstore\n        /* \"#utility.yul\":3672:3676   */\n      0x11\n        /* \"#utility.yul\":3669:3670   */\n      0x04\n        /* \"#utility.yul\":3662:3677   */\n      mstore\n        /* \"#utility.yul\":3696:3700   */\n      0x24\n        /* \"#utility.yul\":3693:3694   */\n      0x00\n        /* \"#utility.yul\":3686:3701   */\n      revert\n        /* \"#utility.yul\":3713:3904   */\n    tag_35:\n        /* \"#utility.yul\":3753:3756   */\n      0x00\n        /* \"#utility.yul\":3772:3792   */\n      tag_110\n        /* \"#utility.yul\":3790:3791   */\n      dup3\n        /* \"#utility.yul\":3772:3792   */\n      tag_52\n      jump\t// in\n    tag_110:\n        /* \"#utility.yul\":3767:3792   */\n      swap2\n      pop\n        /* \"#utility.yul\":3806:3826   */\n      tag_111\n        /* \"#utility.yul\":3824:3825   */\n      dup4\n        /* \"#utility.yul\":3806:3826   */\n      tag_52\n      jump\t// in\n    tag_111:\n        /* \"#utility.yul\":3801:3826   */\n      swap3\n      pop\n        /* \"#utility.yul\":3849:3850   */\n      dup3\n        /* \"#utility.yul\":3846:3847   */\n      dup3\n        /* \"#utility.yul\":3842:3851   */\n      add\n        /* \"#utility.yul\":3835:3851   */\n      swap1\n      pop\n        /* \"#utility.yul\":3870:3873   */\n      dup1\n        /* \"#utility.yul\":3867:3868   */\n      dup3\n        /* \"#utility.yul\":3864:3874   */\n      gt\n        /* \"#utility.yul\":3861:3897   */\n      iszero\n      tag_112\n      jumpi\n        /* \"#utility.yul\":3877:3895   */\n      tag_113\n      tag_66\n      jump\t// in\n    tag_113:\n        /* \"#utility.yul\":3861:3897   */\n    tag_112:\n        /* \"#utility.yul\":3713:3904   */\n      swap3\n      swap2\n      pop\n      pop\n      jump\t// out\n        /* \"#utility.yul\":3910:4068   */\n    tag_67:\n        /* \"#utility.yul\":4050:4060   */\n      0x78203e3d20313030000000000000000000000000000000000000000000000000\n        /* \"#utility.yul\":4046:4047   */\n      0x00\n        /* \"#utility.yul\":4038:4044   */\n      dup3\n        /* \"#utility.yul\":4034:4048   */\n      add\n        /* \"#utility.yul\":4027:4061   */\n      mstore\n        /* \"#utility.yul\":3910:4068   */\n      pop\n      jump\t// out\n        /* \"#utility.yul\":4074:4439   */\n    tag_68:\n        /* \"#utility.yul\":4216:4219   */\n      0x00\n        /* \"#utility.yul\":4237:4303   */\n      tag_116\n        /* \"#utility.yul\":4301:4302   */\n      0x08\n        /* \"#utility.yul\":4296:4299   */\n      dup4\n        /* \"#utility.yul\":4237:4303   */\n      tag_63\n      jump\t// in\n    tag_116:\n        /* \"#utility.yul\":4230:4303   */\n      swap2\n      pop\n        /* \"#utility.yul\":4312:4405   */\n      tag_117\n        /* \"#utility.yul\":4401:4404   */\n      dup3\n        /* \"#utility.yul\":4312:4405   */\n      tag_67\n      jump\t// in\n    tag_117:\n        /* \"#utility.yul\":4430:4432   */\n      0x20\n        /* \"#utility.yul\":4425:4428   */\n      dup3\n        /* \"#utility.yul\":4421:4433   */\n      add\n        /* \"#utility.yul\":4414:4433   */\n      swap1\n      pop\n        /* \"#utility.yul\":4074:4439   */\n      swap2\n      swap1\n      pop\n      jump\t// out\n        /* \"#utility.yul\":4445:4864   */\n    tag_42:\n        /* \"#utility.yul\":4611:4615   */\n      0x00\n        /* \"#utility.yul\":4649:4651   */\n      0x20\n        /* \"#utility.yul\":4638:4647   */\n      dup3\n        /* \"#utility.yul\":4634:4652   */\n      add\n        /* \"#utility.yul\":4626:4652   */\n      swap1\n      pop\n        /* \"#utility.yul\":4698:4707   */\n      dup2\n        /* \"#utility.yul\":4692:4696   */\n      dup2\n        /* \"#utility.yul\":4688:4708   */\n      sub\n        /* \"#utility.yul\":4684:4685   */\n      0x00\n        /* \"#utility.yul\":4673:4682   */\n      dup4\n        /* \"#utility.yul\":4669:4686   */\n      add\n        /* \"#utility.yul\":4662:4709   */\n      mstore\n        /* \"#utility.yul\":4726:4857   */\n      tag_119\n        /* \"#utility.yul\":4852:4856   */\n      dup2\n        /* \"#utility.yul\":4726:4857   */\n      tag_68\n      jump\t// in\n    tag_119:\n        /* \"#utility.yul\":4718:4857   */\n      swap1\n      pop\n        /* \"#utility.yul\":4445:4864   */\n      swap2\n      swap1\n      pop\n      jump\t// out\n        /* \"#utility.yul\":4870:5064   */\n    tag_50:\n        /* \"#utility.yul\":4910:4914   */\n      0x00\n        /* \"#utility.yul\":4930:4950   */\n      tag_121\n        /* \"#utility.yul\":4948:4949   */\n      dup3\n        /* \"#utility.yul\":4930:4950   */\n      tag_52\n      jump\t// in\n    tag_121:\n        /* \"#utility.yul\":4925:4950   */\n      swap2\n      pop\n        /* \"#utility.yul\":4964:4984   */\n      tag_122\n        /* \"#utility.yul\":4982:4983   */\n      dup4\n        /* \"#utility.yul\":4964:4984   */\n      tag_52\n      jump\t// in\n    tag_122:\n        /* \"#utility.yul\":4959:4984   */\n      swap3\n      pop\n        /* \"#utility.yul\":5008:5009   */\n      dup3\n        /* \"#utility.yul\":5005:5006   */\n      dup3\n        /* \"#utility.yul\":5001:5010   */\n      sub\n        /* \"#utility.yul\":4993:5010   */\n      swap1\n      pop\n        /* \"#utility.yul\":5032:5033   */\n      dup2\n        /* \"#utility.yul\":5026:5030   */\n      dup2\n        /* \"#utility.yul\":5023:5034   */\n      gt\n        /* \"#utility.yul\":5020:5057   */\n      iszero\n      tag_123\n      jumpi\n        /* \"#utility.yul\":5037:5055   */\n      tag_124\n      tag_66\n      jump\t// in\n    tag_124:\n        /* \"#utility.yul\":5020:5057   */\n    tag_123:\n        /* \"#utility.yul\":4870:5064   */\n      swap3\n      swap2\n      pop\n      pop\n      jump\t// out\n\n    auxdata: 0xa26469706673582212202d17870825ed3a4cb792f35ae9670023c75948ac26ff136aa6e7a227bef7c04564736f6c634300081e0033\n}\n",
				"bytecode": {
					"linkReferences": {},
					"object": "6080604052348015600e575f5ffd5b506105578061001c5f395ff3fe608060405234801561000f575f5ffd5b5060043610610060575f3560e01c806306661abd14610064578063371303c0146100825780635c975abb1461008c57806370119d06146100aa578063b3bcfa82146100c6578063bedb86fb146100d0575b5f5ffd5b61006c6100ec565b60405161007991906102b4565b60405180910390f35b61008a6100f2565b005b61009461015a565b6040516100a191906102e7565b60405180910390f35b6100c460048036038101906100bf919061032e565b61016b565b005b6100ce610219565b005b6100ea60048036038101906100e59190610383565b610281565b005b60015481565b5f5f9054906101000a900460ff1615610140576040517f08c379a000000000000000000000000000000000000000000000000000000000815260040161013790610408565b60405180910390fd5b6001805f8282546101519190610453565b92505081905550565b5f5f9054906101000a900460ff1681565b5f5f9054906101000a900460ff16156101b9576040517f08c379a00000000000000000000000000000000000000000000000000000000081526004016101b090610408565b60405180910390fd5b80606481106101fd576040517f08c379a00000000000000000000000000000000000000000000000000000000081526004016101f4906104d0565b60405180910390fd5b8160015f82825461020e9190610453565b925050819055505050565b5f5f9054906101000a900460ff1615610267576040517f08c379a000000000000000000000000000000000000000000000000000000000815260040161025e90610408565b60405180910390fd5b6001805f82825461027891906104ee565b92505081905550565b805f5f6101000a81548160ff02191690831515021790555050565b5f819050919050565b6102ae8161029c565b82525050565b5f6020820190506102c75f8301846102a5565b92915050565b5f8115159050919050565b6102e1816102cd565b82525050565b5f6020820190506102fa5f8301846102d8565b92915050565b5f5ffd5b61030d8161029c565b8114610317575f5ffd5b50565b5f8135905061032881610304565b92915050565b5f6020828403121561034357610342610300565b5b5f6103508482850161031a565b91505092915050565b610362816102cd565b811461036c575f5ffd5b50565b5f8135905061037d81610359565b92915050565b5f6020828403121561039857610397610300565b5b5f6103a58482850161036f565b91505092915050565b5f82825260208201905092915050565b7f70617573656400000000000000000000000000000000000000000000000000005f82015250565b5f6103f26006836103ae565b91506103fd826103be565b602082019050919050565b5f6020820190508181035f83015261041f816103e6565b9050919050565b7f4e487b71000000000000000000000000000000000000000000000000000000005f52601160045260245ffd5b5f61045d8261029c565b91506104688361029c565b92508282019050808211156104805761047f610426565b5b92915050565b7f78203e3d203130300000000000000000000000000000000000000000000000005f82015250565b5f6104ba6008836103ae565b91506104c582610486565b602082019050919050565b5f6020820190508181035f8301526104e7816104ae565b9050919050565b5f6104f88261029c565b91506105038361029c565b925082820390508181111561051b5761051a610426565b5b9291505056fea26469706673582212202d17870825ed3a4cb792f35ae9670023c75948ac26ff136aa6e7a227bef7c04564736f6c634300081e0033",
					"opcodes": "PUSH1 0x80 PUSH1 0x40 MSTORE CALLVALUE DUP1 ISZERO PUSH1 0xE JUMPI PUSH0 PUSH0 REVERT JUMPDEST POP PUSH2 0x557 DUP1 PUSH2 0x1C PUSH0 CODECOPY PUSH0 RETURN INVALID PUSH1 0x80 PUSH1 0x40 MSTORE CALLVALUE DUP1 ISZERO PUSH2 0xF JUMPI PUSH0 PUSH0 REVERT JUMPDEST POP PUSH1 0x4 CALLDATASIZE LT PUSH2 0x60 JUMPI PUSH0 CALLDATALOAD PUSH1 0xE0 SHR DUP1 PUSH4 0x6661ABD EQ PUSH2 0x64 JUMPI DUP1 PUSH4 0x371303C0 EQ PUSH2 0x82 JUMPI DUP1 PUSH4 0x5C975ABB EQ PUSH2 0x8C JUMPI DUP1 PUSH4 0x70119D06 EQ PUSH2 0xAA JUMPI DUP1 PUSH4 0xB3BCFA82 EQ PUSH2 0xC6 JUMPI DUP1 PUSH4 0xBEDB86FB EQ PUSH2 0xD0 JUMPI JUMPDEST PUSH0 PUSH0 REVERT JUMPDEST PUSH2 0x6C PUSH2 0xEC JUMP JUMPDEST PUSH1 0x40 MLOAD PUSH2 0x79 SWAP2 SWAP1 PUSH2 0x2B4 JUMP JUMPDEST PUSH1 0x40 MLOAD DUP1 SWAP2 SUB SWAP1 RETURN JUMPDEST PUSH2 0x8A PUSH2 0xF2 JUMP JUMPDEST STOP JUMPDEST PUSH2 0x94 PUSH2 0x15A JUMP JUMPDEST PUSH1 0x40 MLOAD PUSH2 0xA1 SWAP2 SWAP1 PUSH2 0x2E7 JUMP JUMPDEST PUSH1 0x40 MLOAD DUP1 SWAP2 SUB SWAP1 RETURN JUMPDEST PUSH2 0xC4 PUSH1 0x4 DUP1 CALLDATASIZE SUB DUP2 ADD SWAP1 PUSH2 0xBF SWAP2 SWAP1 PUSH2 0x32E JUMP JUMPDEST PUSH2 0x16B JUMP JUMPDEST STOP JUMPDEST PUSH2 0xCE PUSH2 0x219 JUMP JUMPDEST STOP JUMPDEST PUSH2 0xEA PUSH1 0x4 DUP1 CALLDATASIZE SUB DUP2 ADD SWAP1 PUSH2 0xE5 SWAP2 SWAP1 PUSH2 0x383 JUMP JUMPDEST PUSH2 0x281 JUMP JUMPDEST STOP JUMPDEST PUSH1 0x1 SLOAD DUP2 JUMP JUMPDEST PUSH0 PUSH0 SWAP1 SLOAD SWAP1 PUSH2 0x100 EXP SWAP1 DIV PUSH1 0xFF AND ISZERO PUSH2 0x140 JUMPI PUSH1 0x40 MLOAD PUSH32 0x8C379A000000000000000000000000000000000000000000000000000000000 DUP2 MSTORE PUSH1 0x4 ADD PUSH2 0x137 SWAP1 PUSH2 0x408 JUMP JUMPDEST PUSH1 0x40 MLOAD DUP1 SWAP2 SUB SWAP1 REVERT JUMPDEST PUSH1 0x1 DUP1 PUSH0 DUP3 DUP3 SLOAD PUSH2 0x151 SWAP2 SWAP1 PUSH2 0x453 JUMP JUMPDEST SWAP3 POP POP DUP2 SWAP1 SSTORE POP JUMP JUMPDEST PUSH0 PUSH0 SWAP1 SLOAD SWAP1 PUSH2 0x100 EXP SWAP1 DIV PUSH1 0xFF AND DUP2 JUMP JUMPDEST PUSH0 PUSH0 SWAP1 SLOAD SWAP1 PUSH2 0x100 EXP SWAP1 DIV PUSH1 0xFF AND ISZERO PUSH2 0x1B9 JUMPI PUSH1 0x40 MLOAD PUSH32 0x8C379A000000000000000000000000000000000000000000000000000000000 DUP2 MSTORE PUSH1 0x4 ADD PUSH2 0x1B0 SWAP1 PUSH2 0x408 JUMP JUMPDEST PUSH1 0x40 MLOAD DUP1 SWAP2 SUB SWAP1 REVERT JUMPDEST DUP1 PUSH1 0x64 DUP2 LT PUSH2 0x1FD JUMPI PUSH1 0x40 MLOAD PUSH32 0x8C379A000000000000000000000000000000000000000000000000000000000 DUP2 MSTORE PUSH1 0x4 ADD PUSH2 0x1F4 SWAP1 PUSH2 0x4D0 JUMP JUMPDEST PUSH1 0x40 MLOAD DUP1 SWAP2 SUB SWAP1 REVERT JUMPDEST DUP2 PUSH1 0x1 PUSH0 DUP3 DUP3 SLOAD PUSH2 0x20E SWAP2 SWAP1 PUSH2 0x453 JUMP JUMPDEST SWAP3 POP POP DUP2 SWAP1 SSTORE POP POP POP JUMP JUMPDEST PUSH0 PUSH0 SWAP1 SLOAD SWAP1 PUSH2 0x100 EXP SWAP1 DIV PUSH1 0xFF AND ISZERO PUSH2 0x267 JUMPI PUSH1 0x40 MLOAD PUSH32 0x8C379A000000000000000000000000000000000000000000000000000000000 DUP2 MSTORE PUSH1 0x4 ADD PUSH2 0x25E SWAP1 PUSH2 0x408 JUMP JUMPDEST PUSH1 0x40 MLOAD DUP1 SWAP2 SUB SWAP1 REVERT JUMPDEST PUSH1 0x1 DUP1 PUSH0 DUP3 DUP3 SLOAD PUSH2 0x278 SWAP2 SWAP1 PUSH2 0x4EE JUMP JUMPDEST SWAP3 POP POP DUP2 SWAP1 SSTORE POP JUMP JUMPDEST DUP1 PUSH0 PUSH0 PUSH2 0x100 EXP DUP2 SLOAD DUP2 PUSH1 0xFF MUL NOT AND SWAP1 DUP4 ISZERO ISZERO MUL OR SWAP1 SSTORE POP POP JUMP JUMPDEST PUSH0 DUP2 SWAP1 POP SWAP2 SWAP1 POP JUMP JUMPDEST PUSH2 0x2AE DUP2 PUSH2 0x29C JUMP JUMPDEST DUP3 MSTORE POP POP JUMP JUMPDEST PUSH0 PUSH1 0x20 DUP3 ADD SWAP1 POP PUSH2 0x2C7 PUSH0 DUP4 ADD DUP5 PUSH2 0x2A5 JUMP JUMPDEST SWAP3 SWAP2 POP POP JUMP JUMPDEST PUSH0 DUP2 ISZERO ISZERO SWAP1 POP SWAP2 SWAP1 POP JUMP JUMPDEST PUSH2 0x2E1 DUP2 PUSH2 0x2CD JUMP JUMPDEST DUP3 MSTORE POP POP JUMP JUMPDEST PUSH0 PUSH1 0x20 DUP3 ADD SWAP1 POP PUSH2 0x2FA PUSH0 DUP4 ADD DUP5 PUSH2 0x2D8 JUMP JUMPDEST SWAP3 SWAP2 POP POP JUMP JUMPDEST PUSH0 PUSH0 REVERT JUMPDEST PUSH2 0x30D DUP2 PUSH2 0x29C JUMP JUMPDEST DUP2 EQ PUSH2 0x317 JUMPI PUSH0 PUSH0 REVERT JUMPDEST POP JUMP JUMPDEST PUSH0 DUP2 CALLDATALOAD SWAP1 POP PUSH2 0x328 DUP2 PUSH2 0x304 JUMP JUMPDEST SWAP3 SWAP2 POP POP JUMP JUMPDEST PUSH0 PUSH1 0x20 DUP3 DUP5 SUB SLT ISZERO PUSH2 0x343 JUMPI PUSH2 0x342 PUSH2 0x300 JUMP JUMPDEST JUMPDEST PUSH0 PUSH2 0x350 DUP5 DUP3 DUP6 ADD PUSH2 0x31A JUMP JUMPDEST SWAP2 POP POP SWAP3 SWAP2 POP POP JUMP JUMPDEST PUSH2 0x362 DUP2 PUSH2 0x2CD JUMP JUMPDEST DUP2 EQ PUSH2 0x36C JUMPI PUSH0 PUSH0 REVERT JUMPDEST POP JUMP JUMPDEST PUSH0 DUP2 CALLDATALOAD SWAP1 POP PUSH2 0x37D DUP2 PUSH2 0x359 JUMP JUMPDEST SWAP3 SWAP2 POP POP JUMP JUMPDEST PUSH0 PUSH1 0x20 DUP3 DUP5 SUB SLT ISZERO PUSH2 0x398 JUMPI PUSH2 0x397 PUSH2 0x300 JUMP JUMPDEST JUMPDEST PUSH0 PUSH2 0x3A5 DUP5 DUP3 DUP6 ADD PUSH2 0x36F JUMP JUMPDEST SWAP2 POP POP SWAP3 SWAP2 POP POP JUMP JUMPDEST PUSH0 DUP3 DUP3 MSTORE PUSH1 0x20 DUP3 ADD SWAP1 POP SWAP3 SWAP2 POP POP JUMP JUMPDEST PUSH32 0x7061757365640000000000000000000000000000000000000000000000000000 PUSH0 DUP3 ADD MSTORE POP JUMP JUMPDEST PUSH0 PUSH2 0x3F2 PUSH1 0x6 DUP4 PUSH2 0x3AE JUMP JUMPDEST SWAP2 POP PUSH2 0x3FD DUP3 PUSH2 0x3BE JUMP JUMPDEST PUSH1 0x20 DUP3 ADD SWAP1 POP SWAP2 SWAP1 POP JUMP JUMPDEST PUSH0 PUSH1 0x20 DUP3 ADD SWAP1 POP DUP2 DUP2 SUB PUSH0 DUP4 ADD MSTORE PUSH2 0x41F DUP2 PUSH2 0x3E6 JUMP JUMPDEST SWAP1 POP SWAP2 SWAP1 POP JUMP JUMPDEST PUSH32 0x4E487B7100000000000000000000000000000000000000000000000000000000 PUSH0 MSTORE PUSH1 0x11 PUSH1 0x4 MSTORE PUSH1 0x24 PUSH0 REVERT JUMPDEST PUSH0 PUSH2 0x45D DUP3 PUSH2 0x29C JUMP JUMPDEST SWAP2 POP PUSH2 0x468 DUP4 PUSH2 0x29C JUMP JUMPDEST SWAP3 POP DUP3 DUP3 ADD SWAP1 POP DUP1 DUP3 GT ISZERO PUSH2 0x480 JUMPI PUSH2 0x47F PUSH2 0x426 JUMP JUMPDEST JUMPDEST SWAP3 SWAP2 POP POP JUMP JUMPDEST PUSH32 0x78203E3D20313030000000000000000000000000000000000000000000000000 PUSH0 DUP3 ADD MSTORE POP JUMP JUMPDEST PUSH0 PUSH2 0x4BA PUSH1 0x8 DUP4 PUSH2 0x3AE JUMP JUMPDEST SWAP2 POP PUSH2 0x4C5 DUP3 PUSH2 0x486 JUMP JUMPDEST PUSH1 0x20 DUP3 ADD SWAP1 POP SWAP2 SWAP1 POP JUMP JUMPDEST PUSH0 PUSH1 0x20 DUP3 ADD SWAP1 POP DUP2 DUP2 SUB PUSH0 DUP4 ADD MSTORE PUSH2 0x4E7 DUP2 PUSH2 0x4AE JUMP JUMPDEST SWAP1 POP SWAP2 SWAP1 POP JUMP JUMPDEST PUSH0 PUSH2 0x4F8 DUP3 PUSH2 0x29C JUMP JUMPDEST SWAP2 POP PUSH2 0x503 DUP4 PUSH2 0x29C JUMP JUMPDEST SWAP3 POP DUP3 DUP3 SUB SWAP1 POP DUP2 DUP2 GT ISZERO PUSH2 0x51B JUMPI PUSH2 0x51A PUSH2 0x426 JUMP JUMPDEST JUMPDEST SWAP3 SWAP2 POP POP JUMP INVALID LOG2 PUSH5 0x6970667358 0x22 SLT KECCAK256 0x2D OR DUP8 ADDMOD 0x25 0xED GASPRICE 0x4C 0xB7 SWAP3 RETURN GAS 0xE9 PUSH8 0x23C75948AC26FF SGT PUSH11 0xA6E7A227BEF7C04564736F PUSH13 0x634300081E0033000000000000 "
				},
				"gasEstimates": {
					"creation": {
						"codeDepositCost": "273400",
						"executionCost": "310",
						"totalCost": "273710"
					},
					"external": {
						"count()": "2403",
						"dec()": "infinite",
						"inc()": "infinite",
						"incBy(uint256)": "infinite",
						"paused()": "2487",
						"setPause(bool)": "24760"
					}
				},
				"methodIdentifiers": {
					"count()": "06661abd",
					"dec()": "b3bcfa82",
					"inc()": "371303c0",
					"incBy(uint256)": "70119d06",
					"paused()": "5c975abb",
					"setPause(bool)": "bedb86fb"
				}
			},
			"storageLayout": {
				"storage": [
					{
						"astId": 3,
						"contract": "FunctionModifier.sol:FunctionModifier",
						"label": "paused",
						"offset": 0,
						"slot": "0",
						"type": "t_bool"
					},
					{
						"astId": 5,
						"contract": "FunctionModifier.sol:FunctionModifier",
						"label": "count",
						"offset": 0,
						"slot": "1",
						"type": "t_uint256"
					}
				],
				"types": {
					"t_bool": {
						"encoding": "inplace",
						"label": "bool",
						"numberOfBytes": "1"
					},
					"t_uint256": {
						"encoding": "inplace",
						"label": "uint256",
						"numberOfBytes": "32"
					}
				}
			},
			"userdoc": {
				"kind": "user",
				"methods": {},
				"version": 1
			}
		}
	}
}