{
	"Call.sol": {
		"Call": {
			"abi": [
				{
					"inputs": [
						{
							"internalType": "address",
							"name": "_test",
							"type": "address"
						}
					],
					"name": "callDoneNotExit",
					"outputs": [],
					"stateMutability": "nonpayable",
					"type": "function"
				},
				{
					"inputs": [
						{
							"internalType": "address",
							"name": "_test",
							"type": "address"
						}
					],
					"name": "callFoo",
					"outputs": [],
					"stateMutability": "payable",
					"type": "function"
				},
				{
					"inputs": [],
					"name": "data",
					"outputs": [
						{
							"internalType": "bytes",
							"name": "",
							"type": "bytes"
						}
					],
					"stateMutability": "view",
					"type": "function"
				}
			],
			"devdoc": {
				"kind": "dev",
				"methods": {},
				"version": 1
			},
			"evm": {
				"assembly": "    /* \"Call.sol\":430:952  contract Call {... */\n  mstore(0x40, 0x80)\n  callvalue\n  dup1\n  iszero\n  tag_1\n  jumpi\n  revert(0x00, 0x00)\ntag_1:\n  pop\n  dataSize(sub_0)\n  dup1\n  dataOffset(sub_0)\n  0x00\n  codecopy\n  0x00\n  return\nstop\n\nsub_0: assembly {\n        /* \"Call.sol\":430:952  contract Call {... */\n      mstore(0x40, 0x80)\n      jumpi(tag_1, lt(calldatasize, 0x04))\n      shr(0xe0, calldataload(0x00))\n      dup1\n      0x34732e74\n      eq\n      tag_2\n      jumpi\n      dup1\n      0x73d4a13a\n      eq\n      tag_3\n      jumpi\n      dup1\n      0xedcbe76c\n      eq\n      tag_4\n      jumpi\n    tag_1:\n      revert(0x00, 0x00)\n        /* \"Call.sol\":767:949  function callDoneNotExit(address _test) external {... */\n    tag_2:\n      callvalue\n      dup1\n      iszero\n      tag_5\n      jumpi\n      revert(0x00, 0x00)\n    tag_5:\n      pop\n      tag_6\n      0x04\n      dup1\n      calldatasize\n      sub\n      dup2\n      add\n      swap1\n      tag_7\n      swap2\n      swap1\n      tag_8\n      jump\t// in\n    tag_7:\n      tag_9\n      jump\t// in\n    tag_6:\n      stop\n        /* \"Call.sol\":451:468  bytes public data */\n    tag_3:\n      callvalue\n      dup1\n      iszero\n      tag_10\n      jumpi\n      revert(0x00, 0x00)\n    tag_10:\n      pop\n      tag_11\n      tag_12\n      jump\t// in\n    tag_11:\n      mload(0x40)\n      tag_13\n      swap2\n      swap1\n      tag_14\n      jump\t// in\n    tag_13:\n      mload(0x40)\n      dup1\n      swap2\n      sub\n      swap1\n      return\n        /* \"Call.sol\":477:759  function callFoo(address _test) external payable {... */\n    tag_4:\n      tag_15\n      0x04\n      dup1\n      calldatasize\n      sub\n      dup2\n      add\n      swap1\n      tag_16\n      swap2\n      swap1\n      tag_8\n      jump\t// in\n    tag_16:\n      tag_17\n      jump\t// in\n    tag_15:\n      stop\n        /* \"Call.sol\":767:949  function callDoneNotExit(address _test) external {... */\n    tag_9:\n        /* \"Call.sol\":828:840  bool success */\n      0x00\n        /* \"Call.sol\":846:851  _test */\n      dup2\n        /* \"Call.sol\":846:856  _test.call */\n      0xffffffffffffffffffffffffffffffffffffffff\n      and\n        /* \"Call.sol\":857:898  abi.encodeWithSignature(\"doesNotExist()\") */\n      add(0x24, mload(0x40))\n      mload(0x40)\n      0x20\n      dup2\n      dup4\n      sub\n      sub\n      dup2\n      mstore\n      swap1\n      0x40\n      mstore\n      and(not(0xffffffffffffffffffffffffffffffffffffffffffffffffffffffff), 0x1dcc85ae00000000000000000000000000000000000000000000000000000000)\n      0x20\n      dup3\n      add\n      dup1\n      mload\n      0xffffffffffffffffffffffffffffffffffffffffffffffffffffffff\n      dup4\n      dup2\n      dup4\n      and\n      or\n      dup4\n      mstore\n      pop\n      pop\n      pop\n      pop\n        /* \"Call.sol\":846:899  _test.call(abi.encodeWithSignature(\"doesNotExist()\")) */\n      mload(0x40)\n      tag_19\n      swap2\n      swap1\n      tag_20\n      jump\t// in\n    tag_19:\n      0x00\n      mload(0x40)\n      dup1\n      dup4\n      sub\n      dup2\n      0x00\n      dup7\n      gas\n      call\n      swap2\n      pop\n      pop\n      returndatasize\n      dup1\n      0x00\n      dup2\n      eq\n      tag_23\n      jumpi\n      mload(0x40)\n      swap2\n      pop\n      and(add(returndatasize, 0x3f), not(0x1f))\n      dup3\n      add\n      0x40\n      mstore\n      returndatasize\n      dup3\n      mstore\n      returndatasize\n      0x00\n      0x20\n      dup5\n      add\n      returndatacopy\n      jump(tag_22)\n    tag_23:\n      0x60\n      swap2\n      pop\n    tag_22:\n      pop\n        /* \"Call.sol\":827:899  (bool success, ) = _test.call(abi.encodeWithSignature(\"doesNotExist()\")) */\n      pop\n      swap1\n      pop\n        /* \"Call.sol\":918:925  success */\n      dup1\n        /* \"Call.sol\":910:941  require(success, \"call failed\") */\n      tag_24\n      jumpi\n      mload(0x40)\n      0x08c379a000000000000000000000000000000000000000000000000000000000\n      dup2\n      mstore\n      0x04\n      add\n      tag_25\n      swap1\n      tag_26\n      jump\t// in\n    tag_25:\n      mload(0x40)\n      dup1\n      swap2\n      sub\n      swap1\n      revert\n    tag_24:\n        /* \"Call.sol\":816:949  {... */\n      pop\n        /* \"Call.sol\":767:949  function callDoneNotExit(address _test) external {... */\n      pop\n      jump\t// out\n        /* \"Call.sol\":451:468  bytes public data */\n    tag_12:\n      0x00\n      dup1\n      sload\n      tag_27\n      swap1\n      tag_28\n      jump\t// in\n    tag_27:\n      dup1\n      0x1f\n      add\n      0x20\n      dup1\n      swap2\n      div\n      mul\n      0x20\n      add\n      mload(0x40)\n      swap1\n      dup2\n      add\n      0x40\n      mstore\n      dup1\n      swap3\n      swap2\n      swap1\n      dup2\n      dup2\n      mstore\n      0x20\n      add\n      dup3\n      dup1\n      sload\n      tag_29\n      swap1\n      tag_28\n      jump\t// in\n    tag_29:\n      dup1\n      iszero\n      tag_30\n      jumpi\n      dup1\n      0x1f\n      lt\n      tag_31\n      jumpi\n      0x0100\n      dup1\n      dup4\n      sload\n      div\n      mul\n      dup4\n      mstore\n      swap2\n      0x20\n      add\n      swap2\n      jump(tag_30)\n    tag_31:\n      dup3\n      add\n      swap2\n      swap1\n      0x00\n      mstore\n      keccak256(0x00, 0x20)\n      swap1\n    tag_32:\n      dup2\n      sload\n      dup2\n      mstore\n      swap1\n      0x01\n      add\n      swap1\n      0x20\n      add\n      dup1\n      dup4\n      gt\n      tag_32\n      jumpi\n      dup3\n      swap1\n      sub\n      0x1f\n      and\n      dup3\n      add\n      swap2\n    tag_30:\n      pop\n      pop\n      pop\n      pop\n      pop\n      dup2\n      jump\t// out\n        /* \"Call.sol\":477:759  function callFoo(address _test) external payable {... */\n    tag_17:\n        /* \"Call.sol\":538:550  bool success */\n      0x00\n        /* \"Call.sol\":552:570  bytes memory _data */\n      0x00\n        /* \"Call.sol\":574:579  _test */\n      dup3\n        /* \"Call.sol\":574:584  _test.call */\n      0xffffffffffffffffffffffffffffffffffffffff\n      and\n        /* \"Call.sol\":592:595  111 */\n      0x6f\n        /* \"Call.sol\":670:673  123 */\n      0x7b\n        /* \"Call.sol\":611:674  abi.encodeWithSignature(\"foo(string,uint256)\", \"call foo\", 123) */\n      add(0x24, mload(0x40))\n      tag_34\n      swap2\n      swap1\n      tag_35\n      jump\t// in\n    tag_34:\n      mload(0x40)\n      0x20\n      dup2\n      dup4\n      sub\n      sub\n      dup2\n      mstore\n      swap1\n      0x40\n      mstore\n      and(not(0xffffffffffffffffffffffffffffffffffffffffffffffffffffffff), 0x24ccab8f00000000000000000000000000000000000000000000000000000000)\n      0x20\n      dup3\n      add\n      dup1\n      mload\n      0xffffffffffffffffffffffffffffffffffffffffffffffffffffffff\n      dup4\n      dup2\n      dup4\n      and\n      or\n      dup4\n      mstore\n      pop\n      pop\n      pop\n      pop\n        /* \"Call.sol\":574:685  _test.call{value: 111}(... */\n      mload(0x40)\n      tag_36\n      swap2\n      swap1\n      tag_20\n      jump\t// in\n    tag_36:\n      0x00\n      mload(0x40)\n      dup1\n      dup4\n      sub\n      dup2\n      dup6\n      dup8\n      gas\n      call\n      swap3\n      pop\n      pop\n      pop\n      returndatasize\n      dup1\n      0x00\n      dup2\n      eq\n      tag_39\n      jumpi\n      mload(0x40)\n      swap2\n      pop\n      and(add(returndatasize, 0x3f), not(0x1f))\n      dup3\n      add\n      0x40\n      mstore\n      returndatasize\n      dup3\n      mstore\n      returndatasize\n      0x00\n      0x20\n      dup5\n      add\n      returndatacopy\n      jump(tag_38)\n    tag_39:\n      0x60\n      swap2\n      pop\n    tag_38:\n      pop\n        /* \"Call.sol\":537:685  (bool success, bytes memory _data) = _test.call{value: 111}(... */\n      swap2\n      pop\n      swap2\n      pop\n        /* \"Call.sol\":704:711  success */\n      dup2\n        /* \"Call.sol\":696:728  require(success , \"call failed\") */\n      tag_40\n      jumpi\n      mload(0x40)\n      0x08c379a000000000000000000000000000000000000000000000000000000000\n      dup2\n      mstore\n      0x04\n      add\n      tag_41\n      swap1\n      tag_26\n      jump\t// in\n    tag_41:\n      mload(0x40)\n      dup1\n      swap2\n      sub\n      swap1\n      revert\n    tag_40:\n        /* \"Call.sol\":746:751  _data */\n      dup1\n        /* \"Call.sol\":739:743  data */\n      0x00\n        /* \"Call.sol\":739:751  data = _data */\n      swap1\n      dup2\n      tag_42\n      swap2\n      swap1\n      tag_43\n      jump\t// in\n    tag_42:\n      pop\n        /* \"Call.sol\":526:759  {... */\n      pop\n      pop\n        /* \"Call.sol\":477:759  function callFoo(address _test) external payable {... */\n      pop\n      jump\t// out\n        /* \"#utility.yul\":88:205   */\n    tag_45:\n        /* \"#utility.yul\":197:198   */\n      0x00\n        /* \"#utility.yul\":194:195   */\n      0x00\n        /* \"#utility.yul\":187:199   */\n      revert\n        /* \"#utility.yul\":334:460   */\n    tag_47:\n        /* \"#utility.yul\":371:378   */\n      0x00\n        /* \"#utility.yul\":411:453   */\n      0xffffffffffffffffffffffffffffffffffffffff\n        /* \"#utility.yul\":404:409   */\n      dup3\n        /* \"#utility.yul\":400:454   */\n      and\n        /* \"#utility.yul\":389:454   */\n      swap1\n      pop\n        /* \"#utility.yul\":334:460   */\n      swap2\n      swap1\n      pop\n      jump\t// out\n        /* \"#utility.yul\":466:562   */\n    tag_48:\n        /* \"#utility.yul\":503:510   */\n      0x00\n        /* \"#utility.yul\":532:556   */\n      tag_91\n        /* \"#utility.yul\":550:555   */\n      dup3\n        /* \"#utility.yul\":532:556   */\n      tag_47\n      jump\t// in\n    tag_91:\n        /* \"#utility.yul\":521:556   */\n      swap1\n      pop\n        /* \"#utility.yul\":466:562   */\n      swap2\n      swap1\n      pop\n      jump\t// out\n        /* \"#utility.yul\":568:690   */\n    tag_49:\n        /* \"#utility.yul\":641:665   */\n      tag_93\n        /* \"#utility.yul\":659:664   */\n      dup2\n        /* \"#utility.yul\":641:665   */\n      tag_48\n      jump\t// in\n    tag_93:\n        /* \"#utility.yul\":634:639   */\n      dup2\n        /* \"#utility.yul\":631:666   */\n      eq\n        /* \"#utility.yul\":621:684   */\n      tag_94\n      jumpi\n        /* \"#utility.yul\":680:681   */\n      0x00\n        /* \"#utility.yul\":677:678   */\n      0x00\n        /* \"#utility.yul\":670:682   */\n      revert\n        /* \"#utility.yul\":621:684   */\n    tag_94:\n        /* \"#utility.yul\":568:690   */\n      pop\n      jump\t// out\n        /* \"#utility.yul\":696:835   */\n    tag_50:\n        /* \"#utility.yul\":742:747   */\n      0x00\n        /* \"#utility.yul\":780:786   */\n      dup2\n        /* \"#utility.yul\":767:787   */\n      calldataload\n        /* \"#utility.yul\":758:787   */\n      swap1\n      pop\n        /* \"#utility.yul\":796:829   */\n      tag_96\n        /* \"#utility.yul\":823:828   */\n      dup2\n        /* \"#utility.yul\":796:829   */\n      tag_49\n      jump\t// in\n    tag_96:\n        /* \"#utility.yul\":696:835   */\n      swap3\n      swap2\n      pop\n      pop\n      jump\t// out\n        /* \"#utility.yul\":841:1170   */\n    tag_8:\n        /* \"#utility.yul\":900:906   */\n      0x00\n        /* \"#utility.yul\":949:951   */\n      0x20\n        /* \"#utility.yul\":937:946   */\n      dup3\n        /* \"#utility.yul\":928:935   */\n      dup5\n        /* \"#utility.yul\":924:947   */\n      sub\n        /* \"#utility.yul\":920:952   */\n      slt\n        /* \"#utility.yul\":917:1036   */\n      iszero\n      tag_98\n      jumpi\n        /* \"#utility.yul\":955:1034   */\n      tag_99\n      tag_45\n      jump\t// in\n    tag_99:\n        /* \"#utility.yul\":917:1036   */\n    tag_98:\n        /* \"#utility.yul\":1075:1076   */\n      0x00\n        /* \"#utility.yul\":1100:1153   */\n      tag_100\n        /* \"#utility.yul\":1145:1152   */\n      dup5\n        /* \"#utility.yul\":1136:1142   */\n      dup3\n        /* \"#utility.yul\":1125:1134   */\n      dup6\n        /* \"#utility.yul\":1121:1143   */\n      add\n        /* \"#utility.yul\":1100:1153   */\n      tag_50\n      jump\t// in\n    tag_100:\n        /* \"#utility.yul\":1090:1153   */\n      swap2\n      pop\n        /* \"#utility.yul\":1046:1163   */\n      pop\n        /* \"#utility.yul\":841:1170   */\n      swap3\n      swap2\n      pop\n      pop\n      jump\t// out\n        /* \"#utility.yul\":1176:1274   */\n    tag_51:\n        /* \"#utility.yul\":1227:1233   */\n      0x00\n        /* \"#utility.yul\":1261:1266   */\n      dup2\n        /* \"#utility.yul\":1255:1267   */\n      mload\n        /* \"#utility.yul\":1245:1267   */\n      swap1\n      pop\n        /* \"#utility.yul\":1176:1274   */\n      swap2\n      swap1\n      pop\n      jump\t// out\n        /* \"#utility.yul\":1280:1448   */\n    tag_52:\n        /* \"#utility.yul\":1363:1374   */\n      0x00\n        /* \"#utility.yul\":1397:1403   */\n      dup3\n        /* \"#utility.yul\":1392:1395   */\n      dup3\n        /* \"#utility.yul\":1385:1404   */\n      mstore\n        /* \"#utility.yul\":1437:1441   */\n      0x20\n        /* \"#utility.yul\":1432:1435   */\n      dup3\n        /* \"#utility.yul\":1428:1442   */\n      add\n        /* \"#utility.yul\":1413:1442   */\n      swap1\n      pop\n        /* \"#utility.yul\":1280:1448   */\n      swap3\n      swap2\n      pop\n      pop\n      jump\t// out\n        /* \"#utility.yul\":1454:1593   */\n    tag_53:\n        /* \"#utility.yul\":1543:1549   */\n      dup3\n        /* \"#utility.yul\":1538:1541   */\n      dup2\n        /* \"#utility.yul\":1533:1536   */\n      dup4\n        /* \"#utility.yul\":1527:1550   */\n      mcopy\n        /* \"#utility.yul\":1584:1585   */\n      0x00\n        /* \"#utility.yul\":1575:1581   */\n      dup4\n        /* \"#utility.yul\":1570:1573   */\n      dup4\n        /* \"#utility.yul\":1566:1582   */\n      add\n        /* \"#utility.yul\":1559:1586   */\n      mstore\n        /* \"#utility.yul\":1454:1593   */\n      pop\n      pop\n      pop\n      jump\t// out\n        /* \"#utility.yul\":1599:1701   */\n    tag_54:\n        /* \"#utility.yul\":1640:1646   */\n      0x00\n        /* \"#utility.yul\":1691:1693   */\n      0x1f\n        /* \"#utility.yul\":1687:1694   */\n      not\n        /* \"#utility.yul\":1682:1684   */\n      0x1f\n        /* \"#utility.yul\":1675:1680   */\n      dup4\n        /* \"#utility.yul\":1671:1685   */\n      add\n        /* \"#utility.yul\":1667:1695   */\n      and\n        /* \"#utility.yul\":1657:1695   */\n      swap1\n      pop\n        /* \"#utility.yul\":1599:1701   */\n      swap2\n      swap1\n      pop\n      jump\t// out\n        /* \"#utility.yul\":1707:2080   */\n    tag_55:\n        /* \"#utility.yul\":1793:1796   */\n      0x00\n        /* \"#utility.yul\":1821:1859   */\n      tag_106\n        /* \"#utility.yul\":1853:1858   */\n      dup3\n        /* \"#utility.yul\":1821:1859   */\n      tag_51\n      jump\t// in\n    tag_106:\n        /* \"#utility.yul\":1875:1945   */\n      tag_107\n        /* \"#utility.yul\":1938:1944   */\n      dup2\n        /* \"#utility.yul\":1933:1936   */\n      dup6\n        /* \"#utility.yul\":1875:1945   */\n      tag_52\n      jump\t// in\n    tag_107:\n        /* \"#utility.yul\":1868:1945   */\n      swap4\n      pop\n        /* \"#utility.yul\":1954:2019   */\n      tag_108\n        /* \"#utility.yul\":2012:2018   */\n      dup2\n        /* \"#utility.yul\":2007:2010   */\n      dup6\n        /* \"#utility.yul\":2000:2004   */\n      0x20\n        /* \"#utility.yul\":1993:1998   */\n      dup7\n        /* \"#utility.yul\":1989:2005   */\n      add\n        /* \"#utility.yul\":1954:2019   */\n      tag_53\n      jump\t// in\n    tag_108:\n        /* \"#utility.yul\":2044:2073   */\n      tag_109\n        /* \"#utility.yul\":2066:2072   */\n      dup2\n        /* \"#utility.yul\":2044:2073   */\n      tag_54\n      jump\t// in\n    tag_109:\n        /* \"#utility.yul\":2039:2042   */\n      dup5\n        /* \"#utility.yul\":2035:2074   */\n      add\n        /* \"#utility.yul\":2028:2074   */\n      swap2\n      pop\n        /* \"#utility.yul\":1797:2080   */\n      pop\n        /* \"#utility.yul\":1707:2080   */\n      swap3\n      swap2\n      pop\n      pop\n      jump\t// out\n        /* \"#utility.yul\":2086:2395   */\n    tag_14:\n        /* \"#utility.yul\":2197:2201   */\n      0x00\n        /* \"#utility.yul\":2235:2237   */\n      0x20\n        /* \"#utility.yul\":2224:2233   */\n      dup3\n        /* \"#utility.yul\":2220:2238   */\n      add\n        /* \"#utility.yul\":2212:2238   */\n      swap1\n      pop\n        /* \"#utility.yul\":2284:2293   */\n      dup2\n        /* \"#utility.yul\":2278:2282   */\n      dup2\n        /* \"#utility.yul\":2274:2294   */\n      sub\n        /* \"#utility.yul\":2270:2271   */\n      0x00\n        /* \"#utility.yul\":2259:2268   */\n      dup4\n        /* \"#utility.yul\":2255:2272   */\n      add\n        /* \"#utility.yul\":2248:2295   */\n      mstore\n        /* \"#utility.yul\":2312:2388   */\n      tag_111\n        /* \"#utility.yul\":2383:2387   */\n      dup2\n        /* \"#utility.yul\":2374:2380   */\n      dup5\n        /* \"#utility.yul\":2312:2388   */\n      tag_55\n      jump\t// in\n    tag_111:\n        /* \"#utility.yul\":2304:2388   */\n      swap1\n      pop\n        /* \"#utility.yul\":2086:2395   */\n      swap3\n      swap2\n      pop\n      pop\n      jump\t// out\n        /* \"#utility.yul\":2401:2548   */\n    tag_56:\n        /* \"#utility.yul\":2502:2513   */\n      0x00\n        /* \"#utility.yul\":2539:2542   */\n      dup2\n        /* \"#utility.yul\":2524:2542   */\n      swap1\n      pop\n        /* \"#utility.yul\":2401:2548   */\n      swap3\n      swap2\n      pop\n      pop\n      jump\t// out\n        /* \"#utility.yul\":2554:2940   */\n    tag_57:\n        /* \"#utility.yul\":2658:2661   */\n      0x00\n        /* \"#utility.yul\":2686:2724   */\n      tag_114\n        /* \"#utility.yul\":2718:2723   */\n      dup3\n        /* \"#utility.yul\":2686:2724   */\n      tag_51\n      jump\t// in\n    tag_114:\n        /* \"#utility.yul\":2740:2828   */\n      tag_115\n        /* \"#utility.yul\":2821:2827   */\n      dup2\n        /* \"#utility.yul\":2816:2819   */\n      dup6\n        /* \"#utility.yul\":2740:2828   */\n      tag_56\n      jump\t// in\n    tag_115:\n        /* \"#utility.yul\":2733:2828   */\n      swap4\n      pop\n        /* \"#utility.yul\":2837:2902   */\n      tag_116\n        /* \"#utility.yul\":2895:2901   */\n      dup2\n        /* \"#utility.yul\":2890:2893   */\n      dup6\n        /* \"#utility.yul\":2883:2887   */\n      0x20\n        /* \"#utility.yul\":2876:2881   */\n      dup7\n        /* \"#utility.yul\":2872:2888   */\n      add\n        /* \"#utility.yul\":2837:2902   */\n      tag_53\n      jump\t// in\n    tag_116:\n        /* \"#utility.yul\":2927:2933   */\n      dup1\n        /* \"#utility.yul\":2922:2925   */\n      dup5\n        /* \"#utility.yul\":2918:2934   */\n      add\n        /* \"#utility.yul\":2911:2934   */\n      swap2\n      pop\n        /* \"#utility.yul\":2662:2940   */\n      pop\n        /* \"#utility.yul\":2554:2940   */\n      swap3\n      swap2\n      pop\n      pop\n      jump\t// out\n        /* \"#utility.yul\":2946:3217   */\n    tag_20:\n        /* \"#utility.yul\":3076:3079   */\n      0x00\n        /* \"#utility.yul\":3098:3191   */\n      tag_118\n        /* \"#utility.yul\":3187:3190   */\n      dup3\n        /* \"#utility.yul\":3178:3184   */\n      dup5\n        /* \"#utility.yul\":3098:3191   */\n      tag_57\n      jump\t// in\n    tag_118:\n        /* \"#utility.yul\":3091:3191   */\n      swap2\n      pop\n        /* \"#utility.yul\":3208:3211   */\n      dup2\n        /* \"#utility.yul\":3201:3211   */\n      swap1\n      pop\n        /* \"#utility.yul\":2946:3217   */\n      swap3\n      swap2\n      pop\n      pop\n      jump\t// out\n        /* \"#utility.yul\":3223:3392   */\n    tag_58:\n        /* \"#utility.yul\":3307:3318   */\n      0x00\n        /* \"#utility.yul\":3341:3347   */\n      dup3\n        /* \"#utility.yul\":3336:3339   */\n      dup3\n        /* \"#utility.yul\":3329:3348   */\n      mstore\n        /* \"#utility.yul\":3381:3385   */\n      0x20\n        /* \"#utility.yul\":3376:3379   */\n      dup3\n        /* \"#utility.yul\":3372:3386   */\n      add\n        /* \"#utility.yul\":3357:3386   */\n      swap1\n      pop\n        /* \"#utility.yul\":3223:3392   */\n      swap3\n      swap2\n      pop\n      pop\n      jump\t// out\n        /* \"#utility.yul\":3398:3559   */\n    tag_59:\n        /* \"#utility.yul\":3538:3551   */\n      0x63616c6c206661696c6564000000000000000000000000000000000000000000\n        /* \"#utility.yul\":3534:3535   */\n      0x00\n        /* \"#utility.yul\":3526:3532   */\n      dup3\n        /* \"#utility.yul\":3522:3536   */\n      add\n        /* \"#utility.yul\":3515:3552   */\n      mstore\n        /* \"#utility.yul\":3398:3559   */\n      pop\n      jump\t// out\n        /* \"#utility.yul\":3565:3931   */\n    tag_60:\n        /* \"#utility.yul\":3707:3710   */\n      0x00\n        /* \"#utility.yul\":3728:3795   */\n      tag_122\n        /* \"#utility.yul\":3792:3794   */\n      0x0b\n        /* \"#utility.yul\":3787:3790   */\n      dup4\n        /* \"#utility.yul\":3728:3795   */\n      tag_58\n      jump\t// in\n    tag_122:\n        /* \"#utility.yul\":3721:3795   */\n      swap2\n      pop\n        /* \"#utility.yul\":3804:3897   */\n      tag_123\n        /* \"#utility.yul\":3893:3896   */\n      dup3\n        /* \"#utility.yul\":3804:3897   */\n      tag_59\n      jump\t// in\n    tag_123:\n        /* \"#utility.yul\":3922:3924   */\n      0x20\n        /* \"#utility.yul\":3917:3920   */\n      dup3\n        /* \"#utility.yul\":3913:3925   */\n      add\n        /* \"#utility.yul\":3906:3925   */\n      swap1\n      pop\n        /* \"#utility.yul\":3565:3931   */\n      swap2\n      swap1\n      pop\n      jump\t// out\n        /* \"#utility.yul\":3937:4356   */\n    tag_26:\n        /* \"#utility.yul\":4103:4107   */\n      0x00\n        /* \"#utility.yul\":4141:4143   */\n      0x20\n        /* \"#utility.yul\":4130:4139   */\n      dup3\n        /* \"#utility.yul\":4126:4144   */\n      add\n        /* \"#utility.yul\":4118:4144   */\n      swap1\n      pop\n        /* \"#utility.yul\":4190:4199   */\n      dup2\n        /* \"#utility.yul\":4184:4188   */\n      dup2\n        /* \"#utility.yul\":4180:4200   */\n      sub\n        /* \"#utility.yul\":4176:4177   */\n      0x00\n        /* \"#utility.yul\":4165:4174   */\n      dup4\n        /* \"#utility.yul\":4161:4178   */\n      add\n        /* \"#utility.yul\":4154:4201   */\n      mstore\n        /* \"#utility.yul\":4218:4349   */\n      tag_125\n        /* \"#utility.yul\":4344:4348   */\n      dup2\n        /* \"#utility.yul\":4218:4349   */\n      tag_60\n      jump\t// in\n    tag_125:\n        /* \"#utility.yul\":4210:4349   */\n      swap1\n      pop\n        /* \"#utility.yul\":3937:4356   */\n      swap2\n      swap1\n      pop\n      jump\t// out\n        /* \"#utility.yul\":4362:4542   */\n    tag_61:\n        /* \"#utility.yul\":4410:4487   */\n      0x4e487b7100000000000000000000000000000000000000000000000000000000\n        /* \"#utility.yul\":4407:4408   */\n      0x00\n        /* \"#utility.yul\":4400:4488   */\n      mstore\n        /* \"#utility.yul\":4507:4511   */\n      0x22\n        /* \"#utility.yul\":4504:4505   */\n      0x04\n        /* \"#utility.yul\":4497:4512   */\n      mstore\n        /* \"#utility.yul\":4531:4535   */\n      0x24\n        /* \"#utility.yul\":4528:4529   */\n      0x00\n        /* \"#utility.yul\":4521:4536   */\n      revert\n        /* \"#utility.yul\":4548:4868   */\n    tag_28:\n        /* \"#utility.yul\":4592:4598   */\n      0x00\n        /* \"#utility.yul\":4629:4630   */\n      0x02\n        /* \"#utility.yul\":4623:4627   */\n      dup3\n        /* \"#utility.yul\":4619:4631   */\n      div\n        /* \"#utility.yul\":4609:4631   */\n      swap1\n      pop\n        /* \"#utility.yul\":4676:4677   */\n      0x01\n        /* \"#utility.yul\":4670:4674   */\n      dup3\n        /* \"#utility.yul\":4666:4678   */\n      and\n        /* \"#utility.yul\":4697:4715   */\n      dup1\n        /* \"#utility.yul\":4687:4768   */\n      tag_128\n      jumpi\n        /* \"#utility.yul\":4753:4757   */\n      0x7f\n        /* \"#utility.yul\":4745:4751   */\n      dup3\n        /* \"#utility.yul\":4741:4758   */\n      and\n        /* \"#utility.yul\":4731:4758   */\n      swap2\n      pop\n        /* \"#utility.yul\":4687:4768   */\n    tag_128:\n        /* \"#utility.yul\":4815:4817   */\n      0x20\n        /* \"#utility.yul\":4807:4813   */\n      dup3\n        /* \"#utility.yul\":4804:4818   */\n      lt\n        /* \"#utility.yul\":4784:4802   */\n      dup2\n        /* \"#utility.yul\":4781:4819   */\n      sub\n        /* \"#utility.yul\":4778:4862   */\n      tag_129\n      jumpi\n        /* \"#utility.yul\":4834:4852   */\n      tag_130\n      tag_61\n      jump\t// in\n    tag_130:\n        /* \"#utility.yul\":4778:4862   */\n    tag_129:\n        /* \"#utility.yul\":4599:4868   */\n      pop\n        /* \"#utility.yul\":4548:4868   */\n      swap2\n      swap1\n      pop\n      jump\t// out\n        /* \"#utility.yul\":4874:5032   */\n    tag_62:\n        /* \"#utility.yul\":5014:5024   */\n      0x63616c6c20666f6f000000000000000000000000000000000000000000000000\n        /* \"#utility.yul\":5010:5011   */\n      0x00\n        /* \"#utility.yul\":5002:5008   */\n      dup3\n        /* \"#utility.yul\":4998:5012   */\n      add\n        /* \"#utility.yul\":4991:5025   */\n      mstore\n        /* \"#utility.yul\":4874:5032   */\n      pop\n      jump\t// out\n        /* \"#utility.yul\":5038:5403   */\n    tag_63:\n        /* \"#utility.yul\":5180:5183   */\n      0x00\n        /* \"#utility.yul\":5201:5267   */\n      tag_133\n        /* \"#utility.yul\":5265:5266   */\n      0x08\n        /* \"#utility.yul\":5260:5263   */\n      dup4\n        /* \"#utility.yul\":5201:5267   */\n      tag_58\n      jump\t// in\n    tag_133:\n        /* \"#utility.yul\":5194:5267   */\n      swap2\n      pop\n        /* \"#utility.yul\":5276:5369   */\n      tag_134\n        /* \"#utility.yul\":5365:5368   */\n      dup3\n        /* \"#utility.yul\":5276:5369   */\n      tag_62\n      jump\t// in\n    tag_134:\n        /* \"#utility.yul\":5394:5396   */\n      0x20\n        /* \"#utility.yul\":5389:5392   */\n      dup3\n        /* \"#utility.yul\":5385:5397   */\n      add\n        /* \"#utility.yul\":5378:5397   */\n      swap1\n      pop\n        /* \"#utility.yul\":5038:5403   */\n      swap2\n      swap1\n      pop\n      jump\t// out\n        /* \"#utility.yul\":5409:5496   */\n    tag_64:\n        /* \"#utility.yul\":5456:5463   */\n      0x00\n        /* \"#utility.yul\":5485:5490   */\n      dup2\n        /* \"#utility.yul\":5474:5490   */\n      swap1\n      pop\n        /* \"#utility.yul\":5409:5496   */\n      swap2\n      swap1\n      pop\n      jump\t// out\n        /* \"#utility.yul\":5502:5588   */\n    tag_65:\n        /* \"#utility.yul\":5537:5544   */\n      0x00\n        /* \"#utility.yul\":5577:5581   */\n      0xff\n        /* \"#utility.yul\":5570:5575   */\n      dup3\n        /* \"#utility.yul\":5566:5582   */\n      and\n        /* \"#utility.yul\":5555:5582   */\n      swap1\n      pop\n        /* \"#utility.yul\":5502:5588   */\n      swap2\n      swap1\n      pop\n      jump\t// out\n        /* \"#utility.yul\":5594:5654   */\n    tag_66:\n        /* \"#utility.yul\":5622:5625   */\n      0x00\n        /* \"#utility.yul\":5643:5648   */\n      dup2\n        /* \"#utility.yul\":5636:5648   */\n      swap1\n      pop\n        /* \"#utility.yul\":5594:5654   */\n      swap2\n      swap1\n      pop\n      jump\t// out\n        /* \"#utility.yul\":5660:5818   */\n    tag_67:\n        /* \"#utility.yul\":5718:5727   */\n      0x00\n        /* \"#utility.yul\":5751:5812   */\n      tag_139\n        /* \"#utility.yul\":5767:5811   */\n      tag_140\n        /* \"#utility.yul\":5776:5810   */\n      tag_141\n        /* \"#utility.yul\":5804:5809   */\n      dup5\n        /* \"#utility.yul\":5776:5810   */\n      tag_64\n      jump\t// in\n    tag_141:\n        /* \"#utility.yul\":5767:5811   */\n      tag_66\n      jump\t// in\n    tag_140:\n        /* \"#utility.yul\":5751:5812   */\n      tag_65\n      jump\t// in\n    tag_139:\n        /* \"#utility.yul\":5738:5812   */\n      swap1\n      pop\n        /* \"#utility.yul\":5660:5818   */\n      swap2\n      swap1\n      pop\n      jump\t// out\n        /* \"#utility.yul\":5824:5971   */\n    tag_68:\n        /* \"#utility.yul\":5919:5964   */\n      tag_143\n        /* \"#utility.yul\":5958:5963   */\n      dup2\n        /* \"#utility.yul\":5919:5964   */\n      tag_67\n      jump\t// in\n    tag_143:\n        /* \"#utility.yul\":5914:5917   */\n      dup3\n        /* \"#utility.yul\":5907:5965   */\n      mstore\n        /* \"#utility.yul\":5824:5971   */\n      pop\n      pop\n      jump\t// out\n        /* \"#utility.yul\":5977:6522   */\n    tag_35:\n        /* \"#utility.yul\":6179:6183   */\n      0x00\n        /* \"#utility.yul\":6217:6219   */\n      0x40\n        /* \"#utility.yul\":6206:6215   */\n      dup3\n        /* \"#utility.yul\":6202:6220   */\n      add\n        /* \"#utility.yul\":6194:6220   */\n      swap1\n      pop\n        /* \"#utility.yul\":6266:6275   */\n      dup2\n        /* \"#utility.yul\":6260:6264   */\n      dup2\n        /* \"#utility.yul\":6256:6276   */\n      sub\n        /* \"#utility.yul\":6252:6253   */\n      0x00\n        /* \"#utility.yul\":6241:6250   */\n      dup4\n        /* \"#utility.yul\":6237:6254   */\n      add\n        /* \"#utility.yul\":6230:6277   */\n      mstore\n        /* \"#utility.yul\":6294:6425   */\n      tag_145\n        /* \"#utility.yul\":6420:6424   */\n      dup2\n        /* \"#utility.yul\":6294:6425   */\n      tag_63\n      jump\t// in\n    tag_145:\n        /* \"#utility.yul\":6286:6425   */\n      swap1\n      pop\n        /* \"#utility.yul\":6435:6515   */\n      tag_146\n        /* \"#utility.yul\":6511:6513   */\n      0x20\n        /* \"#utility.yul\":6500:6509   */\n      dup4\n        /* \"#utility.yul\":6496:6514   */\n      add\n        /* \"#utility.yul\":6487:6493   */\n      dup5\n        /* \"#utility.yul\":6435:6515   */\n      tag_68\n      jump\t// in\n    tag_146:\n        /* \"#utility.yul\":5977:6522   */\n      swap3\n      swap2\n      pop\n      pop\n      jump\t// out\n        /* \"#utility.yul\":6528:6708   */\n    tag_69:\n        /* \"#utility.yul\":6576:6653   */\n      0x4e487b7100000000000000000000000000000000000000000000000000000000\n        /* \"#utility.yul\":6573:6574   */\n      0x00\n        /* \"#utility.yul\":6566:6654   */\n      mstore\n        /* \"#utility.yul\":6673:6677   */\n      0x41\n        /* \"#utility.yul\":6670:6671   */\n      0x04\n        /* \"#utility.yul\":6663:6678   */\n      mstore\n        /* \"#utility.yul\":6697:6701   */\n      0x24\n        /* \"#utility.yul\":6694:6695   */\n      0x00\n        /* \"#utility.yul\":6687:6702   */\n      revert\n        /* \"#utility.yul\":6714:6854   */\n    tag_70:\n        /* \"#utility.yul\":6762:6766   */\n      0x00\n        /* \"#utility.yul\":6785:6788   */\n      dup2\n        /* \"#utility.yul\":6777:6788   */\n      swap1\n      pop\n        /* \"#utility.yul\":6808:6811   */\n      dup2\n        /* \"#utility.yul\":6805:6806   */\n      0x00\n        /* \"#utility.yul\":6798:6812   */\n      mstore\n        /* \"#utility.yul\":6842:6846   */\n      0x20\n        /* \"#utility.yul\":6839:6840   */\n      0x00\n        /* \"#utility.yul\":6829:6847   */\n      keccak256\n        /* \"#utility.yul\":6821:6847   */\n      swap1\n      pop\n        /* \"#utility.yul\":6714:6854   */\n      swap2\n      swap1\n      pop\n      jump\t// out\n        /* \"#utility.yul\":6860:6953   */\n    tag_71:\n        /* \"#utility.yul\":6897:6903   */\n      0x00\n        /* \"#utility.yul\":6944:6946   */\n      0x20\n        /* \"#utility.yul\":6939:6941   */\n      0x1f\n        /* \"#utility.yul\":6932:6937   */\n      dup4\n        /* \"#utility.yul\":6928:6942   */\n      add\n        /* \"#utility.yul\":6924:6947   */\n      div\n        /* \"#utility.yul\":6914:6947   */\n      swap1\n      pop\n        /* \"#utility.yul\":6860:6953   */\n      swap2\n      swap1\n      pop\n      jump\t// out\n        /* \"#utility.yul\":6959:7066   */\n    tag_72:\n        /* \"#utility.yul\":7003:7011   */\n      0x00\n        /* \"#utility.yul\":7053:7058   */\n      dup3\n        /* \"#utility.yul\":7047:7051   */\n      dup3\n        /* \"#utility.yul\":7043:7059   */\n      shl\n        /* \"#utility.yul\":7022:7059   */\n      swap1\n      pop\n        /* \"#utility.yul\":6959:7066   */\n      swap3\n      swap2\n      pop\n      pop\n      jump\t// out\n        /* \"#utility.yul\":7072:7465   */\n    tag_73:\n        /* \"#utility.yul\":7141:7147   */\n      0x00\n        /* \"#utility.yul\":7191:7192   */\n      0x08\n        /* \"#utility.yul\":7179:7189   */\n      dup4\n        /* \"#utility.yul\":7175:7193   */\n      mul\n        /* \"#utility.yul\":7214:7311   */\n      tag_152\n        /* \"#utility.yul\":7244:7310   */\n      0xffffffffffffffffffffffffffffffffffffffffffffffffffffffffffffffff\n        /* \"#utility.yul\":7233:7242   */\n      dup3\n        /* \"#utility.yul\":7214:7311   */\n      tag_72\n      jump\t// in\n    tag_152:\n        /* \"#utility.yul\":7332:7371   */\n      tag_153\n        /* \"#utility.yul\":7362:7370   */\n      dup7\n        /* \"#utility.yul\":7351:7360   */\n      dup4\n        /* \"#utility.yul\":7332:7371   */\n      tag_72\n      jump\t// in\n    tag_153:\n        /* \"#utility.yul\":7320:7371   */\n      swap6\n      pop\n        /* \"#utility.yul\":7404:7408   */\n      dup1\n        /* \"#utility.yul\":7400:7409   */\n      not\n        /* \"#utility.yul\":7393:7398   */\n      dup5\n        /* \"#utility.yul\":7389:7410   */\n      and\n        /* \"#utility.yul\":7380:7410   */\n      swap4\n      pop\n        /* \"#utility.yul\":7453:7457   */\n      dup1\n        /* \"#utility.yul\":7443:7451   */\n      dup7\n        /* \"#utility.yul\":7439:7458   */\n      and\n        /* \"#utility.yul\":7432:7437   */\n      dup5\n        /* \"#utility.yul\":7429:7459   */\n      or\n        /* \"#utility.yul\":7419:7459   */\n      swap3\n      pop\n        /* \"#utility.yul\":7148:7465   */\n      pop\n      pop\n        /* \"#utility.yul\":7072:7465   */\n      swap4\n      swap3\n      pop\n      pop\n      pop\n      jump\t// out\n        /* \"#utility.yul\":7471:7548   */\n    tag_74:\n        /* \"#utility.yul\":7508:7515   */\n      0x00\n        /* \"#utility.yul\":7537:7542   */\n      dup2\n        /* \"#utility.yul\":7526:7542   */\n      swap1\n      pop\n        /* \"#utility.yul\":7471:7548   */\n      swap2\n      swap1\n      pop\n      jump\t// out\n        /* \"#utility.yul\":7554:7696   */\n    tag_75:\n        /* \"#utility.yul\":7604:7613   */\n      0x00\n        /* \"#utility.yul\":7637:7690   */\n      tag_156\n        /* \"#utility.yul\":7655:7689   */\n      tag_157\n        /* \"#utility.yul\":7664:7688   */\n      tag_158\n        /* \"#utility.yul\":7682:7687   */\n      dup5\n        /* \"#utility.yul\":7664:7688   */\n      tag_74\n      jump\t// in\n    tag_158:\n        /* \"#utility.yul\":7655:7689   */\n      tag_66\n      jump\t// in\n    tag_157:\n        /* \"#utility.yul\":7637:7690   */\n      tag_74\n      jump\t// in\n    tag_156:\n        /* \"#utility.yul\":7624:7690   */\n      swap1\n      pop\n        /* \"#utility.yul\":7554:7696   */\n      swap2\n      swap1\n      pop\n      jump\t// out\n        /* \"#utility.yul\":7702:7777   */\n    tag_76:\n        /* \"#utility.yul\":7745:7748   */\n      0x00\n        /* \"#utility.yul\":7766:7771   */\n      dup2\n        /* \"#utility.yul\":7759:7771   */\n      swap1\n      pop\n        /* \"#utility.yul\":7702:7777   */\n      swap2\n      swap1\n      pop\n      jump\t// out\n        /* \"#utility.yul\":7783:8052   */\n    tag_77:\n        /* \"#utility.yul\":7893:7932   */\n      tag_161\n        /* \"#utility.yul\":7924:7931   */\n      dup4\n        /* \"#utility.yul\":7893:7932   */\n      tag_75\n      jump\t// in\n    tag_161:\n        /* \"#utility.yul\":7954:8045   */\n      tag_162\n        /* \"#utility.yul\":8003:8044   */\n      tag_163\n        /* \"#utility.yul\":8027:8043   */\n      dup3\n        /* \"#utility.yul\":8003:8044   */\n      tag_76\n      jump\t// in\n    tag_163:\n        /* \"#utility.yul\":7995:8001   */\n      dup5\n        /* \"#utility.yul\":7988:7992   */\n      dup5\n        /* \"#utility.yul\":7982:7993   */\n      sload\n        /* \"#utility.yul\":7954:8045   */\n      tag_73\n      jump\t// in\n    tag_162:\n        /* \"#utility.yul\":7948:7952   */\n      dup3\n        /* \"#utility.yul\":7941:8046   */\n      sstore\n        /* \"#utility.yul\":7859:8052   */\n      pop\n        /* \"#utility.yul\":7783:8052   */\n      pop\n      pop\n      pop\n      jump\t// out\n        /* \"#utility.yul\":8058:8131   */\n    tag_78:\n        /* \"#utility.yul\":8103:8106   */\n      0x00\n        /* \"#utility.yul\":8124:8125   */\n      0x00\n        /* \"#utility.yul\":8117:8125   */\n      swap1\n      pop\n        /* \"#utility.yul\":8058:8131   */\n      swap1\n      jump\t// out\n        /* \"#utility.yul\":8137:8326   */\n    tag_79:\n        /* \"#utility.yul\":8214:8246   */\n      tag_166\n      tag_78\n      jump\t// in\n    tag_166:\n        /* \"#utility.yul\":8255:8320   */\n      tag_167\n        /* \"#utility.yul\":8313:8319   */\n      dup2\n        /* \"#utility.yul\":8305:8311   */\n      dup5\n        /* \"#utility.yul\":8299:8303   */\n      dup5\n        /* \"#utility.yul\":8255:8320   */\n      tag_77\n      jump\t// in\n    tag_167:\n        /* \"#utility.yul\":8190:8326   */\n      pop\n        /* \"#utility.yul\":8137:8326   */\n      pop\n      pop\n      jump\t// out\n        /* \"#utility.yul\":8332:8518   */\n    tag_80:\n        /* \"#utility.yul\":8392:8512   */\n    tag_169:\n        /* \"#utility.yul\":8409:8412   */\n      dup2\n        /* \"#utility.yul\":8402:8407   */\n      dup2\n        /* \"#utility.yul\":8399:8413   */\n      lt\n        /* \"#utility.yul\":8392:8512   */\n      iszero\n      tag_171\n      jumpi\n        /* \"#utility.yul\":8463:8502   */\n      tag_172\n        /* \"#utility.yul\":8500:8501   */\n      0x00\n        /* \"#utility.yul\":8493:8498   */\n      dup3\n        /* \"#utility.yul\":8463:8502   */\n      tag_79\n      jump\t// in\n    tag_172:\n        /* \"#utility.yul\":8436:8437   */\n      0x01\n        /* \"#utility.yul\":8429:8434   */\n      dup2\n        /* \"#utility.yul\":8425:8438   */\n      add\n        /* \"#utility.yul\":8416:8438   */\n      swap1\n      pop\n        /* \"#utility.yul\":8392:8512   */\n      jump(tag_169)\n    tag_171:\n        /* \"#utility.yul\":8332:8518   */\n      pop\n      pop\n      jump\t// out\n        /* \"#utility.yul\":8524:9065   */\n    tag_81:\n        /* \"#utility.yul\":8624:8626   */\n      0x1f\n        /* \"#utility.yul\":8619:8622   */\n      dup3\n        /* \"#utility.yul\":8616:8627   */\n      gt\n        /* \"#utility.yul\":8613:9058   */\n      iszero\n      tag_174\n      jumpi\n        /* \"#utility.yul\":8658:8695   */\n      tag_175\n        /* \"#utility.yul\":8689:8694   */\n      dup2\n        /* \"#utility.yul\":8658:8695   */\n      tag_70\n      jump\t// in\n    tag_175:\n        /* \"#utility.yul\":8741:8770   */\n      tag_176\n        /* \"#utility.yul\":8759:8769   */\n      dup5\n        /* \"#utility.yul\":8741:8770   */\n      tag_71\n      jump\t// in\n    tag_176:\n        /* \"#utility.yul\":8731:8739   */\n      dup2\n        /* \"#utility.yul\":8727:8771   */\n      add\n        /* \"#utility.yul\":8924:8926   */\n      0x20\n        /* \"#utility.yul\":8912:8922   */\n      dup6\n        /* \"#utility.yul\":8909:8927   */\n      lt\n        /* \"#utility.yul\":8906:8955   */\n      iszero\n      tag_177\n      jumpi\n        /* \"#utility.yul\":8945:8953   */\n      dup2\n        /* \"#utility.yul\":8930:8953   */\n      swap1\n      pop\n        /* \"#utility.yul\":8906:8955   */\n    tag_177:\n        /* \"#utility.yul\":8968:9048   */\n      tag_178\n        /* \"#utility.yul\":9024:9046   */\n      tag_179\n        /* \"#utility.yul\":9042:9045   */\n      dup6\n        /* \"#utility.yul\":9024:9046   */\n      tag_71\n      jump\t// in\n    tag_179:\n        /* \"#utility.yul\":9014:9022   */\n      dup4\n        /* \"#utility.yul\":9010:9047   */\n      add\n        /* \"#utility.yul\":8997:9008   */\n      dup3\n        /* \"#utility.yul\":8968:9048   */\n      tag_80\n      jump\t// in\n    tag_178:\n        /* \"#utility.yul\":8628:9058   */\n      pop\n      pop\n        /* \"#utility.yul\":8613:9058   */\n    tag_174:\n        /* \"#utility.yul\":8524:9065   */\n      pop\n      pop\n      pop\n      jump\t// out\n        /* \"#utility.yul\":9071:9188   */\n    tag_82:\n        /* \"#utility.yul\":9125:9133   */\n      0x00\n        /* \"#utility.yul\":9175:9180   */\n      dup3\n        /* \"#utility.yul\":9169:9173   */\n      dup3\n        /* \"#utility.yul\":9165:9181   */\n      shr\n        /* \"#utility.yul\":9144:9181   */\n      swap1\n      pop\n        /* \"#utility.yul\":9071:9188   */\n      swap3\n      swap2\n      pop\n      pop\n      jump\t// out\n        /* \"#utility.yul\":9194:9363   */\n    tag_83:\n        /* \"#utility.yul\":9238:9244   */\n      0x00\n        /* \"#utility.yul\":9271:9322   */\n      tag_182\n        /* \"#utility.yul\":9319:9320   */\n      0x00\n        /* \"#utility.yul\":9315:9321   */\n      not\n        /* \"#utility.yul\":9307:9312   */\n      dup5\n        /* \"#utility.yul\":9304:9305   */\n      0x08\n        /* \"#utility.yul\":9300:9313   */\n      mul\n        /* \"#utility.yul\":9271:9322   */\n      tag_82\n      jump\t// in\n    tag_182:\n        /* \"#utility.yul\":9267:9323   */\n      not\n        /* \"#utility.yul\":9352:9356   */\n      dup1\n        /* \"#utility.yul\":9346:9350   */\n      dup4\n        /* \"#utility.yul\":9342:9357   */\n      and\n        /* \"#utility.yul\":9332:9357   */\n      swap2\n      pop\n        /* \"#utility.yul\":9245:9363   */\n      pop\n        /* \"#utility.yul\":9194:9363   */\n      swap3\n      swap2\n      pop\n      pop\n      jump\t// out\n        /* \"#utility.yul\":9368:9663   */\n    tag_84:\n        /* \"#utility.yul\":9444:9448   */\n      0x00\n        /* \"#utility.yul\":9590:9619   */\n      tag_184\n        /* \"#utility.yul\":9615:9618   */\n      dup4\n        /* \"#utility.yul\":9609:9613   */\n      dup4\n        /* \"#utility.yul\":9590:9619   */\n      tag_83\n      jump\t// in\n    tag_184:\n        /* \"#utility.yul\":9582:9619   */\n      swap2\n      pop\n        /* \"#utility.yul\":9652:9655   */\n      dup3\n        /* \"#utility.yul\":9649:9650   */\n      0x02\n        /* \"#utility.yul\":9645:9656   */\n      mul\n        /* \"#utility.yul\":9639:9643   */\n      dup3\n        /* \"#utility.yul\":9636:9657   */\n      or\n        /* \"#utility.yul\":9628:9657   */\n      swap1\n      pop\n        /* \"#utility.yul\":9368:9663   */\n      swap3\n      swap2\n      pop\n      pop\n      jump\t// out\n        /* \"#utility.yul\":9668:11058   */\n    tag_43:\n        /* \"#utility.yul\":9783:9819   */\n      tag_186\n        /* \"#utility.yul\":9815:9818   */\n      dup3\n        /* \"#utility.yul\":9783:9819   */\n      tag_51\n      jump\t// in\n    tag_186:\n        /* \"#utility.yul\":9884:9902   */\n      0xffffffffffffffff\n        /* \"#utility.yul\":9876:9882   */\n      dup2\n        /* \"#utility.yul\":9873:9903   */\n      gt\n        /* \"#utility.yul\":9870:9926   */\n      iszero\n      tag_187\n      jumpi\n        /* \"#utility.yul\":9906:9924   */\n      tag_188\n      tag_69\n      jump\t// in\n    tag_188:\n        /* \"#utility.yul\":9870:9926   */\n    tag_187:\n        /* \"#utility.yul\":9950:9988   */\n      tag_189\n        /* \"#utility.yul\":9982:9986   */\n      dup3\n        /* \"#utility.yul\":9976:9987   */\n      sload\n        /* \"#utility.yul\":9950:9988   */\n      tag_28\n      jump\t// in\n    tag_189:\n        /* \"#utility.yul\":10035:10101   */\n      tag_190\n        /* \"#utility.yul\":10094:10100   */\n      dup3\n        /* \"#utility.yul\":10086:10092   */\n      dup3\n        /* \"#utility.yul\":10080:10084   */\n      dup6\n        /* \"#utility.yul\":10035:10101   */\n      tag_81\n      jump\t// in\n    tag_190:\n        /* \"#utility.yul\":10128:10129   */\n      0x00\n        /* \"#utility.yul\":10152:10156   */\n      0x20\n        /* \"#utility.yul\":10139:10156   */\n      swap1\n      pop\n        /* \"#utility.yul\":10184:10186   */\n      0x1f\n        /* \"#utility.yul\":10176:10182   */\n      dup4\n        /* \"#utility.yul\":10173:10187   */\n      gt\n        /* \"#utility.yul\":10201:10202   */\n      0x01\n        /* \"#utility.yul\":10196:10813   */\n      dup2\n      eq\n      tag_192\n      jumpi\n        /* \"#utility.yul\":10857:10858   */\n      0x00\n        /* \"#utility.yul\":10874:10880   */\n      dup5\n        /* \"#utility.yul\":10871:10948   */\n      iszero\n      tag_193\n      jumpi\n        /* \"#utility.yul\":10923:10932   */\n      dup3\n        /* \"#utility.yul\":10918:10921   */\n      dup8\n        /* \"#utility.yul\":10914:10933   */\n      add\n        /* \"#utility.yul\":10908:10934   */\n      mload\n        /* \"#utility.yul\":10899:10934   */\n      swap1\n      pop\n        /* \"#utility.yul\":10871:10948   */\n    tag_193:\n        /* \"#utility.yul\":10974:11041   */\n      tag_194\n        /* \"#utility.yul\":11034:11040   */\n      dup6\n        /* \"#utility.yul\":11027:11032   */\n      dup3\n        /* \"#utility.yul\":10974:11041   */\n      tag_84\n      jump\t// in\n    tag_194:\n        /* \"#utility.yul\":10968:10972   */\n      dup7\n        /* \"#utility.yul\":10961:11042   */\n      sstore\n        /* \"#utility.yul\":10830:11052   */\n      pop\n        /* \"#utility.yul\":10166:11052   */\n      jump(tag_191)\n        /* \"#utility.yul\":10196:10813   */\n    tag_192:\n        /* \"#utility.yul\":10248:10252   */\n      0x1f\n        /* \"#utility.yul\":10244:10253   */\n      not\n        /* \"#utility.yul\":10236:10242   */\n      dup5\n        /* \"#utility.yul\":10232:10254   */\n      and\n        /* \"#utility.yul\":10282:10318   */\n      tag_195\n        /* \"#utility.yul\":10313:10317   */\n      dup7\n        /* \"#utility.yul\":10282:10318   */\n      tag_70\n      jump\t// in\n    tag_195:\n        /* \"#utility.yul\":10340:10341   */\n      0x00\n        /* \"#utility.yul\":10354:10562   */\n    tag_196:\n        /* \"#utility.yul\":10368:10375   */\n      dup3\n        /* \"#utility.yul\":10365:10366   */\n      dup2\n        /* \"#utility.yul\":10362:10376   */\n      lt\n        /* \"#utility.yul\":10354:10562   */\n      iszero\n      tag_198\n      jumpi\n        /* \"#utility.yul\":10447:10456   */\n      dup5\n        /* \"#utility.yul\":10442:10445   */\n      dup10\n        /* \"#utility.yul\":10438:10457   */\n      add\n        /* \"#utility.yul\":10432:10458   */\n      mload\n        /* \"#utility.yul\":10424:10430   */\n      dup3\n        /* \"#utility.yul\":10417:10459   */\n      sstore\n        /* \"#utility.yul\":10498:10499   */\n      0x01\n        /* \"#utility.yul\":10490:10496   */\n      dup3\n        /* \"#utility.yul\":10486:10500   */\n      add\n        /* \"#utility.yul\":10476:10500   */\n      swap2\n      pop\n        /* \"#utility.yul\":10545:10547   */\n      0x20\n        /* \"#utility.yul\":10534:10543   */\n      dup6\n        /* \"#utility.yul\":10530:10548   */\n      add\n        /* \"#utility.yul\":10517:10548   */\n      swap5\n      pop\n        /* \"#utility.yul\":10391:10395   */\n      0x20\n        /* \"#utility.yul\":10388:10389   */\n      dup2\n        /* \"#utility.yul\":10384:10396   */\n      add\n        /* \"#utility.yul\":10379:10396   */\n      swap1\n      pop\n        /* \"#utility.yul\":10354:10562   */\n      jump(tag_196)\n    tag_198:\n        /* \"#utility.yul\":10590:10596   */\n      dup7\n        /* \"#utility.yul\":10581:10588   */\n      dup4\n        /* \"#utility.yul\":10578:10597   */\n      lt\n        /* \"#utility.yul\":10575:10754   */\n      iszero\n      tag_199\n      jumpi\n        /* \"#utility.yul\":10648:10657   */\n      dup5\n        /* \"#utility.yul\":10643:10646   */\n      dup10\n        /* \"#utility.yul\":10639:10658   */\n      add\n        /* \"#utility.yul\":10633:10659   */\n      mload\n        /* \"#utility.yul\":10691:10739   */\n      tag_200\n        /* \"#utility.yul\":10733:10737   */\n      0x1f\n        /* \"#utility.yul\":10725:10731   */\n      dup10\n        /* \"#utility.yul\":10721:10738   */\n      and\n        /* \"#utility.yul\":10710:10719   */\n      dup3\n        /* \"#utility.yul\":10691:10739   */\n      tag_83\n      jump\t// in\n    tag_200:\n        /* \"#utility.yul\":10683:10689   */\n      dup4\n        /* \"#utility.yul\":10676:10740   */\n      sstore\n        /* \"#utility.yul\":10598:10754   */\n      pop\n        /* \"#utility.yul\":10575:10754   */\n    tag_199:\n        /* \"#utility.yul\":10800:10801   */\n      0x01\n        /* \"#utility.yul\":10796:10797   */\n      0x02\n        /* \"#utility.yul\":10788:10794   */\n      dup9\n        /* \"#utility.yul\":10784:10798   */\n      mul\n        /* \"#utility.yul\":10780:10802   */\n      add\n        /* \"#utility.yul\":10774:10778   */\n      dup9\n        /* \"#utility.yul\":10767:10803   */\n      sstore\n        /* \"#utility.yul\":10203:10813   */\n      pop\n      pop\n      pop\n        /* \"#utility.yul\":10166:11052   */\n    tag_191:\n      pop\n        /* \"#utility.yul\":9758:11058   */\n      pop\n      pop\n      pop\n        /* \"#utility.yul\":9668:11058   */\n      pop\n      pop\n      jump\t// out\n\n    auxdata: 0xa2646970667358221220627ca61952651db58ec18c36745d4fd6db7e3edf510d7cfbfffdae48a191b71c64736f6c634300081e0033\n}\n",
				"bytecode": {
					"linkReferences": {},
					"object": "6080604052348015600e575f5ffd5b506109818061001c5f395ff3fe608060405260043610610033575f3560e01c806334732e741461003757806373d4a13a1461005f578063edcbe76c14610089575b5f5ffd5b348015610042575f5ffd5b5061005d6004803603810190610058919061040b565b6100a5565b005b34801561006a575f5ffd5b506100736101d3565b60405161008091906104a6565b60405180910390f35b6100a3600480360381019061009e919061040b565b61025e565b005b5f8173ffffffffffffffffffffffffffffffffffffffff166040516024016040516020818303038152906040527f1dcc85ae000000000000000000000000000000000000000000000000000000007bffffffffffffffffffffffffffffffffffffffffffffffffffffffff19166020820180517bffffffffffffffffffffffffffffffffffffffffffffffffffffffff838183161783525050505060405161014d9190610500565b5f604051808303815f865af19150503d805f8114610186576040519150601f19603f3d011682016040523d82523d5f602084013e61018b565b606091505b50509050806101cf576040517f08c379a00000000000000000000000000000000000000000000000000000000081526004016101c690610570565b60405180910390fd5b5050565b5f80546101df906105bb565b80601f016020809104026020016040519081016040528092919081815260200182805461020b906105bb565b80156102565780601f1061022d57610100808354040283529160200191610256565b820191905f5260205f20905b81548152906001019060200180831161023957829003601f168201915b505050505081565b5f5f8273ffffffffffffffffffffffffffffffffffffffff16606f607b60405160240161028b9190610683565b6040516020818303038152906040527f24ccab8f000000000000000000000000000000000000000000000000000000007bffffffffffffffffffffffffffffffffffffffffffffffffffffffff19166020820180517bffffffffffffffffffffffffffffffffffffffffffffffffffffffff83818316178352505050506040516103159190610500565b5f6040518083038185875af1925050503d805f811461034f576040519150601f19603f3d011682016040523d82523d5f602084013e610354565b606091505b509150915081610399576040517f08c379a000000000000000000000000000000000000000000000000000000000815260040161039090610570565b60405180910390fd5b805f90816103a7919061087c565b50505050565b5f5ffd5b5f73ffffffffffffffffffffffffffffffffffffffff82169050919050565b5f6103da826103b1565b9050919050565b6103ea816103d0565b81146103f4575f5ffd5b50565b5f81359050610405816103e1565b92915050565b5f602082840312156104205761041f6103ad565b5b5f61042d848285016103f7565b91505092915050565b5f81519050919050565b5f82825260208201905092915050565b8281835e5f83830152505050565b5f601f19601f8301169050919050565b5f61047882610436565b6104828185610440565b9350610492818560208601610450565b61049b8161045e565b840191505092915050565b5f6020820190508181035f8301526104be818461046e565b905092915050565b5f81905092915050565b5f6104da82610436565b6104e481856104c6565b93506104f4818560208601610450565b80840191505092915050565b5f61050b82846104d0565b915081905092915050565b5f82825260208201905092915050565b7f63616c6c206661696c65640000000000000000000000000000000000000000005f82015250565b5f61055a600b83610516565b915061056582610526565b602082019050919050565b5f6020820190508181035f8301526105878161054e565b9050919050565b7f4e487b71000000000000000000000000000000000000000000000000000000005f52602260045260245ffd5b5f60028204905060018216806105d257607f821691505b6020821081036105e5576105e461058e565b5b50919050565b7f63616c6c20666f6f0000000000000000000000000000000000000000000000005f82015250565b5f61061f600883610516565b915061062a826105eb565b602082019050919050565b5f819050919050565b5f60ff82169050919050565b5f819050919050565b5f61066d61066861066384610635565b61064a565b61063e565b9050919050565b61067d81610653565b82525050565b5f6040820190508181035f83015261069a81610613565b90506106a96020830184610674565b92915050565b7f4e487b71000000000000000000000000000000000000000000000000000000005f52604160045260245ffd5b5f819050815f5260205f209050919050565b5f6020601f8301049050919050565b5f82821b905092915050565b5f600883026107387fffffffffffffffffffffffffffffffffffffffffffffffffffffffffffffffff826106fd565b61074286836106fd565b95508019841693508086168417925050509392505050565b5f819050919050565b5f61077d6107786107738461075a565b61064a565b61075a565b9050919050565b5f819050919050565b61079683610763565b6107aa6107a282610784565b848454610709565b825550505050565b5f5f905090565b6107c16107b2565b6107cc81848461078d565b505050565b5b818110156107ef576107e45f826107b9565b6001810190506107d2565b5050565b601f82111561083457610805816106dc565b61080e846106ee565b8101602085101561081d578190505b610831610829856106ee565b8301826107d1565b50505b505050565b5f82821c905092915050565b5f6108545f1984600802610839565b1980831691505092915050565b5f61086c8383610845565b9150826002028217905092915050565b61088582610436565b67ffffffffffffffff81111561089e5761089d6106af565b5b6108a882546105bb565b6108b38282856107f3565b5f60209050601f8311600181146108e4575f84156108d2578287015190505b6108dc8582610861565b865550610943565b601f1984166108f2866106dc565b5f5b82811015610919578489015182556001820191506020850194506020810190506108f4565b868310156109365784890151610932601f891682610845565b8355505b6001600288020188555050505b50505050505056fea2646970667358221220627ca61952651db58ec18c36745d4fd6db7e3edf510d7cfbfffdae48a191b71c64736f6c634300081e0033",
					"opcodes": "PUSH1 0x80 PUSH1 0x40 MSTORE CALLVALUE DUP1 ISZERO PUSH1 0xE JUMPI PUSH0 PUSH0 REVERT JUMPDEST POP PUSH2 0x981 DUP1 PUSH2 0x1C PUSH0 CODECOPY PUSH0 RETURN INVALID PUSH1 0x80 PUSH1 0x40 MSTORE PUSH1 0x4 CALLDATASIZE LT PUSH2 0x33 JUMPI PUSH0 CALLDATALOAD PUSH1 0xE0 SHR DUP1 PUSH4 0x34732E74 EQ PUSH2 0x37 JUMPI DUP1 PUSH4 0x73D4A13A EQ PUSH2 0x5F JUMPI DUP1 PUSH4 0xEDCBE76C EQ PUSH2 0x89 JUMPI JUMPDEST PUSH0 PUSH0 REVERT JUMPDEST CALLVALUE DUP1 ISZERO PUSH2 0x42 JUMPI PUSH0 PUSH0 REVERT JUMPDEST POP PUSH2 0x5D PUSH1 0x4 DUP1 CALLDATASIZE SUB DUP2 ADD SWAP1 PUSH2 0x58 SWAP2 SWAP1 PUSH2 0x40B JUMP JUMPDEST PUSH2 0xA5 JUMP JUMPDEST STOP JUMPDEST CALLVALUE DUP1 ISZERO PUSH2 0x6A JUMPI PUSH0 PUSH0 REVERT JUMPDEST POP PUSH2 0x73 PUSH2 0x1D3 JUMP JUMPDEST PUSH1 0x40 MLOAD PUSH2 0x80 SWAP2 SWAP1 PUSH2 0x4A6 JUMP JUMPDEST PUSH1 0x40 MLOAD DUP1 SWAP2 SUB SWAP1 RETURN JUMPDEST PUSH2 0xA3 PUSH1 0x4 DUP1 CALLDATASIZE SUB DUP2 ADD SWAP1 PUSH2 0x9E SWAP2 SWAP1 PUSH2 0x40B JUMP JUMPDEST PUSH2 0x25E JUMP JUMPDEST STOP JUMPDEST PUSH0 DUP2 PUSH20 0xFFFFFFFFFFFFFFFFFFFFFFFFFFFFFFFFFFFFFFFF AND PUSH1 0x40 MLOAD PUSH1 0x24 ADD PUSH1 0x40 MLOAD PUSH1 0x20 DUP2 DUP4 SUB SUB DUP2 MSTORE SWAP1 PUSH1 0x40 MSTORE PUSH32 0x1DCC85AE00000000000000000000000000000000000000000000000000000000 PUSH28 0xFFFFFFFFFFFFFFFFFFFFFFFFFFFFFFFFFFFFFFFFFFFFFFFFFFFFFFFF NOT AND PUSH1 0x20 DUP3 ADD DUP1 MLOAD PUSH28 0xFFFFFFFFFFFFFFFFFFFFFFFFFFFFFFFFFFFFFFFFFFFFFFFFFFFFFFFF DUP4 DUP2 DUP4 AND OR DUP4 MSTORE POP POP POP POP PUSH1 0x40 MLOAD PUSH2 0x14D SWAP2 SWAP1 PUSH2 0x500 JUMP JUMPDEST PUSH0 PUSH1 0x40 MLOAD DUP1 DUP4 SUB DUP2 PUSH0 DUP7 GAS CALL SWAP2 POP POP RETURNDATASIZE DUP1 PUSH0 DUP2 EQ PUSH2 0x186 JUMPI PUSH1 0x40 MLOAD SWAP2 POP PUSH1 0x1F NOT PUSH1 0x3F RETURNDATASIZE ADD AND DUP3 ADD PUSH1 0x40 MSTORE RETURNDATASIZE DUP3 MSTORE RETURNDATASIZE PUSH0 PUSH1 0x20 DUP5 ADD RETURNDATACOPY PUSH2 0x18B JUMP JUMPDEST PUSH1 0x60 SWAP2 POP JUMPDEST POP POP SWAP1 POP DUP1 PUSH2 0x1CF JUMPI PUSH1 0x40 MLOAD PUSH32 0x8C379A000000000000000000000000000000000000000000000000000000000 DUP2 MSTORE PUSH1 0x4 ADD PUSH2 0x1C6 SWAP1 PUSH2 0x570 JUMP JUMPDEST PUSH1 0x40 MLOAD DUP1 SWAP2 SUB SWAP1 REVERT JUMPDEST POP POP JUMP JUMPDEST PUSH0 DUP1 SLOAD PUSH2 0x1DF SWAP1 PUSH2 0x5BB JUMP JUMPDEST DUP1 PUSH1 0x1F ADD PUSH1 0x20 DUP1 SWAP2 DIV MUL PUSH1 0x20 ADD PUSH1 0x40 MLOAD SWAP1 DUP2 ADD PUSH1 0x40 MSTORE DUP1 SWAP3 SWAP2 SWAP1 DUP2 DUP2 MSTORE PUSH1 0x20 ADD DUP3 DUP1 SLOAD PUSH2 0x20B SWAP1 PUSH2 0x5BB JUMP JUMPDEST DUP1 ISZERO PUSH2 0x256 JUMPI DUP1 PUSH1 0x1F LT PUSH2 0x22D JUMPI PUSH2 0x100 DUP1 DUP4 SLOAD DIV MUL DUP4 MSTORE SWAP2 PUSH1 0x20 ADD SWAP2 PUSH2 0x256 JUMP JUMPDEST DUP3 ADD SWAP2 SWAP1 PUSH0 MSTORE PUSH1 0x20 PUSH0 KECCAK256 SWAP1 JUMPDEST DUP2 SLOAD DUP2 MSTORE SWAP1 PUSH1 0x1 ADD SWAP1 PUSH1 0x20 ADD DUP1 DUP4 GT PUSH2 0x239 JUMPI DUP3 SWAP1 SUB PUSH1 0x1F AND DUP3 ADD SWAP2 JUMPDEST POP POP POP POP POP DUP2 JUMP JUMPDEST PUSH0 PUSH0 DUP3 PUSH20 0xFFFFFFFFFFFFFFFFFFFFFFFFFFFFFFFFFFFFFFFF AND PUSH1 0x6F PUSH1 0x7B PUSH1 0x40 MLOAD PUSH1 0x24 ADD PUSH2 0x28B SWAP2 SWAP1 PUSH2 0x683 JUMP JUMPDEST PUSH1 0x40 MLOAD PUSH1 0x20 DUP2 DUP4 SUB SUB DUP2 MSTORE SWAP1 PUSH1 0x40 MSTORE PUSH32 0x24CCAB8F00000000000000000000000000000000000000000000000000000000 PUSH28 0xFFFFFFFFFFFFFFFFFFFFFFFFFFFFFFFFFFFFFFFFFFFFFFFFFFFFFFFF NOT AND PUSH1 0x20 DUP3 ADD DUP1 MLOAD PUSH28 0xFFFFFFFFFFFFFFFFFFFFFFFFFFFFFFFFFFFFFFFFFFFFFFFFFFFFFFFF DUP4 DUP2 DUP4 AND OR DUP4 MSTORE POP POP POP POP PUSH1 0x40 MLOAD PUSH2 0x315 SWAP2 SWAP1 PUSH2 0x500 JUMP JUMPDEST PUSH0 PUSH1 0x40 MLOAD DUP1 DUP4 SUB DUP2 DUP6 DUP8 GAS CALL SWAP3 POP POP POP RETURNDATASIZE DUP1 PUSH0 DUP2 EQ PUSH2 0x34F JUMPI PUSH1 0x40 MLOAD SWAP2 POP PUSH1 0x1F NOT PUSH1 0x3F RETURNDATASIZE ADD AND DUP3 ADD PUSH1 0x40 MSTORE RETURNDATASIZE DUP3 MSTORE RETURNDATASIZE PUSH0 PUSH1 0x20 DUP5 ADD RETURNDATACOPY PUSH2 0x354 JUMP JUMPDEST PUSH1 0x60 SWAP2 POP JUMPDEST POP SWAP2 POP SWAP2 POP DUP2 PUSH2 0x399 JUMPI PUSH1 0x40 MLOAD PUSH32 0x8C379A000000000000000000000000000000000000000000000000000000000 DUP2 MSTORE PUSH1 0x4 ADD PUSH2 0x390 SWAP1 PUSH2 0x570 JUMP JUMPDEST PUSH1 0x40 MLOAD DUP1 SWAP2 SUB SWAP1 REVERT JUMPDEST DUP1 PUSH0 SWAP1 DUP2 PUSH2 0x3A7 SWAP2 SWAP1 PUSH2 0x87C JUMP JUMPDEST POP POP POP POP JUMP JUMPDEST PUSH0 PUSH0 REVERT JUMPDEST PUSH0 PUSH20 0xFFFFFFFFFFFFFFFFFFFFFFFFFFFFFFFFFFFFFFFF DUP3 AND SWAP1 POP SWAP2 SWAP1 POP JUMP JUMPDEST PUSH0 PUSH2 0x3DA DUP3 PUSH2 0x3B1 JUMP JUMPDEST SWAP1 POP SWAP2 SWAP1 POP JUMP JUMPDEST PUSH2 0x3EA DUP2 PUSH2 0x3D0 JUMP JUMPDEST DUP2 EQ PUSH2 0x3F4 JUMPI PUSH0 PUSH0 REVERT JUMPDEST POP JUMP JUMPDEST PUSH0 DUP2 CALLDATALOAD SWAP1 POP PUSH2 0x405 DUP2 PUSH2 0x3E1 JUMP JUMPDEST SWAP3 SWAP2 POP POP JUMP JUMPDEST PUSH0 PUSH1 0x20 DUP3 DUP5 SUB SLT ISZERO PUSH2 0x420 JUMPI PUSH2 0x41F PUSH2 0x3AD JUMP JUMPDEST JUMPDEST PUSH0 PUSH2 0x42D DUP5 DUP3 DUP6 ADD PUSH2 0x3F7 JUMP JUMPDEST SWAP2 POP POP SWAP3 SWAP2 POP POP JUMP JUMPDEST PUSH0 DUP2 MLOAD SWAP1 POP SWAP2 SWAP1 POP JUMP JUMPDEST PUSH0 DUP3 DUP3 MSTORE PUSH1 0x20 DUP3 ADD SWAP1 POP SWAP3 SWAP2 POP POP JUMP JUMPDEST DUP3 DUP2 DUP4 MCOPY PUSH0 DUP4 DUP4 ADD MSTORE POP POP POP JUMP JUMPDEST PUSH0 PUSH1 0x1F NOT PUSH1 0x1F DUP4 ADD AND SWAP1 POP SWAP2 SWAP1 POP JUMP JUMPDEST PUSH0 PUSH2 0x478 DUP3 PUSH2 0x436 JUMP JUMPDEST PUSH2 0x482 DUP2 DUP6 PUSH2 0x440 JUMP JUMPDEST SWAP4 POP PUSH2 0x492 DUP2 DUP6 PUSH1 0x20 DUP7 ADD PUSH2 0x450 JUMP JUMPDEST PUSH2 0x49B DUP2 PUSH2 0x45E JUMP JUMPDEST DUP5 ADD SWAP2 POP POP SWAP3 SWAP2 POP POP JUMP JUMPDEST PUSH0 PUSH1 0x20 DUP3 ADD SWAP1 POP DUP2 DUP2 SUB PUSH0 DUP4 ADD MSTORE PUSH2 0x4BE DUP2 DUP5 PUSH2 0x46E JUMP JUMPDEST SWAP1 POP SWAP3 SWAP2 POP POP JUMP JUMPDEST PUSH0 DUP2 SWAP1 POP SWAP3 SWAP2 POP POP JUMP JUMPDEST PUSH0 PUSH2 0x4DA DUP3 PUSH2 0x436 JUMP JUMPDEST PUSH2 0x4E4 DUP2 DUP6 PUSH2 0x4C6 JUMP JUMPDEST SWAP4 POP PUSH2 0x4F4 DUP2 DUP6 PUSH1 0x20 DUP7 ADD PUSH2 0x450 JUMP JUMPDEST DUP1 DUP5 ADD SWAP2 POP POP SWAP3 SWAP2 POP POP JUMP JUMPDEST PUSH0 PUSH2 0x50B DUP3 DUP5 PUSH2 0x4D0 JUMP JUMPDEST SWAP2 POP DUP2 SWAP1 POP SWAP3 SWAP2 POP POP JUMP JUMPDEST PUSH0 DUP3 DUP3 MSTORE PUSH1 0x20 DUP3 ADD SWAP1 POP SWAP3 SWAP2 POP POP JUMP JUMPDEST PUSH32 0x63616C6C206661696C6564000000000000000000000000000000000000000000 PUSH0 DUP3 ADD MSTORE POP JUMP JUMPDEST PUSH0 PUSH2 0x55A PUSH1 0xB DUP4 PUSH2 0x516 JUMP JUMPDEST SWAP2 POP PUSH2 0x565 DUP3 PUSH2 0x526 JUMP JUMPDEST PUSH1 0x20 DUP3 ADD SWAP1 POP SWAP2 SWAP1 POP JUMP JUMPDEST PUSH0 PUSH1 0x20 DUP3 ADD SWAP1 POP DUP2 DUP2 SUB PUSH0 DUP4 ADD MSTORE PUSH2 0x587 DUP2 PUSH2 0x54E JUMP JUMPDEST SWAP1 POP SWAP2 SWAP1 POP JUMP JUMPDEST PUSH32 0x4E487B7100000000000000000000000000000000000000000000000000000000 PUSH0 MSTORE PUSH1 0x22 PUSH1 0x4 MSTORE PUSH1 0x24 PUSH0 REVERT JUMPDEST PUSH0 PUSH1 0x2 DUP3 DIV SWAP1 POP PUSH1 0x1 DUP3 AND DUP1 PUSH2 0x5D2 JUMPI PUSH1 0x7F DUP3 AND SWAP2 POP JUMPDEST PUSH1 0x20 DUP3 LT DUP2 SUB PUSH2 0x5E5 JUMPI PUSH2 0x5E4 PUSH2 0x58E JUMP JUMPDEST JUMPDEST POP SWAP2 SWAP1 POP JUMP JUMPDEST PUSH32 0x63616C6C20666F6F000000000000000000000000000000000000000000000000 PUSH0 DUP3 ADD MSTORE POP JUMP JUMPDEST PUSH0 PUSH2 0x61F PUSH1 0x8 DUP4 PUSH2 0x516 JUMP JUMPDEST SWAP2 POP PUSH2 0x62A DUP3 PUSH2 0x5EB JUMP JUMPDEST PUSH1 0x20 DUP3 ADD SWAP1 POP SWAP2 SWAP1 POP JUMP JUMPDEST PUSH0 DUP2 SWAP1 POP SWAP2 SWAP1 POP JUMP JUMPDEST PUSH0 PUSH1 0xFF DUP3 AND SWAP1 POP SWAP2 SWAP1 POP JUMP JUMPDEST PUSH0 DUP2 SWAP1 POP SWAP2 SWAP1 POP JUMP JUMPDEST PUSH0 PUSH2 0x66D PUSH2 0x668 PUSH2 0x663 DUP5 PUSH2 0x635 JUMP JUMPDEST PUSH2 0x64A JUMP JUMPDEST PUSH2 0x63E JUMP JUMPDEST SWAP1 POP SWAP2 SWAP1 POP JUMP JUMPDEST PUSH2 0x67D DUP2 PUSH2 0x653 JUMP JUMPDEST DUP3 MSTORE POP POP JUMP JUMPDEST PUSH0 PUSH1 0x40 DUP3 ADD SWAP1 POP DUP2 DUP2 SUB PUSH0 DUP4 ADD MSTORE PUSH2 0x69A DUP2 PUSH2 0x613 JUMP JUMPDEST SWAP1 POP PUSH2 0x6A9 PUSH1 0x20 DUP4 ADD DUP5 PUSH2 0x674 JUMP JUMPDEST SWAP3 SWAP2 POP POP JUMP JUMPDEST PUSH32 0x4E487B7100000000000000000000000000000000000000000000000000000000 PUSH0 MSTORE PUSH1 0x41 PUSH1 0x4 MSTORE PUSH1 0x24 PUSH0 REVERT JUMPDEST PUSH0 DUP2 SWAP1 POP DUP2 PUSH0 MSTORE PUSH1 0x20 PUSH0 KECCAK256 SWAP1 POP SWAP2 SWAP1 POP JUMP JUMPDEST PUSH0 PUSH1 0x20 PUSH1 0x1F DUP4 ADD DIV SWAP1 POP SWAP2 SWAP1 POP JUMP JUMPDEST PUSH0 DUP3 DUP3 SHL SWAP1 POP SWAP3 SWAP2 POP POP JUMP JUMPDEST PUSH0 PUSH1 0x8 DUP4 MUL PUSH2 0x738 PUSH32 0xFFFFFFFFFFFFFFFFFFFFFFFFFFFFFFFFFFFFFFFFFFFFFFFFFFFFFFFFFFFFFFFF DUP3 PUSH2 0x6FD JUMP JUMPDEST PUSH2 0x742 DUP7 DUP4 PUSH2 0x6FD JUMP JUMPDEST SWAP6 POP DUP1 NOT DUP5 AND SWAP4 POP DUP1 DUP7 AND DUP5 OR SWAP3 POP POP POP SWAP4 SWAP3 POP POP POP JUMP JUMPDEST PUSH0 DUP2 SWAP1 POP SWAP2 SWAP1 POP JUMP JUMPDEST PUSH0 PUSH2 0x77D PUSH2 0x778 PUSH2 0x773 DUP5 PUSH2 0x75A JUMP JUMPDEST PUSH2 0x64A JUMP JUMPDEST PUSH2 0x75A JUMP JUMPDEST SWAP1 POP SWAP2 SWAP1 POP JUMP JUMPDEST PUSH0 DUP2 SWAP1 POP SWAP2 SWAP1 POP JUMP JUMPDEST PUSH2 0x796 DUP4 PUSH2 0x763 JUMP JUMPDEST PUSH2 0x7AA PUSH2 0x7A2 DUP3 PUSH2 0x784 JUMP JUMPDEST DUP5 DUP5 SLOAD PUSH2 0x709 JUMP JUMPDEST DUP3 SSTORE POP POP POP POP JUMP JUMPDEST PUSH0 PUSH0 SWAP1 POP SWAP1 JUMP JUMPDEST PUSH2 0x7C1 PUSH2 0x7B2 JUMP JUMPDEST PUSH2 0x7CC DUP2 DUP5 DUP5 PUSH2 0x78D JUMP JUMPDEST POP POP POP JUMP JUMPDEST JUMPDEST DUP2 DUP2 LT ISZERO PUSH2 0x7EF JUMPI PUSH2 0x7E4 PUSH0 DUP3 PUSH2 0x7B9 JUMP JUMPDEST PUSH1 0x1 DUP2 ADD SWAP1 POP PUSH2 0x7D2 JUMP JUMPDEST POP POP JUMP JUMPDEST PUSH1 0x1F DUP3 GT ISZERO PUSH2 0x834 JUMPI PUSH2 0x805 DUP2 PUSH2 0x6DC JUMP JUMPDEST PUSH2 0x80E DUP5 PUSH2 0x6EE JUMP JUMPDEST DUP2 ADD PUSH1 0x20 DUP6 LT ISZERO PUSH2 0x81D JUMPI DUP2 SWAP1 POP JUMPDEST PUSH2 0x831 PUSH2 0x829 DUP6 PUSH2 0x6EE JUMP JUMPDEST DUP4 ADD DUP3 PUSH2 0x7D1 JUMP JUMPDEST POP POP JUMPDEST POP POP POP JUMP JUMPDEST PUSH0 DUP3 DUP3 SHR SWAP1 POP SWAP3 SWAP2 POP POP JUMP JUMPDEST PUSH0 PUSH2 0x854 PUSH0 NOT DUP5 PUSH1 0x8 MUL PUSH2 0x839 JUMP JUMPDEST NOT DUP1 DUP4 AND SWAP2 POP POP SWAP3 SWAP2 POP POP JUMP JUMPDEST PUSH0 PUSH2 0x86C DUP4 DUP4 PUSH2 0x845 JUMP JUMPDEST SWAP2 POP DUP3 PUSH1 0x2 MUL DUP3 OR SWAP1 POP SWAP3 SWAP2 POP POP JUMP JUMPDEST PUSH2 0x885 DUP3 PUSH2 0x436 JUMP JUMPDEST PUSH8 0xFFFFFFFFFFFFFFFF DUP2 GT ISZERO PUSH2 0x89E JUMPI PUSH2 0x89D PUSH2 0x6AF JUMP JUMPDEST JUMPDEST PUSH2 0x8A8 DUP3 SLOAD PUSH2 0x5BB JUMP JUMPDEST PUSH2 0x8B3 DUP3 DUP3 DUP6 PUSH2 0x7F3 JUMP JUMPDEST PUSH0 PUSH1 0x20 SWAP1 POP PUSH1 0x1F DUP4 GT PUSH1 0x1 DUP2 EQ PUSH2 0x8E4 JUMPI PUSH0 DUP5 ISZERO PUSH2 0x8D2 JUMPI DUP3 DUP8 ADD MLOAD SWAP1 POP JUMPDEST PUSH2 0x8DC DUP6 DUP3 PUSH2 0x861 JUMP JUMPDEST DUP7 SSTORE POP PUSH2 0x943 JUMP JUMPDEST PUSH1 0x1F NOT DUP5 AND PUSH2 0x8F2 DUP7 PUSH2 0x6DC JUMP JUMPDEST PUSH0 JUMPDEST DUP3 DUP2 LT ISZERO PUSH2 0x919 JUMPI DUP5 DUP10 ADD MLOAD DUP3 SSTORE PUSH1 0x1 DUP3 ADD SWAP2 POP PUSH1 0x20 DUP6 ADD SWAP5 POP PUSH1 0x20 DUP2 ADD SWAP1 POP PUSH2 0x8F4 JUMP JUMPDEST DUP7 DUP4 LT ISZERO PUSH2 0x936 JUMPI DUP5 DUP10 ADD MLOAD PUSH2 0x932 PUSH1 0x1F DUP10 AND DUP3 PUSH2 0x845 JUMP JUMPDEST DUP4 SSTORE POP JUMPDEST PUSH1 0x1 PUSH1 0x2 DUP9 MUL ADD DUP9 SSTORE POP POP POP JUMPDEST POP POP POP POP POP POP JUMP INVALID LOG2 PUSH5 0x6970667358 0x22 SLT KECCAK256 PUSH3 0x7CA619 MSTORE PUSH6 0x1DB58EC18C36 PUSH21 0x5D4FD6DB7E3EDF510D7CFBFFFDAE48A191B71C6473 PUSH16 0x6C634300081E00330000000000000000 "
				},
				"gasEstimates": {
					"creation": {
						"codeDepositCost": "486600",
						"executionCost": "522",
						"totalCost": "487122"
					},
					"external": {
						"callDoneNotExit(address)": "infinite",
						"callFoo(address)": "infinite",
						"data()": "infinite"
					}
				},
				"methodIdentifiers": {
					"callDoneNotExit(address)": "34732e74",
					"callFoo(address)": "edcbe76c",
					"data()": "73d4a13a"
				}
			},
			"storageLayout": {
				"storage": [
					{
						"astId": 44,
						"contract": "Call.sol:Call",
						"label": "data",
						"offset": 0,
						"slot": "0",
						"type": "t_bytes_storage"
					}
				],
				"types": {
					"t_bytes_storage": {
						"encoding": "bytes",
						"label": "bytes",
						"numberOfBytes": "32"
					}
				}
			},
			"userdoc": {
				"kind": "user",
				"methods": {},
				"version": 1
			}
		}
	}
}