{
	"MultiSigWallet.sol": {
		"MultiSigWallet": {
			"abi": [
				{
					"inputs": [
						{
							"internalType": "address[]",
							"name": "_owners",
							"type": "address[]"
						},
						{
							"internalType": "uint256",
							"name": "_required",
							"type": "uint256"
						}
					],
					"stateMutability": "nonpayable",
					"type": "constructor"
				},
				{
					"anonymous": false,
					"inputs": [
						{
							"indexed": true,
							"internalType": "address",
							"name": "owner",
							"type": "address"
						},
						{
							"indexed": true,
							"internalType": "uint256",
							"name": "txId",
							"type": "uint256"
						}
					],
					"name": "Approve",
					"type": "event"
				},
				{
					"anonymous": false,
					"inputs": [
						{
							"indexed": true,
							"internalType": "address",
							"name": "sender",
							"type": "address"
						},
						{
							"indexed": false,
							"internalType": "uint256",
							"name": "amount",
							"type": "uint256"
						}
					],
					"name": "Deposit",
					"type": "event"
				},
				{
					"anonymous": false,
					"inputs": [
						{
							"indexed": true,
							"internalType": "uint256",
							"name": "txId",
							"type": "uint256"
						}
					],
					"name": "Execute",
					"type": "event"
				},
				{
					"anonymous": false,
					"inputs": [
						{
							"indexed": true,
							"internalType": "address",
							"name": "owner",
							"type": "address"
						},
						{
							"indexed": true,
							"internalType": "uint256",
							"name": "txId",
							"type": "uint256"
						}
					],
					"name": "Revoke",
					"type": "event"
				},
				{
					"anonymous": false,
					"inputs": [
						{
							"indexed": true,
							"internalType": "uint256",
							"name": "txId",
							"type": "uint256"
						}
					],
					"name": "Submit",
					"type": "event"
				},
				{
					"inputs": [
						{
							"internalType": "uint256",
							"name": "_txId",
							"type": "uint256"
						}
					],
					"name": "approve",
					"outputs": [],
					"stateMutability": "nonpayable",
					"type": "function"
				},
				{
					"inputs": [
						{
							"internalType": "uint256",
							"name": "",
							"type": "uint256"
						},
						{
							"internalType": "address",
							"name": "",
							"type": "address"
						}
					],
					"name": "approved",
					"outputs": [
						{
							"internalType": "bool",
							"name": "",
							"type": "bool"
						}
					],
					"stateMutability": "view",
					"type": "function"
				},
				{
					"inputs": [
						{
							"internalType": "uint256",
							"name": "_txId",
							"type": "uint256"
						}
					],
					"name": "execution",
					"outputs": [],
					"stateMutability": "nonpayable",
					"type": "function"
				},
				{
					"inputs": [
						{
							"internalType": "address",
							"name": "",
							"type": "address"
						}
					],
					"name": "isOwner",
					"outputs": [
						{
							"internalType": "bool",
							"name": "",
							"type": "bool"
						}
					],
					"stateMutability": "view",
					"type": "function"
				},
				{
					"inputs": [
						{
							"internalType": "uint256",
							"name": "",
							"type": "uint256"
						}
					],
					"name": "owners",
					"outputs": [
						{
							"internalType": "address",
							"name": "",
							"type": "address"
						}
					],
					"stateMutability": "view",
					"type": "function"
				},
				{
					"inputs": [],
					"name": "required",
					"outputs": [
						{
							"internalType": "uint256",
							"name": "",
							"type": "uint256"
						}
					],
					"stateMutability": "view",
					"type": "function"
				},
				{
					"inputs": [
						{
							"internalType": "uint256",
							"name": "_txId",
							"type": "uint256"
						}
					],
					"name": "revoke",
					"outputs": [],
					"stateMutability": "nonpayable",
					"type": "function"
				},
				{
					"inputs": [
						{
							"internalType": "address",
							"name": "_to",
							"type": "address"
						},
						{
							"internalType": "uint256",
							"name": "_value",
							"type": "uint256"
						},
						{
							"internalType": "bytes",
							"name": "_data",
							"type": "bytes"
						}
					],
					"name": "submit",
					"outputs": [],
					"stateMutability": "nonpayable",
					"type": "function"
				},
				{
					"inputs": [
						{
							"internalType": "uint256",
							"name": "",
							"type": "uint256"
						}
					],
					"name": "transactions",
					"outputs": [
						{
							"internalType": "address",
							"name": "to",
							"type": "address"
						},
						{
							"internalType": "uint256",
							"name": "value",
							"type": "uint256"
						},
						{
							"internalType": "bytes",
							"name": "data",
							"type": "bytes"
						},
						{
							"internalType": "bool",
							"name": "executed",
							"type": "bool"
						}
					],
					"stateMutability": "view",
					"type": "function"
				},
				{
					"stateMutability": "payable",
					"type": "receive"
				}
			],
			"devdoc": {
				"kind": "dev",
				"methods": {},
				"version": 1
			},
			"evm": {
				"assembly": "    /* \"MultiSigWallet.sol\":88:3555  contract MultiSigWallet {... */\n  mstore(0x40, 0x80)\n    /* \"MultiSigWallet.sol\":1212:1757  constructor(address[] memory _owners, uint _required){... */\n  callvalue\n  dup1\n  iszero\n  tag_1\n  jumpi\n  revert(0x00, 0x00)\ntag_1:\n  pop\n  mload(0x40)\n  sub(codesize, bytecodeSize)\n  dup1\n  bytecodeSize\n  dup4\n  codecopy\n  dup2\n  dup2\n  add\n  0x40\n  mstore\n  dup2\n  add\n  swap1\n  tag_2\n  swap2\n  swap1\n  tag_3\n  jump\t// in\ntag_2:\n    /* \"MultiSigWallet.sol\":1301:1302  0 */\n  0x00\n    /* \"MultiSigWallet.sol\":1284:1291  _owners */\n  dup3\n    /* \"MultiSigWallet.sol\":1284:1298  _owners.length */\n  mload\n    /* \"MultiSigWallet.sol\":1284:1302  _owners.length > 0 */\n  gt\n    /* \"MultiSigWallet.sol\":1276:1322  require(_owners.length > 0, \"owners required\") */\n  tag_6\n  jumpi\n  mload(0x40)\n  0x08c379a000000000000000000000000000000000000000000000000000000000\n  dup2\n  mstore\n  0x04\n  add\n  tag_7\n  swap1\n  tag_8\n  jump\t// in\ntag_7:\n  mload(0x40)\n  dup1\n  swap2\n  sub\n  swap1\n  revert\ntag_6:\n    /* \"MultiSigWallet.sol\":1353:1354  0 */\n  0x00\n    /* \"MultiSigWallet.sol\":1341:1350  _required */\n  dup2\n    /* \"MultiSigWallet.sol\":1341:1354  _required > 0 */\n  gt\n    /* \"MultiSigWallet.sol\":1341:1385  _required > 0 && _required <= _owners.length */\n  dup1\n  iszero\n  tag_9\n  jumpi\n  pop\n    /* \"MultiSigWallet.sol\":1371:1378  _owners */\n  dup2\n    /* \"MultiSigWallet.sol\":1371:1385  _owners.length */\n  mload\n    /* \"MultiSigWallet.sol\":1358:1367  _required */\n  dup2\n    /* \"MultiSigWallet.sol\":1358:1385  _required <= _owners.length */\n  gt\n  iszero\n    /* \"MultiSigWallet.sol\":1341:1385  _required > 0 && _required <= _owners.length */\ntag_9:\n    /* \"MultiSigWallet.sol\":1333:1423  require(_required > 0 && _required <= _owners.length,\"invalid required number of owners\" ) */\n  tag_10\n  jumpi\n  mload(0x40)\n  0x08c379a000000000000000000000000000000000000000000000000000000000\n  dup2\n  mstore\n  0x04\n  add\n  tag_11\n  swap1\n  tag_12\n  jump\t// in\ntag_11:\n  mload(0x40)\n  dup1\n  swap2\n  sub\n  swap1\n  revert\ntag_10:\n    /* \"MultiSigWallet.sol\":1440:1446  uint i */\n  0x00\n    /* \"MultiSigWallet.sol\":1436:1719  for(uint i ; i < _owners.length; i++){... */\ntag_13:\n    /* \"MultiSigWallet.sol\":1453:1460  _owners */\n  dup3\n    /* \"MultiSigWallet.sol\":1453:1467  _owners.length */\n  mload\n    /* \"MultiSigWallet.sol\":1449:1450  i */\n  dup2\n    /* \"MultiSigWallet.sol\":1449:1467  i < _owners.length */\n  lt\n    /* \"MultiSigWallet.sol\":1436:1719  for(uint i ; i < _owners.length; i++){... */\n  iszero\n  tag_14\n  jumpi\n    /* \"MultiSigWallet.sol\":1488:1501  address owner */\n  0x00\n    /* \"MultiSigWallet.sol\":1504:1511  _owners */\n  dup4\n    /* \"MultiSigWallet.sol\":1512:1513  i */\n  dup3\n    /* \"MultiSigWallet.sol\":1504:1514  _owners[i] */\n  dup2\n  mload\n  dup2\n  lt\n  tag_16\n  jumpi\n  tag_17\n  tag_18\n  jump\t// in\ntag_17:\ntag_16:\n  0x20\n  mul\n  0x20\n  add\n  add\n  mload\n    /* \"MultiSigWallet.sol\":1488:1514  address owner = _owners[i] */\n  swap1\n  pop\n    /* \"MultiSigWallet.sol\":1554:1555  0 */\n  0x00\n    /* \"MultiSigWallet.sol\":1537:1556  owner != address(0) */\n  0xffffffffffffffffffffffffffffffffffffffff\n  and\n    /* \"MultiSigWallet.sol\":1537:1542  owner */\n  dup2\n    /* \"MultiSigWallet.sol\":1537:1556  owner != address(0) */\n  0xffffffffffffffffffffffffffffffffffffffff\n  and\n  sub\n    /* \"MultiSigWallet.sol\":1529:1574  require(owner != address(0), \"invalid owner\") */\n  tag_19\n  jumpi\n  mload(0x40)\n  0x08c379a000000000000000000000000000000000000000000000000000000000\n  dup2\n  mstore\n  0x04\n  add\n  tag_20\n  swap1\n  tag_21\n  jump\t// in\ntag_20:\n  mload(0x40)\n  dup1\n  swap2\n  sub\n  swap1\n  revert\ntag_19:\n    /* \"MultiSigWallet.sol\":1598:1605  isOwner */\n  0x01\n    /* \"MultiSigWallet.sol\":1598:1612  isOwner[owner] */\n  0x00\n    /* \"MultiSigWallet.sol\":1606:1611  owner */\n  dup3\n    /* \"MultiSigWallet.sol\":1598:1612  isOwner[owner] */\n  0xffffffffffffffffffffffffffffffffffffffff\n  and\n  0xffffffffffffffffffffffffffffffffffffffff\n  and\n  dup2\n  mstore\n  0x20\n  add\n  swap1\n  dup2\n  mstore\n  0x20\n  add\n  0x00\n  keccak256\n  0x00\n  swap1\n  sload\n  swap1\n  0x0100\n  exp\n  swap1\n  div\n  0xff\n  and\n    /* \"MultiSigWallet.sol\":1597:1612  !isOwner[owner] */\n  iszero\n    /* \"MultiSigWallet.sol\":1589:1636  require(!isOwner[owner], \"owner is not unique\") */\n  tag_22\n  jumpi\n  mload(0x40)\n  0x08c379a000000000000000000000000000000000000000000000000000000000\n  dup2\n  mstore\n  0x04\n  add\n  tag_23\n  swap1\n  tag_24\n  jump\t// in\ntag_23:\n  mload(0x40)\n  dup1\n  swap2\n  sub\n  swap1\n  revert\ntag_22:\n    /* \"MultiSigWallet.sol\":1670:1674  true */\n  0x01\n    /* \"MultiSigWallet.sol\":1653:1660  isOwner */\n  dup1\n    /* \"MultiSigWallet.sol\":1653:1667  isOwner[owner] */\n  0x00\n    /* \"MultiSigWallet.sol\":1661:1666  owner */\n  dup4\n    /* \"MultiSigWallet.sol\":1653:1667  isOwner[owner] */\n  0xffffffffffffffffffffffffffffffffffffffff\n  and\n  0xffffffffffffffffffffffffffffffffffffffff\n  and\n  dup2\n  mstore\n  0x20\n  add\n  swap1\n  dup2\n  mstore\n  0x20\n  add\n  0x00\n  keccak256\n  0x00\n    /* \"MultiSigWallet.sol\":1653:1674  isOwner[owner] = true */\n  0x0100\n  exp\n  dup2\n  sload\n  dup2\n  0xff\n  mul\n  not\n  and\n  swap1\n  dup4\n  iszero\n  iszero\n  mul\n  or\n  swap1\n  sstore\n  pop\n    /* \"MultiSigWallet.sol\":1689:1695  owners */\n  0x00\n    /* \"MultiSigWallet.sol\":1701:1706  owner */\n  dup2\n    /* \"MultiSigWallet.sol\":1689:1707  owners.push(owner) */\n  swap1\n  dup1\n  0x01\n  dup2\n  sload\n  add\n  dup1\n  dup3\n  sstore\n  dup1\n  swap2\n  pop\n  pop\n  0x01\n  swap1\n  sub\n  swap1\n  0x00\n  mstore\n  keccak256(0x00, 0x20)\n  add\n  0x00\n  swap1\n  swap2\n  swap1\n  swap2\n  swap1\n  swap2\n  0x0100\n  exp\n  dup2\n  sload\n  dup2\n  0xffffffffffffffffffffffffffffffffffffffff\n  mul\n  not\n  and\n  swap1\n  dup4\n  0xffffffffffffffffffffffffffffffffffffffff\n  and\n  mul\n  or\n  swap1\n  sstore\n  pop\n    /* \"MultiSigWallet.sol\":1473:1719  {... */\n  pop\n    /* \"MultiSigWallet.sol\":1469:1472  i++ */\n  dup1\n  dup1\n  0x01\n  add\n  swap2\n  pop\n  pop\n    /* \"MultiSigWallet.sol\":1436:1719  for(uint i ; i < _owners.length; i++){... */\n  jump(tag_13)\ntag_14:\n  pop\n    /* \"MultiSigWallet.sol\":1740:1749  _required */\n  dup1\n    /* \"MultiSigWallet.sol\":1729:1737  required */\n  0x02\n    /* \"MultiSigWallet.sol\":1729:1749  required = _required */\n  dup2\n  swap1\n  sstore\n  pop\n    /* \"MultiSigWallet.sol\":1212:1757  constructor(address[] memory _owners, uint _required){... */\n  pop\n  pop\n    /* \"MultiSigWallet.sol\":88:3555  contract MultiSigWallet {... */\n  jump(tag_26)\n    /* \"#utility.yul\":7:82   */\ntag_27:\n    /* \"#utility.yul\":40:46   */\n  0x00\n    /* \"#utility.yul\":73:75   */\n  0x40\n    /* \"#utility.yul\":67:76   */\n  mload\n    /* \"#utility.yul\":57:76   */\n  swap1\n  pop\n    /* \"#utility.yul\":7:82   */\n  swap1\n  jump\t// out\n    /* \"#utility.yul\":88:205   */\ntag_28:\n    /* \"#utility.yul\":197:198   */\n  0x00\n    /* \"#utility.yul\":194:195   */\n  0x00\n    /* \"#utility.yul\":187:199   */\n  revert\n    /* \"#utility.yul\":211:328   */\ntag_29:\n    /* \"#utility.yul\":320:321   */\n  0x00\n    /* \"#utility.yul\":317:318   */\n  0x00\n    /* \"#utility.yul\":310:322   */\n  revert\n    /* \"#utility.yul\":334:451   */\ntag_30:\n    /* \"#utility.yul\":443:444   */\n  0x00\n    /* \"#utility.yul\":440:441   */\n  0x00\n    /* \"#utility.yul\":433:445   */\n  revert\n    /* \"#utility.yul\":457:559   */\ntag_31:\n    /* \"#utility.yul\":498:504   */\n  0x00\n    /* \"#utility.yul\":549:551   */\n  0x1f\n    /* \"#utility.yul\":545:552   */\n  not\n    /* \"#utility.yul\":540:542   */\n  0x1f\n    /* \"#utility.yul\":533:538   */\n  dup4\n    /* \"#utility.yul\":529:543   */\n  add\n    /* \"#utility.yul\":525:553   */\n  and\n    /* \"#utility.yul\":515:553   */\n  swap1\n  pop\n    /* \"#utility.yul\":457:559   */\n  swap2\n  swap1\n  pop\n  jump\t// out\n    /* \"#utility.yul\":565:745   */\ntag_32:\n    /* \"#utility.yul\":613:690   */\n  0x4e487b7100000000000000000000000000000000000000000000000000000000\n    /* \"#utility.yul\":610:611   */\n  0x00\n    /* \"#utility.yul\":603:691   */\n  mstore\n    /* \"#utility.yul\":710:714   */\n  0x41\n    /* \"#utility.yul\":707:708   */\n  0x04\n    /* \"#utility.yul\":700:715   */\n  mstore\n    /* \"#utility.yul\":734:738   */\n  0x24\n    /* \"#utility.yul\":731:732   */\n  0x00\n    /* \"#utility.yul\":724:739   */\n  revert\n    /* \"#utility.yul\":751:1032   */\ntag_33:\n    /* \"#utility.yul\":834:861   */\n  tag_63\n    /* \"#utility.yul\":856:860   */\n  dup3\n    /* \"#utility.yul\":834:861   */\n  tag_31\n  jump\t// in\ntag_63:\n    /* \"#utility.yul\":826:832   */\n  dup2\n    /* \"#utility.yul\":822:862   */\n  add\n    /* \"#utility.yul\":964:970   */\n  dup2\n    /* \"#utility.yul\":952:962   */\n  dup2\n    /* \"#utility.yul\":949:971   */\n  lt\n    /* \"#utility.yul\":928:946   */\n  0xffffffffffffffff\n    /* \"#utility.yul\":916:926   */\n  dup3\n    /* \"#utility.yul\":913:947   */\n  gt\n    /* \"#utility.yul\":910:972   */\n  or\n    /* \"#utility.yul\":907:995   */\n  iszero\n  tag_64\n  jumpi\n    /* \"#utility.yul\":975:993   */\n  tag_65\n  tag_32\n  jump\t// in\ntag_65:\n    /* \"#utility.yul\":907:995   */\ntag_64:\n    /* \"#utility.yul\":1015:1025   */\n  dup1\n    /* \"#utility.yul\":1011:1013   */\n  0x40\n    /* \"#utility.yul\":1004:1026   */\n  mstore\n    /* \"#utility.yul\":794:1032   */\n  pop\n    /* \"#utility.yul\":751:1032   */\n  pop\n  pop\n  jump\t// out\n    /* \"#utility.yul\":1038:1167   */\ntag_34:\n    /* \"#utility.yul\":1072:1078   */\n  0x00\n    /* \"#utility.yul\":1099:1119   */\n  tag_67\n  tag_27\n  jump\t// in\ntag_67:\n    /* \"#utility.yul\":1089:1119   */\n  swap1\n  pop\n    /* \"#utility.yul\":1128:1161   */\n  tag_68\n    /* \"#utility.yul\":1156:1160   */\n  dup3\n    /* \"#utility.yul\":1148:1154   */\n  dup3\n    /* \"#utility.yul\":1128:1161   */\n  tag_33\n  jump\t// in\ntag_68:\n    /* \"#utility.yul\":1038:1167   */\n  swap2\n  swap1\n  pop\n  jump\t// out\n    /* \"#utility.yul\":1173:1484   */\ntag_35:\n    /* \"#utility.yul\":1250:1254   */\n  0x00\n    /* \"#utility.yul\":1340:1358   */\n  0xffffffffffffffff\n    /* \"#utility.yul\":1332:1338   */\n  dup3\n    /* \"#utility.yul\":1329:1359   */\n  gt\n    /* \"#utility.yul\":1326:1382   */\n  iszero\n  tag_70\n  jumpi\n    /* \"#utility.yul\":1362:1380   */\n  tag_71\n  tag_32\n  jump\t// in\ntag_71:\n    /* \"#utility.yul\":1326:1382   */\ntag_70:\n    /* \"#utility.yul\":1412:1416   */\n  0x20\n    /* \"#utility.yul\":1404:1410   */\n  dup3\n    /* \"#utility.yul\":1400:1417   */\n  mul\n    /* \"#utility.yul\":1392:1417   */\n  swap1\n  pop\n    /* \"#utility.yul\":1472:1476   */\n  0x20\n    /* \"#utility.yul\":1466:1470   */\n  dup2\n    /* \"#utility.yul\":1462:1477   */\n  add\n    /* \"#utility.yul\":1454:1477   */\n  swap1\n  pop\n    /* \"#utility.yul\":1173:1484   */\n  swap2\n  swap1\n  pop\n  jump\t// out\n    /* \"#utility.yul\":1490:1607   */\ntag_36:\n    /* \"#utility.yul\":1599:1600   */\n  0x00\n    /* \"#utility.yul\":1596:1597   */\n  0x00\n    /* \"#utility.yul\":1589:1601   */\n  revert\n    /* \"#utility.yul\":1613:1739   */\ntag_37:\n    /* \"#utility.yul\":1650:1657   */\n  0x00\n    /* \"#utility.yul\":1690:1732   */\n  0xffffffffffffffffffffffffffffffffffffffff\n    /* \"#utility.yul\":1683:1688   */\n  dup3\n    /* \"#utility.yul\":1679:1733   */\n  and\n    /* \"#utility.yul\":1668:1733   */\n  swap1\n  pop\n    /* \"#utility.yul\":1613:1739   */\n  swap2\n  swap1\n  pop\n  jump\t// out\n    /* \"#utility.yul\":1745:1841   */\ntag_38:\n    /* \"#utility.yul\":1782:1789   */\n  0x00\n    /* \"#utility.yul\":1811:1835   */\n  tag_75\n    /* \"#utility.yul\":1829:1834   */\n  dup3\n    /* \"#utility.yul\":1811:1835   */\n  tag_37\n  jump\t// in\ntag_75:\n    /* \"#utility.yul\":1800:1835   */\n  swap1\n  pop\n    /* \"#utility.yul\":1745:1841   */\n  swap2\n  swap1\n  pop\n  jump\t// out\n    /* \"#utility.yul\":1847:1969   */\ntag_39:\n    /* \"#utility.yul\":1920:1944   */\n  tag_77\n    /* \"#utility.yul\":1938:1943   */\n  dup2\n    /* \"#utility.yul\":1920:1944   */\n  tag_38\n  jump\t// in\ntag_77:\n    /* \"#utility.yul\":1913:1918   */\n  dup2\n    /* \"#utility.yul\":1910:1945   */\n  eq\n    /* \"#utility.yul\":1900:1963   */\n  tag_78\n  jumpi\n    /* \"#utility.yul\":1959:1960   */\n  0x00\n    /* \"#utility.yul\":1956:1957   */\n  0x00\n    /* \"#utility.yul\":1949:1961   */\n  revert\n    /* \"#utility.yul\":1900:1963   */\ntag_78:\n    /* \"#utility.yul\":1847:1969   */\n  pop\n  jump\t// out\n    /* \"#utility.yul\":1975:2118   */\ntag_40:\n    /* \"#utility.yul\":2032:2037   */\n  0x00\n    /* \"#utility.yul\":2063:2069   */\n  dup2\n    /* \"#utility.yul\":2057:2070   */\n  mload\n    /* \"#utility.yul\":2048:2070   */\n  swap1\n  pop\n    /* \"#utility.yul\":2079:2112   */\n  tag_80\n    /* \"#utility.yul\":2106:2111   */\n  dup2\n    /* \"#utility.yul\":2079:2112   */\n  tag_39\n  jump\t// in\ntag_80:\n    /* \"#utility.yul\":1975:2118   */\n  swap3\n  swap2\n  pop\n  pop\n  jump\t// out\n    /* \"#utility.yul\":2141:2873   */\ntag_41:\n    /* \"#utility.yul\":2248:2253   */\n  0x00\n    /* \"#utility.yul\":2273:2354   */\n  tag_82\n    /* \"#utility.yul\":2289:2353   */\n  tag_83\n    /* \"#utility.yul\":2346:2352   */\n  dup5\n    /* \"#utility.yul\":2289:2353   */\n  tag_35\n  jump\t// in\ntag_83:\n    /* \"#utility.yul\":2273:2354   */\n  tag_34\n  jump\t// in\ntag_82:\n    /* \"#utility.yul\":2264:2354   */\n  swap1\n  pop\n    /* \"#utility.yul\":2374:2379   */\n  dup1\n    /* \"#utility.yul\":2403:2409   */\n  dup4\n    /* \"#utility.yul\":2396:2401   */\n  dup3\n    /* \"#utility.yul\":2389:2410   */\n  mstore\n    /* \"#utility.yul\":2437:2441   */\n  0x20\n    /* \"#utility.yul\":2430:2435   */\n  dup3\n    /* \"#utility.yul\":2426:2442   */\n  add\n    /* \"#utility.yul\":2419:2442   */\n  swap1\n  pop\n    /* \"#utility.yul\":2490:2494   */\n  0x20\n    /* \"#utility.yul\":2482:2488   */\n  dup5\n    /* \"#utility.yul\":2478:2495   */\n  mul\n    /* \"#utility.yul\":2470:2476   */\n  dup4\n    /* \"#utility.yul\":2466:2496   */\n  add\n    /* \"#utility.yul\":2519:2522   */\n  dup6\n    /* \"#utility.yul\":2511:2517   */\n  dup2\n    /* \"#utility.yul\":2508:2523   */\n  gt\n    /* \"#utility.yul\":2505:2627   */\n  iszero\n  tag_84\n  jumpi\n    /* \"#utility.yul\":2538:2617   */\n  tag_85\n  tag_36\n  jump\t// in\ntag_85:\n    /* \"#utility.yul\":2505:2627   */\ntag_84:\n    /* \"#utility.yul\":2653:2659   */\n  dup4\n    /* \"#utility.yul\":2636:2867   */\ntag_86:\n    /* \"#utility.yul\":2670:2676   */\n  dup2\n    /* \"#utility.yul\":2665:2668   */\n  dup2\n    /* \"#utility.yul\":2662:2677   */\n  lt\n    /* \"#utility.yul\":2636:2867   */\n  iszero\n  tag_88\n  jumpi\n    /* \"#utility.yul\":2745:2748   */\n  dup1\n    /* \"#utility.yul\":2774:2822   */\n  tag_89\n    /* \"#utility.yul\":2818:2821   */\n  dup9\n    /* \"#utility.yul\":2806:2816   */\n  dup3\n    /* \"#utility.yul\":2774:2822   */\n  tag_40\n  jump\t// in\ntag_89:\n    /* \"#utility.yul\":2769:2772   */\n  dup5\n    /* \"#utility.yul\":2762:2823   */\n  mstore\n    /* \"#utility.yul\":2852:2856   */\n  0x20\n    /* \"#utility.yul\":2847:2850   */\n  dup5\n    /* \"#utility.yul\":2843:2857   */\n  add\n    /* \"#utility.yul\":2836:2857   */\n  swap4\n  pop\n    /* \"#utility.yul\":2712:2867   */\n  pop\n    /* \"#utility.yul\":2696:2700   */\n  0x20\n    /* \"#utility.yul\":2691:2694   */\n  dup2\n    /* \"#utility.yul\":2687:2701   */\n  add\n    /* \"#utility.yul\":2680:2701   */\n  swap1\n  pop\n    /* \"#utility.yul\":2636:2867   */\n  jump(tag_86)\ntag_88:\n    /* \"#utility.yul\":2640:2661   */\n  pop\n    /* \"#utility.yul\":2254:2873   */\n  pop\n  pop\n    /* \"#utility.yul\":2141:2873   */\n  swap4\n  swap3\n  pop\n  pop\n  pop\n  jump\t// out\n    /* \"#utility.yul\":2896:3281   */\ntag_42:\n    /* \"#utility.yul\":2978:2983   */\n  0x00\n    /* \"#utility.yul\":3027:3030   */\n  dup3\n    /* \"#utility.yul\":3020:3024   */\n  0x1f\n    /* \"#utility.yul\":3012:3018   */\n  dup4\n    /* \"#utility.yul\":3008:3025   */\n  add\n    /* \"#utility.yul\":3004:3031   */\n  slt\n    /* \"#utility.yul\":2994:3116   */\n  tag_91\n  jumpi\n    /* \"#utility.yul\":3035:3114   */\n  tag_92\n  tag_30\n  jump\t// in\ntag_92:\n    /* \"#utility.yul\":2994:3116   */\ntag_91:\n    /* \"#utility.yul\":3145:3151   */\n  dup2\n    /* \"#utility.yul\":3139:3152   */\n  mload\n    /* \"#utility.yul\":3170:3275   */\n  tag_93\n    /* \"#utility.yul\":3271:3274   */\n  dup5\n    /* \"#utility.yul\":3263:3269   */\n  dup3\n    /* \"#utility.yul\":3256:3260   */\n  0x20\n    /* \"#utility.yul\":3248:3254   */\n  dup7\n    /* \"#utility.yul\":3244:3261   */\n  add\n    /* \"#utility.yul\":3170:3275   */\n  tag_41\n  jump\t// in\ntag_93:\n    /* \"#utility.yul\":3161:3275   */\n  swap2\n  pop\n    /* \"#utility.yul\":2984:3281   */\n  pop\n    /* \"#utility.yul\":2896:3281   */\n  swap3\n  swap2\n  pop\n  pop\n  jump\t// out\n    /* \"#utility.yul\":3287:3364   */\ntag_43:\n    /* \"#utility.yul\":3324:3331   */\n  0x00\n    /* \"#utility.yul\":3353:3358   */\n  dup2\n    /* \"#utility.yul\":3342:3358   */\n  swap1\n  pop\n    /* \"#utility.yul\":3287:3364   */\n  swap2\n  swap1\n  pop\n  jump\t// out\n    /* \"#utility.yul\":3370:3492   */\ntag_44:\n    /* \"#utility.yul\":3443:3467   */\n  tag_96\n    /* \"#utility.yul\":3461:3466   */\n  dup2\n    /* \"#utility.yul\":3443:3467   */\n  tag_43\n  jump\t// in\ntag_96:\n    /* \"#utility.yul\":3436:3441   */\n  dup2\n    /* \"#utility.yul\":3433:3468   */\n  eq\n    /* \"#utility.yul\":3423:3486   */\n  tag_97\n  jumpi\n    /* \"#utility.yul\":3482:3483   */\n  0x00\n    /* \"#utility.yul\":3479:3480   */\n  0x00\n    /* \"#utility.yul\":3472:3484   */\n  revert\n    /* \"#utility.yul\":3423:3486   */\ntag_97:\n    /* \"#utility.yul\":3370:3492   */\n  pop\n  jump\t// out\n    /* \"#utility.yul\":3498:3641   */\ntag_45:\n    /* \"#utility.yul\":3555:3560   */\n  0x00\n    /* \"#utility.yul\":3586:3592   */\n  dup2\n    /* \"#utility.yul\":3580:3593   */\n  mload\n    /* \"#utility.yul\":3571:3593   */\n  swap1\n  pop\n    /* \"#utility.yul\":3602:3635   */\n  tag_99\n    /* \"#utility.yul\":3629:3634   */\n  dup2\n    /* \"#utility.yul\":3602:3635   */\n  tag_44\n  jump\t// in\ntag_99:\n    /* \"#utility.yul\":3498:3641   */\n  swap3\n  swap2\n  pop\n  pop\n  jump\t// out\n    /* \"#utility.yul\":3647:4357   */\ntag_3:\n    /* \"#utility.yul\":3751:3757   */\n  0x00\n    /* \"#utility.yul\":3759:3765   */\n  0x00\n    /* \"#utility.yul\":3808:3810   */\n  0x40\n    /* \"#utility.yul\":3796:3805   */\n  dup4\n    /* \"#utility.yul\":3787:3794   */\n  dup6\n    /* \"#utility.yul\":3783:3806   */\n  sub\n    /* \"#utility.yul\":3779:3811   */\n  slt\n    /* \"#utility.yul\":3776:3895   */\n  iszero\n  tag_101\n  jumpi\n    /* \"#utility.yul\":3814:3893   */\n  tag_102\n  tag_28\n  jump\t// in\ntag_102:\n    /* \"#utility.yul\":3776:3895   */\ntag_101:\n    /* \"#utility.yul\":3955:3956   */\n  0x00\n    /* \"#utility.yul\":3944:3953   */\n  dup4\n    /* \"#utility.yul\":3940:3957   */\n  add\n    /* \"#utility.yul\":3934:3958   */\n  mload\n    /* \"#utility.yul\":3985:4003   */\n  0xffffffffffffffff\n    /* \"#utility.yul\":3977:3983   */\n  dup2\n    /* \"#utility.yul\":3974:4004   */\n  gt\n    /* \"#utility.yul\":3971:4088   */\n  iszero\n  tag_103\n  jumpi\n    /* \"#utility.yul\":4007:4086   */\n  tag_104\n  tag_29\n  jump\t// in\ntag_104:\n    /* \"#utility.yul\":3971:4088   */\ntag_103:\n    /* \"#utility.yul\":4112:4201   */\n  tag_105\n    /* \"#utility.yul\":4193:4200   */\n  dup6\n    /* \"#utility.yul\":4184:4190   */\n  dup3\n    /* \"#utility.yul\":4173:4182   */\n  dup7\n    /* \"#utility.yul\":4169:4191   */\n  add\n    /* \"#utility.yul\":4112:4201   */\n  tag_42\n  jump\t// in\ntag_105:\n    /* \"#utility.yul\":4102:4201   */\n  swap3\n  pop\n    /* \"#utility.yul\":3905:4211   */\n  pop\n    /* \"#utility.yul\":4250:4252   */\n  0x20\n    /* \"#utility.yul\":4276:4340   */\n  tag_106\n    /* \"#utility.yul\":4332:4339   */\n  dup6\n    /* \"#utility.yul\":4323:4329   */\n  dup3\n    /* \"#utility.yul\":4312:4321   */\n  dup7\n    /* \"#utility.yul\":4308:4330   */\n  add\n    /* \"#utility.yul\":4276:4340   */\n  tag_45\n  jump\t// in\ntag_106:\n    /* \"#utility.yul\":4266:4340   */\n  swap2\n  pop\n    /* \"#utility.yul\":4221:4350   */\n  pop\n    /* \"#utility.yul\":3647:4357   */\n  swap3\n  pop\n  swap3\n  swap1\n  pop\n  jump\t// out\n    /* \"#utility.yul\":4363:4532   */\ntag_46:\n    /* \"#utility.yul\":4447:4458   */\n  0x00\n    /* \"#utility.yul\":4481:4487   */\n  dup3\n    /* \"#utility.yul\":4476:4479   */\n  dup3\n    /* \"#utility.yul\":4469:4488   */\n  mstore\n    /* \"#utility.yul\":4521:4525   */\n  0x20\n    /* \"#utility.yul\":4516:4519   */\n  dup3\n    /* \"#utility.yul\":4512:4526   */\n  add\n    /* \"#utility.yul\":4497:4526   */\n  swap1\n  pop\n    /* \"#utility.yul\":4363:4532   */\n  swap3\n  swap2\n  pop\n  pop\n  jump\t// out\n    /* \"#utility.yul\":4538:4703   */\ntag_47:\n    /* \"#utility.yul\":4678:4695   */\n  0x6f776e6572732072657175697265640000000000000000000000000000000000\n    /* \"#utility.yul\":4674:4675   */\n  0x00\n    /* \"#utility.yul\":4666:4672   */\n  dup3\n    /* \"#utility.yul\":4662:4676   */\n  add\n    /* \"#utility.yul\":4655:4696   */\n  mstore\n    /* \"#utility.yul\":4538:4703   */\n  pop\n  jump\t// out\n    /* \"#utility.yul\":4709:5075   */\ntag_48:\n    /* \"#utility.yul\":4851:4854   */\n  0x00\n    /* \"#utility.yul\":4872:4939   */\n  tag_110\n    /* \"#utility.yul\":4936:4938   */\n  0x0f\n    /* \"#utility.yul\":4931:4934   */\n  dup4\n    /* \"#utility.yul\":4872:4939   */\n  tag_46\n  jump\t// in\ntag_110:\n    /* \"#utility.yul\":4865:4939   */\n  swap2\n  pop\n    /* \"#utility.yul\":4948:5041   */\n  tag_111\n    /* \"#utility.yul\":5037:5040   */\n  dup3\n    /* \"#utility.yul\":4948:5041   */\n  tag_47\n  jump\t// in\ntag_111:\n    /* \"#utility.yul\":5066:5068   */\n  0x20\n    /* \"#utility.yul\":5061:5064   */\n  dup3\n    /* \"#utility.yul\":5057:5069   */\n  add\n    /* \"#utility.yul\":5050:5069   */\n  swap1\n  pop\n    /* \"#utility.yul\":4709:5075   */\n  swap2\n  swap1\n  pop\n  jump\t// out\n    /* \"#utility.yul\":5081:5500   */\ntag_8:\n    /* \"#utility.yul\":5247:5251   */\n  0x00\n    /* \"#utility.yul\":5285:5287   */\n  0x20\n    /* \"#utility.yul\":5274:5283   */\n  dup3\n    /* \"#utility.yul\":5270:5288   */\n  add\n    /* \"#utility.yul\":5262:5288   */\n  swap1\n  pop\n    /* \"#utility.yul\":5334:5343   */\n  dup2\n    /* \"#utility.yul\":5328:5332   */\n  dup2\n    /* \"#utility.yul\":5324:5344   */\n  sub\n    /* \"#utility.yul\":5320:5321   */\n  0x00\n    /* \"#utility.yul\":5309:5318   */\n  dup4\n    /* \"#utility.yul\":5305:5322   */\n  add\n    /* \"#utility.yul\":5298:5345   */\n  mstore\n    /* \"#utility.yul\":5362:5493   */\n  tag_113\n    /* \"#utility.yul\":5488:5492   */\n  dup2\n    /* \"#utility.yul\":5362:5493   */\n  tag_48\n  jump\t// in\ntag_113:\n    /* \"#utility.yul\":5354:5493   */\n  swap1\n  pop\n    /* \"#utility.yul\":5081:5500   */\n  swap2\n  swap1\n  pop\n  jump\t// out\n    /* \"#utility.yul\":5506:5726   */\ntag_49:\n    /* \"#utility.yul\":5646:5680   */\n  0x696e76616c6964207265717569726564206e756d626572206f66206f776e6572\n    /* \"#utility.yul\":5642:5643   */\n  0x00\n    /* \"#utility.yul\":5634:5640   */\n  dup3\n    /* \"#utility.yul\":5630:5644   */\n  add\n    /* \"#utility.yul\":5623:5681   */\n  mstore\n    /* \"#utility.yul\":5715:5718   */\n  0x7300000000000000000000000000000000000000000000000000000000000000\n    /* \"#utility.yul\":5710:5712   */\n  0x20\n    /* \"#utility.yul\":5702:5708   */\n  dup3\n    /* \"#utility.yul\":5698:5713   */\n  add\n    /* \"#utility.yul\":5691:5719   */\n  mstore\n    /* \"#utility.yul\":5506:5726   */\n  pop\n  jump\t// out\n    /* \"#utility.yul\":5732:6098   */\ntag_50:\n    /* \"#utility.yul\":5874:5877   */\n  0x00\n    /* \"#utility.yul\":5895:5962   */\n  tag_116\n    /* \"#utility.yul\":5959:5961   */\n  0x21\n    /* \"#utility.yul\":5954:5957   */\n  dup4\n    /* \"#utility.yul\":5895:5962   */\n  tag_46\n  jump\t// in\ntag_116:\n    /* \"#utility.yul\":5888:5962   */\n  swap2\n  pop\n    /* \"#utility.yul\":5971:6064   */\n  tag_117\n    /* \"#utility.yul\":6060:6063   */\n  dup3\n    /* \"#utility.yul\":5971:6064   */\n  tag_49\n  jump\t// in\ntag_117:\n    /* \"#utility.yul\":6089:6091   */\n  0x40\n    /* \"#utility.yul\":6084:6087   */\n  dup3\n    /* \"#utility.yul\":6080:6092   */\n  add\n    /* \"#utility.yul\":6073:6092   */\n  swap1\n  pop\n    /* \"#utility.yul\":5732:6098   */\n  swap2\n  swap1\n  pop\n  jump\t// out\n    /* \"#utility.yul\":6104:6523   */\ntag_12:\n    /* \"#utility.yul\":6270:6274   */\n  0x00\n    /* \"#utility.yul\":6308:6310   */\n  0x20\n    /* \"#utility.yul\":6297:6306   */\n  dup3\n    /* \"#utility.yul\":6293:6311   */\n  add\n    /* \"#utility.yul\":6285:6311   */\n  swap1\n  pop\n    /* \"#utility.yul\":6357:6366   */\n  dup2\n    /* \"#utility.yul\":6351:6355   */\n  dup2\n    /* \"#utility.yul\":6347:6367   */\n  sub\n    /* \"#utility.yul\":6343:6344   */\n  0x00\n    /* \"#utility.yul\":6332:6341   */\n  dup4\n    /* \"#utility.yul\":6328:6345   */\n  add\n    /* \"#utility.yul\":6321:6368   */\n  mstore\n    /* \"#utility.yul\":6385:6516   */\n  tag_119\n    /* \"#utility.yul\":6511:6515   */\n  dup2\n    /* \"#utility.yul\":6385:6516   */\n  tag_50\n  jump\t// in\ntag_119:\n    /* \"#utility.yul\":6377:6516   */\n  swap1\n  pop\n    /* \"#utility.yul\":6104:6523   */\n  swap2\n  swap1\n  pop\n  jump\t// out\n    /* \"#utility.yul\":6529:6709   */\ntag_18:\n    /* \"#utility.yul\":6577:6654   */\n  0x4e487b7100000000000000000000000000000000000000000000000000000000\n    /* \"#utility.yul\":6574:6575   */\n  0x00\n    /* \"#utility.yul\":6567:6655   */\n  mstore\n    /* \"#utility.yul\":6674:6678   */\n  0x32\n    /* \"#utility.yul\":6671:6672   */\n  0x04\n    /* \"#utility.yul\":6664:6679   */\n  mstore\n    /* \"#utility.yul\":6698:6702   */\n  0x24\n    /* \"#utility.yul\":6695:6696   */\n  0x00\n    /* \"#utility.yul\":6688:6703   */\n  revert\n    /* \"#utility.yul\":6715:6878   */\ntag_51:\n    /* \"#utility.yul\":6855:6870   */\n  0x696e76616c6964206f776e657200000000000000000000000000000000000000\n    /* \"#utility.yul\":6851:6852   */\n  0x00\n    /* \"#utility.yul\":6843:6849   */\n  dup3\n    /* \"#utility.yul\":6839:6853   */\n  add\n    /* \"#utility.yul\":6832:6871   */\n  mstore\n    /* \"#utility.yul\":6715:6878   */\n  pop\n  jump\t// out\n    /* \"#utility.yul\":6884:7250   */\ntag_52:\n    /* \"#utility.yul\":7026:7029   */\n  0x00\n    /* \"#utility.yul\":7047:7114   */\n  tag_123\n    /* \"#utility.yul\":7111:7113   */\n  0x0d\n    /* \"#utility.yul\":7106:7109   */\n  dup4\n    /* \"#utility.yul\":7047:7114   */\n  tag_46\n  jump\t// in\ntag_123:\n    /* \"#utility.yul\":7040:7114   */\n  swap2\n  pop\n    /* \"#utility.yul\":7123:7216   */\n  tag_124\n    /* \"#utility.yul\":7212:7215   */\n  dup3\n    /* \"#utility.yul\":7123:7216   */\n  tag_51\n  jump\t// in\ntag_124:\n    /* \"#utility.yul\":7241:7243   */\n  0x20\n    /* \"#utility.yul\":7236:7239   */\n  dup3\n    /* \"#utility.yul\":7232:7244   */\n  add\n    /* \"#utility.yul\":7225:7244   */\n  swap1\n  pop\n    /* \"#utility.yul\":6884:7250   */\n  swap2\n  swap1\n  pop\n  jump\t// out\n    /* \"#utility.yul\":7256:7675   */\ntag_21:\n    /* \"#utility.yul\":7422:7426   */\n  0x00\n    /* \"#utility.yul\":7460:7462   */\n  0x20\n    /* \"#utility.yul\":7449:7458   */\n  dup3\n    /* \"#utility.yul\":7445:7463   */\n  add\n    /* \"#utility.yul\":7437:7463   */\n  swap1\n  pop\n    /* \"#utility.yul\":7509:7518   */\n  dup2\n    /* \"#utility.yul\":7503:7507   */\n  dup2\n    /* \"#utility.yul\":7499:7519   */\n  sub\n    /* \"#utility.yul\":7495:7496   */\n  0x00\n    /* \"#utility.yul\":7484:7493   */\n  dup4\n    /* \"#utility.yul\":7480:7497   */\n  add\n    /* \"#utility.yul\":7473:7520   */\n  mstore\n    /* \"#utility.yul\":7537:7668   */\n  tag_126\n    /* \"#utility.yul\":7663:7667   */\n  dup2\n    /* \"#utility.yul\":7537:7668   */\n  tag_52\n  jump\t// in\ntag_126:\n    /* \"#utility.yul\":7529:7668   */\n  swap1\n  pop\n    /* \"#utility.yul\":7256:7675   */\n  swap2\n  swap1\n  pop\n  jump\t// out\n    /* \"#utility.yul\":7681:7850   */\ntag_53:\n    /* \"#utility.yul\":7821:7842   */\n  0x6f776e6572206973206e6f7420756e6971756500000000000000000000000000\n    /* \"#utility.yul\":7817:7818   */\n  0x00\n    /* \"#utility.yul\":7809:7815   */\n  dup3\n    /* \"#utility.yul\":7805:7819   */\n  add\n    /* \"#utility.yul\":7798:7843   */\n  mstore\n    /* \"#utility.yul\":7681:7850   */\n  pop\n  jump\t// out\n    /* \"#utility.yul\":7856:8222   */\ntag_54:\n    /* \"#utility.yul\":7998:8001   */\n  0x00\n    /* \"#utility.yul\":8019:8086   */\n  tag_129\n    /* \"#utility.yul\":8083:8085   */\n  0x13\n    /* \"#utility.yul\":8078:8081   */\n  dup4\n    /* \"#utility.yul\":8019:8086   */\n  tag_46\n  jump\t// in\ntag_129:\n    /* \"#utility.yul\":8012:8086   */\n  swap2\n  pop\n    /* \"#utility.yul\":8095:8188   */\n  tag_130\n    /* \"#utility.yul\":8184:8187   */\n  dup3\n    /* \"#utility.yul\":8095:8188   */\n  tag_53\n  jump\t// in\ntag_130:\n    /* \"#utility.yul\":8213:8215   */\n  0x20\n    /* \"#utility.yul\":8208:8211   */\n  dup3\n    /* \"#utility.yul\":8204:8216   */\n  add\n    /* \"#utility.yul\":8197:8216   */\n  swap1\n  pop\n    /* \"#utility.yul\":7856:8222   */\n  swap2\n  swap1\n  pop\n  jump\t// out\n    /* \"#utility.yul\":8228:8647   */\ntag_24:\n    /* \"#utility.yul\":8394:8398   */\n  0x00\n    /* \"#utility.yul\":8432:8434   */\n  0x20\n    /* \"#utility.yul\":8421:8430   */\n  dup3\n    /* \"#utility.yul\":8417:8435   */\n  add\n    /* \"#utility.yul\":8409:8435   */\n  swap1\n  pop\n    /* \"#utility.yul\":8481:8490   */\n  dup2\n    /* \"#utility.yul\":8475:8479   */\n  dup2\n    /* \"#utility.yul\":8471:8491   */\n  sub\n    /* \"#utility.yul\":8467:8468   */\n  0x00\n    /* \"#utility.yul\":8456:8465   */\n  dup4\n    /* \"#utility.yul\":8452:8469   */\n  add\n    /* \"#utility.yul\":8445:8492   */\n  mstore\n    /* \"#utility.yul\":8509:8640   */\n  tag_132\n    /* \"#utility.yul\":8635:8639   */\n  dup2\n    /* \"#utility.yul\":8509:8640   */\n  tag_54\n  jump\t// in\ntag_132:\n    /* \"#utility.yul\":8501:8640   */\n  swap1\n  pop\n    /* \"#utility.yul\":8228:8647   */\n  swap2\n  swap1\n  pop\n  jump\t// out\n    /* \"MultiSigWallet.sol\":88:3555  contract MultiSigWallet {... */\ntag_26:\n  dataSize(sub_0)\n  dup1\n  dataOffset(sub_0)\n  0x00\n  codecopy\n  0x00\n  return\nstop\n\nsub_0: assembly {\n        /* \"MultiSigWallet.sol\":88:3555  contract MultiSigWallet {... */\n      mstore(0x40, 0x80)\n      jumpi(tag_1, lt(calldatasize, 0x04))\n      shr(0xe0, calldataload(0x00))\n      dup1\n      0x5dccebba\n      gt\n      tag_12\n      jumpi\n      dup1\n      0x5dccebba\n      eq\n      tag_7\n      jumpi\n      dup1\n      0x8253951a\n      eq\n      tag_8\n      jumpi\n      dup1\n      0x9ace38c2\n      eq\n      tag_9\n      jumpi\n      dup1\n      0xb759f954\n      eq\n      tag_10\n      jumpi\n      dup1\n      0xdc8452cd\n      eq\n      tag_11\n      jumpi\n      jump(tag_2)\n    tag_12:\n      dup1\n      0x025e7c27\n      eq\n      tag_3\n      jumpi\n      dup1\n      0x14de327f\n      eq\n      tag_4\n      jumpi\n      dup1\n      0x20c5429b\n      eq\n      tag_5\n      jumpi\n      dup1\n      0x2f54bf6e\n      eq\n      tag_6\n      jumpi\n      jump(tag_2)\n    tag_1:\n      jumpi(tag_2, calldatasize)\n        /* \"MultiSigWallet.sol\":1816:1826  msg.sender */\n      caller\n        /* \"MultiSigWallet.sol\":1808:1838  Deposit(msg.sender, msg.value) */\n      0xffffffffffffffffffffffffffffffffffffffff\n      and\n      0xe1fffcc4923d04b559f4d29a8bfc6cda04eb5b0d3c460751c2402c5c5cc9109c\n        /* \"MultiSigWallet.sol\":1828:1837  msg.value */\n      callvalue\n        /* \"MultiSigWallet.sol\":1808:1838  Deposit(msg.sender, msg.value) */\n      mload(0x40)\n      tag_15\n      swap2\n      swap1\n      tag_16\n      jump\t// in\n    tag_15:\n      mload(0x40)\n      dup1\n      swap2\n      sub\n      swap1\n      log2\n        /* \"MultiSigWallet.sol\":88:3555  contract MultiSigWallet {... */\n      stop\n    tag_2:\n      revert(0x00, 0x00)\n        /* \"MultiSigWallet.sol\":515:538  address[] public owners */\n    tag_3:\n      callvalue\n      dup1\n      iszero\n      tag_17\n      jumpi\n      revert(0x00, 0x00)\n    tag_17:\n      pop\n      tag_18\n      0x04\n      dup1\n      calldatasize\n      sub\n      dup2\n      add\n      swap1\n      tag_19\n      swap2\n      swap1\n      tag_20\n      jump\t// in\n    tag_19:\n      tag_21\n      jump\t// in\n    tag_18:\n      mload(0x40)\n      tag_22\n      swap2\n      swap1\n      tag_23\n      jump\t// in\n    tag_22:\n      mload(0x40)\n      dup1\n      swap2\n      sub\n      swap1\n      return\n        /* \"MultiSigWallet.sol\":1854:2245  function submit(address _to, uint _value, bytes calldata _data)... */\n    tag_4:\n      callvalue\n      dup1\n      iszero\n      tag_24\n      jumpi\n      revert(0x00, 0x00)\n    tag_24:\n      pop\n      tag_25\n      0x04\n      dup1\n      calldatasize\n      sub\n      dup2\n      add\n      swap1\n      tag_26\n      swap2\n      swap1\n      tag_27\n      jump\t// in\n    tag_26:\n      tag_28\n      jump\t// in\n    tag_25:\n      stop\n        /* \"MultiSigWallet.sol\":3254:3552  function revoke(uint _txId) ... */\n    tag_5:\n      callvalue\n      dup1\n      iszero\n      tag_29\n      jumpi\n      revert(0x00, 0x00)\n    tag_29:\n      pop\n      tag_30\n      0x04\n      dup1\n      calldatasize\n      sub\n      dup2\n      add\n      swap1\n      tag_31\n      swap2\n      swap1\n      tag_20\n      jump\t// in\n    tag_31:\n      tag_32\n      jump\t// in\n    tag_30:\n      stop\n        /* \"MultiSigWallet.sol\":545:584  mapping(address => bool) public isOwner */\n    tag_6:\n      callvalue\n      dup1\n      iszero\n      tag_33\n      jumpi\n      revert(0x00, 0x00)\n    tag_33:\n      pop\n      tag_34\n      0x04\n      dup1\n      calldatasize\n      sub\n      dup2\n      add\n      swap1\n      tag_35\n      swap2\n      swap1\n      tag_36\n      jump\t// in\n    tag_35:\n      tag_37\n      jump\t// in\n    tag_34:\n      mload(0x40)\n      tag_38\n      swap2\n      swap1\n      tag_39\n      jump\t// in\n    tag_38:\n      mload(0x40)\n      dup1\n      swap2\n      sub\n      swap1\n      return\n        /* \"MultiSigWallet.sol\":2792:3246  function execution(uint _txId) external txExists(_txId) notExecuted(_txId){... */\n    tag_7:\n      callvalue\n      dup1\n      iszero\n      tag_40\n      jumpi\n      revert(0x00, 0x00)\n    tag_40:\n      pop\n      tag_41\n      0x04\n      dup1\n      calldatasize\n      sub\n      dup2\n      add\n      swap1\n      tag_42\n      swap2\n      swap1\n      tag_20\n      jump\t// in\n    tag_42:\n      tag_43\n      jump\t// in\n    tag_41:\n      stop\n        /* \"MultiSigWallet.sol\":658:715  mapping(uint => mapping(address => bool)) public approved */\n    tag_8:\n      callvalue\n      dup1\n      iszero\n      tag_44\n      jumpi\n      revert(0x00, 0x00)\n    tag_44:\n      pop\n      tag_45\n      0x04\n      dup1\n      calldatasize\n      sub\n      dup2\n      add\n      swap1\n      tag_46\n      swap2\n      swap1\n      tag_47\n      jump\t// in\n    tag_46:\n      tag_48\n      jump\t// in\n    tag_45:\n      mload(0x40)\n      tag_49\n      swap2\n      swap1\n      tag_39\n      jump\t// in\n    tag_49:\n      mload(0x40)\n      dup1\n      swap2\n      sub\n      swap1\n      return\n        /* \"MultiSigWallet.sol\":618:651  Transaction[] public transactions */\n    tag_9:\n      callvalue\n      dup1\n      iszero\n      tag_50\n      jumpi\n      revert(0x00, 0x00)\n    tag_50:\n      pop\n      tag_51\n      0x04\n      dup1\n      calldatasize\n      sub\n      dup2\n      add\n      swap1\n      tag_52\n      swap2\n      swap1\n      tag_20\n      jump\t// in\n    tag_52:\n      tag_53\n      jump\t// in\n    tag_51:\n      mload(0x40)\n      tag_54\n      swap5\n      swap4\n      swap3\n      swap2\n      swap1\n      tag_55\n      jump\t// in\n    tag_54:\n      mload(0x40)\n      dup1\n      swap2\n      sub\n      swap1\n      return\n        /* \"MultiSigWallet.sol\":2253:2552  function approve(uint _txId) ... */\n    tag_10:\n      callvalue\n      dup1\n      iszero\n      tag_56\n      jumpi\n      revert(0x00, 0x00)\n    tag_56:\n      pop\n      tag_57\n      0x04\n      dup1\n      calldatasize\n      sub\n      dup2\n      add\n      swap1\n      tag_58\n      swap2\n      swap1\n      tag_20\n      jump\t// in\n    tag_58:\n      tag_59\n      jump\t// in\n    tag_57:\n      stop\n        /* \"MultiSigWallet.sol\":591:611  uint public required */\n    tag_11:\n      callvalue\n      dup1\n      iszero\n      tag_60\n      jumpi\n      revert(0x00, 0x00)\n    tag_60:\n      pop\n      tag_61\n      tag_62\n      jump\t// in\n    tag_61:\n      mload(0x40)\n      tag_63\n      swap2\n      swap1\n      tag_16\n      jump\t// in\n    tag_63:\n      mload(0x40)\n      dup1\n      swap2\n      sub\n      swap1\n      return\n        /* \"MultiSigWallet.sol\":515:538  address[] public owners */\n    tag_21:\n      0x00\n      dup2\n      dup2\n      sload\n      dup2\n      lt\n      tag_64\n      jumpi\n      0x00\n      dup1\n      revert\n    tag_64:\n      swap1\n      0x00\n      mstore\n      keccak256(0x00, 0x20)\n      add\n      0x00\n      swap2\n      pop\n      sload\n      swap1\n      0x0100\n      exp\n      swap1\n      div\n      0xffffffffffffffffffffffffffffffffffffffff\n      and\n      dup2\n      jump\t// out\n        /* \"MultiSigWallet.sol\":1854:2245  function submit(address _to, uint _value, bytes calldata _data)... */\n    tag_28:\n        /* \"MultiSigWallet.sol\":763:770  isOwner */\n      0x01\n        /* \"MultiSigWallet.sol\":763:782  isOwner[msg.sender] */\n      0x00\n        /* \"MultiSigWallet.sol\":771:781  msg.sender */\n      caller\n        /* \"MultiSigWallet.sol\":763:782  isOwner[msg.sender] */\n      0xffffffffffffffffffffffffffffffffffffffff\n      and\n      0xffffffffffffffffffffffffffffffffffffffff\n      and\n      dup2\n      mstore\n      0x20\n      add\n      swap1\n      dup2\n      mstore\n      0x20\n      add\n      0x00\n      keccak256\n      0x00\n      swap1\n      sload\n      swap1\n      0x0100\n      exp\n      swap1\n      div\n      0xff\n      and\n        /* \"MultiSigWallet.sol\":755:796  require(isOwner[msg.sender], \"not owner\") */\n      tag_67\n      jumpi\n      mload(0x40)\n      0x08c379a000000000000000000000000000000000000000000000000000000000\n      dup2\n      mstore\n      0x04\n      add\n      tag_68\n      swap1\n      tag_69\n      jump\t// in\n    tag_68:\n      mload(0x40)\n      dup1\n      swap2\n      sub\n      swap1\n      revert\n    tag_67:\n        /* \"MultiSigWallet.sol\":1960:1972  transactions */\n      0x03\n        /* \"MultiSigWallet.sol\":1996:2167  Transaction({... */\n      mload(0x40)\n      dup1\n      0x80\n      add\n      0x40\n      mstore\n      dup1\n        /* \"MultiSigWallet.sol\":2036:2039  _to */\n      dup7\n        /* \"MultiSigWallet.sol\":1996:2167  Transaction({... */\n      0xffffffffffffffffffffffffffffffffffffffff\n      and\n      dup2\n      mstore\n      0x20\n      add\n        /* \"MultiSigWallet.sol\":2069:2075  _value */\n      dup6\n        /* \"MultiSigWallet.sol\":1996:2167  Transaction({... */\n      dup2\n      mstore\n      0x20\n      add\n        /* \"MultiSigWallet.sol\":2104:2109  _data */\n      dup5\n      dup5\n        /* \"MultiSigWallet.sol\":1996:2167  Transaction({... */\n      dup1\n      dup1\n      0x1f\n      add\n      0x20\n      dup1\n      swap2\n      div\n      mul\n      0x20\n      add\n      mload(0x40)\n      swap1\n      dup2\n      add\n      0x40\n      mstore\n      dup1\n      swap4\n      swap3\n      swap2\n      swap1\n      dup2\n      dup2\n      mstore\n      0x20\n      add\n      dup4\n      dup4\n      dup1\n      dup3\n      dup5\n      calldatacopy\n      0x00\n      dup2\n      dup5\n      add\n      mstore\n      not(0x1f)\n      0x1f\n      dup3\n      add\n      and\n      swap1\n      pop\n      dup1\n      dup4\n      add\n      swap3\n      pop\n      pop\n      pop\n      pop\n      pop\n      pop\n      pop\n      dup2\n      mstore\n      0x20\n      add\n        /* \"MultiSigWallet.sol\":2142:2147  false */\n      0x00\n        /* \"MultiSigWallet.sol\":1996:2167  Transaction({... */\n      iszero\n      iszero\n      dup2\n      mstore\n      pop\n        /* \"MultiSigWallet.sol\":1960:2182  transactions.push(... */\n      swap1\n      dup1\n      0x01\n      dup2\n      sload\n      add\n      dup1\n      dup3\n      sstore\n      dup1\n      swap2\n      pop\n      pop\n      0x01\n      swap1\n      sub\n      swap1\n      0x00\n      mstore\n      keccak256(0x00, 0x20)\n      swap1\n      0x04\n      mul\n      add\n      0x00\n      swap1\n      swap2\n      swap1\n      swap2\n      swap1\n      swap2\n      pop\n      0x00\n      dup3\n      add\n      mload\n      dup2\n      0x00\n      add\n      exp(0x0100, 0x00)\n      dup2\n      sload\n      dup2\n      0xffffffffffffffffffffffffffffffffffffffff\n      mul\n      not\n      and\n      swap1\n      dup4\n      0xffffffffffffffffffffffffffffffffffffffff\n      and\n      mul\n      or\n      swap1\n      sstore\n      pop\n      0x20\n      dup3\n      add\n      mload\n      dup2\n      0x01\n      add\n      sstore\n      0x40\n      dup3\n      add\n      mload\n      dup2\n      0x02\n      add\n      swap1\n      dup2\n      tag_72\n      swap2\n      swap1\n      tag_73\n      jump\t// in\n    tag_72:\n      pop\n      0x60\n      dup3\n      add\n      mload\n      dup2\n      0x03\n      add\n      exp(0x0100, 0x00)\n      dup2\n      sload\n      dup2\n      0xff\n      mul\n      not\n      and\n      swap1\n      dup4\n      iszero\n      iszero\n      mul\n      or\n      swap1\n      sstore\n      pop\n      pop\n      pop\n        /* \"MultiSigWallet.sol\":2231:2232  1 */\n      0x01\n        /* \"MultiSigWallet.sol\":2209:2221  transactions */\n      0x03\n        /* \"MultiSigWallet.sol\":2209:2228  transactions.length */\n      dup1\n      sload\n      swap1\n      pop\n        /* \"MultiSigWallet.sol\":2209:2232  transactions.length - 1 */\n      tag_74\n      swap2\n      swap1\n      tag_75\n      jump\t// in\n    tag_74:\n        /* \"MultiSigWallet.sol\":2202:2233  Submit(transactions.length - 1) */\n      0x08324b3d745b914e3abd4ffbfead91e3b78391a98c173202129215ab933adfbe\n      mload(0x40)\n      mload(0x40)\n      dup1\n      swap2\n      sub\n      swap1\n      log2\n        /* \"MultiSigWallet.sol\":1854:2245  function submit(address _to, uint _value, bytes calldata _data)... */\n      pop\n      pop\n      pop\n      pop\n      jump\t// out\n        /* \"MultiSigWallet.sol\":3254:3552  function revoke(uint _txId) ... */\n    tag_32:\n        /* \"MultiSigWallet.sol\":763:770  isOwner */\n      0x01\n        /* \"MultiSigWallet.sol\":763:782  isOwner[msg.sender] */\n      0x00\n        /* \"MultiSigWallet.sol\":771:781  msg.sender */\n      caller\n        /* \"MultiSigWallet.sol\":763:782  isOwner[msg.sender] */\n      0xffffffffffffffffffffffffffffffffffffffff\n      and\n      0xffffffffffffffffffffffffffffffffffffffff\n      and\n      dup2\n      mstore\n      0x20\n      add\n      swap1\n      dup2\n      mstore\n      0x20\n      add\n      0x00\n      keccak256\n      0x00\n      swap1\n      sload\n      swap1\n      0x0100\n      exp\n      swap1\n      div\n      0xff\n      and\n        /* \"MultiSigWallet.sol\":755:796  require(isOwner[msg.sender], \"not owner\") */\n      tag_77\n      jumpi\n      mload(0x40)\n      0x08c379a000000000000000000000000000000000000000000000000000000000\n      dup2\n      mstore\n      0x04\n      add\n      tag_78\n      swap1\n      tag_69\n      jump\t// in\n    tag_78:\n      mload(0x40)\n      dup1\n      swap2\n      sub\n      swap1\n      revert\n    tag_77:\n        /* \"MultiSigWallet.sol\":3340:3345  _txId */\n      dup1\n        /* \"MultiSigWallet.sol\":880:892  transactions */\n      0x03\n        /* \"MultiSigWallet.sol\":880:899  transactions.length */\n      dup1\n      sload\n      swap1\n      pop\n        /* \"MultiSigWallet.sol\":872:877  _txId */\n      dup2\n        /* \"MultiSigWallet.sol\":872:899  _txId < transactions.length */\n      lt\n        /* \"MultiSigWallet.sol\":864:921  require(_txId < transactions.length, \"tx does not exist\") */\n      tag_80\n      jumpi\n      mload(0x40)\n      0x08c379a000000000000000000000000000000000000000000000000000000000\n      dup2\n      mstore\n      0x04\n      add\n      tag_81\n      swap1\n      tag_82\n      jump\t// in\n    tag_81:\n      mload(0x40)\n      dup1\n      swap2\n      sub\n      swap1\n      revert\n    tag_80:\n        /* \"MultiSigWallet.sol\":3369:3374  _txId */\n      dup2\n        /* \"MultiSigWallet.sol\":1133:1145  transactions */\n      0x03\n        /* \"MultiSigWallet.sol\":1146:1151  _txId */\n      dup2\n        /* \"MultiSigWallet.sol\":1133:1152  transactions[_txId] */\n      dup2\n      sload\n      dup2\n      lt\n      tag_84\n      jumpi\n      tag_85\n      tag_86\n      jump\t// in\n    tag_85:\n    tag_84:\n      swap1\n      0x00\n      mstore\n      keccak256(0x00, 0x20)\n      swap1\n      0x04\n      mul\n      add\n        /* \"MultiSigWallet.sol\":1133:1161  transactions[_txId].executed */\n      0x03\n      add\n      0x00\n      swap1\n      sload\n      swap1\n      0x0100\n      exp\n      swap1\n      div\n      0xff\n      and\n        /* \"MultiSigWallet.sol\":1132:1161  !transactions[_txId].executed */\n      iszero\n        /* \"MultiSigWallet.sol\":1124:1184  require(!transactions[_txId].executed,\"tx already executed\") */\n      tag_88\n      jumpi\n      mload(0x40)\n      0x08c379a000000000000000000000000000000000000000000000000000000000\n      dup2\n      mstore\n      0x04\n      add\n      tag_89\n      swap1\n      tag_90\n      jump\t// in\n    tag_89:\n      mload(0x40)\n      dup1\n      swap2\n      sub\n      swap1\n      revert\n    tag_88:\n        /* \"MultiSigWallet.sol\":3398:3406  approved */\n      0x04\n        /* \"MultiSigWallet.sol\":3398:3413  approved[_txId] */\n      0x00\n        /* \"MultiSigWallet.sol\":3407:3412  _txId */\n      dup5\n        /* \"MultiSigWallet.sol\":3398:3413  approved[_txId] */\n      dup2\n      mstore\n      0x20\n      add\n      swap1\n      dup2\n      mstore\n      0x20\n      add\n      0x00\n      keccak256\n        /* \"MultiSigWallet.sol\":3398:3425  approved[_txId][msg.sender] */\n      0x00\n        /* \"MultiSigWallet.sol\":3414:3424  msg.sender */\n      caller\n        /* \"MultiSigWallet.sol\":3398:3425  approved[_txId][msg.sender] */\n      0xffffffffffffffffffffffffffffffffffffffff\n      and\n      0xffffffffffffffffffffffffffffffffffffffff\n      and\n      dup2\n      mstore\n      0x20\n      add\n      swap1\n      dup2\n      mstore\n      0x20\n      add\n      0x00\n      keccak256\n      0x00\n      swap1\n      sload\n      swap1\n      0x0100\n      exp\n      swap1\n      div\n      0xff\n      and\n        /* \"MultiSigWallet.sol\":3390:3445  require(approved[_txId][msg.sender], \"tx not approved\") */\n      tag_92\n      jumpi\n      mload(0x40)\n      0x08c379a000000000000000000000000000000000000000000000000000000000\n      dup2\n      mstore\n      0x04\n      add\n      tag_93\n      swap1\n      tag_94\n      jump\t// in\n    tag_93:\n      mload(0x40)\n      dup1\n      swap2\n      sub\n      swap1\n      revert\n    tag_92:\n        /* \"MultiSigWallet.sol\":3490:3495  false */\n      0x00\n        /* \"MultiSigWallet.sol\":3460:3468  approved */\n      0x04\n        /* \"MultiSigWallet.sol\":3460:3475  approved[_txId] */\n      0x00\n        /* \"MultiSigWallet.sol\":3469:3474  _txId */\n      dup6\n        /* \"MultiSigWallet.sol\":3460:3475  approved[_txId] */\n      dup2\n      mstore\n      0x20\n      add\n      swap1\n      dup2\n      mstore\n      0x20\n      add\n      0x00\n      keccak256\n        /* \"MultiSigWallet.sol\":3460:3487  approved[_txId][msg.sender] */\n      0x00\n        /* \"MultiSigWallet.sol\":3476:3486  msg.sender */\n      caller\n        /* \"MultiSigWallet.sol\":3460:3487  approved[_txId][msg.sender] */\n      0xffffffffffffffffffffffffffffffffffffffff\n      and\n      0xffffffffffffffffffffffffffffffffffffffff\n      and\n      dup2\n      mstore\n      0x20\n      add\n      swap1\n      dup2\n      mstore\n      0x20\n      add\n      0x00\n      keccak256\n      0x00\n        /* \"MultiSigWallet.sol\":3460:3495  approved[_txId][msg.sender] = false */\n      0x0100\n      exp\n      dup2\n      sload\n      dup2\n      0xff\n      mul\n      not\n      and\n      swap1\n      dup4\n      iszero\n      iszero\n      mul\n      or\n      swap1\n      sstore\n      pop\n        /* \"MultiSigWallet.sol\":3534:3539  _txId */\n      dup3\n        /* \"MultiSigWallet.sol\":3522:3532  msg.sender */\n      caller\n        /* \"MultiSigWallet.sol\":3515:3540  Revoke(msg.sender, _txId) */\n      0xffffffffffffffffffffffffffffffffffffffff\n      and\n      0xec9ab91322523c899ede7830ec9bfc992b5981cdcc27b91162fb23de5791117b\n      mload(0x40)\n      mload(0x40)\n      dup1\n      swap2\n      sub\n      swap1\n      log3\n        /* \"MultiSigWallet.sol\":932:933  _ */\n      pop\n        /* \"MultiSigWallet.sol\":807:808  _ */\n      pop\n        /* \"MultiSigWallet.sol\":3254:3552  function revoke(uint _txId) ... */\n      pop\n      jump\t// out\n        /* \"MultiSigWallet.sol\":545:584  mapping(address => bool) public isOwner */\n    tag_37:\n      mstore(0x20, 0x01)\n      dup1\n      0x00\n      mstore\n      keccak256(0x00, 0x40)\n      0x00\n      swap2\n      pop\n      sload\n      swap1\n      0x0100\n      exp\n      swap1\n      div\n      0xff\n      and\n      dup2\n      jump\t// out\n        /* \"MultiSigWallet.sol\":2792:3246  function execution(uint _txId) external txExists(_txId) notExecuted(_txId){... */\n    tag_43:\n        /* \"MultiSigWallet.sol\":2841:2846  _txId */\n      dup1\n        /* \"MultiSigWallet.sol\":880:892  transactions */\n      0x03\n        /* \"MultiSigWallet.sol\":880:899  transactions.length */\n      dup1\n      sload\n      swap1\n      pop\n        /* \"MultiSigWallet.sol\":872:877  _txId */\n      dup2\n        /* \"MultiSigWallet.sol\":872:899  _txId < transactions.length */\n      lt\n        /* \"MultiSigWallet.sol\":864:921  require(_txId < transactions.length, \"tx does not exist\") */\n      tag_96\n      jumpi\n      mload(0x40)\n      0x08c379a000000000000000000000000000000000000000000000000000000000\n      dup2\n      mstore\n      0x04\n      add\n      tag_97\n      swap1\n      tag_82\n      jump\t// in\n    tag_97:\n      mload(0x40)\n      dup1\n      swap2\n      sub\n      swap1\n      revert\n    tag_96:\n        /* \"MultiSigWallet.sol\":2860:2865  _txId */\n      dup2\n        /* \"MultiSigWallet.sol\":1133:1145  transactions */\n      0x03\n        /* \"MultiSigWallet.sol\":1146:1151  _txId */\n      dup2\n        /* \"MultiSigWallet.sol\":1133:1152  transactions[_txId] */\n      dup2\n      sload\n      dup2\n      lt\n      tag_99\n      jumpi\n      tag_100\n      tag_86\n      jump\t// in\n    tag_100:\n    tag_99:\n      swap1\n      0x00\n      mstore\n      keccak256(0x00, 0x20)\n      swap1\n      0x04\n      mul\n      add\n        /* \"MultiSigWallet.sol\":1133:1161  transactions[_txId].executed */\n      0x03\n      add\n      0x00\n      swap1\n      sload\n      swap1\n      0x0100\n      exp\n      swap1\n      div\n      0xff\n      and\n        /* \"MultiSigWallet.sol\":1132:1161  !transactions[_txId].executed */\n      iszero\n        /* \"MultiSigWallet.sol\":1124:1184  require(!transactions[_txId].executed,\"tx already executed\") */\n      tag_102\n      jumpi\n      mload(0x40)\n      0x08c379a000000000000000000000000000000000000000000000000000000000\n      dup2\n      mstore\n      0x04\n      add\n      tag_103\n      swap1\n      tag_90\n      jump\t// in\n    tag_103:\n      mload(0x40)\n      dup1\n      swap2\n      sub\n      swap1\n      revert\n    tag_102:\n        /* \"MultiSigWallet.sol\":2913:2921  required */\n      sload(0x02)\n        /* \"MultiSigWallet.sol\":2885:2909  _getApprovalCount(_txId) */\n      tag_105\n        /* \"MultiSigWallet.sol\":2903:2908  _txId */\n      dup5\n        /* \"MultiSigWallet.sol\":2885:2902  _getApprovalCount */\n      tag_106\n        /* \"MultiSigWallet.sol\":2885:2909  _getApprovalCount(_txId) */\n      jump\t// in\n    tag_105:\n        /* \"MultiSigWallet.sol\":2885:2921  _getApprovalCount(_txId) >= required */\n      lt\n      iszero\n        /* \"MultiSigWallet.sol\":2877:2946  require(_getApprovalCount(_txId) >= required, \"approvals < required\") */\n      tag_107\n      jumpi\n      mload(0x40)\n      0x08c379a000000000000000000000000000000000000000000000000000000000\n      dup2\n      mstore\n      0x04\n      add\n      tag_108\n      swap1\n      tag_109\n      jump\t// in\n    tag_108:\n      mload(0x40)\n      dup1\n      swap2\n      sub\n      swap1\n      revert\n    tag_107:\n        /* \"MultiSigWallet.sol\":2957:2988  Transaction storage transaction */\n      0x00\n        /* \"MultiSigWallet.sol\":2991:3003  transactions */\n      0x03\n        /* \"MultiSigWallet.sol\":3004:3009  _txId */\n      dup5\n        /* \"MultiSigWallet.sol\":2991:3010  transactions[_txId] */\n      dup2\n      sload\n      dup2\n      lt\n      tag_110\n      jumpi\n      tag_111\n      tag_86\n      jump\t// in\n    tag_111:\n    tag_110:\n      swap1\n      0x00\n      mstore\n      keccak256(0x00, 0x20)\n      swap1\n      0x04\n      mul\n      add\n        /* \"MultiSigWallet.sol\":2957:3010  Transaction storage transaction = transactions[_txId] */\n      swap1\n      pop\n        /* \"MultiSigWallet.sol\":3046:3050  true */\n      0x01\n        /* \"MultiSigWallet.sol\":3023:3034  transaction */\n      dup2\n        /* \"MultiSigWallet.sol\":3023:3043  transaction.executed */\n      0x03\n      add\n      0x00\n        /* \"MultiSigWallet.sol\":3023:3050  transaction.executed = true */\n      0x0100\n      exp\n      dup2\n      sload\n      dup2\n      0xff\n      mul\n      not\n      and\n      swap1\n      dup4\n      iszero\n      iszero\n      mul\n      or\n      swap1\n      sstore\n      pop\n        /* \"MultiSigWallet.sol\":3064:3076  bool success */\n      0x00\n        /* \"MultiSigWallet.sol\":3081:3092  transaction */\n      dup2\n        /* \"MultiSigWallet.sol\":3081:3095  transaction.to */\n      0x00\n      add\n      0x00\n      swap1\n      sload\n      swap1\n      0x0100\n      exp\n      swap1\n      div\n      0xffffffffffffffffffffffffffffffffffffffff\n      and\n        /* \"MultiSigWallet.sol\":3081:3100  transaction.to.call */\n      0xffffffffffffffffffffffffffffffffffffffff\n      and\n        /* \"MultiSigWallet.sol\":3108:3119  transaction */\n      dup3\n        /* \"MultiSigWallet.sol\":3108:3125  transaction.value */\n      0x01\n      add\n      sload\n        /* \"MultiSigWallet.sol\":3141:3152  transaction */\n      dup4\n        /* \"MultiSigWallet.sol\":3141:3157  transaction.data */\n      0x02\n      add\n        /* \"MultiSigWallet.sol\":3081:3168  transaction.to.call{value: transaction.value}(... */\n      mload(0x40)\n      tag_113\n      swap2\n      swap1\n      tag_114\n      jump\t// in\n    tag_113:\n      0x00\n      mload(0x40)\n      dup1\n      dup4\n      sub\n      dup2\n      dup6\n      dup8\n      gas\n      call\n      swap3\n      pop\n      pop\n      pop\n      returndatasize\n      dup1\n      0x00\n      dup2\n      eq\n      tag_117\n      jumpi\n      mload(0x40)\n      swap2\n      pop\n      and(add(returndatasize, 0x3f), not(0x1f))\n      dup3\n      add\n      0x40\n      mstore\n      returndatasize\n      dup3\n      mstore\n      returndatasize\n      0x00\n      0x20\n      dup5\n      add\n      returndatacopy\n      jump(tag_116)\n    tag_117:\n      0x60\n      swap2\n      pop\n    tag_116:\n      pop\n        /* \"MultiSigWallet.sol\":3063:3168  (bool success,) = transaction.to.call{value: transaction.value}(... */\n      pop\n      swap1\n      pop\n        /* \"MultiSigWallet.sol\":3187:3194  success */\n      dup1\n        /* \"MultiSigWallet.sol\":3179:3208  require(success, \"ex failed\") */\n      tag_118\n      jumpi\n      mload(0x40)\n      0x08c379a000000000000000000000000000000000000000000000000000000000\n      dup2\n      mstore\n      0x04\n      add\n      tag_119\n      swap1\n      tag_120\n      jump\t// in\n    tag_119:\n      mload(0x40)\n      dup1\n      swap2\n      sub\n      swap1\n      revert\n    tag_118:\n        /* \"MultiSigWallet.sol\":3232:3237  _txId */\n      dup5\n        /* \"MultiSigWallet.sol\":3224:3238  Execute(_txId) */\n      0xddb556f1d2c1ec821e910b019d3685b229db152a0ecd517ca7e24b8bd7139289\n      mload(0x40)\n      mload(0x40)\n      dup1\n      swap2\n      sub\n      swap1\n      log2\n        /* \"MultiSigWallet.sol\":2866:3246  {... */\n      pop\n      pop\n        /* \"MultiSigWallet.sol\":932:933  _ */\n      pop\n        /* \"MultiSigWallet.sol\":2792:3246  function execution(uint _txId) external txExists(_txId) notExecuted(_txId){... */\n      pop\n      pop\n      jump\t// out\n        /* \"MultiSigWallet.sol\":658:715  mapping(uint => mapping(address => bool)) public approved */\n    tag_48:\n      mstore(0x20, 0x04)\n      dup2\n      0x00\n      mstore\n      mstore(0x20, keccak256(0x00, 0x40))\n      dup1\n      0x00\n      mstore\n      keccak256(0x00, 0x40)\n      0x00\n      swap2\n      pop\n      swap2\n      pop\n      swap1\n      sload\n      swap1\n      0x0100\n      exp\n      swap1\n      div\n      0xff\n      and\n      dup2\n      jump\t// out\n        /* \"MultiSigWallet.sol\":618:651  Transaction[] public transactions */\n    tag_53:\n      0x03\n      dup2\n      dup2\n      sload\n      dup2\n      lt\n      tag_121\n      jumpi\n      0x00\n      dup1\n      revert\n    tag_121:\n      swap1\n      0x00\n      mstore\n      keccak256(0x00, 0x20)\n      swap1\n      0x04\n      mul\n      add\n      0x00\n      swap2\n      pop\n      swap1\n      pop\n      dup1\n      0x00\n      add\n      0x00\n      swap1\n      sload\n      swap1\n      0x0100\n      exp\n      swap1\n      div\n      0xffffffffffffffffffffffffffffffffffffffff\n      and\n      swap1\n      dup1\n      0x01\n      add\n      sload\n      swap1\n      dup1\n      0x02\n      add\n      dup1\n      sload\n      tag_123\n      swap1\n      tag_124\n      jump\t// in\n    tag_123:\n      dup1\n      0x1f\n      add\n      0x20\n      dup1\n      swap2\n      div\n      mul\n      0x20\n      add\n      mload(0x40)\n      swap1\n      dup2\n      add\n      0x40\n      mstore\n      dup1\n      swap3\n      swap2\n      swap1\n      dup2\n      dup2\n      mstore\n      0x20\n      add\n      dup3\n      dup1\n      sload\n      tag_125\n      swap1\n      tag_124\n      jump\t// in\n    tag_125:\n      dup1\n      iszero\n      tag_126\n      jumpi\n      dup1\n      0x1f\n      lt\n      tag_127\n      jumpi\n      0x0100\n      dup1\n      dup4\n      sload\n      div\n      mul\n      dup4\n      mstore\n      swap2\n      0x20\n      add\n      swap2\n      jump(tag_126)\n    tag_127:\n      dup3\n      add\n      swap2\n      swap1\n      0x00\n      mstore\n      keccak256(0x00, 0x20)\n      swap1\n    tag_128:\n      dup2\n      sload\n      dup2\n      mstore\n      swap1\n      0x01\n      add\n      swap1\n      0x20\n      add\n      dup1\n      dup4\n      gt\n      tag_128\n      jumpi\n      dup3\n      swap1\n      sub\n      0x1f\n      and\n      dup3\n      add\n      swap2\n    tag_126:\n      pop\n      pop\n      pop\n      pop\n      pop\n      swap1\n      dup1\n      0x03\n      add\n      0x00\n      swap1\n      sload\n      swap1\n      0x0100\n      exp\n      swap1\n      div\n      0xff\n      and\n      swap1\n      pop\n      dup5\n      jump\t// out\n        /* \"MultiSigWallet.sol\":2253:2552  function approve(uint _txId) ... */\n    tag_59:\n        /* \"MultiSigWallet.sol\":763:770  isOwner */\n      0x01\n        /* \"MultiSigWallet.sol\":763:782  isOwner[msg.sender] */\n      0x00\n        /* \"MultiSigWallet.sol\":771:781  msg.sender */\n      caller\n        /* \"MultiSigWallet.sol\":763:782  isOwner[msg.sender] */\n      0xffffffffffffffffffffffffffffffffffffffff\n      and\n      0xffffffffffffffffffffffffffffffffffffffff\n      and\n      dup2\n      mstore\n      0x20\n      add\n      swap1\n      dup2\n      mstore\n      0x20\n      add\n      0x00\n      keccak256\n      0x00\n      swap1\n      sload\n      swap1\n      0x0100\n      exp\n      swap1\n      div\n      0xff\n      and\n        /* \"MultiSigWallet.sol\":755:796  require(isOwner[msg.sender], \"not owner\") */\n      tag_130\n      jumpi\n      mload(0x40)\n      0x08c379a000000000000000000000000000000000000000000000000000000000\n      dup2\n      mstore\n      0x04\n      add\n      tag_131\n      swap1\n      tag_69\n      jump\t// in\n    tag_131:\n      mload(0x40)\n      dup1\n      swap2\n      sub\n      swap1\n      revert\n    tag_130:\n        /* \"MultiSigWallet.sol\":2352:2357  _txId */\n      dup1\n        /* \"MultiSigWallet.sol\":880:892  transactions */\n      0x03\n        /* \"MultiSigWallet.sol\":880:899  transactions.length */\n      dup1\n      sload\n      swap1\n      pop\n        /* \"MultiSigWallet.sol\":872:877  _txId */\n      dup2\n        /* \"MultiSigWallet.sol\":872:899  _txId < transactions.length */\n      lt\n        /* \"MultiSigWallet.sol\":864:921  require(_txId < transactions.length, \"tx does not exist\") */\n      tag_133\n      jumpi\n      mload(0x40)\n      0x08c379a000000000000000000000000000000000000000000000000000000000\n      dup2\n      mstore\n      0x04\n      add\n      tag_134\n      swap1\n      tag_82\n      jump\t// in\n    tag_134:\n      mload(0x40)\n      dup1\n      swap2\n      sub\n      swap1\n      revert\n    tag_133:\n        /* \"MultiSigWallet.sol\":2384:2389  _txId */\n      dup2\n        /* \"MultiSigWallet.sol\":1002:1010  approved */\n      0x04\n        /* \"MultiSigWallet.sol\":1002:1017  approved[_txId] */\n      0x00\n        /* \"MultiSigWallet.sol\":1011:1016  _txId */\n      dup3\n        /* \"MultiSigWallet.sol\":1002:1017  approved[_txId] */\n      dup2\n      mstore\n      0x20\n      add\n      swap1\n      dup2\n      mstore\n      0x20\n      add\n      0x00\n      keccak256\n        /* \"MultiSigWallet.sol\":1002:1029  approved[_txId][msg.sender] */\n      0x00\n        /* \"MultiSigWallet.sol\":1018:1028  msg.sender */\n      caller\n        /* \"MultiSigWallet.sol\":1002:1029  approved[_txId][msg.sender] */\n      0xffffffffffffffffffffffffffffffffffffffff\n      and\n      0xffffffffffffffffffffffffffffffffffffffff\n      and\n      dup2\n      mstore\n      0x20\n      add\n      swap1\n      dup2\n      mstore\n      0x20\n      add\n      0x00\n      keccak256\n      0x00\n      swap1\n      sload\n      swap1\n      0x0100\n      exp\n      swap1\n      div\n      0xff\n      and\n        /* \"MultiSigWallet.sol\":1001:1029  !approved[_txId][msg.sender] */\n      iszero\n        /* \"MultiSigWallet.sol\":993:1053  require(!approved[_txId][msg.sender], \"tx already approved\") */\n      tag_136\n      jumpi\n      mload(0x40)\n      0x08c379a000000000000000000000000000000000000000000000000000000000\n      dup2\n      mstore\n      0x04\n      add\n      tag_137\n      swap1\n      tag_138\n      jump\t// in\n    tag_137:\n      mload(0x40)\n      dup1\n      swap2\n      sub\n      swap1\n      revert\n    tag_136:\n        /* \"MultiSigWallet.sol\":2416:2421  _txId */\n      dup3\n        /* \"MultiSigWallet.sol\":1133:1145  transactions */\n      0x03\n        /* \"MultiSigWallet.sol\":1146:1151  _txId */\n      dup2\n        /* \"MultiSigWallet.sol\":1133:1152  transactions[_txId] */\n      dup2\n      sload\n      dup2\n      lt\n      tag_140\n      jumpi\n      tag_141\n      tag_86\n      jump\t// in\n    tag_141:\n    tag_140:\n      swap1\n      0x00\n      mstore\n      keccak256(0x00, 0x20)\n      swap1\n      0x04\n      mul\n      add\n        /* \"MultiSigWallet.sol\":1133:1161  transactions[_txId].executed */\n      0x03\n      add\n      0x00\n      swap1\n      sload\n      swap1\n      0x0100\n      exp\n      swap1\n      div\n      0xff\n      and\n        /* \"MultiSigWallet.sol\":1132:1161  !transactions[_txId].executed */\n      iszero\n        /* \"MultiSigWallet.sol\":1124:1184  require(!transactions[_txId].executed,\"tx already executed\") */\n      tag_143\n      jumpi\n      mload(0x40)\n      0x08c379a000000000000000000000000000000000000000000000000000000000\n      dup2\n      mstore\n      0x04\n      add\n      tag_144\n      swap1\n      tag_90\n      jump\t// in\n    tag_144:\n      mload(0x40)\n      dup1\n      swap2\n      sub\n      swap1\n      revert\n    tag_143:\n        /* \"MultiSigWallet.sol\":2490:2494  true */\n      0x01\n        /* \"MultiSigWallet.sol\":2460:2468  approved */\n      0x04\n        /* \"MultiSigWallet.sol\":2460:2475  approved[_txId] */\n      0x00\n        /* \"MultiSigWallet.sol\":2469:2474  _txId */\n      dup7\n        /* \"MultiSigWallet.sol\":2460:2475  approved[_txId] */\n      dup2\n      mstore\n      0x20\n      add\n      swap1\n      dup2\n      mstore\n      0x20\n      add\n      0x00\n      keccak256\n        /* \"MultiSigWallet.sol\":2460:2487  approved[_txId][msg.sender] */\n      0x00\n        /* \"MultiSigWallet.sol\":2476:2486  msg.sender */\n      caller\n        /* \"MultiSigWallet.sol\":2460:2487  approved[_txId][msg.sender] */\n      0xffffffffffffffffffffffffffffffffffffffff\n      and\n      0xffffffffffffffffffffffffffffffffffffffff\n      and\n      dup2\n      mstore\n      0x20\n      add\n      swap1\n      dup2\n      mstore\n      0x20\n      add\n      0x00\n      keccak256\n      0x00\n        /* \"MultiSigWallet.sol\":2460:2494  approved[_txId][msg.sender] = true */\n      0x0100\n      exp\n      dup2\n      sload\n      dup2\n      0xff\n      mul\n      not\n      and\n      swap1\n      dup4\n      iszero\n      iszero\n      mul\n      or\n      swap1\n      sstore\n      pop\n        /* \"MultiSigWallet.sol\":2538:2543  _txId */\n      dup4\n        /* \"MultiSigWallet.sol\":2526:2536  msg.sender */\n      caller\n        /* \"MultiSigWallet.sol\":2518:2544  Approve(msg.sender, _txId) */\n      0xffffffffffffffffffffffffffffffffffffffff\n      and\n      0x90ec57f18fa7b15c6b8d5e4d1deb90796c74b2ff23d4d0cecad0cb42a96b3128\n      mload(0x40)\n      mload(0x40)\n      dup1\n      swap2\n      sub\n      swap1\n      log3\n        /* \"MultiSigWallet.sol\":1064:1065  _ */\n      pop\n        /* \"MultiSigWallet.sol\":932:933  _ */\n      pop\n        /* \"MultiSigWallet.sol\":807:808  _ */\n      pop\n        /* \"MultiSigWallet.sol\":2253:2552  function approve(uint _txId) ... */\n      pop\n      jump\t// out\n        /* \"MultiSigWallet.sol\":591:611  uint public required */\n    tag_62:\n      sload(0x02)\n      dup2\n      jump\t// out\n        /* \"MultiSigWallet.sol\":2560:2784  function _getApprovalCount(uint _txId) private view returns(uint count){... */\n    tag_106:\n        /* \"MultiSigWallet.sol\":2620:2630  uint count */\n      0x00\n        /* \"MultiSigWallet.sol\":2646:2652  uint i */\n      0x00\n        /* \"MultiSigWallet.sol\":2642:2777  for(uint i; i < owners.length;i++){... */\n    tag_147:\n        /* \"MultiSigWallet.sol\":2658:2664  owners */\n      0x00\n        /* \"MultiSigWallet.sol\":2658:2671  owners.length */\n      dup1\n      sload\n      swap1\n      pop\n        /* \"MultiSigWallet.sol\":2654:2655  i */\n      dup2\n        /* \"MultiSigWallet.sol\":2654:2671  i < owners.length */\n      lt\n        /* \"MultiSigWallet.sol\":2642:2777  for(uint i; i < owners.length;i++){... */\n      iszero\n      tag_148\n      jumpi\n        /* \"MultiSigWallet.sol\":2694:2702  approved */\n      0x04\n        /* \"MultiSigWallet.sol\":2694:2709  approved[_txId] */\n      0x00\n        /* \"MultiSigWallet.sol\":2703:2708  _txId */\n      dup5\n        /* \"MultiSigWallet.sol\":2694:2709  approved[_txId] */\n      dup2\n      mstore\n      0x20\n      add\n      swap1\n      dup2\n      mstore\n      0x20\n      add\n      0x00\n      keccak256\n        /* \"MultiSigWallet.sol\":2694:2720  approved[_txId][owners[i]] */\n      0x00\n        /* \"MultiSigWallet.sol\":2710:2716  owners */\n      0x00\n        /* \"MultiSigWallet.sol\":2717:2718  i */\n      dup4\n        /* \"MultiSigWallet.sol\":2710:2719  owners[i] */\n      dup2\n      sload\n      dup2\n      lt\n      tag_150\n      jumpi\n      tag_151\n      tag_86\n      jump\t// in\n    tag_151:\n    tag_150:\n      swap1\n      0x00\n      mstore\n      keccak256(0x00, 0x20)\n      add\n      0x00\n      swap1\n      sload\n      swap1\n      0x0100\n      exp\n      swap1\n      div\n      0xffffffffffffffffffffffffffffffffffffffff\n      and\n        /* \"MultiSigWallet.sol\":2694:2720  approved[_txId][owners[i]] */\n      0xffffffffffffffffffffffffffffffffffffffff\n      and\n      0xffffffffffffffffffffffffffffffffffffffff\n      and\n      dup2\n      mstore\n      0x20\n      add\n      swap1\n      dup2\n      mstore\n      0x20\n      add\n      0x00\n      keccak256\n      0x00\n      swap1\n      sload\n      swap1\n      0x0100\n      exp\n      swap1\n      div\n      0xff\n      and\n        /* \"MultiSigWallet.sol\":2691:2766  if(approved[_txId][owners[i]]){... */\n      iszero\n      tag_153\n      jumpi\n        /* \"MultiSigWallet.sol\":2749:2750  1 */\n      0x01\n        /* \"MultiSigWallet.sol\":2740:2750  count += 1 */\n      dup3\n      tag_154\n      swap2\n      swap1\n      tag_155\n      jump\t// in\n    tag_154:\n      swap2\n      pop\n        /* \"MultiSigWallet.sol\":2691:2766  if(approved[_txId][owners[i]]){... */\n    tag_153:\n        /* \"MultiSigWallet.sol\":2672:2675  i++ */\n      dup1\n      dup1\n      0x01\n      add\n      swap2\n      pop\n      pop\n        /* \"MultiSigWallet.sol\":2642:2777  for(uint i; i < owners.length;i++){... */\n      jump(tag_147)\n    tag_148:\n      pop\n        /* \"MultiSigWallet.sol\":2560:2784  function _getApprovalCount(uint _txId) private view returns(uint count){... */\n      swap2\n      swap1\n      pop\n      jump\t// out\n        /* \"#utility.yul\":7:84   */\n    tag_156:\n        /* \"#utility.yul\":44:51   */\n      0x00\n        /* \"#utility.yul\":73:78   */\n      dup2\n        /* \"#utility.yul\":62:78   */\n      swap1\n      pop\n        /* \"#utility.yul\":7:84   */\n      swap2\n      swap1\n      pop\n      jump\t// out\n        /* \"#utility.yul\":90:208   */\n    tag_157:\n        /* \"#utility.yul\":177:201   */\n      tag_217\n        /* \"#utility.yul\":195:200   */\n      dup2\n        /* \"#utility.yul\":177:201   */\n      tag_156\n      jump\t// in\n    tag_217:\n        /* \"#utility.yul\":172:175   */\n      dup3\n        /* \"#utility.yul\":165:202   */\n      mstore\n        /* \"#utility.yul\":90:208   */\n      pop\n      pop\n      jump\t// out\n        /* \"#utility.yul\":214:436   */\n    tag_16:\n        /* \"#utility.yul\":307:311   */\n      0x00\n        /* \"#utility.yul\":345:347   */\n      0x20\n        /* \"#utility.yul\":334:343   */\n      dup3\n        /* \"#utility.yul\":330:348   */\n      add\n        /* \"#utility.yul\":322:348   */\n      swap1\n      pop\n        /* \"#utility.yul\":358:429   */\n      tag_219\n        /* \"#utility.yul\":426:427   */\n      0x00\n        /* \"#utility.yul\":415:424   */\n      dup4\n        /* \"#utility.yul\":411:428   */\n      add\n        /* \"#utility.yul\":402:408   */\n      dup5\n        /* \"#utility.yul\":358:429   */\n      tag_157\n      jump\t// in\n    tag_219:\n        /* \"#utility.yul\":214:436   */\n      swap3\n      swap2\n      pop\n      pop\n      jump\t// out\n        /* \"#utility.yul\":523:640   */\n    tag_159:\n        /* \"#utility.yul\":632:633   */\n      0x00\n        /* \"#utility.yul\":629:630   */\n      0x00\n        /* \"#utility.yul\":622:634   */\n      revert\n        /* \"#utility.yul\":646:763   */\n    tag_160:\n        /* \"#utility.yul\":755:756   */\n      0x00\n        /* \"#utility.yul\":752:753   */\n      0x00\n        /* \"#utility.yul\":745:757   */\n      revert\n        /* \"#utility.yul\":769:891   */\n    tag_161:\n        /* \"#utility.yul\":842:866   */\n      tag_224\n        /* \"#utility.yul\":860:865   */\n      dup2\n        /* \"#utility.yul\":842:866   */\n      tag_156\n      jump\t// in\n    tag_224:\n        /* \"#utility.yul\":835:840   */\n      dup2\n        /* \"#utility.yul\":832:867   */\n      eq\n        /* \"#utility.yul\":822:885   */\n      tag_225\n      jumpi\n        /* \"#utility.yul\":881:882   */\n      0x00\n        /* \"#utility.yul\":878:879   */\n      0x00\n        /* \"#utility.yul\":871:883   */\n      revert\n        /* \"#utility.yul\":822:885   */\n    tag_225:\n        /* \"#utility.yul\":769:891   */\n      pop\n      jump\t// out\n        /* \"#utility.yul\":897:1036   */\n    tag_162:\n        /* \"#utility.yul\":943:948   */\n      0x00\n        /* \"#utility.yul\":981:987   */\n      dup2\n        /* \"#utility.yul\":968:988   */\n      calldataload\n        /* \"#utility.yul\":959:988   */\n      swap1\n      pop\n        /* \"#utility.yul\":997:1030   */\n      tag_227\n        /* \"#utility.yul\":1024:1029   */\n      dup2\n        /* \"#utility.yul\":997:1030   */\n      tag_161\n      jump\t// in\n    tag_227:\n        /* \"#utility.yul\":897:1036   */\n      swap3\n      swap2\n      pop\n      pop\n      jump\t// out\n        /* \"#utility.yul\":1042:1371   */\n    tag_20:\n        /* \"#utility.yul\":1101:1107   */\n      0x00\n        /* \"#utility.yul\":1150:1152   */\n      0x20\n        /* \"#utility.yul\":1138:1147   */\n      dup3\n        /* \"#utility.yul\":1129:1136   */\n      dup5\n        /* \"#utility.yul\":1125:1148   */\n      sub\n        /* \"#utility.yul\":1121:1153   */\n      slt\n        /* \"#utility.yul\":1118:1237   */\n      iszero\n      tag_229\n      jumpi\n        /* \"#utility.yul\":1156:1235   */\n      tag_230\n      tag_159\n      jump\t// in\n    tag_230:\n        /* \"#utility.yul\":1118:1237   */\n    tag_229:\n        /* \"#utility.yul\":1276:1277   */\n      0x00\n        /* \"#utility.yul\":1301:1354   */\n      tag_231\n        /* \"#utility.yul\":1346:1353   */\n      dup5\n        /* \"#utility.yul\":1337:1343   */\n      dup3\n        /* \"#utility.yul\":1326:1335   */\n      dup6\n        /* \"#utility.yul\":1322:1344   */\n      add\n        /* \"#utility.yul\":1301:1354   */\n      tag_162\n      jump\t// in\n    tag_231:\n        /* \"#utility.yul\":1291:1354   */\n      swap2\n      pop\n        /* \"#utility.yul\":1247:1364   */\n      pop\n        /* \"#utility.yul\":1042:1371   */\n      swap3\n      swap2\n      pop\n      pop\n      jump\t// out\n        /* \"#utility.yul\":1377:1503   */\n    tag_163:\n        /* \"#utility.yul\":1414:1421   */\n      0x00\n        /* \"#utility.yul\":1454:1496   */\n      0xffffffffffffffffffffffffffffffffffffffff\n        /* \"#utility.yul\":1447:1452   */\n      dup3\n        /* \"#utility.yul\":1443:1497   */\n      and\n        /* \"#utility.yul\":1432:1497   */\n      swap1\n      pop\n        /* \"#utility.yul\":1377:1503   */\n      swap2\n      swap1\n      pop\n      jump\t// out\n        /* \"#utility.yul\":1509:1605   */\n    tag_164:\n        /* \"#utility.yul\":1546:1553   */\n      0x00\n        /* \"#utility.yul\":1575:1599   */\n      tag_234\n        /* \"#utility.yul\":1593:1598   */\n      dup3\n        /* \"#utility.yul\":1575:1599   */\n      tag_163\n      jump\t// in\n    tag_234:\n        /* \"#utility.yul\":1564:1599   */\n      swap1\n      pop\n        /* \"#utility.yul\":1509:1605   */\n      swap2\n      swap1\n      pop\n      jump\t// out\n        /* \"#utility.yul\":1611:1729   */\n    tag_165:\n        /* \"#utility.yul\":1698:1722   */\n      tag_236\n        /* \"#utility.yul\":1716:1721   */\n      dup2\n        /* \"#utility.yul\":1698:1722   */\n      tag_164\n      jump\t// in\n    tag_236:\n        /* \"#utility.yul\":1693:1696   */\n      dup3\n        /* \"#utility.yul\":1686:1723   */\n      mstore\n        /* \"#utility.yul\":1611:1729   */\n      pop\n      pop\n      jump\t// out\n        /* \"#utility.yul\":1735:1957   */\n    tag_23:\n        /* \"#utility.yul\":1828:1832   */\n      0x00\n        /* \"#utility.yul\":1866:1868   */\n      0x20\n        /* \"#utility.yul\":1855:1864   */\n      dup3\n        /* \"#utility.yul\":1851:1869   */\n      add\n        /* \"#utility.yul\":1843:1869   */\n      swap1\n      pop\n        /* \"#utility.yul\":1879:1950   */\n      tag_238\n        /* \"#utility.yul\":1947:1948   */\n      0x00\n        /* \"#utility.yul\":1936:1945   */\n      dup4\n        /* \"#utility.yul\":1932:1949   */\n      add\n        /* \"#utility.yul\":1923:1929   */\n      dup5\n        /* \"#utility.yul\":1879:1950   */\n      tag_165\n      jump\t// in\n    tag_238:\n        /* \"#utility.yul\":1735:1957   */\n      swap3\n      swap2\n      pop\n      pop\n      jump\t// out\n        /* \"#utility.yul\":1963:2085   */\n    tag_166:\n        /* \"#utility.yul\":2036:2060   */\n      tag_240\n        /* \"#utility.yul\":2054:2059   */\n      dup2\n        /* \"#utility.yul\":2036:2060   */\n      tag_164\n      jump\t// in\n    tag_240:\n        /* \"#utility.yul\":2029:2034   */\n      dup2\n        /* \"#utility.yul\":2026:2061   */\n      eq\n        /* \"#utility.yul\":2016:2079   */\n      tag_241\n      jumpi\n        /* \"#utility.yul\":2075:2076   */\n      0x00\n        /* \"#utility.yul\":2072:2073   */\n      0x00\n        /* \"#utility.yul\":2065:2077   */\n      revert\n        /* \"#utility.yul\":2016:2079   */\n    tag_241:\n        /* \"#utility.yul\":1963:2085   */\n      pop\n      jump\t// out\n        /* \"#utility.yul\":2091:2230   */\n    tag_167:\n        /* \"#utility.yul\":2137:2142   */\n      0x00\n        /* \"#utility.yul\":2175:2181   */\n      dup2\n        /* \"#utility.yul\":2162:2182   */\n      calldataload\n        /* \"#utility.yul\":2153:2182   */\n      swap1\n      pop\n        /* \"#utility.yul\":2191:2224   */\n      tag_243\n        /* \"#utility.yul\":2218:2223   */\n      dup2\n        /* \"#utility.yul\":2191:2224   */\n      tag_166\n      jump\t// in\n    tag_243:\n        /* \"#utility.yul\":2091:2230   */\n      swap3\n      swap2\n      pop\n      pop\n      jump\t// out\n        /* \"#utility.yul\":2236:2353   */\n    tag_168:\n        /* \"#utility.yul\":2345:2346   */\n      0x00\n        /* \"#utility.yul\":2342:2343   */\n      0x00\n        /* \"#utility.yul\":2335:2347   */\n      revert\n        /* \"#utility.yul\":2359:2476   */\n    tag_169:\n        /* \"#utility.yul\":2468:2469   */\n      0x00\n        /* \"#utility.yul\":2465:2466   */\n      0x00\n        /* \"#utility.yul\":2458:2470   */\n      revert\n        /* \"#utility.yul\":2482:2599   */\n    tag_170:\n        /* \"#utility.yul\":2591:2592   */\n      0x00\n        /* \"#utility.yul\":2588:2589   */\n      0x00\n        /* \"#utility.yul\":2581:2593   */\n      revert\n        /* \"#utility.yul\":2618:3170   */\n    tag_171:\n        /* \"#utility.yul\":2675:2683   */\n      0x00\n        /* \"#utility.yul\":2685:2691   */\n      0x00\n        /* \"#utility.yul\":2735:2738   */\n      dup4\n        /* \"#utility.yul\":2728:2732   */\n      0x1f\n        /* \"#utility.yul\":2720:2726   */\n      dup5\n        /* \"#utility.yul\":2716:2733   */\n      add\n        /* \"#utility.yul\":2712:2739   */\n      slt\n        /* \"#utility.yul\":2702:2824   */\n      tag_248\n      jumpi\n        /* \"#utility.yul\":2743:2822   */\n      tag_249\n      tag_168\n      jump\t// in\n    tag_249:\n        /* \"#utility.yul\":2702:2824   */\n    tag_248:\n        /* \"#utility.yul\":2856:2862   */\n      dup3\n        /* \"#utility.yul\":2843:2863   */\n      calldataload\n        /* \"#utility.yul\":2833:2863   */\n      swap1\n      pop\n        /* \"#utility.yul\":2886:2904   */\n      0xffffffffffffffff\n        /* \"#utility.yul\":2878:2884   */\n      dup2\n        /* \"#utility.yul\":2875:2905   */\n      gt\n        /* \"#utility.yul\":2872:2989   */\n      iszero\n      tag_250\n      jumpi\n        /* \"#utility.yul\":2908:2987   */\n      tag_251\n      tag_169\n      jump\t// in\n    tag_251:\n        /* \"#utility.yul\":2872:2989   */\n    tag_250:\n        /* \"#utility.yul\":3022:3026   */\n      0x20\n        /* \"#utility.yul\":3014:3020   */\n      dup4\n        /* \"#utility.yul\":3010:3027   */\n      add\n        /* \"#utility.yul\":2998:3027   */\n      swap2\n      pop\n        /* \"#utility.yul\":3076:3079   */\n      dup4\n        /* \"#utility.yul\":3068:3072   */\n      0x01\n        /* \"#utility.yul\":3060:3066   */\n      dup3\n        /* \"#utility.yul\":3056:3073   */\n      mul\n        /* \"#utility.yul\":3046:3054   */\n      dup4\n        /* \"#utility.yul\":3042:3074   */\n      add\n        /* \"#utility.yul\":3039:3080   */\n      gt\n        /* \"#utility.yul\":3036:3164   */\n      iszero\n      tag_252\n      jumpi\n        /* \"#utility.yul\":3083:3162   */\n      tag_253\n      tag_170\n      jump\t// in\n    tag_253:\n        /* \"#utility.yul\":3036:3164   */\n    tag_252:\n        /* \"#utility.yul\":2618:3170   */\n      swap3\n      pop\n      swap3\n      swap1\n      pop\n      jump\t// out\n        /* \"#utility.yul\":3176:3993   */\n    tag_27:\n        /* \"#utility.yul\":3264:3270   */\n      0x00\n        /* \"#utility.yul\":3272:3278   */\n      0x00\n        /* \"#utility.yul\":3280:3286   */\n      0x00\n        /* \"#utility.yul\":3288:3294   */\n      0x00\n        /* \"#utility.yul\":3337:3339   */\n      0x60\n        /* \"#utility.yul\":3325:3334   */\n      dup6\n        /* \"#utility.yul\":3316:3323   */\n      dup8\n        /* \"#utility.yul\":3312:3335   */\n      sub\n        /* \"#utility.yul\":3308:3340   */\n      slt\n        /* \"#utility.yul\":3305:3424   */\n      iszero\n      tag_255\n      jumpi\n        /* \"#utility.yul\":3343:3422   */\n      tag_256\n      tag_159\n      jump\t// in\n    tag_256:\n        /* \"#utility.yul\":3305:3424   */\n    tag_255:\n        /* \"#utility.yul\":3463:3464   */\n      0x00\n        /* \"#utility.yul\":3488:3541   */\n      tag_257\n        /* \"#utility.yul\":3533:3540   */\n      dup8\n        /* \"#utility.yul\":3524:3530   */\n      dup3\n        /* \"#utility.yul\":3513:3522   */\n      dup9\n        /* \"#utility.yul\":3509:3531   */\n      add\n        /* \"#utility.yul\":3488:3541   */\n      tag_167\n      jump\t// in\n    tag_257:\n        /* \"#utility.yul\":3478:3541   */\n      swap5\n      pop\n        /* \"#utility.yul\":3434:3551   */\n      pop\n        /* \"#utility.yul\":3590:3592   */\n      0x20\n        /* \"#utility.yul\":3616:3669   */\n      tag_258\n        /* \"#utility.yul\":3661:3668   */\n      dup8\n        /* \"#utility.yul\":3652:3658   */\n      dup3\n        /* \"#utility.yul\":3641:3650   */\n      dup9\n        /* \"#utility.yul\":3637:3659   */\n      add\n        /* \"#utility.yul\":3616:3669   */\n      tag_162\n      jump\t// in\n    tag_258:\n        /* \"#utility.yul\":3606:3669   */\n      swap4\n      pop\n        /* \"#utility.yul\":3561:3679   */\n      pop\n        /* \"#utility.yul\":3746:3748   */\n      0x40\n        /* \"#utility.yul\":3735:3744   */\n      dup6\n        /* \"#utility.yul\":3731:3749   */\n      add\n        /* \"#utility.yul\":3718:3750   */\n      calldataload\n        /* \"#utility.yul\":3777:3795   */\n      0xffffffffffffffff\n        /* \"#utility.yul\":3769:3775   */\n      dup2\n        /* \"#utility.yul\":3766:3796   */\n      gt\n        /* \"#utility.yul\":3763:3880   */\n      iszero\n      tag_259\n      jumpi\n        /* \"#utility.yul\":3799:3878   */\n      tag_260\n      tag_160\n      jump\t// in\n    tag_260:\n        /* \"#utility.yul\":3763:3880   */\n    tag_259:\n        /* \"#utility.yul\":3912:3976   */\n      tag_261\n        /* \"#utility.yul\":3968:3975   */\n      dup8\n        /* \"#utility.yul\":3959:3965   */\n      dup3\n        /* \"#utility.yul\":3948:3957   */\n      dup9\n        /* \"#utility.yul\":3944:3966   */\n      add\n        /* \"#utility.yul\":3912:3976   */\n      tag_171\n      jump\t// in\n    tag_261:\n        /* \"#utility.yul\":3894:3976   */\n      swap3\n      pop\n      swap3\n      pop\n        /* \"#utility.yul\":3689:3986   */\n      pop\n        /* \"#utility.yul\":3176:3993   */\n      swap3\n      swap6\n      swap2\n      swap5\n      pop\n      swap3\n      pop\n      jump\t// out\n        /* \"#utility.yul\":3999:4328   */\n    tag_36:\n        /* \"#utility.yul\":4058:4064   */\n      0x00\n        /* \"#utility.yul\":4107:4109   */\n      0x20\n        /* \"#utility.yul\":4095:4104   */\n      dup3\n        /* \"#utility.yul\":4086:4093   */\n      dup5\n        /* \"#utility.yul\":4082:4105   */\n      sub\n        /* \"#utility.yul\":4078:4110   */\n      slt\n        /* \"#utility.yul\":4075:4194   */\n      iszero\n      tag_263\n      jumpi\n        /* \"#utility.yul\":4113:4192   */\n      tag_264\n      tag_159\n      jump\t// in\n    tag_264:\n        /* \"#utility.yul\":4075:4194   */\n    tag_263:\n        /* \"#utility.yul\":4233:4234   */\n      0x00\n        /* \"#utility.yul\":4258:4311   */\n      tag_265\n        /* \"#utility.yul\":4303:4310   */\n      dup5\n        /* \"#utility.yul\":4294:4300   */\n      dup3\n        /* \"#utility.yul\":4283:4292   */\n      dup6\n        /* \"#utility.yul\":4279:4301   */\n      add\n        /* \"#utility.yul\":4258:4311   */\n      tag_167\n      jump\t// in\n    tag_265:\n        /* \"#utility.yul\":4248:4311   */\n      swap2\n      pop\n        /* \"#utility.yul\":4204:4321   */\n      pop\n        /* \"#utility.yul\":3999:4328   */\n      swap3\n      swap2\n      pop\n      pop\n      jump\t// out\n        /* \"#utility.yul\":4334:4424   */\n    tag_172:\n        /* \"#utility.yul\":4368:4375   */\n      0x00\n        /* \"#utility.yul\":4411:4416   */\n      dup2\n        /* \"#utility.yul\":4404:4417   */\n      iszero\n        /* \"#utility.yul\":4397:4418   */\n      iszero\n        /* \"#utility.yul\":4386:4418   */\n      swap1\n      pop\n        /* \"#utility.yul\":4334:4424   */\n      swap2\n      swap1\n      pop\n      jump\t// out\n        /* \"#utility.yul\":4430:4539   */\n    tag_173:\n        /* \"#utility.yul\":4511:4532   */\n      tag_268\n        /* \"#utility.yul\":4526:4531   */\n      dup2\n        /* \"#utility.yul\":4511:4532   */\n      tag_172\n      jump\t// in\n    tag_268:\n        /* \"#utility.yul\":4506:4509   */\n      dup3\n        /* \"#utility.yul\":4499:4533   */\n      mstore\n        /* \"#utility.yul\":4430:4539   */\n      pop\n      pop\n      jump\t// out\n        /* \"#utility.yul\":4545:4755   */\n    tag_39:\n        /* \"#utility.yul\":4632:4636   */\n      0x00\n        /* \"#utility.yul\":4670:4672   */\n      0x20\n        /* \"#utility.yul\":4659:4668   */\n      dup3\n        /* \"#utility.yul\":4655:4673   */\n      add\n        /* \"#utility.yul\":4647:4673   */\n      swap1\n      pop\n        /* \"#utility.yul\":4683:4748   */\n      tag_270\n        /* \"#utility.yul\":4745:4746   */\n      0x00\n        /* \"#utility.yul\":4734:4743   */\n      dup4\n        /* \"#utility.yul\":4730:4747   */\n      add\n        /* \"#utility.yul\":4721:4727   */\n      dup5\n        /* \"#utility.yul\":4683:4748   */\n      tag_173\n      jump\t// in\n    tag_270:\n        /* \"#utility.yul\":4545:4755   */\n      swap3\n      swap2\n      pop\n      pop\n      jump\t// out\n        /* \"#utility.yul\":4761:5235   */\n    tag_47:\n        /* \"#utility.yul\":4829:4835   */\n      0x00\n        /* \"#utility.yul\":4837:4843   */\n      0x00\n        /* \"#utility.yul\":4886:4888   */\n      0x40\n        /* \"#utility.yul\":4874:4883   */\n      dup4\n        /* \"#utility.yul\":4865:4872   */\n      dup6\n        /* \"#utility.yul\":4861:4884   */\n      sub\n        /* \"#utility.yul\":4857:4889   */\n      slt\n        /* \"#utility.yul\":4854:4973   */\n      iszero\n      tag_272\n      jumpi\n        /* \"#utility.yul\":4892:4971   */\n      tag_273\n      tag_159\n      jump\t// in\n    tag_273:\n        /* \"#utility.yul\":4854:4973   */\n    tag_272:\n        /* \"#utility.yul\":5012:5013   */\n      0x00\n        /* \"#utility.yul\":5037:5090   */\n      tag_274\n        /* \"#utility.yul\":5082:5089   */\n      dup6\n        /* \"#utility.yul\":5073:5079   */\n      dup3\n        /* \"#utility.yul\":5062:5071   */\n      dup7\n        /* \"#utility.yul\":5058:5080   */\n      add\n        /* \"#utility.yul\":5037:5090   */\n      tag_162\n      jump\t// in\n    tag_274:\n        /* \"#utility.yul\":5027:5090   */\n      swap3\n      pop\n        /* \"#utility.yul\":4983:5100   */\n      pop\n        /* \"#utility.yul\":5139:5141   */\n      0x20\n        /* \"#utility.yul\":5165:5218   */\n      tag_275\n        /* \"#utility.yul\":5210:5217   */\n      dup6\n        /* \"#utility.yul\":5201:5207   */\n      dup3\n        /* \"#utility.yul\":5190:5199   */\n      dup7\n        /* \"#utility.yul\":5186:5208   */\n      add\n        /* \"#utility.yul\":5165:5218   */\n      tag_167\n      jump\t// in\n    tag_275:\n        /* \"#utility.yul\":5155:5218   */\n      swap2\n      pop\n        /* \"#utility.yul\":5110:5228   */\n      pop\n        /* \"#utility.yul\":4761:5235   */\n      swap3\n      pop\n      swap3\n      swap1\n      pop\n      jump\t// out\n        /* \"#utility.yul\":5241:5339   */\n    tag_174:\n        /* \"#utility.yul\":5292:5298   */\n      0x00\n        /* \"#utility.yul\":5326:5331   */\n      dup2\n        /* \"#utility.yul\":5320:5332   */\n      mload\n        /* \"#utility.yul\":5310:5332   */\n      swap1\n      pop\n        /* \"#utility.yul\":5241:5339   */\n      swap2\n      swap1\n      pop\n      jump\t// out\n        /* \"#utility.yul\":5345:5513   */\n    tag_175:\n        /* \"#utility.yul\":5428:5439   */\n      0x00\n        /* \"#utility.yul\":5462:5468   */\n      dup3\n        /* \"#utility.yul\":5457:5460   */\n      dup3\n        /* \"#utility.yul\":5450:5469   */\n      mstore\n        /* \"#utility.yul\":5502:5506   */\n      0x20\n        /* \"#utility.yul\":5497:5500   */\n      dup3\n        /* \"#utility.yul\":5493:5507   */\n      add\n        /* \"#utility.yul\":5478:5507   */\n      swap1\n      pop\n        /* \"#utility.yul\":5345:5513   */\n      swap3\n      swap2\n      pop\n      pop\n      jump\t// out\n        /* \"#utility.yul\":5519:5658   */\n    tag_176:\n        /* \"#utility.yul\":5608:5614   */\n      dup3\n        /* \"#utility.yul\":5603:5606   */\n      dup2\n        /* \"#utility.yul\":5598:5601   */\n      dup4\n        /* \"#utility.yul\":5592:5615   */\n      mcopy\n        /* \"#utility.yul\":5649:5650   */\n      0x00\n        /* \"#utility.yul\":5640:5646   */\n      dup4\n        /* \"#utility.yul\":5635:5638   */\n      dup4\n        /* \"#utility.yul\":5631:5647   */\n      add\n        /* \"#utility.yul\":5624:5651   */\n      mstore\n        /* \"#utility.yul\":5519:5658   */\n      pop\n      pop\n      pop\n      jump\t// out\n        /* \"#utility.yul\":5664:5766   */\n    tag_177:\n        /* \"#utility.yul\":5705:5711   */\n      0x00\n        /* \"#utility.yul\":5756:5758   */\n      0x1f\n        /* \"#utility.yul\":5752:5759   */\n      not\n        /* \"#utility.yul\":5747:5749   */\n      0x1f\n        /* \"#utility.yul\":5740:5745   */\n      dup4\n        /* \"#utility.yul\":5736:5750   */\n      add\n        /* \"#utility.yul\":5732:5760   */\n      and\n        /* \"#utility.yul\":5722:5760   */\n      swap1\n      pop\n        /* \"#utility.yul\":5664:5766   */\n      swap2\n      swap1\n      pop\n      jump\t// out\n        /* \"#utility.yul\":5772:6145   */\n    tag_178:\n        /* \"#utility.yul\":5858:5861   */\n      0x00\n        /* \"#utility.yul\":5886:5924   */\n      tag_281\n        /* \"#utility.yul\":5918:5923   */\n      dup3\n        /* \"#utility.yul\":5886:5924   */\n      tag_174\n      jump\t// in\n    tag_281:\n        /* \"#utility.yul\":5940:6010   */\n      tag_282\n        /* \"#utility.yul\":6003:6009   */\n      dup2\n        /* \"#utility.yul\":5998:6001   */\n      dup6\n        /* \"#utility.yul\":5940:6010   */\n      tag_175\n      jump\t// in\n    tag_282:\n        /* \"#utility.yul\":5933:6010   */\n      swap4\n      pop\n        /* \"#utility.yul\":6019:6084   */\n      tag_283\n        /* \"#utility.yul\":6077:6083   */\n      dup2\n        /* \"#utility.yul\":6072:6075   */\n      dup6\n        /* \"#utility.yul\":6065:6069   */\n      0x20\n        /* \"#utility.yul\":6058:6063   */\n      dup7\n        /* \"#utility.yul\":6054:6070   */\n      add\n        /* \"#utility.yul\":6019:6084   */\n      tag_176\n      jump\t// in\n    tag_283:\n        /* \"#utility.yul\":6109:6138   */\n      tag_284\n        /* \"#utility.yul\":6131:6137   */\n      dup2\n        /* \"#utility.yul\":6109:6138   */\n      tag_177\n      jump\t// in\n    tag_284:\n        /* \"#utility.yul\":6104:6107   */\n      dup5\n        /* \"#utility.yul\":6100:6139   */\n      add\n        /* \"#utility.yul\":6093:6139   */\n      swap2\n      pop\n        /* \"#utility.yul\":5862:6145   */\n      pop\n        /* \"#utility.yul\":5772:6145   */\n      swap3\n      swap2\n      pop\n      pop\n      jump\t// out\n        /* \"#utility.yul\":6151:6779   */\n    tag_55:\n        /* \"#utility.yul\":6340:6344   */\n      0x00\n        /* \"#utility.yul\":6378:6381   */\n      0x80\n        /* \"#utility.yul\":6367:6376   */\n      dup3\n        /* \"#utility.yul\":6363:6382   */\n      add\n        /* \"#utility.yul\":6355:6382   */\n      swap1\n      pop\n        /* \"#utility.yul\":6392:6463   */\n      tag_286\n        /* \"#utility.yul\":6460:6461   */\n      0x00\n        /* \"#utility.yul\":6449:6458   */\n      dup4\n        /* \"#utility.yul\":6445:6462   */\n      add\n        /* \"#utility.yul\":6436:6442   */\n      dup8\n        /* \"#utility.yul\":6392:6463   */\n      tag_165\n      jump\t// in\n    tag_286:\n        /* \"#utility.yul\":6473:6545   */\n      tag_287\n        /* \"#utility.yul\":6541:6543   */\n      0x20\n        /* \"#utility.yul\":6530:6539   */\n      dup4\n        /* \"#utility.yul\":6526:6544   */\n      add\n        /* \"#utility.yul\":6517:6523   */\n      dup7\n        /* \"#utility.yul\":6473:6545   */\n      tag_157\n      jump\t// in\n    tag_287:\n        /* \"#utility.yul\":6592:6601   */\n      dup2\n        /* \"#utility.yul\":6586:6590   */\n      dup2\n        /* \"#utility.yul\":6582:6602   */\n      sub\n        /* \"#utility.yul\":6577:6579   */\n      0x40\n        /* \"#utility.yul\":6566:6575   */\n      dup4\n        /* \"#utility.yul\":6562:6580   */\n      add\n        /* \"#utility.yul\":6555:6603   */\n      mstore\n        /* \"#utility.yul\":6620:6696   */\n      tag_288\n        /* \"#utility.yul\":6691:6695   */\n      dup2\n        /* \"#utility.yul\":6682:6688   */\n      dup6\n        /* \"#utility.yul\":6620:6696   */\n      tag_178\n      jump\t// in\n    tag_288:\n        /* \"#utility.yul\":6612:6696   */\n      swap1\n      pop\n        /* \"#utility.yul\":6706:6772   */\n      tag_289\n        /* \"#utility.yul\":6768:6770   */\n      0x60\n        /* \"#utility.yul\":6757:6766   */\n      dup4\n        /* \"#utility.yul\":6753:6771   */\n      add\n        /* \"#utility.yul\":6744:6750   */\n      dup5\n        /* \"#utility.yul\":6706:6772   */\n      tag_173\n      jump\t// in\n    tag_289:\n        /* \"#utility.yul\":6151:6779   */\n      swap6\n      swap5\n      pop\n      pop\n      pop\n      pop\n      pop\n      jump\t// out\n        /* \"#utility.yul\":6785:6954   */\n    tag_179:\n        /* \"#utility.yul\":6869:6880   */\n      0x00\n        /* \"#utility.yul\":6903:6909   */\n      dup3\n        /* \"#utility.yul\":6898:6901   */\n      dup3\n        /* \"#utility.yul\":6891:6910   */\n      mstore\n        /* \"#utility.yul\":6943:6947   */\n      0x20\n        /* \"#utility.yul\":6938:6941   */\n      dup3\n        /* \"#utility.yul\":6934:6948   */\n      add\n        /* \"#utility.yul\":6919:6948   */\n      swap1\n      pop\n        /* \"#utility.yul\":6785:6954   */\n      swap3\n      swap2\n      pop\n      pop\n      jump\t// out\n        /* \"#utility.yul\":6960:7119   */\n    tag_180:\n        /* \"#utility.yul\":7100:7111   */\n      0x6e6f74206f776e65720000000000000000000000000000000000000000000000\n        /* \"#utility.yul\":7096:7097   */\n      0x00\n        /* \"#utility.yul\":7088:7094   */\n      dup3\n        /* \"#utility.yul\":7084:7098   */\n      add\n        /* \"#utility.yul\":7077:7112   */\n      mstore\n        /* \"#utility.yul\":6960:7119   */\n      pop\n      jump\t// out\n        /* \"#utility.yul\":7125:7490   */\n    tag_181:\n        /* \"#utility.yul\":7267:7270   */\n      0x00\n        /* \"#utility.yul\":7288:7354   */\n      tag_293\n        /* \"#utility.yul\":7352:7353   */\n      0x09\n        /* \"#utility.yul\":7347:7350   */\n      dup4\n        /* \"#utility.yul\":7288:7354   */\n      tag_179\n      jump\t// in\n    tag_293:\n        /* \"#utility.yul\":7281:7354   */\n      swap2\n      pop\n        /* \"#utility.yul\":7363:7456   */\n      tag_294\n        /* \"#utility.yul\":7452:7455   */\n      dup3\n        /* \"#utility.yul\":7363:7456   */\n      tag_180\n      jump\t// in\n    tag_294:\n        /* \"#utility.yul\":7481:7483   */\n      0x20\n        /* \"#utility.yul\":7476:7479   */\n      dup3\n        /* \"#utility.yul\":7472:7484   */\n      add\n        /* \"#utility.yul\":7465:7484   */\n      swap1\n      pop\n        /* \"#utility.yul\":7125:7490   */\n      swap2\n      swap1\n      pop\n      jump\t// out\n        /* \"#utility.yul\":7496:7915   */\n    tag_69:\n        /* \"#utility.yul\":7662:7666   */\n      0x00\n        /* \"#utility.yul\":7700:7702   */\n      0x20\n        /* \"#utility.yul\":7689:7698   */\n      dup3\n        /* \"#utility.yul\":7685:7703   */\n      add\n        /* \"#utility.yul\":7677:7703   */\n      swap1\n      pop\n        /* \"#utility.yul\":7749:7758   */\n      dup2\n        /* \"#utility.yul\":7743:7747   */\n      dup2\n        /* \"#utility.yul\":7739:7759   */\n      sub\n        /* \"#utility.yul\":7735:7736   */\n      0x00\n        /* \"#utility.yul\":7724:7733   */\n      dup4\n        /* \"#utility.yul\":7720:7737   */\n      add\n        /* \"#utility.yul\":7713:7760   */\n      mstore\n        /* \"#utility.yul\":7777:7908   */\n      tag_296\n        /* \"#utility.yul\":7903:7907   */\n      dup2\n        /* \"#utility.yul\":7777:7908   */\n      tag_181\n      jump\t// in\n    tag_296:\n        /* \"#utility.yul\":7769:7908   */\n      swap1\n      pop\n        /* \"#utility.yul\":7496:7915   */\n      swap2\n      swap1\n      pop\n      jump\t// out\n        /* \"#utility.yul\":7921:8101   */\n    tag_182:\n        /* \"#utility.yul\":7969:8046   */\n      0x4e487b7100000000000000000000000000000000000000000000000000000000\n        /* \"#utility.yul\":7966:7967   */\n      0x00\n        /* \"#utility.yul\":7959:8047   */\n      mstore\n        /* \"#utility.yul\":8066:8070   */\n      0x41\n        /* \"#utility.yul\":8063:8064   */\n      0x04\n        /* \"#utility.yul\":8056:8071   */\n      mstore\n        /* \"#utility.yul\":8090:8094   */\n      0x24\n        /* \"#utility.yul\":8087:8088   */\n      0x00\n        /* \"#utility.yul\":8080:8095   */\n      revert\n        /* \"#utility.yul\":8107:8287   */\n    tag_183:\n        /* \"#utility.yul\":8155:8232   */\n      0x4e487b7100000000000000000000000000000000000000000000000000000000\n        /* \"#utility.yul\":8152:8153   */\n      0x00\n        /* \"#utility.yul\":8145:8233   */\n      mstore\n        /* \"#utility.yul\":8252:8256   */\n      0x22\n        /* \"#utility.yul\":8249:8250   */\n      0x04\n        /* \"#utility.yul\":8242:8257   */\n      mstore\n        /* \"#utility.yul\":8276:8280   */\n      0x24\n        /* \"#utility.yul\":8273:8274   */\n      0x00\n        /* \"#utility.yul\":8266:8281   */\n      revert\n        /* \"#utility.yul\":8293:8613   */\n    tag_124:\n        /* \"#utility.yul\":8337:8343   */\n      0x00\n        /* \"#utility.yul\":8374:8375   */\n      0x02\n        /* \"#utility.yul\":8368:8372   */\n      dup3\n        /* \"#utility.yul\":8364:8376   */\n      div\n        /* \"#utility.yul\":8354:8376   */\n      swap1\n      pop\n        /* \"#utility.yul\":8421:8422   */\n      0x01\n        /* \"#utility.yul\":8415:8419   */\n      dup3\n        /* \"#utility.yul\":8411:8423   */\n      and\n        /* \"#utility.yul\":8442:8460   */\n      dup1\n        /* \"#utility.yul\":8432:8513   */\n      tag_300\n      jumpi\n        /* \"#utility.yul\":8498:8502   */\n      0x7f\n        /* \"#utility.yul\":8490:8496   */\n      dup3\n        /* \"#utility.yul\":8486:8503   */\n      and\n        /* \"#utility.yul\":8476:8503   */\n      swap2\n      pop\n        /* \"#utility.yul\":8432:8513   */\n    tag_300:\n        /* \"#utility.yul\":8560:8562   */\n      0x20\n        /* \"#utility.yul\":8552:8558   */\n      dup3\n        /* \"#utility.yul\":8549:8563   */\n      lt\n        /* \"#utility.yul\":8529:8547   */\n      dup2\n        /* \"#utility.yul\":8526:8564   */\n      sub\n        /* \"#utility.yul\":8523:8607   */\n      tag_301\n      jumpi\n        /* \"#utility.yul\":8579:8597   */\n      tag_302\n      tag_183\n      jump\t// in\n    tag_302:\n        /* \"#utility.yul\":8523:8607   */\n    tag_301:\n        /* \"#utility.yul\":8344:8613   */\n      pop\n        /* \"#utility.yul\":8293:8613   */\n      swap2\n      swap1\n      pop\n      jump\t// out\n        /* \"#utility.yul\":8619:8759   */\n    tag_184:\n        /* \"#utility.yul\":8667:8671   */\n      0x00\n        /* \"#utility.yul\":8690:8693   */\n      dup2\n        /* \"#utility.yul\":8682:8693   */\n      swap1\n      pop\n        /* \"#utility.yul\":8713:8716   */\n      dup2\n        /* \"#utility.yul\":8710:8711   */\n      0x00\n        /* \"#utility.yul\":8703:8717   */\n      mstore\n        /* \"#utility.yul\":8747:8751   */\n      0x20\n        /* \"#utility.yul\":8744:8745   */\n      0x00\n        /* \"#utility.yul\":8734:8752   */\n      keccak256\n        /* \"#utility.yul\":8726:8752   */\n      swap1\n      pop\n        /* \"#utility.yul\":8619:8759   */\n      swap2\n      swap1\n      pop\n      jump\t// out\n        /* \"#utility.yul\":8765:8858   */\n    tag_185:\n        /* \"#utility.yul\":8802:8808   */\n      0x00\n        /* \"#utility.yul\":8849:8851   */\n      0x20\n        /* \"#utility.yul\":8844:8846   */\n      0x1f\n        /* \"#utility.yul\":8837:8842   */\n      dup4\n        /* \"#utility.yul\":8833:8847   */\n      add\n        /* \"#utility.yul\":8829:8852   */\n      div\n        /* \"#utility.yul\":8819:8852   */\n      swap1\n      pop\n        /* \"#utility.yul\":8765:8858   */\n      swap2\n      swap1\n      pop\n      jump\t// out\n        /* \"#utility.yul\":8864:8971   */\n    tag_186:\n        /* \"#utility.yul\":8908:8916   */\n      0x00\n        /* \"#utility.yul\":8958:8963   */\n      dup3\n        /* \"#utility.yul\":8952:8956   */\n      dup3\n        /* \"#utility.yul\":8948:8964   */\n      shl\n        /* \"#utility.yul\":8927:8964   */\n      swap1\n      pop\n        /* \"#utility.yul\":8864:8971   */\n      swap3\n      swap2\n      pop\n      pop\n      jump\t// out\n        /* \"#utility.yul\":8977:9370   */\n    tag_187:\n        /* \"#utility.yul\":9046:9052   */\n      0x00\n        /* \"#utility.yul\":9096:9097   */\n      0x08\n        /* \"#utility.yul\":9084:9094   */\n      dup4\n        /* \"#utility.yul\":9080:9098   */\n      mul\n        /* \"#utility.yul\":9119:9216   */\n      tag_307\n        /* \"#utility.yul\":9149:9215   */\n      0xffffffffffffffffffffffffffffffffffffffffffffffffffffffffffffffff\n        /* \"#utility.yul\":9138:9147   */\n      dup3\n        /* \"#utility.yul\":9119:9216   */\n      tag_186\n      jump\t// in\n    tag_307:\n        /* \"#utility.yul\":9237:9276   */\n      tag_308\n        /* \"#utility.yul\":9267:9275   */\n      dup7\n        /* \"#utility.yul\":9256:9265   */\n      dup4\n        /* \"#utility.yul\":9237:9276   */\n      tag_186\n      jump\t// in\n    tag_308:\n        /* \"#utility.yul\":9225:9276   */\n      swap6\n      pop\n        /* \"#utility.yul\":9309:9313   */\n      dup1\n        /* \"#utility.yul\":9305:9314   */\n      not\n        /* \"#utility.yul\":9298:9303   */\n      dup5\n        /* \"#utility.yul\":9294:9315   */\n      and\n        /* \"#utility.yul\":9285:9315   */\n      swap4\n      pop\n        /* \"#utility.yul\":9358:9362   */\n      dup1\n        /* \"#utility.yul\":9348:9356   */\n      dup7\n        /* \"#utility.yul\":9344:9363   */\n      and\n        /* \"#utility.yul\":9337:9342   */\n      dup5\n        /* \"#utility.yul\":9334:9364   */\n      or\n        /* \"#utility.yul\":9324:9364   */\n      swap3\n      pop\n        /* \"#utility.yul\":9053:9370   */\n      pop\n      pop\n        /* \"#utility.yul\":8977:9370   */\n      swap4\n      swap3\n      pop\n      pop\n      pop\n      jump\t// out\n        /* \"#utility.yul\":9376:9436   */\n    tag_188:\n        /* \"#utility.yul\":9404:9407   */\n      0x00\n        /* \"#utility.yul\":9425:9430   */\n      dup2\n        /* \"#utility.yul\":9418:9430   */\n      swap1\n      pop\n        /* \"#utility.yul\":9376:9436   */\n      swap2\n      swap1\n      pop\n      jump\t// out\n        /* \"#utility.yul\":9442:9584   */\n    tag_189:\n        /* \"#utility.yul\":9492:9501   */\n      0x00\n        /* \"#utility.yul\":9525:9578   */\n      tag_311\n        /* \"#utility.yul\":9543:9577   */\n      tag_312\n        /* \"#utility.yul\":9552:9576   */\n      tag_313\n        /* \"#utility.yul\":9570:9575   */\n      dup5\n        /* \"#utility.yul\":9552:9576   */\n      tag_156\n      jump\t// in\n    tag_313:\n        /* \"#utility.yul\":9543:9577   */\n      tag_188\n      jump\t// in\n    tag_312:\n        /* \"#utility.yul\":9525:9578   */\n      tag_156\n      jump\t// in\n    tag_311:\n        /* \"#utility.yul\":9512:9578   */\n      swap1\n      pop\n        /* \"#utility.yul\":9442:9584   */\n      swap2\n      swap1\n      pop\n      jump\t// out\n        /* \"#utility.yul\":9590:9665   */\n    tag_190:\n        /* \"#utility.yul\":9633:9636   */\n      0x00\n        /* \"#utility.yul\":9654:9659   */\n      dup2\n        /* \"#utility.yul\":9647:9659   */\n      swap1\n      pop\n        /* \"#utility.yul\":9590:9665   */\n      swap2\n      swap1\n      pop\n      jump\t// out\n        /* \"#utility.yul\":9671:9940   */\n    tag_191:\n        /* \"#utility.yul\":9781:9820   */\n      tag_316\n        /* \"#utility.yul\":9812:9819   */\n      dup4\n        /* \"#utility.yul\":9781:9820   */\n      tag_189\n      jump\t// in\n    tag_316:\n        /* \"#utility.yul\":9842:9933   */\n      tag_317\n        /* \"#utility.yul\":9891:9932   */\n      tag_318\n        /* \"#utility.yul\":9915:9931   */\n      dup3\n        /* \"#utility.yul\":9891:9932   */\n      tag_190\n      jump\t// in\n    tag_318:\n        /* \"#utility.yul\":9883:9889   */\n      dup5\n        /* \"#utility.yul\":9876:9880   */\n      dup5\n        /* \"#utility.yul\":9870:9881   */\n      sload\n        /* \"#utility.yul\":9842:9933   */\n      tag_187\n      jump\t// in\n    tag_317:\n        /* \"#utility.yul\":9836:9840   */\n      dup3\n        /* \"#utility.yul\":9829:9934   */\n      sstore\n        /* \"#utility.yul\":9747:9940   */\n      pop\n        /* \"#utility.yul\":9671:9940   */\n      pop\n      pop\n      pop\n      jump\t// out\n        /* \"#utility.yul\":9946:10019   */\n    tag_192:\n        /* \"#utility.yul\":9991:9994   */\n      0x00\n        /* \"#utility.yul\":10012:10013   */\n      0x00\n        /* \"#utility.yul\":10005:10013   */\n      swap1\n      pop\n        /* \"#utility.yul\":9946:10019   */\n      swap1\n      jump\t// out\n        /* \"#utility.yul\":10025:10214   */\n    tag_193:\n        /* \"#utility.yul\":10102:10134   */\n      tag_321\n      tag_192\n      jump\t// in\n    tag_321:\n        /* \"#utility.yul\":10143:10208   */\n      tag_322\n        /* \"#utility.yul\":10201:10207   */\n      dup2\n        /* \"#utility.yul\":10193:10199   */\n      dup5\n        /* \"#utility.yul\":10187:10191   */\n      dup5\n        /* \"#utility.yul\":10143:10208   */\n      tag_191\n      jump\t// in\n    tag_322:\n        /* \"#utility.yul\":10078:10214   */\n      pop\n        /* \"#utility.yul\":10025:10214   */\n      pop\n      pop\n      jump\t// out\n        /* \"#utility.yul\":10220:10406   */\n    tag_194:\n        /* \"#utility.yul\":10280:10400   */\n    tag_324:\n        /* \"#utility.yul\":10297:10300   */\n      dup2\n        /* \"#utility.yul\":10290:10295   */\n      dup2\n        /* \"#utility.yul\":10287:10301   */\n      lt\n        /* \"#utility.yul\":10280:10400   */\n      iszero\n      tag_326\n      jumpi\n        /* \"#utility.yul\":10351:10390   */\n      tag_327\n        /* \"#utility.yul\":10388:10389   */\n      0x00\n        /* \"#utility.yul\":10381:10386   */\n      dup3\n        /* \"#utility.yul\":10351:10390   */\n      tag_193\n      jump\t// in\n    tag_327:\n        /* \"#utility.yul\":10324:10325   */\n      0x01\n        /* \"#utility.yul\":10317:10322   */\n      dup2\n        /* \"#utility.yul\":10313:10326   */\n      add\n        /* \"#utility.yul\":10304:10326   */\n      swap1\n      pop\n        /* \"#utility.yul\":10280:10400   */\n      jump(tag_324)\n    tag_326:\n        /* \"#utility.yul\":10220:10406   */\n      pop\n      pop\n      jump\t// out\n        /* \"#utility.yul\":10412:10953   */\n    tag_195:\n        /* \"#utility.yul\":10512:10514   */\n      0x1f\n        /* \"#utility.yul\":10507:10510   */\n      dup3\n        /* \"#utility.yul\":10504:10515   */\n      gt\n        /* \"#utility.yul\":10501:10946   */\n      iszero\n      tag_329\n      jumpi\n        /* \"#utility.yul\":10546:10583   */\n      tag_330\n        /* \"#utility.yul\":10577:10582   */\n      dup2\n        /* \"#utility.yul\":10546:10583   */\n      tag_184\n      jump\t// in\n    tag_330:\n        /* \"#utility.yul\":10629:10658   */\n      tag_331\n        /* \"#utility.yul\":10647:10657   */\n      dup5\n        /* \"#utility.yul\":10629:10658   */\n      tag_185\n      jump\t// in\n    tag_331:\n        /* \"#utility.yul\":10619:10627   */\n      dup2\n        /* \"#utility.yul\":10615:10659   */\n      add\n        /* \"#utility.yul\":10812:10814   */\n      0x20\n        /* \"#utility.yul\":10800:10810   */\n      dup6\n        /* \"#utility.yul\":10797:10815   */\n      lt\n        /* \"#utility.yul\":10794:10843   */\n      iszero\n      tag_332\n      jumpi\n        /* \"#utility.yul\":10833:10841   */\n      dup2\n        /* \"#utility.yul\":10818:10841   */\n      swap1\n      pop\n        /* \"#utility.yul\":10794:10843   */\n    tag_332:\n        /* \"#utility.yul\":10856:10936   */\n      tag_333\n        /* \"#utility.yul\":10912:10934   */\n      tag_334\n        /* \"#utility.yul\":10930:10933   */\n      dup6\n        /* \"#utility.yul\":10912:10934   */\n      tag_185\n      jump\t// in\n    tag_334:\n        /* \"#utility.yul\":10902:10910   */\n      dup4\n        /* \"#utility.yul\":10898:10935   */\n      add\n        /* \"#utility.yul\":10885:10896   */\n      dup3\n        /* \"#utility.yul\":10856:10936   */\n      tag_194\n      jump\t// in\n    tag_333:\n        /* \"#utility.yul\":10516:10946   */\n      pop\n      pop\n        /* \"#utility.yul\":10501:10946   */\n    tag_329:\n        /* \"#utility.yul\":10412:10953   */\n      pop\n      pop\n      pop\n      jump\t// out\n        /* \"#utility.yul\":10959:11076   */\n    tag_196:\n        /* \"#utility.yul\":11013:11021   */\n      0x00\n        /* \"#utility.yul\":11063:11068   */\n      dup3\n        /* \"#utility.yul\":11057:11061   */\n      dup3\n        /* \"#utility.yul\":11053:11069   */\n      shr\n        /* \"#utility.yul\":11032:11069   */\n      swap1\n      pop\n        /* \"#utility.yul\":10959:11076   */\n      swap3\n      swap2\n      pop\n      pop\n      jump\t// out\n        /* \"#utility.yul\":11082:11251   */\n    tag_197:\n        /* \"#utility.yul\":11126:11132   */\n      0x00\n        /* \"#utility.yul\":11159:11210   */\n      tag_337\n        /* \"#utility.yul\":11207:11208   */\n      0x00\n        /* \"#utility.yul\":11203:11209   */\n      not\n        /* \"#utility.yul\":11195:11200   */\n      dup5\n        /* \"#utility.yul\":11192:11193   */\n      0x08\n        /* \"#utility.yul\":11188:11201   */\n      mul\n        /* \"#utility.yul\":11159:11210   */\n      tag_196\n      jump\t// in\n    tag_337:\n        /* \"#utility.yul\":11155:11211   */\n      not\n        /* \"#utility.yul\":11240:11244   */\n      dup1\n        /* \"#utility.yul\":11234:11238   */\n      dup4\n        /* \"#utility.yul\":11230:11245   */\n      and\n        /* \"#utility.yul\":11220:11245   */\n      swap2\n      pop\n        /* \"#utility.yul\":11133:11251   */\n      pop\n        /* \"#utility.yul\":11082:11251   */\n      swap3\n      swap2\n      pop\n      pop\n      jump\t// out\n        /* \"#utility.yul\":11256:11551   */\n    tag_198:\n        /* \"#utility.yul\":11332:11336   */\n      0x00\n        /* \"#utility.yul\":11478:11507   */\n      tag_339\n        /* \"#utility.yul\":11503:11506   */\n      dup4\n        /* \"#utility.yul\":11497:11501   */\n      dup4\n        /* \"#utility.yul\":11478:11507   */\n      tag_197\n      jump\t// in\n    tag_339:\n        /* \"#utility.yul\":11470:11507   */\n      swap2\n      pop\n        /* \"#utility.yul\":11540:11543   */\n      dup3\n        /* \"#utility.yul\":11537:11538   */\n      0x02\n        /* \"#utility.yul\":11533:11544   */\n      mul\n        /* \"#utility.yul\":11527:11531   */\n      dup3\n        /* \"#utility.yul\":11524:11545   */\n      or\n        /* \"#utility.yul\":11516:11545   */\n      swap1\n      pop\n        /* \"#utility.yul\":11256:11551   */\n      swap3\n      swap2\n      pop\n      pop\n      jump\t// out\n        /* \"#utility.yul\":11556:12946   */\n    tag_73:\n        /* \"#utility.yul\":11671:11707   */\n      tag_341\n        /* \"#utility.yul\":11703:11706   */\n      dup3\n        /* \"#utility.yul\":11671:11707   */\n      tag_174\n      jump\t// in\n    tag_341:\n        /* \"#utility.yul\":11772:11790   */\n      0xffffffffffffffff\n        /* \"#utility.yul\":11764:11770   */\n      dup2\n        /* \"#utility.yul\":11761:11791   */\n      gt\n        /* \"#utility.yul\":11758:11814   */\n      iszero\n      tag_342\n      jumpi\n        /* \"#utility.yul\":11794:11812   */\n      tag_343\n      tag_182\n      jump\t// in\n    tag_343:\n        /* \"#utility.yul\":11758:11814   */\n    tag_342:\n        /* \"#utility.yul\":11838:11876   */\n      tag_344\n        /* \"#utility.yul\":11870:11874   */\n      dup3\n        /* \"#utility.yul\":11864:11875   */\n      sload\n        /* \"#utility.yul\":11838:11876   */\n      tag_124\n      jump\t// in\n    tag_344:\n        /* \"#utility.yul\":11923:11989   */\n      tag_345\n        /* \"#utility.yul\":11982:11988   */\n      dup3\n        /* \"#utility.yul\":11974:11980   */\n      dup3\n        /* \"#utility.yul\":11968:11972   */\n      dup6\n        /* \"#utility.yul\":11923:11989   */\n      tag_195\n      jump\t// in\n    tag_345:\n        /* \"#utility.yul\":12016:12017   */\n      0x00\n        /* \"#utility.yul\":12040:12044   */\n      0x20\n        /* \"#utility.yul\":12027:12044   */\n      swap1\n      pop\n        /* \"#utility.yul\":12072:12074   */\n      0x1f\n        /* \"#utility.yul\":12064:12070   */\n      dup4\n        /* \"#utility.yul\":12061:12075   */\n      gt\n        /* \"#utility.yul\":12089:12090   */\n      0x01\n        /* \"#utility.yul\":12084:12701   */\n      dup2\n      eq\n      tag_347\n      jumpi\n        /* \"#utility.yul\":12745:12746   */\n      0x00\n        /* \"#utility.yul\":12762:12768   */\n      dup5\n        /* \"#utility.yul\":12759:12836   */\n      iszero\n      tag_348\n      jumpi\n        /* \"#utility.yul\":12811:12820   */\n      dup3\n        /* \"#utility.yul\":12806:12809   */\n      dup8\n        /* \"#utility.yul\":12802:12821   */\n      add\n        /* \"#utility.yul\":12796:12822   */\n      mload\n        /* \"#utility.yul\":12787:12822   */\n      swap1\n      pop\n        /* \"#utility.yul\":12759:12836   */\n    tag_348:\n        /* \"#utility.yul\":12862:12929   */\n      tag_349\n        /* \"#utility.yul\":12922:12928   */\n      dup6\n        /* \"#utility.yul\":12915:12920   */\n      dup3\n        /* \"#utility.yul\":12862:12929   */\n      tag_198\n      jump\t// in\n    tag_349:\n        /* \"#utility.yul\":12856:12860   */\n      dup7\n        /* \"#utility.yul\":12849:12930   */\n      sstore\n        /* \"#utility.yul\":12718:12940   */\n      pop\n        /* \"#utility.yul\":12054:12940   */\n      jump(tag_346)\n        /* \"#utility.yul\":12084:12701   */\n    tag_347:\n        /* \"#utility.yul\":12136:12140   */\n      0x1f\n        /* \"#utility.yul\":12132:12141   */\n      not\n        /* \"#utility.yul\":12124:12130   */\n      dup5\n        /* \"#utility.yul\":12120:12142   */\n      and\n        /* \"#utility.yul\":12170:12206   */\n      tag_350\n        /* \"#utility.yul\":12201:12205   */\n      dup7\n        /* \"#utility.yul\":12170:12206   */\n      tag_184\n      jump\t// in\n    tag_350:\n        /* \"#utility.yul\":12228:12229   */\n      0x00\n        /* \"#utility.yul\":12242:12450   */\n    tag_351:\n        /* \"#utility.yul\":12256:12263   */\n      dup3\n        /* \"#utility.yul\":12253:12254   */\n      dup2\n        /* \"#utility.yul\":12250:12264   */\n      lt\n        /* \"#utility.yul\":12242:12450   */\n      iszero\n      tag_353\n      jumpi\n        /* \"#utility.yul\":12335:12344   */\n      dup5\n        /* \"#utility.yul\":12330:12333   */\n      dup10\n        /* \"#utility.yul\":12326:12345   */\n      add\n        /* \"#utility.yul\":12320:12346   */\n      mload\n        /* \"#utility.yul\":12312:12318   */\n      dup3\n        /* \"#utility.yul\":12305:12347   */\n      sstore\n        /* \"#utility.yul\":12386:12387   */\n      0x01\n        /* \"#utility.yul\":12378:12384   */\n      dup3\n        /* \"#utility.yul\":12374:12388   */\n      add\n        /* \"#utility.yul\":12364:12388   */\n      swap2\n      pop\n        /* \"#utility.yul\":12433:12435   */\n      0x20\n        /* \"#utility.yul\":12422:12431   */\n      dup6\n        /* \"#utility.yul\":12418:12436   */\n      add\n        /* \"#utility.yul\":12405:12436   */\n      swap5\n      pop\n        /* \"#utility.yul\":12279:12283   */\n      0x20\n        /* \"#utility.yul\":12276:12277   */\n      dup2\n        /* \"#utility.yul\":12272:12284   */\n      add\n        /* \"#utility.yul\":12267:12284   */\n      swap1\n      pop\n        /* \"#utility.yul\":12242:12450   */\n      jump(tag_351)\n    tag_353:\n        /* \"#utility.yul\":12478:12484   */\n      dup7\n        /* \"#utility.yul\":12469:12476   */\n      dup4\n        /* \"#utility.yul\":12466:12485   */\n      lt\n        /* \"#utility.yul\":12463:12642   */\n      iszero\n      tag_354\n      jumpi\n        /* \"#utility.yul\":12536:12545   */\n      dup5\n        /* \"#utility.yul\":12531:12534   */\n      dup10\n        /* \"#utility.yul\":12527:12546   */\n      add\n        /* \"#utility.yul\":12521:12547   */\n      mload\n        /* \"#utility.yul\":12579:12627   */\n      tag_355\n        /* \"#utility.yul\":12621:12625   */\n      0x1f\n        /* \"#utility.yul\":12613:12619   */\n      dup10\n        /* \"#utility.yul\":12609:12626   */\n      and\n        /* \"#utility.yul\":12598:12607   */\n      dup3\n        /* \"#utility.yul\":12579:12627   */\n      tag_197\n      jump\t// in\n    tag_355:\n        /* \"#utility.yul\":12571:12577   */\n      dup4\n        /* \"#utility.yul\":12564:12628   */\n      sstore\n        /* \"#utility.yul\":12486:12642   */\n      pop\n        /* \"#utility.yul\":12463:12642   */\n    tag_354:\n        /* \"#utility.yul\":12688:12689   */\n      0x01\n        /* \"#utility.yul\":12684:12685   */\n      0x02\n        /* \"#utility.yul\":12676:12682   */\n      dup9\n        /* \"#utility.yul\":12672:12686   */\n      mul\n        /* \"#utility.yul\":12668:12690   */\n      add\n        /* \"#utility.yul\":12662:12666   */\n      dup9\n        /* \"#utility.yul\":12655:12691   */\n      sstore\n        /* \"#utility.yul\":12091:12701   */\n      pop\n      pop\n      pop\n        /* \"#utility.yul\":12054:12940   */\n    tag_346:\n      pop\n        /* \"#utility.yul\":11646:12946   */\n      pop\n      pop\n      pop\n        /* \"#utility.yul\":11556:12946   */\n      pop\n      pop\n      jump\t// out\n        /* \"#utility.yul\":12952:13132   */\n    tag_199:\n        /* \"#utility.yul\":13000:13077   */\n      0x4e487b7100000000000000000000000000000000000000000000000000000000\n        /* \"#utility.yul\":12997:12998   */\n      0x00\n        /* \"#utility.yul\":12990:13078   */\n      mstore\n        /* \"#utility.yul\":13097:13101   */\n      0x11\n        /* \"#utility.yul\":13094:13095   */\n      0x04\n        /* \"#utility.yul\":13087:13102   */\n      mstore\n        /* \"#utility.yul\":13121:13125   */\n      0x24\n        /* \"#utility.yul\":13118:13119   */\n      0x00\n        /* \"#utility.yul\":13111:13126   */\n      revert\n        /* \"#utility.yul\":13138:13332   */\n    tag_75:\n        /* \"#utility.yul\":13178:13182   */\n      0x00\n        /* \"#utility.yul\":13198:13218   */\n      tag_358\n        /* \"#utility.yul\":13216:13217   */\n      dup3\n        /* \"#utility.yul\":13198:13218   */\n      tag_156\n      jump\t// in\n    tag_358:\n        /* \"#utility.yul\":13193:13218   */\n      swap2\n      pop\n        /* \"#utility.yul\":13232:13252   */\n      tag_359\n        /* \"#utility.yul\":13250:13251   */\n      dup4\n        /* \"#utility.yul\":13232:13252   */\n      tag_156\n      jump\t// in\n    tag_359:\n        /* \"#utility.yul\":13227:13252   */\n      swap3\n      pop\n        /* \"#utility.yul\":13276:13277   */\n      dup3\n        /* \"#utility.yul\":13273:13274   */\n      dup3\n        /* \"#utility.yul\":13269:13278   */\n      sub\n        /* \"#utility.yul\":13261:13278   */\n      swap1\n      pop\n        /* \"#utility.yul\":13300:13301   */\n      dup2\n        /* \"#utility.yul\":13294:13298   */\n      dup2\n        /* \"#utility.yul\":13291:13302   */\n      gt\n        /* \"#utility.yul\":13288:13325   */\n      iszero\n      tag_360\n      jumpi\n        /* \"#utility.yul\":13305:13323   */\n      tag_361\n      tag_199\n      jump\t// in\n    tag_361:\n        /* \"#utility.yul\":13288:13325   */\n    tag_360:\n        /* \"#utility.yul\":13138:13332   */\n      swap3\n      swap2\n      pop\n      pop\n      jump\t// out\n        /* \"#utility.yul\":13338:13505   */\n    tag_200:\n        /* \"#utility.yul\":13478:13497   */\n      0x747820646f6573206e6f74206578697374000000000000000000000000000000\n        /* \"#utility.yul\":13474:13475   */\n      0x00\n        /* \"#utility.yul\":13466:13472   */\n      dup3\n        /* \"#utility.yul\":13462:13476   */\n      add\n        /* \"#utility.yul\":13455:13498   */\n      mstore\n        /* \"#utility.yul\":13338:13505   */\n      pop\n      jump\t// out\n        /* \"#utility.yul\":13511:13877   */\n    tag_201:\n        /* \"#utility.yul\":13653:13656   */\n      0x00\n        /* \"#utility.yul\":13674:13741   */\n      tag_364\n        /* \"#utility.yul\":13738:13740   */\n      0x11\n        /* \"#utility.yul\":13733:13736   */\n      dup4\n        /* \"#utility.yul\":13674:13741   */\n      tag_179\n      jump\t// in\n    tag_364:\n        /* \"#utility.yul\":13667:13741   */\n      swap2\n      pop\n        /* \"#utility.yul\":13750:13843   */\n      tag_365\n        /* \"#utility.yul\":13839:13842   */\n      dup3\n        /* \"#utility.yul\":13750:13843   */\n      tag_200\n      jump\t// in\n    tag_365:\n        /* \"#utility.yul\":13868:13870   */\n      0x20\n        /* \"#utility.yul\":13863:13866   */\n      dup3\n        /* \"#utility.yul\":13859:13871   */\n      add\n        /* \"#utility.yul\":13852:13871   */\n      swap1\n      pop\n        /* \"#utility.yul\":13511:13877   */\n      swap2\n      swap1\n      pop\n      jump\t// out\n        /* \"#utility.yul\":13883:14302   */\n    tag_82:\n        /* \"#utility.yul\":14049:14053   */\n      0x00\n        /* \"#utility.yul\":14087:14089   */\n      0x20\n        /* \"#utility.yul\":14076:14085   */\n      dup3\n        /* \"#utility.yul\":14072:14090   */\n      add\n        /* \"#utility.yul\":14064:14090   */\n      swap1\n      pop\n        /* \"#utility.yul\":14136:14145   */\n      dup2\n        /* \"#utility.yul\":14130:14134   */\n      dup2\n        /* \"#utility.yul\":14126:14146   */\n      sub\n        /* \"#utility.yul\":14122:14123   */\n      0x00\n        /* \"#utility.yul\":14111:14120   */\n      dup4\n        /* \"#utility.yul\":14107:14124   */\n      add\n        /* \"#utility.yul\":14100:14147   */\n      mstore\n        /* \"#utility.yul\":14164:14295   */\n      tag_367\n        /* \"#utility.yul\":14290:14294   */\n      dup2\n        /* \"#utility.yul\":14164:14295   */\n      tag_201\n      jump\t// in\n    tag_367:\n        /* \"#utility.yul\":14156:14295   */\n      swap1\n      pop\n        /* \"#utility.yul\":13883:14302   */\n      swap2\n      swap1\n      pop\n      jump\t// out\n        /* \"#utility.yul\":14308:14488   */\n    tag_86:\n        /* \"#utility.yul\":14356:14433   */\n      0x4e487b7100000000000000000000000000000000000000000000000000000000\n        /* \"#utility.yul\":14353:14354   */\n      0x00\n        /* \"#utility.yul\":14346:14434   */\n      mstore\n        /* \"#utility.yul\":14453:14457   */\n      0x32\n        /* \"#utility.yul\":14450:14451   */\n      0x04\n        /* \"#utility.yul\":14443:14458   */\n      mstore\n        /* \"#utility.yul\":14477:14481   */\n      0x24\n        /* \"#utility.yul\":14474:14475   */\n      0x00\n        /* \"#utility.yul\":14467:14482   */\n      revert\n        /* \"#utility.yul\":14494:14663   */\n    tag_202:\n        /* \"#utility.yul\":14634:14655   */\n      0x747820616c726561647920657865637574656400000000000000000000000000\n        /* \"#utility.yul\":14630:14631   */\n      0x00\n        /* \"#utility.yul\":14622:14628   */\n      dup3\n        /* \"#utility.yul\":14618:14632   */\n      add\n        /* \"#utility.yul\":14611:14656   */\n      mstore\n        /* \"#utility.yul\":14494:14663   */\n      pop\n      jump\t// out\n        /* \"#utility.yul\":14669:15035   */\n    tag_203:\n        /* \"#utility.yul\":14811:14814   */\n      0x00\n        /* \"#utility.yul\":14832:14899   */\n      tag_371\n        /* \"#utility.yul\":14896:14898   */\n      0x13\n        /* \"#utility.yul\":14891:14894   */\n      dup4\n        /* \"#utility.yul\":14832:14899   */\n      tag_179\n      jump\t// in\n    tag_371:\n        /* \"#utility.yul\":14825:14899   */\n      swap2\n      pop\n        /* \"#utility.yul\":14908:15001   */\n      tag_372\n        /* \"#utility.yul\":14997:15000   */\n      dup3\n        /* \"#utility.yul\":14908:15001   */\n      tag_202\n      jump\t// in\n    tag_372:\n        /* \"#utility.yul\":15026:15028   */\n      0x20\n        /* \"#utility.yul\":15021:15024   */\n      dup3\n        /* \"#utility.yul\":15017:15029   */\n      add\n        /* \"#utility.yul\":15010:15029   */\n      swap1\n      pop\n        /* \"#utility.yul\":14669:15035   */\n      swap2\n      swap1\n      pop\n      jump\t// out\n        /* \"#utility.yul\":15041:15460   */\n    tag_90:\n        /* \"#utility.yul\":15207:15211   */\n      0x00\n        /* \"#utility.yul\":15245:15247   */\n      0x20\n        /* \"#utility.yul\":15234:15243   */\n      dup3\n        /* \"#utility.yul\":15230:15248   */\n      add\n        /* \"#utility.yul\":15222:15248   */\n      swap1\n      pop\n        /* \"#utility.yul\":15294:15303   */\n      dup2\n        /* \"#utility.yul\":15288:15292   */\n      dup2\n        /* \"#utility.yul\":15284:15304   */\n      sub\n        /* \"#utility.yul\":15280:15281   */\n      0x00\n        /* \"#utility.yul\":15269:15278   */\n      dup4\n        /* \"#utility.yul\":15265:15282   */\n      add\n        /* \"#utility.yul\":15258:15305   */\n      mstore\n        /* \"#utility.yul\":15322:15453   */\n      tag_374\n        /* \"#utility.yul\":15448:15452   */\n      dup2\n        /* \"#utility.yul\":15322:15453   */\n      tag_203\n      jump\t// in\n    tag_374:\n        /* \"#utility.yul\":15314:15453   */\n      swap1\n      pop\n        /* \"#utility.yul\":15041:15460   */\n      swap2\n      swap1\n      pop\n      jump\t// out\n        /* \"#utility.yul\":15466:15631   */\n    tag_204:\n        /* \"#utility.yul\":15606:15623   */\n      0x7478206e6f7420617070726f7665640000000000000000000000000000000000\n        /* \"#utility.yul\":15602:15603   */\n      0x00\n        /* \"#utility.yul\":15594:15600   */\n      dup3\n        /* \"#utility.yul\":15590:15604   */\n      add\n        /* \"#utility.yul\":15583:15624   */\n      mstore\n        /* \"#utility.yul\":15466:15631   */\n      pop\n      jump\t// out\n        /* \"#utility.yul\":15637:16003   */\n    tag_205:\n        /* \"#utility.yul\":15779:15782   */\n      0x00\n        /* \"#utility.yul\":15800:15867   */\n      tag_377\n        /* \"#utility.yul\":15864:15866   */\n      0x0f\n        /* \"#utility.yul\":15859:15862   */\n      dup4\n        /* \"#utility.yul\":15800:15867   */\n      tag_179\n      jump\t// in\n    tag_377:\n        /* \"#utility.yul\":15793:15867   */\n      swap2\n      pop\n        /* \"#utility.yul\":15876:15969   */\n      tag_378\n        /* \"#utility.yul\":15965:15968   */\n      dup3\n        /* \"#utility.yul\":15876:15969   */\n      tag_204\n      jump\t// in\n    tag_378:\n        /* \"#utility.yul\":15994:15996   */\n      0x20\n        /* \"#utility.yul\":15989:15992   */\n      dup3\n        /* \"#utility.yul\":15985:15997   */\n      add\n        /* \"#utility.yul\":15978:15997   */\n      swap1\n      pop\n        /* \"#utility.yul\":15637:16003   */\n      swap2\n      swap1\n      pop\n      jump\t// out\n        /* \"#utility.yul\":16009:16428   */\n    tag_94:\n        /* \"#utility.yul\":16175:16179   */\n      0x00\n        /* \"#utility.yul\":16213:16215   */\n      0x20\n        /* \"#utility.yul\":16202:16211   */\n      dup3\n        /* \"#utility.yul\":16198:16216   */\n      add\n        /* \"#utility.yul\":16190:16216   */\n      swap1\n      pop\n        /* \"#utility.yul\":16262:16271   */\n      dup2\n        /* \"#utility.yul\":16256:16260   */\n      dup2\n        /* \"#utility.yul\":16252:16272   */\n      sub\n        /* \"#utility.yul\":16248:16249   */\n      0x00\n        /* \"#utility.yul\":16237:16246   */\n      dup4\n        /* \"#utility.yul\":16233:16250   */\n      add\n        /* \"#utility.yul\":16226:16273   */\n      mstore\n        /* \"#utility.yul\":16290:16421   */\n      tag_380\n        /* \"#utility.yul\":16416:16420   */\n      dup2\n        /* \"#utility.yul\":16290:16421   */\n      tag_205\n      jump\t// in\n    tag_380:\n        /* \"#utility.yul\":16282:16421   */\n      swap1\n      pop\n        /* \"#utility.yul\":16009:16428   */\n      swap2\n      swap1\n      pop\n      jump\t// out\n        /* \"#utility.yul\":16434:16604   */\n    tag_206:\n        /* \"#utility.yul\":16574:16596   */\n      0x617070726f76616c73203c207265717569726564000000000000000000000000\n        /* \"#utility.yul\":16570:16571   */\n      0x00\n        /* \"#utility.yul\":16562:16568   */\n      dup3\n        /* \"#utility.yul\":16558:16572   */\n      add\n        /* \"#utility.yul\":16551:16597   */\n      mstore\n        /* \"#utility.yul\":16434:16604   */\n      pop\n      jump\t// out\n        /* \"#utility.yul\":16610:16976   */\n    tag_207:\n        /* \"#utility.yul\":16752:16755   */\n      0x00\n        /* \"#utility.yul\":16773:16840   */\n      tag_383\n        /* \"#utility.yul\":16837:16839   */\n      0x14\n        /* \"#utility.yul\":16832:16835   */\n      dup4\n        /* \"#utility.yul\":16773:16840   */\n      tag_179\n      jump\t// in\n    tag_383:\n        /* \"#utility.yul\":16766:16840   */\n      swap2\n      pop\n        /* \"#utility.yul\":16849:16942   */\n      tag_384\n        /* \"#utility.yul\":16938:16941   */\n      dup3\n        /* \"#utility.yul\":16849:16942   */\n      tag_206\n      jump\t// in\n    tag_384:\n        /* \"#utility.yul\":16967:16969   */\n      0x20\n        /* \"#utility.yul\":16962:16965   */\n      dup3\n        /* \"#utility.yul\":16958:16970   */\n      add\n        /* \"#utility.yul\":16951:16970   */\n      swap1\n      pop\n        /* \"#utility.yul\":16610:16976   */\n      swap2\n      swap1\n      pop\n      jump\t// out\n        /* \"#utility.yul\":16982:17401   */\n    tag_109:\n        /* \"#utility.yul\":17148:17152   */\n      0x00\n        /* \"#utility.yul\":17186:17188   */\n      0x20\n        /* \"#utility.yul\":17175:17184   */\n      dup3\n        /* \"#utility.yul\":17171:17189   */\n      add\n        /* \"#utility.yul\":17163:17189   */\n      swap1\n      pop\n        /* \"#utility.yul\":17235:17244   */\n      dup2\n        /* \"#utility.yul\":17229:17233   */\n      dup2\n        /* \"#utility.yul\":17225:17245   */\n      sub\n        /* \"#utility.yul\":17221:17222   */\n      0x00\n        /* \"#utility.yul\":17210:17219   */\n      dup4\n        /* \"#utility.yul\":17206:17223   */\n      add\n        /* \"#utility.yul\":17199:17246   */\n      mstore\n        /* \"#utility.yul\":17263:17394   */\n      tag_386\n        /* \"#utility.yul\":17389:17393   */\n      dup2\n        /* \"#utility.yul\":17263:17394   */\n      tag_207\n      jump\t// in\n    tag_386:\n        /* \"#utility.yul\":17255:17394   */\n      swap1\n      pop\n        /* \"#utility.yul\":16982:17401   */\n      swap2\n      swap1\n      pop\n      jump\t// out\n        /* \"#utility.yul\":17407:17554   */\n    tag_208:\n        /* \"#utility.yul\":17508:17519   */\n      0x00\n        /* \"#utility.yul\":17545:17548   */\n      dup2\n        /* \"#utility.yul\":17530:17548   */\n      swap1\n      pop\n        /* \"#utility.yul\":17407:17554   */\n      swap3\n      swap2\n      pop\n      pop\n      jump\t// out\n        /* \"#utility.yul\":17582:18452   */\n    tag_209:\n        /* \"#utility.yul\":17683:17686   */\n      0x00\n        /* \"#utility.yul\":17720:17725   */\n      dup2\n        /* \"#utility.yul\":17714:17726   */\n      sload\n        /* \"#utility.yul\":17749:17785   */\n      tag_389\n        /* \"#utility.yul\":17775:17784   */\n      dup2\n        /* \"#utility.yul\":17749:17785   */\n      tag_124\n      jump\t// in\n    tag_389:\n        /* \"#utility.yul\":17801:17889   */\n      tag_390\n        /* \"#utility.yul\":17882:17888   */\n      dup2\n        /* \"#utility.yul\":17877:17880   */\n      dup7\n        /* \"#utility.yul\":17801:17889   */\n      tag_208\n      jump\t// in\n    tag_390:\n        /* \"#utility.yul\":17794:17889   */\n      swap5\n      pop\n        /* \"#utility.yul\":17920:17921   */\n      0x01\n        /* \"#utility.yul\":17909:17918   */\n      dup3\n        /* \"#utility.yul\":17905:17922   */\n      and\n        /* \"#utility.yul\":17936:17937   */\n      0x00\n        /* \"#utility.yul\":17931:18097   */\n      dup2\n      eq\n      tag_392\n      jumpi\n        /* \"#utility.yul\":18111:18112   */\n      0x01\n        /* \"#utility.yul\":18106:18446   */\n      dup2\n      eq\n      tag_393\n      jumpi\n        /* \"#utility.yul\":17898:18446   */\n      jump(tag_391)\n        /* \"#utility.yul\":17931:18097   */\n    tag_392:\n        /* \"#utility.yul\":18015:18019   */\n      0xff\n        /* \"#utility.yul\":18011:18020   */\n      not\n        /* \"#utility.yul\":18000:18009   */\n      dup4\n        /* \"#utility.yul\":17996:18021   */\n      and\n        /* \"#utility.yul\":17991:17994   */\n      dup7\n        /* \"#utility.yul\":17984:18022   */\n      mstore\n        /* \"#utility.yul\":18077:18083   */\n      dup2\n        /* \"#utility.yul\":18070:18084   */\n      iszero\n        /* \"#utility.yul\":18063:18085   */\n      iszero\n        /* \"#utility.yul\":18055:18061   */\n      dup3\n        /* \"#utility.yul\":18051:18086   */\n      mul\n        /* \"#utility.yul\":18046:18049   */\n      dup7\n        /* \"#utility.yul\":18042:18087   */\n      add\n        /* \"#utility.yul\":18035:18087   */\n      swap4\n      pop\n        /* \"#utility.yul\":17931:18097   */\n      jump(tag_391)\n        /* \"#utility.yul\":18106:18446   */\n    tag_393:\n        /* \"#utility.yul\":18173:18210   */\n      tag_394\n        /* \"#utility.yul\":18204:18209   */\n      dup6\n        /* \"#utility.yul\":18173:18210   */\n      tag_184\n      jump\t// in\n    tag_394:\n        /* \"#utility.yul\":18232:18233   */\n      0x00\n        /* \"#utility.yul\":18246:18400   */\n    tag_395:\n        /* \"#utility.yul\":18260:18266   */\n      dup4\n        /* \"#utility.yul\":18257:18258   */\n      dup2\n        /* \"#utility.yul\":18254:18267   */\n      lt\n        /* \"#utility.yul\":18246:18400   */\n      iszero\n      tag_397\n      jumpi\n        /* \"#utility.yul\":18334:18341   */\n      dup2\n        /* \"#utility.yul\":18328:18342   */\n      sload\n        /* \"#utility.yul\":18324:18325   */\n      dup2\n        /* \"#utility.yul\":18319:18322   */\n      dup10\n        /* \"#utility.yul\":18315:18326   */\n      add\n        /* \"#utility.yul\":18308:18343   */\n      mstore\n        /* \"#utility.yul\":18384:18385   */\n      0x01\n        /* \"#utility.yul\":18375:18382   */\n      dup3\n        /* \"#utility.yul\":18371:18386   */\n      add\n        /* \"#utility.yul\":18360:18386   */\n      swap2\n      pop\n        /* \"#utility.yul\":18282:18286   */\n      0x20\n        /* \"#utility.yul\":18279:18280   */\n      dup2\n        /* \"#utility.yul\":18275:18287   */\n      add\n        /* \"#utility.yul\":18270:18287   */\n      swap1\n      pop\n        /* \"#utility.yul\":18246:18400   */\n      jump(tag_395)\n    tag_397:\n        /* \"#utility.yul\":18429:18435   */\n      dup4\n        /* \"#utility.yul\":18424:18427   */\n      dup9\n        /* \"#utility.yul\":18420:18436   */\n      add\n        /* \"#utility.yul\":18413:18436   */\n      swap6\n      pop\n        /* \"#utility.yul\":18113:18446   */\n      pop\n      pop\n        /* \"#utility.yul\":17898:18446   */\n    tag_391:\n      pop\n        /* \"#utility.yul\":17687:18452   */\n      pop\n      pop\n        /* \"#utility.yul\":17582:18452   */\n      swap3\n      swap2\n      pop\n      pop\n      jump\t// out\n        /* \"#utility.yul\":18458:18723   */\n    tag_114:\n        /* \"#utility.yul\":18585:18588   */\n      0x00\n        /* \"#utility.yul\":18607:18697   */\n      tag_399\n        /* \"#utility.yul\":18693:18696   */\n      dup3\n        /* \"#utility.yul\":18684:18690   */\n      dup5\n        /* \"#utility.yul\":18607:18697   */\n      tag_209\n      jump\t// in\n    tag_399:\n        /* \"#utility.yul\":18600:18697   */\n      swap2\n      pop\n        /* \"#utility.yul\":18714:18717   */\n      dup2\n        /* \"#utility.yul\":18707:18717   */\n      swap1\n      pop\n        /* \"#utility.yul\":18458:18723   */\n      swap3\n      swap2\n      pop\n      pop\n      jump\t// out\n        /* \"#utility.yul\":18729:18888   */\n    tag_210:\n        /* \"#utility.yul\":18869:18880   */\n      0x6578206661696c65640000000000000000000000000000000000000000000000\n        /* \"#utility.yul\":18865:18866   */\n      0x00\n        /* \"#utility.yul\":18857:18863   */\n      dup3\n        /* \"#utility.yul\":18853:18867   */\n      add\n        /* \"#utility.yul\":18846:18881   */\n      mstore\n        /* \"#utility.yul\":18729:18888   */\n      pop\n      jump\t// out\n        /* \"#utility.yul\":18894:19259   */\n    tag_211:\n        /* \"#utility.yul\":19036:19039   */\n      0x00\n        /* \"#utility.yul\":19057:19123   */\n      tag_402\n        /* \"#utility.yul\":19121:19122   */\n      0x09\n        /* \"#utility.yul\":19116:19119   */\n      dup4\n        /* \"#utility.yul\":19057:19123   */\n      tag_179\n      jump\t// in\n    tag_402:\n        /* \"#utility.yul\":19050:19123   */\n      swap2\n      pop\n        /* \"#utility.yul\":19132:19225   */\n      tag_403\n        /* \"#utility.yul\":19221:19224   */\n      dup3\n        /* \"#utility.yul\":19132:19225   */\n      tag_210\n      jump\t// in\n    tag_403:\n        /* \"#utility.yul\":19250:19252   */\n      0x20\n        /* \"#utility.yul\":19245:19248   */\n      dup3\n        /* \"#utility.yul\":19241:19253   */\n      add\n        /* \"#utility.yul\":19234:19253   */\n      swap1\n      pop\n        /* \"#utility.yul\":18894:19259   */\n      swap2\n      swap1\n      pop\n      jump\t// out\n        /* \"#utility.yul\":19265:19684   */\n    tag_120:\n        /* \"#utility.yul\":19431:19435   */\n      0x00\n        /* \"#utility.yul\":19469:19471   */\n      0x20\n        /* \"#utility.yul\":19458:19467   */\n      dup3\n        /* \"#utility.yul\":19454:19472   */\n      add\n        /* \"#utility.yul\":19446:19472   */\n      swap1\n      pop\n        /* \"#utility.yul\":19518:19527   */\n      dup2\n        /* \"#utility.yul\":19512:19516   */\n      dup2\n        /* \"#utility.yul\":19508:19528   */\n      sub\n        /* \"#utility.yul\":19504:19505   */\n      0x00\n        /* \"#utility.yul\":19493:19502   */\n      dup4\n        /* \"#utility.yul\":19489:19506   */\n      add\n        /* \"#utility.yul\":19482:19529   */\n      mstore\n        /* \"#utility.yul\":19546:19677   */\n      tag_405\n        /* \"#utility.yul\":19672:19676   */\n      dup2\n        /* \"#utility.yul\":19546:19677   */\n      tag_211\n      jump\t// in\n    tag_405:\n        /* \"#utility.yul\":19538:19677   */\n      swap1\n      pop\n        /* \"#utility.yul\":19265:19684   */\n      swap2\n      swap1\n      pop\n      jump\t// out\n        /* \"#utility.yul\":19690:19859   */\n    tag_212:\n        /* \"#utility.yul\":19830:19851   */\n      0x747820616c726561647920617070726f76656400000000000000000000000000\n        /* \"#utility.yul\":19826:19827   */\n      0x00\n        /* \"#utility.yul\":19818:19824   */\n      dup3\n        /* \"#utility.yul\":19814:19828   */\n      add\n        /* \"#utility.yul\":19807:19852   */\n      mstore\n        /* \"#utility.yul\":19690:19859   */\n      pop\n      jump\t// out\n        /* \"#utility.yul\":19865:20231   */\n    tag_213:\n        /* \"#utility.yul\":20007:20010   */\n      0x00\n        /* \"#utility.yul\":20028:20095   */\n      tag_408\n        /* \"#utility.yul\":20092:20094   */\n      0x13\n        /* \"#utility.yul\":20087:20090   */\n      dup4\n        /* \"#utility.yul\":20028:20095   */\n      tag_179\n      jump\t// in\n    tag_408:\n        /* \"#utility.yul\":20021:20095   */\n      swap2\n      pop\n        /* \"#utility.yul\":20104:20197   */\n      tag_409\n        /* \"#utility.yul\":20193:20196   */\n      dup3\n        /* \"#utility.yul\":20104:20197   */\n      tag_212\n      jump\t// in\n    tag_409:\n        /* \"#utility.yul\":20222:20224   */\n      0x20\n        /* \"#utility.yul\":20217:20220   */\n      dup3\n        /* \"#utility.yul\":20213:20225   */\n      add\n        /* \"#utility.yul\":20206:20225   */\n      swap1\n      pop\n        /* \"#utility.yul\":19865:20231   */\n      swap2\n      swap1\n      pop\n      jump\t// out\n        /* \"#utility.yul\":20237:20656   */\n    tag_138:\n        /* \"#utility.yul\":20403:20407   */\n      0x00\n        /* \"#utility.yul\":20441:20443   */\n      0x20\n        /* \"#utility.yul\":20430:20439   */\n      dup3\n        /* \"#utility.yul\":20426:20444   */\n      add\n        /* \"#utility.yul\":20418:20444   */\n      swap1\n      pop\n        /* \"#utility.yul\":20490:20499   */\n      dup2\n        /* \"#utility.yul\":20484:20488   */\n      dup2\n        /* \"#utility.yul\":20480:20500   */\n      sub\n        /* \"#utility.yul\":20476:20477   */\n      0x00\n        /* \"#utility.yul\":20465:20474   */\n      dup4\n        /* \"#utility.yul\":20461:20478   */\n      add\n        /* \"#utility.yul\":20454:20501   */\n      mstore\n        /* \"#utility.yul\":20518:20649   */\n      tag_411\n        /* \"#utility.yul\":20644:20648   */\n      dup2\n        /* \"#utility.yul\":20518:20649   */\n      tag_213\n      jump\t// in\n    tag_411:\n        /* \"#utility.yul\":20510:20649   */\n      swap1\n      pop\n        /* \"#utility.yul\":20237:20656   */\n      swap2\n      swap1\n      pop\n      jump\t// out\n        /* \"#utility.yul\":20662:20853   */\n    tag_155:\n        /* \"#utility.yul\":20702:20705   */\n      0x00\n        /* \"#utility.yul\":20721:20741   */\n      tag_413\n        /* \"#utility.yul\":20739:20740   */\n      dup3\n        /* \"#utility.yul\":20721:20741   */\n      tag_156\n      jump\t// in\n    tag_413:\n        /* \"#utility.yul\":20716:20741   */\n      swap2\n      pop\n        /* \"#utility.yul\":20755:20775   */\n      tag_414\n        /* \"#utility.yul\":20773:20774   */\n      dup4\n        /* \"#utility.yul\":20755:20775   */\n      tag_156\n      jump\t// in\n    tag_414:\n        /* \"#utility.yul\":20750:20775   */\n      swap3\n      pop\n        /* \"#utility.yul\":20798:20799   */\n      dup3\n        /* \"#utility.yul\":20795:20796   */\n      dup3\n        /* \"#utility.yul\":20791:20800   */\n      add\n        /* \"#utility.yul\":20784:20800   */\n      swap1\n      pop\n        /* \"#utility.yul\":20819:20822   */\n      dup1\n        /* \"#utility.yul\":20816:20817   */\n      dup3\n        /* \"#utility.yul\":20813:20823   */\n      gt\n        /* \"#utility.yul\":20810:20846   */\n      iszero\n      tag_415\n      jumpi\n        /* \"#utility.yul\":20826:20844   */\n      tag_416\n      tag_199\n      jump\t// in\n    tag_416:\n        /* \"#utility.yul\":20810:20846   */\n    tag_415:\n        /* \"#utility.yul\":20662:20853   */\n      swap3\n      swap2\n      pop\n      pop\n      jump\t// out\n\n    auxdata: 0xa264697066735822122075ef62524c4c7580c3912ed4a4777ff0fea9dd2c59a0a8976899fad9eb84fd1164736f6c634300081e0033\n}\n",
				"bytecode": {
					"linkReferences": {},
					"object": "608060405234801561000f575f5ffd5b50604051611fe9380380611fe9833981810160405281019061003191906104a2565b5f825111610074576040517f08c379a000000000000000000000000000000000000000000000000000000000815260040161006b90610556565b60405180910390fd5b5f81118015610084575081518111155b6100c3576040517f08c379a00000000000000000000000000000000000000000000000000000000081526004016100ba906105e4565b60405180910390fd5b5f5b82518110156102a5575f8382815181106100e2576100e1610602565b5b602002602001015190505f73ffffffffffffffffffffffffffffffffffffffff168173ffffffffffffffffffffffffffffffffffffffff160361015a576040517f08c379a000000000000000000000000000000000000000000000000000000000815260040161015190610679565b60405180910390fd5b60015f8273ffffffffffffffffffffffffffffffffffffffff1673ffffffffffffffffffffffffffffffffffffffff1681526020019081526020015f205f9054906101000a900460ff16156101e4576040517f08c379a00000000000000000000000000000000000000000000000000000000081526004016101db906106e1565b60405180910390fd5b6001805f8373ffffffffffffffffffffffffffffffffffffffff1673ffffffffffffffffffffffffffffffffffffffff1681526020019081526020015f205f6101000a81548160ff0219169083151502179055505f81908060018154018082558091505060019003905f5260205f20015f9091909190916101000a81548173ffffffffffffffffffffffffffffffffffffffff021916908373ffffffffffffffffffffffffffffffffffffffff1602179055505080806001019150506100c5565b508060028190555050506106ff565b5f604051905090565b5f5ffd5b5f5ffd5b5f5ffd5b5f601f19601f8301169050919050565b7f4e487b71000000000000000000000000000000000000000000000000000000005f52604160045260245ffd5b61030f826102c9565b810181811067ffffffffffffffff8211171561032e5761032d6102d9565b5b80604052505050565b5f6103406102b4565b905061034c8282610306565b919050565b5f67ffffffffffffffff82111561036b5761036a6102d9565b5b602082029050602081019050919050565b5f5ffd5b5f73ffffffffffffffffffffffffffffffffffffffff82169050919050565b5f6103a982610380565b9050919050565b6103b98161039f565b81146103c3575f5ffd5b50565b5f815190506103d4816103b0565b92915050565b5f6103ec6103e784610351565b610337565b9050808382526020820190506020840283018581111561040f5761040e61037c565b5b835b81811015610438578061042488826103c6565b845260208401935050602081019050610411565b5050509392505050565b5f82601f830112610456576104556102c5565b5b81516104668482602086016103da565b91505092915050565b5f819050919050565b6104818161046f565b811461048b575f5ffd5b50565b5f8151905061049c81610478565b92915050565b5f5f604083850312156104b8576104b76102bd565b5b5f83015167ffffffffffffffff8111156104d5576104d46102c1565b5b6104e185828601610442565b92505060206104f28582860161048e565b9150509250929050565b5f82825260208201905092915050565b7f6f776e65727320726571756972656400000000000000000000000000000000005f82015250565b5f610540600f836104fc565b915061054b8261050c565b602082019050919050565b5f6020820190508181035f83015261056d81610534565b9050919050565b7f696e76616c6964207265717569726564206e756d626572206f66206f776e65725f8201527f7300000000000000000000000000000000000000000000000000000000000000602082015250565b5f6105ce6021836104fc565b91506105d982610574565b604082019050919050565b5f6020820190508181035f8301526105fb816105c2565b9050919050565b7f4e487b71000000000000000000000000000000000000000000000000000000005f52603260045260245ffd5b7f696e76616c6964206f776e6572000000000000000000000000000000000000005f82015250565b5f610663600d836104fc565b915061066e8261062f565b602082019050919050565b5f6020820190508181035f83015261069081610657565b9050919050565b7f6f776e6572206973206e6f7420756e69717565000000000000000000000000005f82015250565b5f6106cb6013836104fc565b91506106d682610697565b602082019050919050565b5f6020820190508181035f8301526106f8816106bf565b9050919050565b6118dd8061070c5f395ff3fe608060405260043610610089575f3560e01c80635dccebba116100585780635dccebba146101aa5780638253951a146101d25780639ace38c21461020e578063b759f9541461024d578063dc8452cd14610275576100de565b8063025e7c27146100e257806314de327f1461011e57806320c5429b146101465780632f54bf6e1461016e576100de565b366100de573373ffffffffffffffffffffffffffffffffffffffff167fe1fffcc4923d04b559f4d29a8bfc6cda04eb5b0d3c460751c2402c5c5cc9109c346040516100d49190610e46565b60405180910390a2005b5f5ffd5b3480156100ed575f5ffd5b5061010860048036038101906101039190610e91565b61029f565b6040516101159190610efb565b60405180910390f35b348015610129575f5ffd5b50610144600480360381019061013f9190610f9f565b6102d9565b005b348015610151575f5ffd5b5061016c60048036038101906101679190610e91565b6104cf565b005b348015610179575f5ffd5b50610194600480360381019061018f9190611010565b610755565b6040516101a19190611055565b60405180910390f35b3480156101b5575f5ffd5b506101d060048036038101906101cb9190610e91565b610772565b005b3480156101dd575f5ffd5b506101f860048036038101906101f3919061106e565b6109be565b6040516102059190611055565b60405180910390f35b348015610219575f5ffd5b50610234600480360381019061022f9190610e91565b6109e8565b604051610244949392919061111c565b60405180910390f35b348015610258575f5ffd5b50610273600480360381019061026e9190610e91565b610ad4565b005b348015610280575f5ffd5b50610289610d5e565b6040516102969190610e46565b60405180910390f35b5f81815481106102ad575f80fd5b905f5260205f20015f915054906101000a900473ffffffffffffffffffffffffffffffffffffffff1681565b60015f3373ffffffffffffffffffffffffffffffffffffffff1673ffffffffffffffffffffffffffffffffffffffff1681526020019081526020015f205f9054906101000a900460ff16610362576040517f08c379a0000000000000000000000000000000000000000000000000000000008152600401610359906111c0565b60405180910390fd5b600360405180608001604052808673ffffffffffffffffffffffffffffffffffffffff16815260200185815260200184848080601f0160208091040260200160405190810160405280939291908181526020018383808284375f81840152601f19601f8201169050808301925050505050505081526020015f1515815250908060018154018082558091505060019003905f5260205f2090600402015f909190919091505f820151815f015f6101000a81548173ffffffffffffffffffffffffffffffffffffffff021916908373ffffffffffffffffffffffffffffffffffffffff1602179055506020820151816001015560408201518160020190816104699190611408565b506060820151816003015f6101000a81548160ff0219169083151502179055505050600160038054905061049d9190611504565b7f08324b3d745b914e3abd4ffbfead91e3b78391a98c173202129215ab933adfbe60405160405180910390a250505050565b60015f3373ffffffffffffffffffffffffffffffffffffffff1673ffffffffffffffffffffffffffffffffffffffff1681526020019081526020015f205f9054906101000a900460ff16610558576040517f08c379a000000000000000000000000000000000000000000000000000000000815260040161054f906111c0565b60405180910390fd5b8060038054905081106105a0576040517f08c379a000000000000000000000000000000000000000000000000000000000815260040161059790611581565b60405180910390fd5b81600381815481106105b5576105b461159f565b5b905f5260205f2090600402016003015f9054906101000a900460ff1615610611576040517f08c379a000000000000000000000000000000000000000000000000000000000815260040161060890611616565b60405180910390fd5b60045f8481526020019081526020015f205f3373ffffffffffffffffffffffffffffffffffffffff1673ffffffffffffffffffffffffffffffffffffffff1681526020019081526020015f205f9054906101000a900460ff166106a9576040517f08c379a00000000000000000000000000000000000000000000000000000000081526004016106a09061167e565b60405180910390fd5b5f60045f8581526020019081526020015f205f3373ffffffffffffffffffffffffffffffffffffffff1673ffffffffffffffffffffffffffffffffffffffff1681526020019081526020015f205f6101000a81548160ff021916908315150217905550823373ffffffffffffffffffffffffffffffffffffffff167fec9ab91322523c899ede7830ec9bfc992b5981cdcc27b91162fb23de5791117b60405160405180910390a3505050565b6001602052805f5260405f205f915054906101000a900460ff1681565b8060038054905081106107ba576040517f08c379a00000000000000000000000000000000000000000000000000000000081526004016107b190611581565b60405180910390fd5b81600381815481106107cf576107ce61159f565b5b905f5260205f2090600402016003015f9054906101000a900460ff161561082b576040517f08c379a000000000000000000000000000000000000000000000000000000000815260040161082290611616565b60405180910390fd5b60025461083784610d64565b1015610878576040517f08c379a000000000000000000000000000000000000000000000000000000000815260040161086f906116e6565b60405180910390fd5b5f6003848154811061088d5761088c61159f565b5b905f5260205f20906004020190506001816003015f6101000a81548160ff0219169083151502179055505f815f015f9054906101000a900473ffffffffffffffffffffffffffffffffffffffff1673ffffffffffffffffffffffffffffffffffffffff16826001015483600201604051610907919061178e565b5f6040518083038185875af1925050503d805f8114610941576040519150601f19603f3d011682016040523d82523d5f602084013e610946565b606091505b505090508061098a576040517f08c379a0000000000000000000000000000000000000000000000000000000008152600401610981906117ee565b60405180910390fd5b847fddb556f1d2c1ec821e910b019d3685b229db152a0ecd517ca7e24b8bd713928960405160405180910390a25050505050565b6004602052815f5260405f20602052805f5260405f205f915091509054906101000a900460ff1681565b600381815481106109f7575f80fd5b905f5260205f2090600402015f91509050805f015f9054906101000a900473ffffffffffffffffffffffffffffffffffffffff1690806001015490806002018054610a4190611238565b80601f0160208091040260200160405190810160405280929190818152602001828054610a6d90611238565b8015610ab85780601f10610a8f57610100808354040283529160200191610ab8565b820191905f5260205f20905b815481529060010190602001808311610a9b57829003601f168201915b505050505090806003015f9054906101000a900460ff16905084565b60015f3373ffffffffffffffffffffffffffffffffffffffff1673ffffffffffffffffffffffffffffffffffffffff1681526020019081526020015f205f9054906101000a900460ff16610b5d576040517f08c379a0000000000000000000000000000000000000000000000000000000008152600401610b54906111c0565b60405180910390fd5b806003805490508110610ba5576040517f08c379a0000000000000000000000000000000000000000000000000000000008152600401610b9c90611581565b60405180910390fd5b8160045f8281526020019081526020015f205f3373ffffffffffffffffffffffffffffffffffffffff1673ffffffffffffffffffffffffffffffffffffffff1681526020019081526020015f205f9054906101000a900460ff1615610c3f576040517f08c379a0000000000000000000000000000000000000000000000000000000008152600401610c3690611856565b60405180910390fd5b8260038181548110610c5457610c5361159f565b5b905f5260205f2090600402016003015f9054906101000a900460ff1615610cb0576040517f08c379a0000000000000000000000000000000000000000000000000000000008152600401610ca790611616565b60405180910390fd5b600160045f8681526020019081526020015f205f3373ffffffffffffffffffffffffffffffffffffffff1673ffffffffffffffffffffffffffffffffffffffff1681526020019081526020015f205f6101000a81548160ff021916908315150217905550833373ffffffffffffffffffffffffffffffffffffffff167f90ec57f18fa7b15c6b8d5e4d1deb90796c74b2ff23d4d0cecad0cb42a96b312860405160405180910390a350505050565b60025481565b5f5f5b5f80549050811015610e285760045f8481526020019081526020015f205f5f8381548110610d9857610d9761159f565b5b905f5260205f20015f9054906101000a900473ffffffffffffffffffffffffffffffffffffffff1673ffffffffffffffffffffffffffffffffffffffff1673ffffffffffffffffffffffffffffffffffffffff1681526020019081526020015f205f9054906101000a900460ff1615610e1b57600182610e189190611874565b91505b8080600101915050610d67565b50919050565b5f819050919050565b610e4081610e2e565b82525050565b5f602082019050610e595f830184610e37565b92915050565b5f5ffd5b5f5ffd5b610e7081610e2e565b8114610e7a575f5ffd5b50565b5f81359050610e8b81610e67565b92915050565b5f60208284031215610ea657610ea5610e5f565b5b5f610eb384828501610e7d565b91505092915050565b5f73ffffffffffffffffffffffffffffffffffffffff82169050919050565b5f610ee582610ebc565b9050919050565b610ef581610edb565b82525050565b5f602082019050610f0e5f830184610eec565b92915050565b610f1d81610edb565b8114610f27575f5ffd5b50565b5f81359050610f3881610f14565b92915050565b5f5ffd5b5f5ffd5b5f5ffd5b5f5f83601f840112610f5f57610f5e610f3e565b5b8235905067ffffffffffffffff811115610f7c57610f7b610f42565b5b602083019150836001820283011115610f9857610f97610f46565b5b9250929050565b5f5f5f5f60608587031215610fb757610fb6610e5f565b5b5f610fc487828801610f2a565b9450506020610fd587828801610e7d565b935050604085013567ffffffffffffffff811115610ff657610ff5610e63565b5b61100287828801610f4a565b925092505092959194509250565b5f6020828403121561102557611024610e5f565b5b5f61103284828501610f2a565b91505092915050565b5f8115159050919050565b61104f8161103b565b82525050565b5f6020820190506110685f830184611046565b92915050565b5f5f6040838503121561108457611083610e5f565b5b5f61109185828601610e7d565b92505060206110a285828601610f2a565b9150509250929050565b5f81519050919050565b5f82825260208201905092915050565b8281835e5f83830152505050565b5f601f19601f8301169050919050565b5f6110ee826110ac565b6110f881856110b6565b93506111088185602086016110c6565b611111816110d4565b840191505092915050565b5f60808201905061112f5f830187610eec565b61113c6020830186610e37565b818103604083015261114e81856110e4565b905061115d6060830184611046565b95945050505050565b5f82825260208201905092915050565b7f6e6f74206f776e657200000000000000000000000000000000000000000000005f82015250565b5f6111aa600983611166565b91506111b582611176565b602082019050919050565b5f6020820190508181035f8301526111d78161119e565b9050919050565b7f4e487b71000000000000000000000000000000000000000000000000000000005f52604160045260245ffd5b7f4e487b71000000000000000000000000000000000000000000000000000000005f52602260045260245ffd5b5f600282049050600182168061124f57607f821691505b6020821081036112625761126161120b565b5b50919050565b5f819050815f5260205f209050919050565b5f6020601f8301049050919050565b5f82821b905092915050565b5f600883026112c47fffffffffffffffffffffffffffffffffffffffffffffffffffffffffffffffff82611289565b6112ce8683611289565b95508019841693508086168417925050509392505050565b5f819050919050565b5f6113096113046112ff84610e2e565b6112e6565b610e2e565b9050919050565b5f819050919050565b611322836112ef565b61133661132e82611310565b848454611295565b825550505050565b5f5f905090565b61134d61133e565b611358818484611319565b505050565b5b8181101561137b576113705f82611345565b60018101905061135e565b5050565b601f8211156113c05761139181611268565b61139a8461127a565b810160208510156113a9578190505b6113bd6113b58561127a565b83018261135d565b50505b505050565b5f82821c905092915050565b5f6113e05f19846008026113c5565b1980831691505092915050565b5f6113f883836113d1565b9150826002028217905092915050565b611411826110ac565b67ffffffffffffffff81111561142a576114296111de565b5b6114348254611238565b61143f82828561137f565b5f60209050601f831160018114611470575f841561145e578287015190505b61146885826113ed565b8655506114cf565b601f19841661147e86611268565b5f5b828110156114a557848901518255600182019150602085019450602081019050611480565b868310156114c257848901516114be601f8916826113d1565b8355505b6001600288020188555050505b505050505050565b7f4e487b71000000000000000000000000000000000000000000000000000000005f52601160045260245ffd5b5f61150e82610e2e565b915061151983610e2e565b9250828203905081811115611531576115306114d7565b5b92915050565b7f747820646f6573206e6f742065786973740000000000000000000000000000005f82015250565b5f61156b601183611166565b915061157682611537565b602082019050919050565b5f6020820190508181035f8301526115988161155f565b9050919050565b7f4e487b71000000000000000000000000000000000000000000000000000000005f52603260045260245ffd5b7f747820616c7265616479206578656375746564000000000000000000000000005f82015250565b5f611600601383611166565b915061160b826115cc565b602082019050919050565b5f6020820190508181035f83015261162d816115f4565b9050919050565b7f7478206e6f7420617070726f76656400000000000000000000000000000000005f82015250565b5f611668600f83611166565b915061167382611634565b602082019050919050565b5f6020820190508181035f8301526116958161165c565b9050919050565b7f617070726f76616c73203c2072657175697265640000000000000000000000005f82015250565b5f6116d0601483611166565b91506116db8261169c565b602082019050919050565b5f6020820190508181035f8301526116fd816116c4565b9050919050565b5f81905092915050565b5f815461171a81611238565b6117248186611704565b9450600182165f811461173e576001811461175357611785565b60ff1983168652811515820286019350611785565b61175c85611268565b5f5b8381101561177d5781548189015260018201915060208101905061175e565b838801955050505b50505092915050565b5f611799828461170e565b915081905092915050565b7f6578206661696c656400000000000000000000000000000000000000000000005f82015250565b5f6117d8600983611166565b91506117e3826117a4565b602082019050919050565b5f6020820190508181035f830152611805816117cc565b9050919050565b7f747820616c726561647920617070726f766564000000000000000000000000005f82015250565b5f611840601383611166565b915061184b8261180c565b602082019050919050565b5f6020820190508181035f83015261186d81611834565b9050919050565b5f61187e82610e2e565b915061188983610e2e565b92508282019050808211156118a1576118a06114d7565b5b9291505056fea264697066735822122075ef62524c4c7580c3912ed4a4777ff0fea9dd2c59a0a8976899fad9eb84fd1164736f6c634300081e0033",
					"opcodes": "PUSH1 0x80 PUSH1 0x40 MSTORE CALLVALUE DUP1 ISZERO PUSH2 0xF JUMPI PUSH0 PUSH0 REVERT JUMPDEST POP PUSH1 0x40 MLOAD PUSH2 0x1FE9 CODESIZE SUB DUP1 PUSH2 0x1FE9 DUP4 CODECOPY DUP2 DUP2 ADD PUSH1 0x40 MSTORE DUP2 ADD SWAP1 PUSH2 0x31 SWAP2 SWAP1 PUSH2 0x4A2 JUMP JUMPDEST PUSH0 DUP3 MLOAD GT PUSH2 0x74 JUMPI PUSH1 0x40 MLOAD PUSH32 0x8C379A000000000000000000000000000000000000000000000000000000000 DUP2 MSTORE PUSH1 0x4 ADD PUSH2 0x6B SWAP1 PUSH2 0x556 JUMP JUMPDEST PUSH1 0x40 MLOAD DUP1 SWAP2 SUB SWAP1 REVERT JUMPDEST PUSH0 DUP2 GT DUP1 ISZERO PUSH2 0x84 JUMPI POP DUP2 MLOAD DUP2 GT ISZERO JUMPDEST PUSH2 0xC3 JUMPI PUSH1 0x40 MLOAD PUSH32 0x8C379A000000000000000000000000000000000000000000000000000000000 DUP2 MSTORE PUSH1 0x4 ADD PUSH2 0xBA SWAP1 PUSH2 0x5E4 JUMP JUMPDEST PUSH1 0x40 MLOAD DUP1 SWAP2 SUB SWAP1 REVERT JUMPDEST PUSH0 JUMPDEST DUP3 MLOAD DUP2 LT ISZERO PUSH2 0x2A5 JUMPI PUSH0 DUP4 DUP3 DUP2 MLOAD DUP2 LT PUSH2 0xE2 JUMPI PUSH2 0xE1 PUSH2 0x602 JUMP JUMPDEST JUMPDEST PUSH1 0x20 MUL PUSH1 0x20 ADD ADD MLOAD SWAP1 POP PUSH0 PUSH20 0xFFFFFFFFFFFFFFFFFFFFFFFFFFFFFFFFFFFFFFFF AND DUP2 PUSH20 0xFFFFFFFFFFFFFFFFFFFFFFFFFFFFFFFFFFFFFFFF AND SUB PUSH2 0x15A JUMPI PUSH1 0x40 MLOAD PUSH32 0x8C379A000000000000000000000000000000000000000000000000000000000 DUP2 MSTORE PUSH1 0x4 ADD PUSH2 0x151 SWAP1 PUSH2 0x679 JUMP JUMPDEST PUSH1 0x40 MLOAD DUP1 SWAP2 SUB SWAP1 REVERT JUMPDEST PUSH1 0x1 PUSH0 DUP3 PUSH20 0xFFFFFFFFFFFFFFFFFFFFFFFFFFFFFFFFFFFFFFFF AND PUSH20 0xFFFFFFFFFFFFFFFFFFFFFFFFFFFFFFFFFFFFFFFF AND DUP2 MSTORE PUSH1 0x20 ADD SWAP1 DUP2 MSTORE PUSH1 0x20 ADD PUSH0 KECCAK256 PUSH0 SWAP1 SLOAD SWAP1 PUSH2 0x100 EXP SWAP1 DIV PUSH1 0xFF AND ISZERO PUSH2 0x1E4 JUMPI PUSH1 0x40 MLOAD PUSH32 0x8C379A000000000000000000000000000000000000000000000000000000000 DUP2 MSTORE PUSH1 0x4 ADD PUSH2 0x1DB SWAP1 PUSH2 0x6E1 JUMP JUMPDEST PUSH1 0x40 MLOAD DUP1 SWAP2 SUB SWAP1 REVERT JUMPDEST PUSH1 0x1 DUP1 PUSH0 DUP4 PUSH20 0xFFFFFFFFFFFFFFFFFFFFFFFFFFFFFFFFFFFFFFFF AND PUSH20 0xFFFFFFFFFFFFFFFFFFFFFFFFFFFFFFFFFFFFFFFF AND DUP2 MSTORE PUSH1 0x20 ADD SWAP1 DUP2 MSTORE PUSH1 0x20 ADD PUSH0 KECCAK256 PUSH0 PUSH2 0x100 EXP DUP2 SLOAD DUP2 PUSH1 0xFF MUL NOT AND SWAP1 DUP4 ISZERO ISZERO MUL OR SWAP1 SSTORE POP PUSH0 DUP2 SWAP1 DUP1 PUSH1 0x1 DUP2 SLOAD ADD DUP1 DUP3 SSTORE DUP1 SWAP2 POP POP PUSH1 0x1 SWAP1 SUB SWAP1 PUSH0 MSTORE PUSH1 0x20 PUSH0 KECCAK256 ADD PUSH0 SWAP1 SWAP2 SWAP1 SWAP2 SWAP1 SWAP2 PUSH2 0x100 EXP DUP2 SLOAD DUP2 PUSH20 0xFFFFFFFFFFFFFFFFFFFFFFFFFFFFFFFFFFFFFFFF MUL NOT AND SWAP1 DUP4 PUSH20 0xFFFFFFFFFFFFFFFFFFFFFFFFFFFFFFFFFFFFFFFF AND MUL OR SWAP1 SSTORE POP POP DUP1 DUP1 PUSH1 0x1 ADD SWAP2 POP POP PUSH2 0xC5 JUMP JUMPDEST POP DUP1 PUSH1 0x2 DUP2 SWAP1 SSTORE POP POP POP PUSH2 0x6FF JUMP JUMPDEST PUSH0 PUSH1 0x40 MLOAD SWAP1 POP SWAP1 JUMP JUMPDEST PUSH0 PUSH0 REVERT JUMPDEST PUSH0 PUSH0 REVERT JUMPDEST PUSH0 PUSH0 REVERT JUMPDEST PUSH0 PUSH1 0x1F NOT PUSH1 0x1F DUP4 ADD AND SWAP1 POP SWAP2 SWAP1 POP JUMP JUMPDEST PUSH32 0x4E487B7100000000000000000000000000000000000000000000000000000000 PUSH0 MSTORE PUSH1 0x41 PUSH1 0x4 MSTORE PUSH1 0x24 PUSH0 REVERT JUMPDEST PUSH2 0x30F DUP3 PUSH2 0x2C9 JUMP JUMPDEST DUP2 ADD DUP2 DUP2 LT PUSH8 0xFFFFFFFFFFFFFFFF DUP3 GT OR ISZERO PUSH2 0x32E JUMPI PUSH2 0x32D PUSH2 0x2D9 JUMP JUMPDEST JUMPDEST DUP1 PUSH1 0x40 MSTORE POP POP POP JUMP JUMPDEST PUSH0 PUSH2 0x340 PUSH2 0x2B4 JUMP JUMPDEST SWAP1 POP PUSH2 0x34C DUP3 DUP3 PUSH2 0x306 JUMP JUMPDEST SWAP2 SWAP1 POP JUMP JUMPDEST PUSH0 PUSH8 0xFFFFFFFFFFFFFFFF DUP3 GT ISZERO PUSH2 0x36B JUMPI PUSH2 0x36A PUSH2 0x2D9 JUMP JUMPDEST JUMPDEST PUSH1 0x20 DUP3 MUL SWAP1 POP PUSH1 0x20 DUP2 ADD SWAP1 POP SWAP2 SWAP1 POP JUMP JUMPDEST PUSH0 PUSH0 REVERT JUMPDEST PUSH0 PUSH20 0xFFFFFFFFFFFFFFFFFFFFFFFFFFFFFFFFFFFFFFFF DUP3 AND SWAP1 POP SWAP2 SWAP1 POP JUMP JUMPDEST PUSH0 PUSH2 0x3A9 DUP3 PUSH2 0x380 JUMP JUMPDEST SWAP1 POP SWAP2 SWAP1 POP JUMP JUMPDEST PUSH2 0x3B9 DUP2 PUSH2 0x39F JUMP JUMPDEST DUP2 EQ PUSH2 0x3C3 JUMPI PUSH0 PUSH0 REVERT JUMPDEST POP JUMP JUMPDEST PUSH0 DUP2 MLOAD SWAP1 POP PUSH2 0x3D4 DUP2 PUSH2 0x3B0 JUMP JUMPDEST SWAP3 SWAP2 POP POP JUMP JUMPDEST PUSH0 PUSH2 0x3EC PUSH2 0x3E7 DUP5 PUSH2 0x351 JUMP JUMPDEST PUSH2 0x337 JUMP JUMPDEST SWAP1 POP DUP1 DUP4 DUP3 MSTORE PUSH1 0x20 DUP3 ADD SWAP1 POP PUSH1 0x20 DUP5 MUL DUP4 ADD DUP6 DUP2 GT ISZERO PUSH2 0x40F JUMPI PUSH2 0x40E PUSH2 0x37C JUMP JUMPDEST JUMPDEST DUP4 JUMPDEST DUP2 DUP2 LT ISZERO PUSH2 0x438 JUMPI DUP1 PUSH2 0x424 DUP9 DUP3 PUSH2 0x3C6 JUMP JUMPDEST DUP5 MSTORE PUSH1 0x20 DUP5 ADD SWAP4 POP POP PUSH1 0x20 DUP2 ADD SWAP1 POP PUSH2 0x411 JUMP JUMPDEST POP POP POP SWAP4 SWAP3 POP POP POP JUMP JUMPDEST PUSH0 DUP3 PUSH1 0x1F DUP4 ADD SLT PUSH2 0x456 JUMPI PUSH2 0x455 PUSH2 0x2C5 JUMP JUMPDEST JUMPDEST DUP2 MLOAD PUSH2 0x466 DUP5 DUP3 PUSH1 0x20 DUP7 ADD PUSH2 0x3DA JUMP JUMPDEST SWAP2 POP POP SWAP3 SWAP2 POP POP JUMP JUMPDEST PUSH0 DUP2 SWAP1 POP SWAP2 SWAP1 POP JUMP JUMPDEST PUSH2 0x481 DUP2 PUSH2 0x46F JUMP JUMPDEST DUP2 EQ PUSH2 0x48B JUMPI PUSH0 PUSH0 REVERT JUMPDEST POP JUMP JUMPDEST PUSH0 DUP2 MLOAD SWAP1 POP PUSH2 0x49C DUP2 PUSH2 0x478 JUMP JUMPDEST SWAP3 SWAP2 POP POP JUMP JUMPDEST PUSH0 PUSH0 PUSH1 0x40 DUP4 DUP6 SUB SLT ISZERO PUSH2 0x4B8 JUMPI PUSH2 0x4B7 PUSH2 0x2BD JUMP JUMPDEST JUMPDEST PUSH0 DUP4 ADD MLOAD PUSH8 0xFFFFFFFFFFFFFFFF DUP2 GT ISZERO PUSH2 0x4D5 JUMPI PUSH2 0x4D4 PUSH2 0x2C1 JUMP JUMPDEST JUMPDEST PUSH2 0x4E1 DUP6 DUP3 DUP7 ADD PUSH2 0x442 JUMP JUMPDEST SWAP3 POP POP PUSH1 0x20 PUSH2 0x4F2 DUP6 DUP3 DUP7 ADD PUSH2 0x48E JUMP JUMPDEST SWAP2 POP POP SWAP3 POP SWAP3 SWAP1 POP JUMP JUMPDEST PUSH0 DUP3 DUP3 MSTORE PUSH1 0x20 DUP3 ADD SWAP1 POP SWAP3 SWAP2 POP POP JUMP JUMPDEST PUSH32 0x6F776E6572732072657175697265640000000000000000000000000000000000 PUSH0 DUP3 ADD MSTORE POP JUMP JUMPDEST PUSH0 PUSH2 0x540 PUSH1 0xF DUP4 PUSH2 0x4FC JUMP JUMPDEST SWAP2 POP PUSH2 0x54B DUP3 PUSH2 0x50C JUMP JUMPDEST PUSH1 0x20 DUP3 ADD SWAP1 POP SWAP2 SWAP1 POP JUMP JUMPDEST PUSH0 PUSH1 0x20 DUP3 ADD SWAP1 POP DUP2 DUP2 SUB PUSH0 DUP4 ADD MSTORE PUSH2 0x56D DUP2 PUSH2 0x534 JUMP JUMPDEST SWAP1 POP SWAP2 SWAP1 POP JUMP JUMPDEST PUSH32 0x696E76616C6964207265717569726564206E756D626572206F66206F776E6572 PUSH0 DUP3 ADD MSTORE PUSH32 0x7300000000000000000000000000000000000000000000000000000000000000 PUSH1 0x20 DUP3 ADD MSTORE POP JUMP JUMPDEST PUSH0 PUSH2 0x5CE PUSH1 0x21 DUP4 PUSH2 0x4FC JUMP JUMPDEST SWAP2 POP PUSH2 0x5D9 DUP3 PUSH2 0x574 JUMP JUMPDEST PUSH1 0x40 DUP3 ADD SWAP1 POP SWAP2 SWAP1 POP JUMP JUMPDEST PUSH0 PUSH1 0x20 DUP3 ADD SWAP1 POP DUP2 DUP2 SUB PUSH0 DUP4 ADD MSTORE PUSH2 0x5FB DUP2 PUSH2 0x5C2 JUMP JUMPDEST SWAP1 POP SWAP2 SWAP1 POP JUMP JUMPDEST PUSH32 0x4E487B7100000000000000000000000000000000000000000000000000000000 PUSH0 MSTORE PUSH1 0x32 PUSH1 0x4 MSTORE PUSH1 0x24 PUSH0 REVERT JUMPDEST PUSH32 0x696E76616C6964206F776E657200000000000000000000000000000000000000 PUSH0 DUP3 ADD MSTORE POP JUMP JUMPDEST PUSH0 PUSH2 0x663 PUSH1 0xD DUP4 PUSH2 0x4FC JUMP JUMPDEST SWAP2 POP PUSH2 0x66E DUP3 PUSH2 0x62F JUMP JUMPDEST PUSH1 0x20 DUP3 ADD SWAP1 POP SWAP2 SWAP1 POP JUMP JUMPDEST PUSH0 PUSH1 0x20 DUP3 ADD SWAP1 POP DUP2 DUP2 SUB PUSH0 DUP4 ADD MSTORE PUSH2 0x690 DUP2 PUSH2 0x657 JUMP JUMPDEST SWAP1 POP SWAP2 SWAP1 POP JUMP JUMPDEST PUSH32 0x6F776E6572206973206E6F7420756E6971756500000000000000000000000000 PUSH0 DUP3 ADD MSTORE POP JUMP JUMPDEST PUSH0 PUSH2 0x6CB PUSH1 0x13 DUP4 PUSH2 0x4FC JUMP JUMPDEST SWAP2 POP PUSH2 0x6D6 DUP3 PUSH2 0x697 JUMP JUMPDEST PUSH1 0x20 DUP3 ADD SWAP1 POP SWAP2 SWAP1 POP JUMP JUMPDEST PUSH0 PUSH1 0x20 DUP3 ADD SWAP1 POP DUP2 DUP2 SUB PUSH0 DUP4 ADD MSTORE PUSH2 0x6F8 DUP2 PUSH2 0x6BF JUMP JUMPDEST SWAP1 POP SWAP2 SWAP1 POP JUMP JUMPDEST PUSH2 0x18DD DUP1 PUSH2 0x70C PUSH0 CODECOPY PUSH0 RETURN INVALID PUSH1 0x80 PUSH1 0x40 MSTORE PUSH1 0x4 CALLDATASIZE LT PUSH2 0x89 JUMPI PUSH0 CALLDATALOAD PUSH1 0xE0 SHR DUP1 PUSH4 0x5DCCEBBA GT PUSH2 0x58 JUMPI DUP1 PUSH4 0x5DCCEBBA EQ PUSH2 0x1AA JUMPI DUP1 PUSH4 0x8253951A EQ PUSH2 0x1D2 JUMPI DUP1 PUSH4 0x9ACE38C2 EQ PUSH2 0x20E JUMPI DUP1 PUSH4 0xB759F954 EQ PUSH2 0x24D JUMPI DUP1 PUSH4 0xDC8452CD EQ PUSH2 0x275 JUMPI PUSH2 0xDE JUMP JUMPDEST DUP1 PUSH4 0x25E7C27 EQ PUSH2 0xE2 JUMPI DUP1 PUSH4 0x14DE327F EQ PUSH2 0x11E JUMPI DUP1 PUSH4 0x20C5429B EQ PUSH2 0x146 JUMPI DUP1 PUSH4 0x2F54BF6E EQ PUSH2 0x16E JUMPI PUSH2 0xDE JUMP JUMPDEST CALLDATASIZE PUSH2 0xDE JUMPI CALLER PUSH20 0xFFFFFFFFFFFFFFFFFFFFFFFFFFFFFFFFFFFFFFFF AND PUSH32 0xE1FFFCC4923D04B559F4D29A8BFC6CDA04EB5B0D3C460751C2402C5C5CC9109C CALLVALUE PUSH1 0x40 MLOAD PUSH2 0xD4 SWAP2 SWAP1 PUSH2 0xE46 JUMP JUMPDEST PUSH1 0x40 MLOAD DUP1 SWAP2 SUB SWAP1 LOG2 STOP JUMPDEST PUSH0 PUSH0 REVERT JUMPDEST CALLVALUE DUP1 ISZERO PUSH2 0xED JUMPI PUSH0 PUSH0 REVERT JUMPDEST POP PUSH2 0x108 PUSH1 0x4 DUP1 CALLDATASIZE SUB DUP2 ADD SWAP1 PUSH2 0x103 SWAP2 SWAP1 PUSH2 0xE91 JUMP JUMPDEST PUSH2 0x29F JUMP JUMPDEST PUSH1 0x40 MLOAD PUSH2 0x115 SWAP2 SWAP1 PUSH2 0xEFB JUMP JUMPDEST PUSH1 0x40 MLOAD DUP1 SWAP2 SUB SWAP1 RETURN JUMPDEST CALLVALUE DUP1 ISZERO PUSH2 0x129 JUMPI PUSH0 PUSH0 REVERT JUMPDEST POP PUSH2 0x144 PUSH1 0x4 DUP1 CALLDATASIZE SUB DUP2 ADD SWAP1 PUSH2 0x13F SWAP2 SWAP1 PUSH2 0xF9F JUMP JUMPDEST PUSH2 0x2D9 JUMP JUMPDEST STOP JUMPDEST CALLVALUE DUP1 ISZERO PUSH2 0x151 JUMPI PUSH0 PUSH0 REVERT JUMPDEST POP PUSH2 0x16C PUSH1 0x4 DUP1 CALLDATASIZE SUB DUP2 ADD SWAP1 PUSH2 0x167 SWAP2 SWAP1 PUSH2 0xE91 JUMP JUMPDEST PUSH2 0x4CF JUMP JUMPDEST STOP JUMPDEST CALLVALUE DUP1 ISZERO PUSH2 0x179 JUMPI PUSH0 PUSH0 REVERT JUMPDEST POP PUSH2 0x194 PUSH1 0x4 DUP1 CALLDATASIZE SUB DUP2 ADD SWAP1 PUSH2 0x18F SWAP2 SWAP1 PUSH2 0x1010 JUMP JUMPDEST PUSH2 0x755 JUMP JUMPDEST PUSH1 0x40 MLOAD PUSH2 0x1A1 SWAP2 SWAP1 PUSH2 0x1055 JUMP JUMPDEST PUSH1 0x40 MLOAD DUP1 SWAP2 SUB SWAP1 RETURN JUMPDEST CALLVALUE DUP1 ISZERO PUSH2 0x1B5 JUMPI PUSH0 PUSH0 REVERT JUMPDEST POP PUSH2 0x1D0 PUSH1 0x4 DUP1 CALLDATASIZE SUB DUP2 ADD SWAP1 PUSH2 0x1CB SWAP2 SWAP1 PUSH2 0xE91 JUMP JUMPDEST PUSH2 0x772 JUMP JUMPDEST STOP JUMPDEST CALLVALUE DUP1 ISZERO PUSH2 0x1DD JUMPI PUSH0 PUSH0 REVERT JUMPDEST POP PUSH2 0x1F8 PUSH1 0x4 DUP1 CALLDATASIZE SUB DUP2 ADD SWAP1 PUSH2 0x1F3 SWAP2 SWAP1 PUSH2 0x106E JUMP JUMPDEST PUSH2 0x9BE JUMP JUMPDEST PUSH1 0x40 MLOAD PUSH2 0x205 SWAP2 SWAP1 PUSH2 0x1055 JUMP JUMPDEST PUSH1 0x40 MLOAD DUP1 SWAP2 SUB SWAP1 RETURN JUMPDEST CALLVALUE DUP1 ISZERO PUSH2 0x219 JUMPI PUSH0 PUSH0 REVERT JUMPDEST POP PUSH2 0x234 PUSH1 0x4 DUP1 CALLDATASIZE SUB DUP2 ADD SWAP1 PUSH2 0x22F SWAP2 SWAP1 PUSH2 0xE91 JUMP JUMPDEST PUSH2 0x9E8 JUMP JUMPDEST PUSH1 0x40 MLOAD PUSH2 0x244 SWAP5 SWAP4 SWAP3 SWAP2 SWAP1 PUSH2 0x111C JUMP JUMPDEST PUSH1 0x40 MLOAD DUP1 SWAP2 SUB SWAP1 RETURN JUMPDEST CALLVALUE DUP1 ISZERO PUSH2 0x258 JUMPI PUSH0 PUSH0 REVERT JUMPDEST POP PUSH2 0x273 PUSH1 0x4 DUP1 CALLDATASIZE SUB DUP2 ADD SWAP1 PUSH2 0x26E SWAP2 SWAP1 PUSH2 0xE91 JUMP JUMPDEST PUSH2 0xAD4 JUMP JUMPDEST STOP JUMPDEST CALLVALUE DUP1 ISZERO PUSH2 0x280 JUMPI PUSH0 PUSH0 REVERT JUMPDEST POP PUSH2 0x289 PUSH2 0xD5E JUMP JUMPDEST PUSH1 0x40 MLOAD PUSH2 0x296 SWAP2 SWAP1 PUSH2 0xE46 JUMP JUMPDEST PUSH1 0x40 MLOAD DUP1 SWAP2 SUB SWAP1 RETURN JUMPDEST PUSH0 DUP2 DUP2 SLOAD DUP2 LT PUSH2 0x2AD JUMPI PUSH0 DUP1 REVERT JUMPDEST SWAP1 PUSH0 MSTORE PUSH1 0x20 PUSH0 KECCAK256 ADD PUSH0 SWAP2 POP SLOAD SWAP1 PUSH2 0x100 EXP SWAP1 DIV PUSH20 0xFFFFFFFFFFFFFFFFFFFFFFFFFFFFFFFFFFFFFFFF AND DUP2 JUMP JUMPDEST PUSH1 0x1 PUSH0 CALLER PUSH20 0xFFFFFFFFFFFFFFFFFFFFFFFFFFFFFFFFFFFFFFFF AND PUSH20 0xFFFFFFFFFFFFFFFFFFFFFFFFFFFFFFFFFFFFFFFF AND DUP2 MSTORE PUSH1 0x20 ADD SWAP1 DUP2 MSTORE PUSH1 0x20 ADD PUSH0 KECCAK256 PUSH0 SWAP1 SLOAD SWAP1 PUSH2 0x100 EXP SWAP1 DIV PUSH1 0xFF AND PUSH2 0x362 JUMPI PUSH1 0x40 MLOAD PUSH32 0x8C379A000000000000000000000000000000000000000000000000000000000 DUP2 MSTORE PUSH1 0x4 ADD PUSH2 0x359 SWAP1 PUSH2 0x11C0 JUMP JUMPDEST PUSH1 0x40 MLOAD DUP1 SWAP2 SUB SWAP1 REVERT JUMPDEST PUSH1 0x3 PUSH1 0x40 MLOAD DUP1 PUSH1 0x80 ADD PUSH1 0x40 MSTORE DUP1 DUP7 PUSH20 0xFFFFFFFFFFFFFFFFFFFFFFFFFFFFFFFFFFFFFFFF AND DUP2 MSTORE PUSH1 0x20 ADD DUP6 DUP2 MSTORE PUSH1 0x20 ADD DUP5 DUP5 DUP1 DUP1 PUSH1 0x1F ADD PUSH1 0x20 DUP1 SWAP2 DIV MUL PUSH1 0x20 ADD PUSH1 0x40 MLOAD SWAP1 DUP2 ADD PUSH1 0x40 MSTORE DUP1 SWAP4 SWAP3 SWAP2 SWAP1 DUP2 DUP2 MSTORE PUSH1 0x20 ADD DUP4 DUP4 DUP1 DUP3 DUP5 CALLDATACOPY PUSH0 DUP2 DUP5 ADD MSTORE PUSH1 0x1F NOT PUSH1 0x1F DUP3 ADD AND SWAP1 POP DUP1 DUP4 ADD SWAP3 POP POP POP POP POP POP POP DUP2 MSTORE PUSH1 0x20 ADD PUSH0 ISZERO ISZERO DUP2 MSTORE POP SWAP1 DUP1 PUSH1 0x1 DUP2 SLOAD ADD DUP1 DUP3 SSTORE DUP1 SWAP2 POP POP PUSH1 0x1 SWAP1 SUB SWAP1 PUSH0 MSTORE PUSH1 0x20 PUSH0 KECCAK256 SWAP1 PUSH1 0x4 MUL ADD PUSH0 SWAP1 SWAP2 SWAP1 SWAP2 SWAP1 SWAP2 POP PUSH0 DUP3 ADD MLOAD DUP2 PUSH0 ADD PUSH0 PUSH2 0x100 EXP DUP2 SLOAD DUP2 PUSH20 0xFFFFFFFFFFFFFFFFFFFFFFFFFFFFFFFFFFFFFFFF MUL NOT AND SWAP1 DUP4 PUSH20 0xFFFFFFFFFFFFFFFFFFFFFFFFFFFFFFFFFFFFFFFF AND MUL OR SWAP1 SSTORE POP PUSH1 0x20 DUP3 ADD MLOAD DUP2 PUSH1 0x1 ADD SSTORE PUSH1 0x40 DUP3 ADD MLOAD DUP2 PUSH1 0x2 ADD SWAP1 DUP2 PUSH2 0x469 SWAP2 SWAP1 PUSH2 0x1408 JUMP JUMPDEST POP PUSH1 0x60 DUP3 ADD MLOAD DUP2 PUSH1 0x3 ADD PUSH0 PUSH2 0x100 EXP DUP2 SLOAD DUP2 PUSH1 0xFF MUL NOT AND SWAP1 DUP4 ISZERO ISZERO MUL OR SWAP1 SSTORE POP POP POP PUSH1 0x1 PUSH1 0x3 DUP1 SLOAD SWAP1 POP PUSH2 0x49D SWAP2 SWAP1 PUSH2 0x1504 JUMP JUMPDEST PUSH32 0x8324B3D745B914E3ABD4FFBFEAD91E3B78391A98C173202129215AB933ADFBE PUSH1 0x40 MLOAD PUSH1 0x40 MLOAD DUP1 SWAP2 SUB SWAP1 LOG2 POP POP POP POP JUMP JUMPDEST PUSH1 0x1 PUSH0 CALLER PUSH20 0xFFFFFFFFFFFFFFFFFFFFFFFFFFFFFFFFFFFFFFFF AND PUSH20 0xFFFFFFFFFFFFFFFFFFFFFFFFFFFFFFFFFFFFFFFF AND DUP2 MSTORE PUSH1 0x20 ADD SWAP1 DUP2 MSTORE PUSH1 0x20 ADD PUSH0 KECCAK256 PUSH0 SWAP1 SLOAD SWAP1 PUSH2 0x100 EXP SWAP1 DIV PUSH1 0xFF AND PUSH2 0x558 JUMPI PUSH1 0x40 MLOAD PUSH32 0x8C379A000000000000000000000000000000000000000000000000000000000 DUP2 MSTORE PUSH1 0x4 ADD PUSH2 0x54F SWAP1 PUSH2 0x11C0 JUMP JUMPDEST PUSH1 0x40 MLOAD DUP1 SWAP2 SUB SWAP1 REVERT JUMPDEST DUP1 PUSH1 0x3 DUP1 SLOAD SWAP1 POP DUP2 LT PUSH2 0x5A0 JUMPI PUSH1 0x40 MLOAD PUSH32 0x8C379A000000000000000000000000000000000000000000000000000000000 DUP2 MSTORE PUSH1 0x4 ADD PUSH2 0x597 SWAP1 PUSH2 0x1581 JUMP JUMPDEST PUSH1 0x40 MLOAD DUP1 SWAP2 SUB SWAP1 REVERT JUMPDEST DUP2 PUSH1 0x3 DUP2 DUP2 SLOAD DUP2 LT PUSH2 0x5B5 JUMPI PUSH2 0x5B4 PUSH2 0x159F JUMP JUMPDEST JUMPDEST SWAP1 PUSH0 MSTORE PUSH1 0x20 PUSH0 KECCAK256 SWAP1 PUSH1 0x4 MUL ADD PUSH1 0x3 ADD PUSH0 SWAP1 SLOAD SWAP1 PUSH2 0x100 EXP SWAP1 DIV PUSH1 0xFF AND ISZERO PUSH2 0x611 JUMPI PUSH1 0x40 MLOAD PUSH32 0x8C379A000000000000000000000000000000000000000000000000000000000 DUP2 MSTORE PUSH1 0x4 ADD PUSH2 0x608 SWAP1 PUSH2 0x1616 JUMP JUMPDEST PUSH1 0x40 MLOAD DUP1 SWAP2 SUB SWAP1 REVERT JUMPDEST PUSH1 0x4 PUSH0 DUP5 DUP2 MSTORE PUSH1 0x20 ADD SWAP1 DUP2 MSTORE PUSH1 0x20 ADD PUSH0 KECCAK256 PUSH0 CALLER PUSH20 0xFFFFFFFFFFFFFFFFFFFFFFFFFFFFFFFFFFFFFFFF AND PUSH20 0xFFFFFFFFFFFFFFFFFFFFFFFFFFFFFFFFFFFFFFFF AND DUP2 MSTORE PUSH1 0x20 ADD SWAP1 DUP2 MSTORE PUSH1 0x20 ADD PUSH0 KECCAK256 PUSH0 SWAP1 SLOAD SWAP1 PUSH2 0x100 EXP SWAP1 DIV PUSH1 0xFF AND PUSH2 0x6A9 JUMPI PUSH1 0x40 MLOAD PUSH32 0x8C379A000000000000000000000000000000000000000000000000000000000 DUP2 MSTORE PUSH1 0x4 ADD PUSH2 0x6A0 SWAP1 PUSH2 0x167E JUMP JUMPDEST PUSH1 0x40 MLOAD DUP1 SWAP2 SUB SWAP1 REVERT JUMPDEST PUSH0 PUSH1 0x4 PUSH0 DUP6 DUP2 MSTORE PUSH1 0x20 ADD SWAP1 DUP2 MSTORE PUSH1 0x20 ADD PUSH0 KECCAK256 PUSH0 CALLER PUSH20 0xFFFFFFFFFFFFFFFFFFFFFFFFFFFFFFFFFFFFFFFF AND PUSH20 0xFFFFFFFFFFFFFFFFFFFFFFFFFFFFFFFFFFFFFFFF AND DUP2 MSTORE PUSH1 0x20 ADD SWAP1 DUP2 MSTORE PUSH1 0x20 ADD PUSH0 KECCAK256 PUSH0 PUSH2 0x100 EXP DUP2 SLOAD DUP2 PUSH1 0xFF MUL NOT AND SWAP1 DUP4 ISZERO ISZERO MUL OR SWAP1 SSTORE POP DUP3 CALLER PUSH20 0xFFFFFFFFFFFFFFFFFFFFFFFFFFFFFFFFFFFFFFFF AND PUSH32 0xEC9AB91322523C899EDE7830EC9BFC992B5981CDCC27B91162FB23DE5791117B PUSH1 0x40 MLOAD PUSH1 0x40 MLOAD DUP1 SWAP2 SUB SWAP1 LOG3 POP POP POP JUMP JUMPDEST PUSH1 0x1 PUSH1 0x20 MSTORE DUP1 PUSH0 MSTORE PUSH1 0x40 PUSH0 KECCAK256 PUSH0 SWAP2 POP SLOAD SWAP1 PUSH2 0x100 EXP SWAP1 DIV PUSH1 0xFF AND DUP2 JUMP JUMPDEST DUP1 PUSH1 0x3 DUP1 SLOAD SWAP1 POP DUP2 LT PUSH2 0x7BA JUMPI PUSH1 0x40 MLOAD PUSH32 0x8C379A000000000000000000000000000000000000000000000000000000000 DUP2 MSTORE PUSH1 0x4 ADD PUSH2 0x7B1 SWAP1 PUSH2 0x1581 JUMP JUMPDEST PUSH1 0x40 MLOAD DUP1 SWAP2 SUB SWAP1 REVERT JUMPDEST DUP2 PUSH1 0x3 DUP2 DUP2 SLOAD DUP2 LT PUSH2 0x7CF JUMPI PUSH2 0x7CE PUSH2 0x159F JUMP JUMPDEST JUMPDEST SWAP1 PUSH0 MSTORE PUSH1 0x20 PUSH0 KECCAK256 SWAP1 PUSH1 0x4 MUL ADD PUSH1 0x3 ADD PUSH0 SWAP1 SLOAD SWAP1 PUSH2 0x100 EXP SWAP1 DIV PUSH1 0xFF AND ISZERO PUSH2 0x82B JUMPI PUSH1 0x40 MLOAD PUSH32 0x8C379A000000000000000000000000000000000000000000000000000000000 DUP2 MSTORE PUSH1 0x4 ADD PUSH2 0x822 SWAP1 PUSH2 0x1616 JUMP JUMPDEST PUSH1 0x40 MLOAD DUP1 SWAP2 SUB SWAP1 REVERT JUMPDEST PUSH1 0x2 SLOAD PUSH2 0x837 DUP5 PUSH2 0xD64 JUMP JUMPDEST LT ISZERO PUSH2 0x878 JUMPI PUSH1 0x40 MLOAD PUSH32 0x8C379A000000000000000000000000000000000000000000000000000000000 DUP2 MSTORE PUSH1 0x4 ADD PUSH2 0x86F SWAP1 PUSH2 0x16E6 JUMP JUMPDEST PUSH1 0x40 MLOAD DUP1 SWAP2 SUB SWAP1 REVERT JUMPDEST PUSH0 PUSH1 0x3 DUP5 DUP2 SLOAD DUP2 LT PUSH2 0x88D JUMPI PUSH2 0x88C PUSH2 0x159F JUMP JUMPDEST JUMPDEST SWAP1 PUSH0 MSTORE PUSH1 0x20 PUSH0 KECCAK256 SWAP1 PUSH1 0x4 MUL ADD SWAP1 POP PUSH1 0x1 DUP2 PUSH1 0x3 ADD PUSH0 PUSH2 0x100 EXP DUP2 SLOAD DUP2 PUSH1 0xFF MUL NOT AND SWAP1 DUP4 ISZERO ISZERO MUL OR SWAP1 SSTORE POP PUSH0 DUP2 PUSH0 ADD PUSH0 SWAP1 SLOAD SWAP1 PUSH2 0x100 EXP SWAP1 DIV PUSH20 0xFFFFFFFFFFFFFFFFFFFFFFFFFFFFFFFFFFFFFFFF AND PUSH20 0xFFFFFFFFFFFFFFFFFFFFFFFFFFFFFFFFFFFFFFFF AND DUP3 PUSH1 0x1 ADD SLOAD DUP4 PUSH1 0x2 ADD PUSH1 0x40 MLOAD PUSH2 0x907 SWAP2 SWAP1 PUSH2 0x178E JUMP JUMPDEST PUSH0 PUSH1 0x40 MLOAD DUP1 DUP4 SUB DUP2 DUP6 DUP8 GAS CALL SWAP3 POP POP POP RETURNDATASIZE DUP1 PUSH0 DUP2 EQ PUSH2 0x941 JUMPI PUSH1 0x40 MLOAD SWAP2 POP PUSH1 0x1F NOT PUSH1 0x3F RETURNDATASIZE ADD AND DUP3 ADD PUSH1 0x40 MSTORE RETURNDATASIZE DUP3 MSTORE RETURNDATASIZE PUSH0 PUSH1 0x20 DUP5 ADD RETURNDATACOPY PUSH2 0x946 JUMP JUMPDEST PUSH1 0x60 SWAP2 POP JUMPDEST POP POP SWAP1 POP DUP1 PUSH2 0x98A JUMPI PUSH1 0x40 MLOAD PUSH32 0x8C379A000000000000000000000000000000000000000000000000000000000 DUP2 MSTORE PUSH1 0x4 ADD PUSH2 0x981 SWAP1 PUSH2 0x17EE JUMP JUMPDEST PUSH1 0x40 MLOAD DUP1 SWAP2 SUB SWAP1 REVERT JUMPDEST DUP5 PUSH32 0xDDB556F1D2C1EC821E910B019D3685B229DB152A0ECD517CA7E24B8BD7139289 PUSH1 0x40 MLOAD PUSH1 0x40 MLOAD DUP1 SWAP2 SUB SWAP1 LOG2 POP POP POP POP POP JUMP JUMPDEST PUSH1 0x4 PUSH1 0x20 MSTORE DUP2 PUSH0 MSTORE PUSH1 0x40 PUSH0 KECCAK256 PUSH1 0x20 MSTORE DUP1 PUSH0 MSTORE PUSH1 0x40 PUSH0 KECCAK256 PUSH0 SWAP2 POP SWAP2 POP SWAP1 SLOAD SWAP1 PUSH2 0x100 EXP SWAP1 DIV PUSH1 0xFF AND DUP2 JUMP JUMPDEST PUSH1 0x3 DUP2 DUP2 SLOAD DUP2 LT PUSH2 0x9F7 JUMPI PUSH0 DUP1 REVERT JUMPDEST SWAP1 PUSH0 MSTORE PUSH1 0x20 PUSH0 KECCAK256 SWAP1 PUSH1 0x4 MUL ADD PUSH0 SWAP2 POP SWAP1 POP DUP1 PUSH0 ADD PUSH0 SWAP1 SLOAD SWAP1 PUSH2 0x100 EXP SWAP1 DIV PUSH20 0xFFFFFFFFFFFFFFFFFFFFFFFFFFFFFFFFFFFFFFFF AND SWAP1 DUP1 PUSH1 0x1 ADD SLOAD SWAP1 DUP1 PUSH1 0x2 ADD DUP1 SLOAD PUSH2 0xA41 SWAP1 PUSH2 0x1238 JUMP JUMPDEST DUP1 PUSH1 0x1F ADD PUSH1 0x20 DUP1 SWAP2 DIV MUL PUSH1 0x20 ADD PUSH1 0x40 MLOAD SWAP1 DUP2 ADD PUSH1 0x40 MSTORE DUP1 SWAP3 SWAP2 SWAP1 DUP2 DUP2 MSTORE PUSH1 0x20 ADD DUP3 DUP1 SLOAD PUSH2 0xA6D SWAP1 PUSH2 0x1238 JUMP JUMPDEST DUP1 ISZERO PUSH2 0xAB8 JUMPI DUP1 PUSH1 0x1F LT PUSH2 0xA8F JUMPI PUSH2 0x100 DUP1 DUP4 SLOAD DIV MUL DUP4 MSTORE SWAP2 PUSH1 0x20 ADD SWAP2 PUSH2 0xAB8 JUMP JUMPDEST DUP3 ADD SWAP2 SWAP1 PUSH0 MSTORE PUSH1 0x20 PUSH0 KECCAK256 SWAP1 JUMPDEST DUP2 SLOAD DUP2 MSTORE SWAP1 PUSH1 0x1 ADD SWAP1 PUSH1 0x20 ADD DUP1 DUP4 GT PUSH2 0xA9B JUMPI DUP3 SWAP1 SUB PUSH1 0x1F AND DUP3 ADD SWAP2 JUMPDEST POP POP POP POP POP SWAP1 DUP1 PUSH1 0x3 ADD PUSH0 SWAP1 SLOAD SWAP1 PUSH2 0x100 EXP SWAP1 DIV PUSH1 0xFF AND SWAP1 POP DUP5 JUMP JUMPDEST PUSH1 0x1 PUSH0 CALLER PUSH20 0xFFFFFFFFFFFFFFFFFFFFFFFFFFFFFFFFFFFFFFFF AND PUSH20 0xFFFFFFFFFFFFFFFFFFFFFFFFFFFFFFFFFFFFFFFF AND DUP2 MSTORE PUSH1 0x20 ADD SWAP1 DUP2 MSTORE PUSH1 0x20 ADD PUSH0 KECCAK256 PUSH0 SWAP1 SLOAD SWAP1 PUSH2 0x100 EXP SWAP1 DIV PUSH1 0xFF AND PUSH2 0xB5D JUMPI PUSH1 0x40 MLOAD PUSH32 0x8C379A000000000000000000000000000000000000000000000000000000000 DUP2 MSTORE PUSH1 0x4 ADD PUSH2 0xB54 SWAP1 PUSH2 0x11C0 JUMP JUMPDEST PUSH1 0x40 MLOAD DUP1 SWAP2 SUB SWAP1 REVERT JUMPDEST DUP1 PUSH1 0x3 DUP1 SLOAD SWAP1 POP DUP2 LT PUSH2 0xBA5 JUMPI PUSH1 0x40 MLOAD PUSH32 0x8C379A000000000000000000000000000000000000000000000000000000000 DUP2 MSTORE PUSH1 0x4 ADD PUSH2 0xB9C SWAP1 PUSH2 0x1581 JUMP JUMPDEST PUSH1 0x40 MLOAD DUP1 SWAP2 SUB SWAP1 REVERT JUMPDEST DUP2 PUSH1 0x4 PUSH0 DUP3 DUP2 MSTORE PUSH1 0x20 ADD SWAP1 DUP2 MSTORE PUSH1 0x20 ADD PUSH0 KECCAK256 PUSH0 CALLER PUSH20 0xFFFFFFFFFFFFFFFFFFFFFFFFFFFFFFFFFFFFFFFF AND PUSH20 0xFFFFFFFFFFFFFFFFFFFFFFFFFFFFFFFFFFFFFFFF AND DUP2 MSTORE PUSH1 0x20 ADD SWAP1 DUP2 MSTORE PUSH1 0x20 ADD PUSH0 KECCAK256 PUSH0 SWAP1 SLOAD SWAP1 PUSH2 0x100 EXP SWAP1 DIV PUSH1 0xFF AND ISZERO PUSH2 0xC3F JUMPI PUSH1 0x40 MLOAD PUSH32 0x8C379A000000000000000000000000000000000000000000000000000000000 DUP2 MSTORE PUSH1 0x4 ADD PUSH2 0xC36 SWAP1 PUSH2 0x1856 JUMP JUMPDEST PUSH1 0x40 MLOAD DUP1 SWAP2 SUB SWAP1 REVERT JUMPDEST DUP3 PUSH1 0x3 DUP2 DUP2 SLOAD DUP2 LT PUSH2 0xC54 JUMPI PUSH2 0xC53 PUSH2 0x159F JUMP JUMPDEST JUMPDEST SWAP1 PUSH0 MSTORE PUSH1 0x20 PUSH0 KECCAK256 SWAP1 PUSH1 0x4 MUL ADD PUSH1 0x3 ADD PUSH0 SWAP1 SLOAD SWAP1 PUSH2 0x100 EXP SWAP1 DIV PUSH1 0xFF AND ISZERO PUSH2 0xCB0 JUMPI PUSH1 0x40 MLOAD PUSH32 0x8C379A000000000000000000000000000000000000000000000000000000000 DUP2 MSTORE PUSH1 0x4 ADD PUSH2 0xCA7 SWAP1 PUSH2 0x1616 JUMP JUMPDEST PUSH1 0x40 MLOAD DUP1 SWAP2 SUB SWAP1 REVERT JUMPDEST PUSH1 0x1 PUSH1 0x4 PUSH0 DUP7 DUP2 MSTORE PUSH1 0x20 ADD SWAP1 DUP2 MSTORE PUSH1 0x20 ADD PUSH0 KECCAK256 PUSH0 CALLER PUSH20 0xFFFFFFFFFFFFFFFFFFFFFFFFFFFFFFFFFFFFFFFF AND PUSH20 0xFFFFFFFFFFFFFFFFFFFFFFFFFFFFFFFFFFFFFFFF AND DUP2 MSTORE PUSH1 0x20 ADD SWAP1 DUP2 MSTORE PUSH1 0x20 ADD PUSH0 KECCAK256 PUSH0 PUSH2 0x100 EXP DUP2 SLOAD DUP2 PUSH1 0xFF MUL NOT AND SWAP1 DUP4 ISZERO ISZERO MUL OR SWAP1 SSTORE POP DUP4 CALLER PUSH20 0xFFFFFFFFFFFFFFFFFFFFFFFFFFFFFFFFFFFFFFFF AND PUSH32 0x90EC57F18FA7B15C6B8D5E4D1DEB90796C74B2FF23D4D0CECAD0CB42A96B3128 PUSH1 0x40 MLOAD PUSH1 0x40 MLOAD DUP1 SWAP2 SUB SWAP1 LOG3 POP POP POP POP JUMP JUMPDEST PUSH1 0x2 SLOAD DUP2 JUMP JUMPDEST PUSH0 PUSH0 JUMPDEST PUSH0 DUP1 SLOAD SWAP1 POP DUP2 LT ISZERO PUSH2 0xE28 JUMPI PUSH1 0x4 PUSH0 DUP5 DUP2 MSTORE PUSH1 0x20 ADD SWAP1 DUP2 MSTORE PUSH1 0x20 ADD PUSH0 KECCAK256 PUSH0 PUSH0 DUP4 DUP2 SLOAD DUP2 LT PUSH2 0xD98 JUMPI PUSH2 0xD97 PUSH2 0x159F JUMP JUMPDEST JUMPDEST SWAP1 PUSH0 MSTORE PUSH1 0x20 PUSH0 KECCAK256 ADD PUSH0 SWAP1 SLOAD SWAP1 PUSH2 0x100 EXP SWAP1 DIV PUSH20 0xFFFFFFFFFFFFFFFFFFFFFFFFFFFFFFFFFFFFFFFF AND PUSH20 0xFFFFFFFFFFFFFFFFFFFFFFFFFFFFFFFFFFFFFFFF AND PUSH20 0xFFFFFFFFFFFFFFFFFFFFFFFFFFFFFFFFFFFFFFFF AND DUP2 MSTORE PUSH1 0x20 ADD SWAP1 DUP2 MSTORE PUSH1 0x20 ADD PUSH0 KECCAK256 PUSH0 SWAP1 SLOAD SWAP1 PUSH2 0x100 EXP SWAP1 DIV PUSH1 0xFF AND ISZERO PUSH2 0xE1B JUMPI PUSH1 0x1 DUP3 PUSH2 0xE18 SWAP2 SWAP1 PUSH2 0x1874 JUMP JUMPDEST SWAP2 POP JUMPDEST DUP1 DUP1 PUSH1 0x1 ADD SWAP2 POP POP PUSH2 0xD67 JUMP JUMPDEST POP SWAP2 SWAP1 POP JUMP JUMPDEST PUSH0 DUP2 SWAP1 POP SWAP2 SWAP1 POP JUMP JUMPDEST PUSH2 0xE40 DUP2 PUSH2 0xE2E JUMP JUMPDEST DUP3 MSTORE POP POP JUMP JUMPDEST PUSH0 PUSH1 0x20 DUP3 ADD SWAP1 POP PUSH2 0xE59 PUSH0 DUP4 ADD DUP5 PUSH2 0xE37 JUMP JUMPDEST SWAP3 SWAP2 POP POP JUMP JUMPDEST PUSH0 PUSH0 REVERT JUMPDEST PUSH0 PUSH0 REVERT JUMPDEST PUSH2 0xE70 DUP2 PUSH2 0xE2E JUMP JUMPDEST DUP2 EQ PUSH2 0xE7A JUMPI PUSH0 PUSH0 REVERT JUMPDEST POP JUMP JUMPDEST PUSH0 DUP2 CALLDATALOAD SWAP1 POP PUSH2 0xE8B DUP2 PUSH2 0xE67 JUMP JUMPDEST SWAP3 SWAP2 POP POP JUMP JUMPDEST PUSH0 PUSH1 0x20 DUP3 DUP5 SUB SLT ISZERO PUSH2 0xEA6 JUMPI PUSH2 0xEA5 PUSH2 0xE5F JUMP JUMPDEST JUMPDEST PUSH0 PUSH2 0xEB3 DUP5 DUP3 DUP6 ADD PUSH2 0xE7D JUMP JUMPDEST SWAP2 POP POP SWAP3 SWAP2 POP POP JUMP JUMPDEST PUSH0 PUSH20 0xFFFFFFFFFFFFFFFFFFFFFFFFFFFFFFFFFFFFFFFF DUP3 AND SWAP1 POP SWAP2 SWAP1 POP JUMP JUMPDEST PUSH0 PUSH2 0xEE5 DUP3 PUSH2 0xEBC JUMP JUMPDEST SWAP1 POP SWAP2 SWAP1 POP JUMP JUMPDEST PUSH2 0xEF5 DUP2 PUSH2 0xEDB JUMP JUMPDEST DUP3 MSTORE POP POP JUMP JUMPDEST PUSH0 PUSH1 0x20 DUP3 ADD SWAP1 POP PUSH2 0xF0E PUSH0 DUP4 ADD DUP5 PUSH2 0xEEC JUMP JUMPDEST SWAP3 SWAP2 POP POP JUMP JUMPDEST PUSH2 0xF1D DUP2 PUSH2 0xEDB JUMP JUMPDEST DUP2 EQ PUSH2 0xF27 JUMPI PUSH0 PUSH0 REVERT JUMPDEST POP JUMP JUMPDEST PUSH0 DUP2 CALLDATALOAD SWAP1 POP PUSH2 0xF38 DUP2 PUSH2 0xF14 JUMP JUMPDEST SWAP3 SWAP2 POP POP JUMP JUMPDEST PUSH0 PUSH0 REVERT JUMPDEST PUSH0 PUSH0 REVERT JUMPDEST PUSH0 PUSH0 REVERT JUMPDEST PUSH0 PUSH0 DUP4 PUSH1 0x1F DUP5 ADD SLT PUSH2 0xF5F JUMPI PUSH2 0xF5E PUSH2 0xF3E JUMP JUMPDEST JUMPDEST DUP3 CALLDATALOAD SWAP1 POP PUSH8 0xFFFFFFFFFFFFFFFF DUP2 GT ISZERO PUSH2 0xF7C JUMPI PUSH2 0xF7B PUSH2 0xF42 JUMP JUMPDEST JUMPDEST PUSH1 0x20 DUP4 ADD SWAP2 POP DUP4 PUSH1 0x1 DUP3 MUL DUP4 ADD GT ISZERO PUSH2 0xF98 JUMPI PUSH2 0xF97 PUSH2 0xF46 JUMP JUMPDEST JUMPDEST SWAP3 POP SWAP3 SWAP1 POP JUMP JUMPDEST PUSH0 PUSH0 PUSH0 PUSH0 PUSH1 0x60 DUP6 DUP8 SUB SLT ISZERO PUSH2 0xFB7 JUMPI PUSH2 0xFB6 PUSH2 0xE5F JUMP JUMPDEST JUMPDEST PUSH0 PUSH2 0xFC4 DUP8 DUP3 DUP9 ADD PUSH2 0xF2A JUMP JUMPDEST SWAP5 POP POP PUSH1 0x20 PUSH2 0xFD5 DUP8 DUP3 DUP9 ADD PUSH2 0xE7D JUMP JUMPDEST SWAP4 POP POP PUSH1 0x40 DUP6 ADD CALLDATALOAD PUSH8 0xFFFFFFFFFFFFFFFF DUP2 GT ISZERO PUSH2 0xFF6 JUMPI PUSH2 0xFF5 PUSH2 0xE63 JUMP JUMPDEST JUMPDEST PUSH2 0x1002 DUP8 DUP3 DUP9 ADD PUSH2 0xF4A JUMP JUMPDEST SWAP3 POP SWAP3 POP POP SWAP3 SWAP6 SWAP2 SWAP5 POP SWAP3 POP JUMP JUMPDEST PUSH0 PUSH1 0x20 DUP3 DUP5 SUB SLT ISZERO PUSH2 0x1025 JUMPI PUSH2 0x1024 PUSH2 0xE5F JUMP JUMPDEST JUMPDEST PUSH0 PUSH2 0x1032 DUP5 DUP3 DUP6 ADD PUSH2 0xF2A JUMP JUMPDEST SWAP2 POP POP SWAP3 SWAP2 POP POP JUMP JUMPDEST PUSH0 DUP2 ISZERO ISZERO SWAP1 POP SWAP2 SWAP1 POP JUMP JUMPDEST PUSH2 0x104F DUP2 PUSH2 0x103B JUMP JUMPDEST DUP3 MSTORE POP POP JUMP JUMPDEST PUSH0 PUSH1 0x20 DUP3 ADD SWAP1 POP PUSH2 0x1068 PUSH0 DUP4 ADD DUP5 PUSH2 0x1046 JUMP JUMPDEST SWAP3 SWAP2 POP POP JUMP JUMPDEST PUSH0 PUSH0 PUSH1 0x40 DUP4 DUP6 SUB SLT ISZERO PUSH2 0x1084 JUMPI PUSH2 0x1083 PUSH2 0xE5F JUMP JUMPDEST JUMPDEST PUSH0 PUSH2 0x1091 DUP6 DUP3 DUP7 ADD PUSH2 0xE7D JUMP JUMPDEST SWAP3 POP POP PUSH1 0x20 PUSH2 0x10A2 DUP6 DUP3 DUP7 ADD PUSH2 0xF2A JUMP JUMPDEST SWAP2 POP POP SWAP3 POP SWAP3 SWAP1 POP JUMP JUMPDEST PUSH0 DUP2 MLOAD SWAP1 POP SWAP2 SWAP1 POP JUMP JUMPDEST PUSH0 DUP3 DUP3 MSTORE PUSH1 0x20 DUP3 ADD SWAP1 POP SWAP3 SWAP2 POP POP JUMP JUMPDEST DUP3 DUP2 DUP4 MCOPY PUSH0 DUP4 DUP4 ADD MSTORE POP POP POP JUMP JUMPDEST PUSH0 PUSH1 0x1F NOT PUSH1 0x1F DUP4 ADD AND SWAP1 POP SWAP2 SWAP1 POP JUMP JUMPDEST PUSH0 PUSH2 0x10EE DUP3 PUSH2 0x10AC JUMP JUMPDEST PUSH2 0x10F8 DUP2 DUP6 PUSH2 0x10B6 JUMP JUMPDEST SWAP4 POP PUSH2 0x1108 DUP2 DUP6 PUSH1 0x20 DUP7 ADD PUSH2 0x10C6 JUMP JUMPDEST PUSH2 0x1111 DUP2 PUSH2 0x10D4 JUMP JUMPDEST DUP5 ADD SWAP2 POP POP SWAP3 SWAP2 POP POP JUMP JUMPDEST PUSH0 PUSH1 0x80 DUP3 ADD SWAP1 POP PUSH2 0x112F PUSH0 DUP4 ADD DUP8 PUSH2 0xEEC JUMP JUMPDEST PUSH2 0x113C PUSH1 0x20 DUP4 ADD DUP7 PUSH2 0xE37 JUMP JUMPDEST DUP2 DUP2 SUB PUSH1 0x40 DUP4 ADD MSTORE PUSH2 0x114E DUP2 DUP6 PUSH2 0x10E4 JUMP JUMPDEST SWAP1 POP PUSH2 0x115D PUSH1 0x60 DUP4 ADD DUP5 PUSH2 0x1046 JUMP JUMPDEST SWAP6 SWAP5 POP POP POP POP POP JUMP JUMPDEST PUSH0 DUP3 DUP3 MSTORE PUSH1 0x20 DUP3 ADD SWAP1 POP SWAP3 SWAP2 POP POP JUMP JUMPDEST PUSH32 0x6E6F74206F776E65720000000000000000000000000000000000000000000000 PUSH0 DUP3 ADD MSTORE POP JUMP JUMPDEST PUSH0 PUSH2 0x11AA PUSH1 0x9 DUP4 PUSH2 0x1166 JUMP JUMPDEST SWAP2 POP PUSH2 0x11B5 DUP3 PUSH2 0x1176 JUMP JUMPDEST PUSH1 0x20 DUP3 ADD SWAP1 POP SWAP2 SWAP1 POP JUMP JUMPDEST PUSH0 PUSH1 0x20 DUP3 ADD SWAP1 POP DUP2 DUP2 SUB PUSH0 DUP4 ADD MSTORE PUSH2 0x11D7 DUP2 PUSH2 0x119E JUMP JUMPDEST SWAP1 POP SWAP2 SWAP1 POP JUMP JUMPDEST PUSH32 0x4E487B7100000000000000000000000000000000000000000000000000000000 PUSH0 MSTORE PUSH1 0x41 PUSH1 0x4 MSTORE PUSH1 0x24 PUSH0 REVERT JUMPDEST PUSH32 0x4E487B7100000000000000000000000000000000000000000000000000000000 PUSH0 MSTORE PUSH1 0x22 PUSH1 0x4 MSTORE PUSH1 0x24 PUSH0 REVERT JUMPDEST PUSH0 PUSH1 0x2 DUP3 DIV SWAP1 POP PUSH1 0x1 DUP3 AND DUP1 PUSH2 0x124F JUMPI PUSH1 0x7F DUP3 AND SWAP2 POP JUMPDEST PUSH1 0x20 DUP3 LT DUP2 SUB PUSH2 0x1262 JUMPI PUSH2 0x1261 PUSH2 0x120B JUMP JUMPDEST JUMPDEST POP SWAP2 SWAP1 POP JUMP JUMPDEST PUSH0 DUP2 SWAP1 POP DUP2 PUSH0 MSTORE PUSH1 0x20 PUSH0 KECCAK256 SWAP1 POP SWAP2 SWAP1 POP JUMP JUMPDEST PUSH0 PUSH1 0x20 PUSH1 0x1F DUP4 ADD DIV SWAP1 POP SWAP2 SWAP1 POP JUMP JUMPDEST PUSH0 DUP3 DUP3 SHL SWAP1 POP SWAP3 SWAP2 POP POP JUMP JUMPDEST PUSH0 PUSH1 0x8 DUP4 MUL PUSH2 0x12C4 PUSH32 0xFFFFFFFFFFFFFFFFFFFFFFFFFFFFFFFFFFFFFFFFFFFFFFFFFFFFFFFFFFFFFFFF DUP3 PUSH2 0x1289 JUMP JUMPDEST PUSH2 0x12CE DUP7 DUP4 PUSH2 0x1289 JUMP JUMPDEST SWAP6 POP DUP1 NOT DUP5 AND SWAP4 POP DUP1 DUP7 AND DUP5 OR SWAP3 POP POP POP SWAP4 SWAP3 POP POP POP JUMP JUMPDEST PUSH0 DUP2 SWAP1 POP SWAP2 SWAP1 POP JUMP JUMPDEST PUSH0 PUSH2 0x1309 PUSH2 0x1304 PUSH2 0x12FF DUP5 PUSH2 0xE2E JUMP JUMPDEST PUSH2 0x12E6 JUMP JUMPDEST PUSH2 0xE2E JUMP JUMPDEST SWAP1 POP SWAP2 SWAP1 POP JUMP JUMPDEST PUSH0 DUP2 SWAP1 POP SWAP2 SWAP1 POP JUMP JUMPDEST PUSH2 0x1322 DUP4 PUSH2 0x12EF JUMP JUMPDEST PUSH2 0x1336 PUSH2 0x132E DUP3 PUSH2 0x1310 JUMP JUMPDEST DUP5 DUP5 SLOAD PUSH2 0x1295 JUMP JUMPDEST DUP3 SSTORE POP POP POP POP JUMP JUMPDEST PUSH0 PUSH0 SWAP1 POP SWAP1 JUMP JUMPDEST PUSH2 0x134D PUSH2 0x133E JUMP JUMPDEST PUSH2 0x1358 DUP2 DUP5 DUP5 PUSH2 0x1319 JUMP JUMPDEST POP POP POP JUMP JUMPDEST JUMPDEST DUP2 DUP2 LT ISZERO PUSH2 0x137B JUMPI PUSH2 0x1370 PUSH0 DUP3 PUSH2 0x1345 JUMP JUMPDEST PUSH1 0x1 DUP2 ADD SWAP1 POP PUSH2 0x135E JUMP JUMPDEST POP POP JUMP JUMPDEST PUSH1 0x1F DUP3 GT ISZERO PUSH2 0x13C0 JUMPI PUSH2 0x1391 DUP2 PUSH2 0x1268 JUMP JUMPDEST PUSH2 0x139A DUP5 PUSH2 0x127A JUMP JUMPDEST DUP2 ADD PUSH1 0x20 DUP6 LT ISZERO PUSH2 0x13A9 JUMPI DUP2 SWAP1 POP JUMPDEST PUSH2 0x13BD PUSH2 0x13B5 DUP6 PUSH2 0x127A JUMP JUMPDEST DUP4 ADD DUP3 PUSH2 0x135D JUMP JUMPDEST POP POP JUMPDEST POP POP POP JUMP JUMPDEST PUSH0 DUP3 DUP3 SHR SWAP1 POP SWAP3 SWAP2 POP POP JUMP JUMPDEST PUSH0 PUSH2 0x13E0 PUSH0 NOT DUP5 PUSH1 0x8 MUL PUSH2 0x13C5 JUMP JUMPDEST NOT DUP1 DUP4 AND SWAP2 POP POP SWAP3 SWAP2 POP POP JUMP JUMPDEST PUSH0 PUSH2 0x13F8 DUP4 DUP4 PUSH2 0x13D1 JUMP JUMPDEST SWAP2 POP DUP3 PUSH1 0x2 MUL DUP3 OR SWAP1 POP SWAP3 SWAP2 POP POP JUMP JUMPDEST PUSH2 0x1411 DUP3 PUSH2 0x10AC JUMP JUMPDEST PUSH8 0xFFFFFFFFFFFFFFFF DUP2 GT ISZERO PUSH2 0x142A JUMPI PUSH2 0x1429 PUSH2 0x11DE JUMP JUMPDEST JUMPDEST PUSH2 0x1434 DUP3 SLOAD PUSH2 0x1238 JUMP JUMPDEST PUSH2 0x143F DUP3 DUP3 DUP6 PUSH2 0x137F JUMP JUMPDEST PUSH0 PUSH1 0x20 SWAP1 POP PUSH1 0x1F DUP4 GT PUSH1 0x1 DUP2 EQ PUSH2 0x1470 JUMPI PUSH0 DUP5 ISZERO PUSH2 0x145E JUMPI DUP3 DUP8 ADD MLOAD SWAP1 POP JUMPDEST PUSH2 0x1468 DUP6 DUP3 PUSH2 0x13ED JUMP JUMPDEST DUP7 SSTORE POP PUSH2 0x14CF JUMP JUMPDEST PUSH1 0x1F NOT DUP5 AND PUSH2 0x147E DUP7 PUSH2 0x1268 JUMP JUMPDEST PUSH0 JUMPDEST DUP3 DUP2 LT ISZERO PUSH2 0x14A5 JUMPI DUP5 DUP10 ADD MLOAD DUP3 SSTORE PUSH1 0x1 DUP3 ADD SWAP2 POP PUSH1 0x20 DUP6 ADD SWAP5 POP PUSH1 0x20 DUP2 ADD SWAP1 POP PUSH2 0x1480 JUMP JUMPDEST DUP7 DUP4 LT ISZERO PUSH2 0x14C2 JUMPI DUP5 DUP10 ADD MLOAD PUSH2 0x14BE PUSH1 0x1F DUP10 AND DUP3 PUSH2 0x13D1 JUMP JUMPDEST DUP4 SSTORE POP JUMPDEST PUSH1 0x1 PUSH1 0x2 DUP9 MUL ADD DUP9 SSTORE POP POP POP JUMPDEST POP POP POP POP POP POP JUMP JUMPDEST PUSH32 0x4E487B7100000000000000000000000000000000000000000000000000000000 PUSH0 MSTORE PUSH1 0x11 PUSH1 0x4 MSTORE PUSH1 0x24 PUSH0 REVERT JUMPDEST PUSH0 PUSH2 0x150E DUP3 PUSH2 0xE2E JUMP JUMPDEST SWAP2 POP PUSH2 0x1519 DUP4 PUSH2 0xE2E JUMP JUMPDEST SWAP3 POP DUP3 DUP3 SUB SWAP1 POP DUP2 DUP2 GT ISZERO PUSH2 0x1531 JUMPI PUSH2 0x1530 PUSH2 0x14D7 JUMP JUMPDEST JUMPDEST SWAP3 SWAP2 POP POP JUMP JUMPDEST PUSH32 0x747820646F6573206E6F74206578697374000000000000000000000000000000 PUSH0 DUP3 ADD MSTORE POP JUMP JUMPDEST PUSH0 PUSH2 0x156B PUSH1 0x11 DUP4 PUSH2 0x1166 JUMP JUMPDEST SWAP2 POP PUSH2 0x1576 DUP3 PUSH2 0x1537 JUMP JUMPDEST PUSH1 0x20 DUP3 ADD SWAP1 POP SWAP2 SWAP1 POP JUMP JUMPDEST PUSH0 PUSH1 0x20 DUP3 ADD SWAP1 POP DUP2 DUP2 SUB PUSH0 DUP4 ADD MSTORE PUSH2 0x1598 DUP2 PUSH2 0x155F JUMP JUMPDEST SWAP1 POP SWAP2 SWAP1 POP JUMP JUMPDEST PUSH32 0x4E487B7100000000000000000000000000000000000000000000000000000000 PUSH0 MSTORE PUSH1 0x32 PUSH1 0x4 MSTORE PUSH1 0x24 PUSH0 REVERT JUMPDEST PUSH32 0x747820616C726561647920657865637574656400000000000000000000000000 PUSH0 DUP3 ADD MSTORE POP JUMP JUMPDEST PUSH0 PUSH2 0x1600 PUSH1 0x13 DUP4 PUSH2 0x1166 JUMP JUMPDEST SWAP2 POP PUSH2 0x160B DUP3 PUSH2 0x15CC JUMP JUMPDEST PUSH1 0x20 DUP3 ADD SWAP1 POP SWAP2 SWAP1 POP JUMP JUMPDEST PUSH0 PUSH1 0x20 DUP3 ADD SWAP1 POP DUP2 DUP2 SUB PUSH0 DUP4 ADD MSTORE PUSH2 0x162D DUP2 PUSH2 0x15F4 JUMP JUMPDEST SWAP1 POP SWAP2 SWAP1 POP JUMP JUMPDEST PUSH32 0x7478206E6F7420617070726F7665640000000000000000000000000000000000 PUSH0 DUP3 ADD MSTORE POP JUMP JUMPDEST PUSH0 PUSH2 0x1668 PUSH1 0xF DUP4 PUSH2 0x1166 JUMP JUMPDEST SWAP2 POP PUSH2 0x1673 DUP3 PUSH2 0x1634 JUMP JUMPDEST PUSH1 0x20 DUP3 ADD SWAP1 POP SWAP2 SWAP1 POP JUMP JUMPDEST PUSH0 PUSH1 0x20 DUP3 ADD SWAP1 POP DUP2 DUP2 SUB PUSH0 DUP4 ADD MSTORE PUSH2 0x1695 DUP2 PUSH2 0x165C JUMP JUMPDEST SWAP1 POP SWAP2 SWAP1 POP JUMP JUMPDEST PUSH32 0x617070726F76616C73203C207265717569726564000000000000000000000000 PUSH0 DUP3 ADD MSTORE POP JUMP JUMPDEST PUSH0 PUSH2 0x16D0 PUSH1 0x14 DUP4 PUSH2 0x1166 JUMP JUMPDEST SWAP2 POP PUSH2 0x16DB DUP3 PUSH2 0x169C JUMP JUMPDEST PUSH1 0x20 DUP3 ADD SWAP1 POP SWAP2 SWAP1 POP JUMP JUMPDEST PUSH0 PUSH1 0x20 DUP3 ADD SWAP1 POP DUP2 DUP2 SUB PUSH0 DUP4 ADD MSTORE PUSH2 0x16FD DUP2 PUSH2 0x16C4 JUMP JUMPDEST SWAP1 POP SWAP2 SWAP1 POP JUMP JUMPDEST PUSH0 DUP2 SWAP1 POP SWAP3 SWAP2 POP POP JUMP JUMPDEST PUSH0 DUP2 SLOAD PUSH2 0x171A DUP2 PUSH2 0x1238 JUMP JUMPDEST PUSH2 0x1724 DUP2 DUP7 PUSH2 0x1704 JUMP JUMPDEST SWAP5 POP PUSH1 0x1 DUP3 AND PUSH0 DUP2 EQ PUSH2 0x173E JUMPI PUSH1 0x1 DUP2 EQ PUSH2 0x1753 JUMPI PUSH2 0x1785 JUMP JUMPDEST PUSH1 0xFF NOT DUP4 AND DUP7 MSTORE DUP2 ISZERO ISZERO DUP3 MUL DUP7 ADD SWAP4 POP PUSH2 0x1785 JUMP JUMPDEST PUSH2 0x175C DUP6 PUSH2 0x1268 JUMP JUMPDEST PUSH0 JUMPDEST DUP4 DUP2 LT ISZERO PUSH2 0x177D JUMPI DUP2 SLOAD DUP2 DUP10 ADD MSTORE PUSH1 0x1 DUP3 ADD SWAP2 POP PUSH1 0x20 DUP2 ADD SWAP1 POP PUSH2 0x175E JUMP JUMPDEST DUP4 DUP9 ADD SWAP6 POP POP POP JUMPDEST POP POP POP SWAP3 SWAP2 POP POP JUMP JUMPDEST PUSH0 PUSH2 0x1799 DUP3 DUP5 PUSH2 0x170E JUMP JUMPDEST SWAP2 POP DUP2 SWAP1 POP SWAP3 SWAP2 POP POP JUMP JUMPDEST PUSH32 0x6578206661696C65640000000000000000000000000000000000000000000000 PUSH0 DUP3 ADD MSTORE POP JUMP JUMPDEST PUSH0 PUSH2 0x17D8 PUSH1 0x9 DUP4 PUSH2 0x1166 JUMP JUMPDEST SWAP2 POP PUSH2 0x17E3 DUP3 PUSH2 0x17A4 JUMP JUMPDEST PUSH1 0x20 DUP3 ADD SWAP1 POP SWAP2 SWAP1 POP JUMP JUMPDEST PUSH0 PUSH1 0x20 DUP3 ADD SWAP1 POP DUP2 DUP2 SUB PUSH0 DUP4 ADD MSTORE PUSH2 0x1805 DUP2 PUSH2 0x17CC JUMP JUMPDEST SWAP1 POP SWAP2 SWAP1 POP JUMP JUMPDEST PUSH32 0x747820616C726561647920617070726F76656400000000000000000000000000 PUSH0 DUP3 ADD MSTORE POP JUMP JUMPDEST PUSH0 PUSH2 0x1840 PUSH1 0x13 DUP4 PUSH2 0x1166 JUMP JUMPDEST SWAP2 POP PUSH2 0x184B DUP3 PUSH2 0x180C JUMP JUMPDEST PUSH1 0x20 DUP3 ADD SWAP1 POP SWAP2 SWAP1 POP JUMP JUMPDEST PUSH0 PUSH1 0x20 DUP3 ADD SWAP1 POP DUP2 DUP2 SUB PUSH0 DUP4 ADD MSTORE PUSH2 0x186D DUP2 PUSH2 0x1834 JUMP JUMPDEST SWAP1 POP SWAP2 SWAP1 POP JUMP JUMPDEST PUSH0 PUSH2 0x187E DUP3 PUSH2 0xE2E JUMP JUMPDEST SWAP2 POP PUSH2 0x1889 DUP4 PUSH2 0xE2E JUMP JUMPDEST SWAP3 POP DUP3 DUP3 ADD SWAP1 POP DUP1 DUP3 GT ISZERO PUSH2 0x18A1 JUMPI PUSH2 0x18A0 PUSH2 0x14D7 JUMP JUMPDEST JUMPDEST SWAP3 SWAP2 POP POP JUMP INVALID LOG2 PUSH5 0x6970667358 0x22 SLT KECCAK256 PUSH22 0xEF62524C4C7580C3912ED4A4777FF0FEA9DD2C59A0A8 SWAP8 PUSH9 0x99FAD9EB84FD116473 PUSH16 0x6C634300081E00330000000000000000 "
				},
				"gasEstimates": {
					"creation": {
						"codeDepositCost": "1273000",
						"executionCost": "infinite",
						"totalCost": "infinite"
					},
					"external": {
						"approve(uint256)": "37487",
						"approved(uint256,address)": "3092",
						"execution(uint256)": "infinite",
						"isOwner(address)": "2900",
						"owners(uint256)": "4944",
						"required()": "2513",
						"revoke(uint256)": "37457",
						"submit(address,uint256,bytes)": "infinite",
						"transactions(uint256)": "infinite"
					},
					"internal": {
						"_getApprovalCount(uint256)": "infinite"
					}
				},
				"methodIdentifiers": {
					"approve(uint256)": "b759f954",
					"approved(uint256,address)": "8253951a",
					"execution(uint256)": "5dccebba",
					"isOwner(address)": "2f54bf6e",
					"owners(uint256)": "025e7c27",
					"required()": "dc8452cd",
					"revoke(uint256)": "20c5429b",
					"submit(address,uint256,bytes)": "14de327f",
					"transactions(uint256)": "9ace38c2"
				}
			},
			"storageLayout": {
				"storage": [
					{
						"astId": 40,
						"contract": "MultiSigWallet.sol:MultiSigWallet",
						"label": "owners",
						"offset": 0,
						"slot": "0",
						"type": "t_array(t_address)dyn_storage"
					},
					{
						"astId": 44,
						"contract": "MultiSigWallet.sol:MultiSigWallet",
						"label": "isOwner",
						"offset": 0,
						"slot": "1",
						"type": "t_mapping(t_address,t_bool)"
					},
					{
						"astId": 46,
						"contract": "MultiSigWallet.sol:MultiSigWallet",
						"label": "required",
						"offset": 0,
						"slot": "2",
						"type": "t_uint256"
					},
					{
						"astId": 50,
						"contract": "MultiSigWallet.sol:MultiSigWallet",
						"label": "transactions",
						"offset": 0,
						"slot": "3",
						"type": "t_array(t_struct(Transaction)37_storage)dyn_storage"
					},
					{
						"astId": 56,
						"contract": "MultiSigWallet.sol:MultiSigWallet",
						"label": "approved",
						"offset": 0,
						"slot": "4",
						"type": "t_mapping(t_uint256,t_mapping(t_address,t_bool))"
					}
				],
				"types": {
					"t_address": {
						"encoding": "inplace",
						"label": "address",
						"numberOfBytes": "20"
					},
					"t_array(t_address)dyn_storage": {
						"base": "t_address",
						"encoding": "dynamic_array",
						"label": "address[]",
						"numberOfBytes": "32"
					},
					"t_array(t_struct(Transaction)37_storage)dyn_storage": {
						"base": "t_struct(Transaction)37_storage",
						"encoding": "dynamic_array",
						"label": "struct MultiSigWallet.Transaction[]",
						"numberOfBytes": "32"
					},
					"t_bool": {
						"encoding": "inplace",
						"label": "bool",
						"numberOfBytes": "1"
					},
					"t_bytes_storage": {
						"encoding": "bytes",
						"label": "bytes",
						"numberOfBytes": "32"
					},
					"t_mapping(t_address,t_bool)": {
						"encoding": "mapping",
						"key": "t_address",
						"label": "mapping(address => bool)",
						"numberOfBytes": "32",
						"value": "t_bool"
					},
					"t_mapping(t_uint256,t_mapping(t_address,t_bool))": {
						"encoding": "mapping",
						"key": "t_uint256",
						"label": "mapping(uint256 => mapping(address => bool))",
						"numberOfBytes": "32",
						"value": "t_mapping(t_address,t_bool)"
					},
					"t_struct(Transaction)37_storage": {
						"encoding": "inplace",
						"label": "struct MultiSigWallet.Transaction",
						"members": [
							{
								"astId": 30,
								"contract": "MultiSigWallet.sol:MultiSigWallet",
								"label": "to",
								"offset": 0,
								"slot": "0",
								"type": "t_address"
							},
							{
								"astId": 32,
								"contract": "MultiSigWallet.sol:MultiSigWallet",
								"label": "value",
								"offset": 0,
								"slot": "1",
								"type": "t_uint256"
							},
							{
								"astId": 34,
								"contract": "MultiSigWallet.sol:MultiSigWallet",
								"label": "data",
								"offset": 0,
								"slot": "2",
								"type": "t_bytes_storage"
							},
							{
								"astId": 36,
								"contract": "MultiSigWallet.sol:MultiSigWallet",
								"label": "executed",
								"offset": 0,
								"slot": "3",
								"type": "t_bool"
							}
						],
						"numberOfBytes": "128"
					},
					"t_uint256": {
						"encoding": "inplace",
						"label": "uint256",
						"numberOfBytes": "32"
					}
				}
			},
			"userdoc": {
				"kind": "user",
				"methods": {},
				"notice": "多签钱包",
				"version": 1
			}
		}
	}
}