{
	"DaraLocations.sol": {
		"DataLocations": {
			"abi": [
				{
					"inputs": [
						{
							"internalType": "uint256[]",
							"name": "y",
							"type": "uint256[]"
						}
					],
					"name": "examples",
					"outputs": [
						{
							"internalType": "uint256[]",
							"name": "",
							"type": "uint256[]"
						}
					],
					"stateMutability": "nonpayable",
					"type": "function"
				},
				{
					"inputs": [
						{
							"internalType": "address",
							"name": "",
							"type": "address"
						}
					],
					"name": "myStructs",
					"outputs": [
						{
							"internalType": "uint256",
							"name": "foo",
							"type": "uint256"
						},
						{
							"internalType": "string",
							"name": "text",
							"type": "string"
						}
					],
					"stateMutability": "view",
					"type": "function"
				}
			],
			"devdoc": {
				"kind": "dev",
				"methods": {},
				"version": 1
			},
			"evm": {
				"assembly": "    /* \"DaraLocations.sol\":60:831  contract DataLocations {... */\n  mstore(0x40, 0x80)\n  callvalue\n  dup1\n  iszero\n  tag_1\n  jumpi\n  revert(0x00, 0x00)\ntag_1:\n  pop\n  dataSize(sub_0)\n  dup1\n  dataOffset(sub_0)\n  0x00\n  codecopy\n  0x00\n  return\nstop\n\nsub_0: assembly {\n        /* \"DaraLocations.sol\":60:831  contract DataLocations {... */\n      mstore(0x40, 0x80)\n      callvalue\n      dup1\n      iszero\n      tag_1\n      jumpi\n      revert(0x00, 0x00)\n    tag_1:\n      pop\n      jumpi(tag_2, lt(calldatasize, 0x04))\n      shr(0xe0, calldataload(0x00))\n      dup1\n      0x4fd58b19\n      eq\n      tag_3\n      jumpi\n      dup1\n      0xb43c5d33\n      eq\n      tag_4\n      jumpi\n    tag_2:\n      revert(0x00, 0x00)\n        /* \"DaraLocations.sol\":217:670  function examples(uint[] calldata y) external returns (uint[] memory){... */\n    tag_3:\n      tag_5\n      0x04\n      dup1\n      calldatasize\n      sub\n      dup2\n      add\n      swap1\n      tag_6\n      swap2\n      swap1\n      tag_7\n      jump\t// in\n    tag_6:\n      tag_8\n      jump\t// in\n    tag_5:\n      mload(0x40)\n      tag_9\n      swap2\n      swap1\n      tag_10\n      jump\t// in\n    tag_9:\n      mload(0x40)\n      dup1\n      swap2\n      sub\n      swap1\n      return\n        /* \"DaraLocations.sol\":163:208  mapping(address => MyStruct) public myStructs */\n    tag_4:\n      tag_11\n      0x04\n      dup1\n      calldatasize\n      sub\n      dup2\n      add\n      swap1\n      tag_12\n      swap2\n      swap1\n      tag_13\n      jump\t// in\n    tag_12:\n      tag_14\n      jump\t// in\n    tag_11:\n      mload(0x40)\n      tag_15\n      swap3\n      swap2\n      swap1\n      tag_16\n      jump\t// in\n    tag_15:\n      mload(0x40)\n      dup1\n      swap2\n      sub\n      swap1\n      return\n        /* \"DaraLocations.sol\":217:670  function examples(uint[] calldata y) external returns (uint[] memory){... */\n    tag_8:\n        /* \"DaraLocations.sol\":272:285  uint[] memory */\n      0x60\n        /* \"DaraLocations.sol\":321:354  MyStruct({foo: 123, text: \"bar\"}) */\n      mload(0x40)\n      dup1\n      0x40\n      add\n      0x40\n      mstore\n      dup1\n        /* \"DaraLocations.sol\":336:339  123 */\n      0x7b\n        /* \"DaraLocations.sol\":321:354  MyStruct({foo: 123, text: \"bar\"}) */\n      dup2\n      mstore\n      0x20\n      add\n      mload(0x40)\n      dup1\n      0x40\n      add\n      0x40\n      mstore\n      dup1\n      0x03\n      dup2\n      mstore\n      0x20\n      add\n      0x6261720000000000000000000000000000000000000000000000000000000000\n      dup2\n      mstore\n      pop\n      dup2\n      mstore\n      pop\n        /* \"DaraLocations.sol\":297:306  myStructs */\n      0x00\n        /* \"DaraLocations.sol\":297:318  myStructs[msg.sender] */\n      0x00\n        /* \"DaraLocations.sol\":307:317  msg.sender */\n      caller\n        /* \"DaraLocations.sol\":297:318  myStructs[msg.sender] */\n      0xffffffffffffffffffffffffffffffffffffffff\n      and\n      0xffffffffffffffffffffffffffffffffffffffff\n      and\n      dup2\n      mstore\n      0x20\n      add\n      swap1\n      dup2\n      mstore\n      0x20\n      add\n      0x00\n      keccak256\n        /* \"DaraLocations.sol\":297:354  myStructs[msg.sender] = MyStruct({foo: 123, text: \"bar\"}) */\n      0x00\n      dup3\n      add\n      mload\n      dup2\n      0x00\n      add\n      sstore\n      0x20\n      dup3\n      add\n      mload\n      dup2\n      0x01\n      add\n      swap1\n      dup2\n      tag_18\n      swap2\n      swap1\n      tag_19\n      jump\t// in\n    tag_18:\n      pop\n      swap1\n      pop\n      pop\n        /* \"DaraLocations.sol\":367:392  MyStruct storage myStruct */\n      0x00\n        /* \"DaraLocations.sol\":395:404  myStructs */\n      0x00\n        /* \"DaraLocations.sol\":395:416  myStructs[msg.sender] */\n      0x00\n        /* \"DaraLocations.sol\":405:415  msg.sender */\n      caller\n        /* \"DaraLocations.sol\":395:416  myStructs[msg.sender] */\n      0xffffffffffffffffffffffffffffffffffffffff\n      and\n      0xffffffffffffffffffffffffffffffffffffffff\n      and\n      dup2\n      mstore\n      0x20\n      add\n      swap1\n      dup2\n      mstore\n      0x20\n      add\n      0x00\n      keccak256\n        /* \"DaraLocations.sol\":367:416  MyStruct storage myStruct = myStructs[msg.sender] */\n      swap1\n      pop\n        /* \"DaraLocations.sol\":427:448  myStruct.text = \"foo\" */\n      mload(0x40)\n      dup1\n      0x40\n      add\n      0x40\n      mstore\n      dup1\n      0x03\n      dup2\n      mstore\n      0x20\n      add\n      0x666f6f0000000000000000000000000000000000000000000000000000000000\n      dup2\n      mstore\n      pop\n        /* \"DaraLocations.sol\":427:435  myStruct */\n      dup2\n        /* \"DaraLocations.sol\":427:440  myStruct.text */\n      0x01\n      add\n        /* \"DaraLocations.sol\":427:448  myStruct.text = \"foo\" */\n      swap1\n      dup2\n      tag_20\n      swap2\n      swap1\n      tag_19\n      jump\t// in\n    tag_20:\n      pop\n        /* \"DaraLocations.sol\":461:485  MyStruct memory readOnly */\n      0x00\n        /* \"DaraLocations.sol\":488:497  myStructs */\n      0x00\n        /* \"DaraLocations.sol\":488:509  myStructs[msg.sender] */\n      0x00\n        /* \"DaraLocations.sol\":498:508  msg.sender */\n      caller\n        /* \"DaraLocations.sol\":488:509  myStructs[msg.sender] */\n      0xffffffffffffffffffffffffffffffffffffffff\n      and\n      0xffffffffffffffffffffffffffffffffffffffff\n      and\n      dup2\n      mstore\n      0x20\n      add\n      swap1\n      dup2\n      mstore\n      0x20\n      add\n      0x00\n      keccak256\n        /* \"DaraLocations.sol\":461:509  MyStruct memory readOnly = myStructs[msg.sender] */\n      mload(0x40)\n      dup1\n      0x40\n      add\n      0x40\n      mstore\n      swap1\n      dup2\n      0x00\n      dup3\n      add\n      sload\n      dup2\n      mstore\n      0x20\n      add\n      0x01\n      dup3\n      add\n      dup1\n      sload\n      tag_21\n      swap1\n      tag_22\n      jump\t// in\n    tag_21:\n      dup1\n      0x1f\n      add\n      0x20\n      dup1\n      swap2\n      div\n      mul\n      0x20\n      add\n      mload(0x40)\n      swap1\n      dup2\n      add\n      0x40\n      mstore\n      dup1\n      swap3\n      swap2\n      swap1\n      dup2\n      dup2\n      mstore\n      0x20\n      add\n      dup3\n      dup1\n      sload\n      tag_23\n      swap1\n      tag_22\n      jump\t// in\n    tag_23:\n      dup1\n      iszero\n      tag_24\n      jumpi\n      dup1\n      0x1f\n      lt\n      tag_25\n      jumpi\n      0x0100\n      dup1\n      dup4\n      sload\n      div\n      mul\n      dup4\n      mstore\n      swap2\n      0x20\n      add\n      swap2\n      jump(tag_24)\n    tag_25:\n      dup3\n      add\n      swap2\n      swap1\n      0x00\n      mstore\n      keccak256(0x00, 0x20)\n      swap1\n    tag_26:\n      dup2\n      sload\n      dup2\n      mstore\n      swap1\n      0x01\n      add\n      swap1\n      0x20\n      add\n      dup1\n      dup4\n      gt\n      tag_26\n      jumpi\n      dup3\n      swap1\n      sub\n      0x1f\n      and\n      dup3\n      add\n      swap2\n    tag_24:\n      pop\n      pop\n      pop\n      pop\n      pop\n      dup2\n      mstore\n      pop\n      pop\n      swap1\n      pop\n        /* \"DaraLocations.sol\":535:538  456 */\n      0x01c8\n        /* \"DaraLocations.sol\":520:528  readOnly */\n      dup2\n        /* \"DaraLocations.sol\":520:532  readOnly.foo */\n      0x00\n      add\n        /* \"DaraLocations.sol\":520:538  readOnly.foo = 456 */\n      dup2\n      dup2\n      mstore\n      pop\n      pop\n        /* \"DaraLocations.sol\":551:563  _internal(y) */\n      tag_27\n        /* \"DaraLocations.sol\":561:562  y */\n      dup6\n      dup6\n        /* \"DaraLocations.sol\":551:560  _internal */\n      tag_28\n        /* \"DaraLocations.sol\":551:563  _internal(y) */\n      jump\t// in\n    tag_27:\n        /* \"DaraLocations.sol\":576:596  uint[] memory memArr */\n      0x00\n        /* \"DaraLocations.sol\":610:611  3 */\n      0x03\n        /* \"DaraLocations.sol\":599:612  new uint[](3) */\n      0xffffffffffffffff\n      dup2\n      gt\n      iszero\n      tag_29\n      jumpi\n      tag_30\n      tag_31\n      jump\t// in\n    tag_30:\n    tag_29:\n      mload(0x40)\n      swap1\n      dup1\n      dup3\n      mstore\n      dup1\n      0x20\n      mul\n      0x20\n      add\n      dup3\n      add\n      0x40\n      mstore\n      dup1\n      iszero\n      tag_32\n      jumpi\n      dup2\n      0x20\n      add\n      0x20\n      dup3\n      mul\n      dup1\n      calldatasize\n      dup4\n      calldatacopy\n      dup1\n      dup3\n      add\n      swap2\n      pop\n      pop\n      swap1\n      pop\n    tag_32:\n      pop\n        /* \"DaraLocations.sol\":576:612  uint[] memory memArr = new uint[](3) */\n      swap1\n      pop\n        /* \"DaraLocations.sol\":635:638  234 */\n      0xea\n        /* \"DaraLocations.sol\":623:629  memArr */\n      dup2\n        /* \"DaraLocations.sol\":630:631  0 */\n      0x00\n        /* \"DaraLocations.sol\":623:632  memArr[0] */\n      dup2\n      mload\n      dup2\n      lt\n      tag_33\n      jumpi\n      tag_34\n      tag_35\n      jump\t// in\n    tag_34:\n    tag_33:\n      0x20\n      mul\n      0x20\n      add\n      add\n        /* \"DaraLocations.sol\":623:638  memArr[0] = 234 */\n      dup2\n      dup2\n      mstore\n      pop\n      pop\n        /* \"DaraLocations.sol\":656:662  memArr */\n      dup1\n        /* \"DaraLocations.sol\":649:662  return memArr */\n      swap4\n      pop\n      pop\n      pop\n      pop\n        /* \"DaraLocations.sol\":217:670  function examples(uint[] calldata y) external returns (uint[] memory){... */\n      swap3\n      swap2\n      pop\n      pop\n      jump\t// out\n        /* \"DaraLocations.sol\":163:208  mapping(address => MyStruct) public myStructs */\n    tag_14:\n      mstore(0x20, 0x00)\n      dup1\n      0x00\n      mstore\n      keccak256(0x00, 0x40)\n      0x00\n      swap2\n      pop\n      swap1\n      pop\n      dup1\n      0x00\n      add\n      sload\n      swap1\n      dup1\n      0x01\n      add\n      dup1\n      sload\n      tag_36\n      swap1\n      tag_22\n      jump\t// in\n    tag_36:\n      dup1\n      0x1f\n      add\n      0x20\n      dup1\n      swap2\n      div\n      mul\n      0x20\n      add\n      mload(0x40)\n      swap1\n      dup2\n      add\n      0x40\n      mstore\n      dup1\n      swap3\n      swap2\n      swap1\n      dup2\n      dup2\n      mstore\n      0x20\n      add\n      dup3\n      dup1\n      sload\n      tag_37\n      swap1\n      tag_22\n      jump\t// in\n    tag_37:\n      dup1\n      iszero\n      tag_38\n      jumpi\n      dup1\n      0x1f\n      lt\n      tag_39\n      jumpi\n      0x0100\n      dup1\n      dup4\n      sload\n      div\n      mul\n      dup4\n      mstore\n      swap2\n      0x20\n      add\n      swap2\n      jump(tag_38)\n    tag_39:\n      dup3\n      add\n      swap2\n      swap1\n      0x00\n      mstore\n      keccak256(0x00, 0x20)\n      swap1\n    tag_40:\n      dup2\n      sload\n      dup2\n      mstore\n      swap1\n      0x01\n      add\n      swap1\n      0x20\n      add\n      dup1\n      dup4\n      gt\n      tag_40\n      jumpi\n      dup3\n      swap1\n      sub\n      0x1f\n      and\n      dup3\n      add\n      swap2\n    tag_38:\n      pop\n      pop\n      pop\n      pop\n      pop\n      swap1\n      pop\n      dup3\n      jump\t// out\n        /* \"DaraLocations.sol\":678:828  function _internal(uint[] calldata y) private pure {... */\n    tag_28:\n        /* \"DaraLocations.sol\":754:755  0 */\n      0x00\n        /* \"DaraLocations.sol\":743:744  y */\n      dup3\n      dup3\n        /* \"DaraLocations.sol\":743:751  y.length */\n      swap1\n      pop\n        /* \"DaraLocations.sol\":743:755  y.length > 0 */\n      gt\n        /* \"DaraLocations.sol\":740:812  if(y.length > 0){... */\n      iszero\n      tag_42\n      jumpi\n        /* \"DaraLocations.sol\":771:777  uint x */\n      0x00\n        /* \"DaraLocations.sol\":796:797  y */\n      dup3\n      dup3\n        /* \"DaraLocations.sol\":798:799  0 */\n      0x00\n        /* \"DaraLocations.sol\":796:800  y[0] */\n      dup2\n      dup2\n      lt\n      tag_43\n      jumpi\n      tag_44\n      tag_35\n      jump\t// in\n    tag_44:\n    tag_43:\n      swap1\n      pop\n      0x20\n      mul\n      add\n      calldataload\n        /* \"DaraLocations.sol\":792:800  x = y[0] */\n      swap1\n      pop\n        /* \"DaraLocations.sol\":756:812  {... */\n      pop\n        /* \"DaraLocations.sol\":740:812  if(y.length > 0){... */\n    tag_42:\n        /* \"DaraLocations.sol\":678:828  function _internal(uint[] calldata y) private pure {... */\n      pop\n      pop\n      jump\t// out\n        /* \"#utility.yul\":88:205   */\n    tag_46:\n        /* \"#utility.yul\":197:198   */\n      0x00\n        /* \"#utility.yul\":194:195   */\n      0x00\n        /* \"#utility.yul\":187:199   */\n      revert\n        /* \"#utility.yul\":211:328   */\n    tag_47:\n        /* \"#utility.yul\":320:321   */\n      0x00\n        /* \"#utility.yul\":317:318   */\n      0x00\n        /* \"#utility.yul\":310:322   */\n      revert\n        /* \"#utility.yul\":334:451   */\n    tag_48:\n        /* \"#utility.yul\":443:444   */\n      0x00\n        /* \"#utility.yul\":440:441   */\n      0x00\n        /* \"#utility.yul\":433:445   */\n      revert\n        /* \"#utility.yul\":457:574   */\n    tag_49:\n        /* \"#utility.yul\":566:567   */\n      0x00\n        /* \"#utility.yul\":563:564   */\n      0x00\n        /* \"#utility.yul\":556:568   */\n      revert\n        /* \"#utility.yul\":580:697   */\n    tag_50:\n        /* \"#utility.yul\":689:690   */\n      0x00\n        /* \"#utility.yul\":686:687   */\n      0x00\n        /* \"#utility.yul\":679:691   */\n      revert\n        /* \"#utility.yul\":720:1288   */\n    tag_51:\n        /* \"#utility.yul\":793:801   */\n      0x00\n        /* \"#utility.yul\":803:809   */\n      0x00\n        /* \"#utility.yul\":853:856   */\n      dup4\n        /* \"#utility.yul\":846:850   */\n      0x1f\n        /* \"#utility.yul\":838:844   */\n      dup5\n        /* \"#utility.yul\":834:851   */\n      add\n        /* \"#utility.yul\":830:857   */\n      slt\n        /* \"#utility.yul\":820:942   */\n      tag_94\n      jumpi\n        /* \"#utility.yul\":861:940   */\n      tag_95\n      tag_48\n      jump\t// in\n    tag_95:\n        /* \"#utility.yul\":820:942   */\n    tag_94:\n        /* \"#utility.yul\":974:980   */\n      dup3\n        /* \"#utility.yul\":961:981   */\n      calldataload\n        /* \"#utility.yul\":951:981   */\n      swap1\n      pop\n        /* \"#utility.yul\":1004:1022   */\n      0xffffffffffffffff\n        /* \"#utility.yul\":996:1002   */\n      dup2\n        /* \"#utility.yul\":993:1023   */\n      gt\n        /* \"#utility.yul\":990:1107   */\n      iszero\n      tag_96\n      jumpi\n        /* \"#utility.yul\":1026:1105   */\n      tag_97\n      tag_49\n      jump\t// in\n    tag_97:\n        /* \"#utility.yul\":990:1107   */\n    tag_96:\n        /* \"#utility.yul\":1140:1144   */\n      0x20\n        /* \"#utility.yul\":1132:1138   */\n      dup4\n        /* \"#utility.yul\":1128:1145   */\n      add\n        /* \"#utility.yul\":1116:1145   */\n      swap2\n      pop\n        /* \"#utility.yul\":1194:1197   */\n      dup4\n        /* \"#utility.yul\":1186:1190   */\n      0x20\n        /* \"#utility.yul\":1178:1184   */\n      dup3\n        /* \"#utility.yul\":1174:1191   */\n      mul\n        /* \"#utility.yul\":1164:1172   */\n      dup4\n        /* \"#utility.yul\":1160:1192   */\n      add\n        /* \"#utility.yul\":1157:1198   */\n      gt\n        /* \"#utility.yul\":1154:1282   */\n      iszero\n      tag_98\n      jumpi\n        /* \"#utility.yul\":1201:1280   */\n      tag_99\n      tag_50\n      jump\t// in\n    tag_99:\n        /* \"#utility.yul\":1154:1282   */\n    tag_98:\n        /* \"#utility.yul\":720:1288   */\n      swap3\n      pop\n      swap3\n      swap1\n      pop\n      jump\t// out\n        /* \"#utility.yul\":1294:1853   */\n    tag_7:\n        /* \"#utility.yul\":1380:1386   */\n      0x00\n        /* \"#utility.yul\":1388:1394   */\n      0x00\n        /* \"#utility.yul\":1437:1439   */\n      0x20\n        /* \"#utility.yul\":1425:1434   */\n      dup4\n        /* \"#utility.yul\":1416:1423   */\n      dup6\n        /* \"#utility.yul\":1412:1435   */\n      sub\n        /* \"#utility.yul\":1408:1440   */\n      slt\n        /* \"#utility.yul\":1405:1524   */\n      iszero\n      tag_101\n      jumpi\n        /* \"#utility.yul\":1443:1522   */\n      tag_102\n      tag_46\n      jump\t// in\n    tag_102:\n        /* \"#utility.yul\":1405:1524   */\n    tag_101:\n        /* \"#utility.yul\":1591:1592   */\n      0x00\n        /* \"#utility.yul\":1580:1589   */\n      dup4\n        /* \"#utility.yul\":1576:1593   */\n      add\n        /* \"#utility.yul\":1563:1594   */\n      calldataload\n        /* \"#utility.yul\":1621:1639   */\n      0xffffffffffffffff\n        /* \"#utility.yul\":1613:1619   */\n      dup2\n        /* \"#utility.yul\":1610:1640   */\n      gt\n        /* \"#utility.yul\":1607:1724   */\n      iszero\n      tag_103\n      jumpi\n        /* \"#utility.yul\":1643:1722   */\n      tag_104\n      tag_47\n      jump\t// in\n    tag_104:\n        /* \"#utility.yul\":1607:1724   */\n    tag_103:\n        /* \"#utility.yul\":1756:1836   */\n      tag_105\n        /* \"#utility.yul\":1828:1835   */\n      dup6\n        /* \"#utility.yul\":1819:1825   */\n      dup3\n        /* \"#utility.yul\":1808:1817   */\n      dup7\n        /* \"#utility.yul\":1804:1826   */\n      add\n        /* \"#utility.yul\":1756:1836   */\n      tag_51\n      jump\t// in\n    tag_105:\n        /* \"#utility.yul\":1738:1836   */\n      swap3\n      pop\n      swap3\n      pop\n        /* \"#utility.yul\":1534:1846   */\n      pop\n        /* \"#utility.yul\":1294:1853   */\n      swap3\n      pop\n      swap3\n      swap1\n      pop\n      jump\t// out\n        /* \"#utility.yul\":1859:1973   */\n    tag_52:\n        /* \"#utility.yul\":1926:1932   */\n      0x00\n        /* \"#utility.yul\":1960:1965   */\n      dup2\n        /* \"#utility.yul\":1954:1966   */\n      mload\n        /* \"#utility.yul\":1944:1966   */\n      swap1\n      pop\n        /* \"#utility.yul\":1859:1973   */\n      swap2\n      swap1\n      pop\n      jump\t// out\n        /* \"#utility.yul\":1979:2163   */\n    tag_53:\n        /* \"#utility.yul\":2078:2089   */\n      0x00\n        /* \"#utility.yul\":2112:2118   */\n      dup3\n        /* \"#utility.yul\":2107:2110   */\n      dup3\n        /* \"#utility.yul\":2100:2119   */\n      mstore\n        /* \"#utility.yul\":2152:2156   */\n      0x20\n        /* \"#utility.yul\":2147:2150   */\n      dup3\n        /* \"#utility.yul\":2143:2157   */\n      add\n        /* \"#utility.yul\":2128:2157   */\n      swap1\n      pop\n        /* \"#utility.yul\":1979:2163   */\n      swap3\n      swap2\n      pop\n      pop\n      jump\t// out\n        /* \"#utility.yul\":2169:2301   */\n    tag_54:\n        /* \"#utility.yul\":2236:2240   */\n      0x00\n        /* \"#utility.yul\":2259:2262   */\n      dup2\n        /* \"#utility.yul\":2251:2262   */\n      swap1\n      pop\n        /* \"#utility.yul\":2289:2293   */\n      0x20\n        /* \"#utility.yul\":2284:2287   */\n      dup3\n        /* \"#utility.yul\":2280:2294   */\n      add\n        /* \"#utility.yul\":2272:2294   */\n      swap1\n      pop\n        /* \"#utility.yul\":2169:2301   */\n      swap2\n      swap1\n      pop\n      jump\t// out\n        /* \"#utility.yul\":2307:2384   */\n    tag_55:\n        /* \"#utility.yul\":2344:2351   */\n      0x00\n        /* \"#utility.yul\":2373:2378   */\n      dup2\n        /* \"#utility.yul\":2362:2378   */\n      swap1\n      pop\n        /* \"#utility.yul\":2307:2384   */\n      swap2\n      swap1\n      pop\n      jump\t// out\n        /* \"#utility.yul\":2390:2498   */\n    tag_56:\n        /* \"#utility.yul\":2467:2491   */\n      tag_111\n        /* \"#utility.yul\":2485:2490   */\n      dup2\n        /* \"#utility.yul\":2467:2491   */\n      tag_55\n      jump\t// in\n    tag_111:\n        /* \"#utility.yul\":2462:2465   */\n      dup3\n        /* \"#utility.yul\":2455:2492   */\n      mstore\n        /* \"#utility.yul\":2390:2498   */\n      pop\n      pop\n      jump\t// out\n        /* \"#utility.yul\":2504:2683   */\n    tag_57:\n        /* \"#utility.yul\":2573:2583   */\n      0x00\n        /* \"#utility.yul\":2594:2640   */\n      tag_113\n        /* \"#utility.yul\":2636:2639   */\n      dup4\n        /* \"#utility.yul\":2628:2634   */\n      dup4\n        /* \"#utility.yul\":2594:2640   */\n      tag_56\n      jump\t// in\n    tag_113:\n        /* \"#utility.yul\":2672:2676   */\n      0x20\n        /* \"#utility.yul\":2667:2670   */\n      dup4\n        /* \"#utility.yul\":2663:2677   */\n      add\n        /* \"#utility.yul\":2649:2677   */\n      swap1\n      pop\n        /* \"#utility.yul\":2504:2683   */\n      swap3\n      swap2\n      pop\n      pop\n      jump\t// out\n        /* \"#utility.yul\":2689:2802   */\n    tag_58:\n        /* \"#utility.yul\":2759:2763   */\n      0x00\n        /* \"#utility.yul\":2791:2795   */\n      0x20\n        /* \"#utility.yul\":2786:2789   */\n      dup3\n        /* \"#utility.yul\":2782:2796   */\n      add\n        /* \"#utility.yul\":2774:2796   */\n      swap1\n      pop\n        /* \"#utility.yul\":2689:2802   */\n      swap2\n      swap1\n      pop\n      jump\t// out\n        /* \"#utility.yul\":2838:3570   */\n    tag_59:\n        /* \"#utility.yul\":2957:2960   */\n      0x00\n        /* \"#utility.yul\":2986:3040   */\n      tag_116\n        /* \"#utility.yul\":3034:3039   */\n      dup3\n        /* \"#utility.yul\":2986:3040   */\n      tag_52\n      jump\t// in\n    tag_116:\n        /* \"#utility.yul\":3056:3142   */\n      tag_117\n        /* \"#utility.yul\":3135:3141   */\n      dup2\n        /* \"#utility.yul\":3130:3133   */\n      dup6\n        /* \"#utility.yul\":3056:3142   */\n      tag_53\n      jump\t// in\n    tag_117:\n        /* \"#utility.yul\":3049:3142   */\n      swap4\n      pop\n        /* \"#utility.yul\":3166:3222   */\n      tag_118\n        /* \"#utility.yul\":3216:3221   */\n      dup4\n        /* \"#utility.yul\":3166:3222   */\n      tag_54\n      jump\t// in\n    tag_118:\n        /* \"#utility.yul\":3245:3252   */\n      dup1\n        /* \"#utility.yul\":3276:3277   */\n      0x00\n        /* \"#utility.yul\":3261:3545   */\n    tag_119:\n        /* \"#utility.yul\":3286:3292   */\n      dup4\n        /* \"#utility.yul\":3283:3284   */\n      dup2\n        /* \"#utility.yul\":3280:3293   */\n      lt\n        /* \"#utility.yul\":3261:3545   */\n      iszero\n      tag_121\n      jumpi\n        /* \"#utility.yul\":3362:3368   */\n      dup2\n        /* \"#utility.yul\":3356:3369   */\n      mload\n        /* \"#utility.yul\":3389:3452   */\n      tag_122\n        /* \"#utility.yul\":3448:3451   */\n      dup9\n        /* \"#utility.yul\":3433:3446   */\n      dup3\n        /* \"#utility.yul\":3389:3452   */\n      tag_57\n      jump\t// in\n    tag_122:\n        /* \"#utility.yul\":3382:3452   */\n      swap8\n      pop\n        /* \"#utility.yul\":3475:3535   */\n      tag_123\n        /* \"#utility.yul\":3528:3534   */\n      dup4\n        /* \"#utility.yul\":3475:3535   */\n      tag_58\n      jump\t// in\n    tag_123:\n        /* \"#utility.yul\":3465:3535   */\n      swap3\n      pop\n        /* \"#utility.yul\":3321:3545   */\n      pop\n        /* \"#utility.yul\":3308:3309   */\n      0x01\n        /* \"#utility.yul\":3305:3306   */\n      dup2\n        /* \"#utility.yul\":3301:3310   */\n      add\n        /* \"#utility.yul\":3296:3310   */\n      swap1\n      pop\n        /* \"#utility.yul\":3261:3545   */\n      jump(tag_119)\n    tag_121:\n        /* \"#utility.yul\":3265:3279   */\n      pop\n        /* \"#utility.yul\":3561:3564   */\n      dup6\n        /* \"#utility.yul\":3554:3564   */\n      swap4\n      pop\n        /* \"#utility.yul\":2962:3570   */\n      pop\n      pop\n      pop\n        /* \"#utility.yul\":2838:3570   */\n      swap3\n      swap2\n      pop\n      pop\n      jump\t// out\n        /* \"#utility.yul\":3576:3949   */\n    tag_10:\n        /* \"#utility.yul\":3719:3723   */\n      0x00\n        /* \"#utility.yul\":3757:3759   */\n      0x20\n        /* \"#utility.yul\":3746:3755   */\n      dup3\n        /* \"#utility.yul\":3742:3760   */\n      add\n        /* \"#utility.yul\":3734:3760   */\n      swap1\n      pop\n        /* \"#utility.yul\":3806:3815   */\n      dup2\n        /* \"#utility.yul\":3800:3804   */\n      dup2\n        /* \"#utility.yul\":3796:3816   */\n      sub\n        /* \"#utility.yul\":3792:3793   */\n      0x00\n        /* \"#utility.yul\":3781:3790   */\n      dup4\n        /* \"#utility.yul\":3777:3794   */\n      add\n        /* \"#utility.yul\":3770:3817   */\n      mstore\n        /* \"#utility.yul\":3834:3942   */\n      tag_125\n        /* \"#utility.yul\":3937:3941   */\n      dup2\n        /* \"#utility.yul\":3928:3934   */\n      dup5\n        /* \"#utility.yul\":3834:3942   */\n      tag_59\n      jump\t// in\n    tag_125:\n        /* \"#utility.yul\":3826:3942   */\n      swap1\n      pop\n        /* \"#utility.yul\":3576:3949   */\n      swap3\n      swap2\n      pop\n      pop\n      jump\t// out\n        /* \"#utility.yul\":3955:4081   */\n    tag_60:\n        /* \"#utility.yul\":3992:3999   */\n      0x00\n        /* \"#utility.yul\":4032:4074   */\n      0xffffffffffffffffffffffffffffffffffffffff\n        /* \"#utility.yul\":4025:4030   */\n      dup3\n        /* \"#utility.yul\":4021:4075   */\n      and\n        /* \"#utility.yul\":4010:4075   */\n      swap1\n      pop\n        /* \"#utility.yul\":3955:4081   */\n      swap2\n      swap1\n      pop\n      jump\t// out\n        /* \"#utility.yul\":4087:4183   */\n    tag_61:\n        /* \"#utility.yul\":4124:4131   */\n      0x00\n        /* \"#utility.yul\":4153:4177   */\n      tag_128\n        /* \"#utility.yul\":4171:4176   */\n      dup3\n        /* \"#utility.yul\":4153:4177   */\n      tag_60\n      jump\t// in\n    tag_128:\n        /* \"#utility.yul\":4142:4177   */\n      swap1\n      pop\n        /* \"#utility.yul\":4087:4183   */\n      swap2\n      swap1\n      pop\n      jump\t// out\n        /* \"#utility.yul\":4189:4311   */\n    tag_62:\n        /* \"#utility.yul\":4262:4286   */\n      tag_130\n        /* \"#utility.yul\":4280:4285   */\n      dup2\n        /* \"#utility.yul\":4262:4286   */\n      tag_61\n      jump\t// in\n    tag_130:\n        /* \"#utility.yul\":4255:4260   */\n      dup2\n        /* \"#utility.yul\":4252:4287   */\n      eq\n        /* \"#utility.yul\":4242:4305   */\n      tag_131\n      jumpi\n        /* \"#utility.yul\":4301:4302   */\n      0x00\n        /* \"#utility.yul\":4298:4299   */\n      0x00\n        /* \"#utility.yul\":4291:4303   */\n      revert\n        /* \"#utility.yul\":4242:4305   */\n    tag_131:\n        /* \"#utility.yul\":4189:4311   */\n      pop\n      jump\t// out\n        /* \"#utility.yul\":4317:4456   */\n    tag_63:\n        /* \"#utility.yul\":4363:4368   */\n      0x00\n        /* \"#utility.yul\":4401:4407   */\n      dup2\n        /* \"#utility.yul\":4388:4408   */\n      calldataload\n        /* \"#utility.yul\":4379:4408   */\n      swap1\n      pop\n        /* \"#utility.yul\":4417:4450   */\n      tag_133\n        /* \"#utility.yul\":4444:4449   */\n      dup2\n        /* \"#utility.yul\":4417:4450   */\n      tag_62\n      jump\t// in\n    tag_133:\n        /* \"#utility.yul\":4317:4456   */\n      swap3\n      swap2\n      pop\n      pop\n      jump\t// out\n        /* \"#utility.yul\":4462:4791   */\n    tag_13:\n        /* \"#utility.yul\":4521:4527   */\n      0x00\n        /* \"#utility.yul\":4570:4572   */\n      0x20\n        /* \"#utility.yul\":4558:4567   */\n      dup3\n        /* \"#utility.yul\":4549:4556   */\n      dup5\n        /* \"#utility.yul\":4545:4568   */\n      sub\n        /* \"#utility.yul\":4541:4573   */\n      slt\n        /* \"#utility.yul\":4538:4657   */\n      iszero\n      tag_135\n      jumpi\n        /* \"#utility.yul\":4576:4655   */\n      tag_136\n      tag_46\n      jump\t// in\n    tag_136:\n        /* \"#utility.yul\":4538:4657   */\n    tag_135:\n        /* \"#utility.yul\":4696:4697   */\n      0x00\n        /* \"#utility.yul\":4721:4774   */\n      tag_137\n        /* \"#utility.yul\":4766:4773   */\n      dup5\n        /* \"#utility.yul\":4757:4763   */\n      dup3\n        /* \"#utility.yul\":4746:4755   */\n      dup6\n        /* \"#utility.yul\":4742:4764   */\n      add\n        /* \"#utility.yul\":4721:4774   */\n      tag_63\n      jump\t// in\n    tag_137:\n        /* \"#utility.yul\":4711:4774   */\n      swap2\n      pop\n        /* \"#utility.yul\":4667:4784   */\n      pop\n        /* \"#utility.yul\":4462:4791   */\n      swap3\n      swap2\n      pop\n      pop\n      jump\t// out\n        /* \"#utility.yul\":4797:4915   */\n    tag_64:\n        /* \"#utility.yul\":4884:4908   */\n      tag_139\n        /* \"#utility.yul\":4902:4907   */\n      dup2\n        /* \"#utility.yul\":4884:4908   */\n      tag_55\n      jump\t// in\n    tag_139:\n        /* \"#utility.yul\":4879:4882   */\n      dup3\n        /* \"#utility.yul\":4872:4909   */\n      mstore\n        /* \"#utility.yul\":4797:4915   */\n      pop\n      pop\n      jump\t// out\n        /* \"#utility.yul\":4921:5020   */\n    tag_65:\n        /* \"#utility.yul\":4973:4979   */\n      0x00\n        /* \"#utility.yul\":5007:5012   */\n      dup2\n        /* \"#utility.yul\":5001:5013   */\n      mload\n        /* \"#utility.yul\":4991:5013   */\n      swap1\n      pop\n        /* \"#utility.yul\":4921:5020   */\n      swap2\n      swap1\n      pop\n      jump\t// out\n        /* \"#utility.yul\":5026:5195   */\n    tag_66:\n        /* \"#utility.yul\":5110:5121   */\n      0x00\n        /* \"#utility.yul\":5144:5150   */\n      dup3\n        /* \"#utility.yul\":5139:5142   */\n      dup3\n        /* \"#utility.yul\":5132:5151   */\n      mstore\n        /* \"#utility.yul\":5184:5188   */\n      0x20\n        /* \"#utility.yul\":5179:5182   */\n      dup3\n        /* \"#utility.yul\":5175:5189   */\n      add\n        /* \"#utility.yul\":5160:5189   */\n      swap1\n      pop\n        /* \"#utility.yul\":5026:5195   */\n      swap3\n      swap2\n      pop\n      pop\n      jump\t// out\n        /* \"#utility.yul\":5201:5340   */\n    tag_67:\n        /* \"#utility.yul\":5290:5296   */\n      dup3\n        /* \"#utility.yul\":5285:5288   */\n      dup2\n        /* \"#utility.yul\":5280:5283   */\n      dup4\n        /* \"#utility.yul\":5274:5297   */\n      mcopy\n        /* \"#utility.yul\":5331:5332   */\n      0x00\n        /* \"#utility.yul\":5322:5328   */\n      dup4\n        /* \"#utility.yul\":5317:5320   */\n      dup4\n        /* \"#utility.yul\":5313:5329   */\n      add\n        /* \"#utility.yul\":5306:5333   */\n      mstore\n        /* \"#utility.yul\":5201:5340   */\n      pop\n      pop\n      pop\n      jump\t// out\n        /* \"#utility.yul\":5346:5448   */\n    tag_68:\n        /* \"#utility.yul\":5387:5393   */\n      0x00\n        /* \"#utility.yul\":5438:5440   */\n      0x1f\n        /* \"#utility.yul\":5434:5441   */\n      not\n        /* \"#utility.yul\":5429:5431   */\n      0x1f\n        /* \"#utility.yul\":5422:5427   */\n      dup4\n        /* \"#utility.yul\":5418:5432   */\n      add\n        /* \"#utility.yul\":5414:5442   */\n      and\n        /* \"#utility.yul\":5404:5442   */\n      swap1\n      pop\n        /* \"#utility.yul\":5346:5448   */\n      swap2\n      swap1\n      pop\n      jump\t// out\n        /* \"#utility.yul\":5454:5831   */\n    tag_69:\n        /* \"#utility.yul\":5542:5545   */\n      0x00\n        /* \"#utility.yul\":5570:5609   */\n      tag_145\n        /* \"#utility.yul\":5603:5608   */\n      dup3\n        /* \"#utility.yul\":5570:5609   */\n      tag_65\n      jump\t// in\n    tag_145:\n        /* \"#utility.yul\":5625:5696   */\n      tag_146\n        /* \"#utility.yul\":5689:5695   */\n      dup2\n        /* \"#utility.yul\":5684:5687   */\n      dup6\n        /* \"#utility.yul\":5625:5696   */\n      tag_66\n      jump\t// in\n    tag_146:\n        /* \"#utility.yul\":5618:5696   */\n      swap4\n      pop\n        /* \"#utility.yul\":5705:5770   */\n      tag_147\n        /* \"#utility.yul\":5763:5769   */\n      dup2\n        /* \"#utility.yul\":5758:5761   */\n      dup6\n        /* \"#utility.yul\":5751:5755   */\n      0x20\n        /* \"#utility.yul\":5744:5749   */\n      dup7\n        /* \"#utility.yul\":5740:5756   */\n      add\n        /* \"#utility.yul\":5705:5770   */\n      tag_67\n      jump\t// in\n    tag_147:\n        /* \"#utility.yul\":5795:5824   */\n      tag_148\n        /* \"#utility.yul\":5817:5823   */\n      dup2\n        /* \"#utility.yul\":5795:5824   */\n      tag_68\n      jump\t// in\n    tag_148:\n        /* \"#utility.yul\":5790:5793   */\n      dup5\n        /* \"#utility.yul\":5786:5825   */\n      add\n        /* \"#utility.yul\":5779:5825   */\n      swap2\n      pop\n        /* \"#utility.yul\":5546:5831   */\n      pop\n        /* \"#utility.yul\":5454:5831   */\n      swap3\n      swap2\n      pop\n      pop\n      jump\t// out\n        /* \"#utility.yul\":5837:6260   */\n    tag_16:\n        /* \"#utility.yul\":5978:5982   */\n      0x00\n        /* \"#utility.yul\":6016:6018   */\n      0x40\n        /* \"#utility.yul\":6005:6014   */\n      dup3\n        /* \"#utility.yul\":6001:6019   */\n      add\n        /* \"#utility.yul\":5993:6019   */\n      swap1\n      pop\n        /* \"#utility.yul\":6029:6100   */\n      tag_150\n        /* \"#utility.yul\":6097:6098   */\n      0x00\n        /* \"#utility.yul\":6086:6095   */\n      dup4\n        /* \"#utility.yul\":6082:6099   */\n      add\n        /* \"#utility.yul\":6073:6079   */\n      dup6\n        /* \"#utility.yul\":6029:6100   */\n      tag_64\n      jump\t// in\n    tag_150:\n        /* \"#utility.yul\":6147:6156   */\n      dup2\n        /* \"#utility.yul\":6141:6145   */\n      dup2\n        /* \"#utility.yul\":6137:6157   */\n      sub\n        /* \"#utility.yul\":6132:6134   */\n      0x20\n        /* \"#utility.yul\":6121:6130   */\n      dup4\n        /* \"#utility.yul\":6117:6135   */\n      add\n        /* \"#utility.yul\":6110:6158   */\n      mstore\n        /* \"#utility.yul\":6175:6253   */\n      tag_151\n        /* \"#utility.yul\":6248:6252   */\n      dup2\n        /* \"#utility.yul\":6239:6245   */\n      dup5\n        /* \"#utility.yul\":6175:6253   */\n      tag_69\n      jump\t// in\n    tag_151:\n        /* \"#utility.yul\":6167:6253   */\n      swap1\n      pop\n        /* \"#utility.yul\":5837:6260   */\n      swap4\n      swap3\n      pop\n      pop\n      pop\n      jump\t// out\n        /* \"#utility.yul\":6266:6446   */\n    tag_31:\n        /* \"#utility.yul\":6314:6391   */\n      0x4e487b7100000000000000000000000000000000000000000000000000000000\n        /* \"#utility.yul\":6311:6312   */\n      0x00\n        /* \"#utility.yul\":6304:6392   */\n      mstore\n        /* \"#utility.yul\":6411:6415   */\n      0x41\n        /* \"#utility.yul\":6408:6409   */\n      0x04\n        /* \"#utility.yul\":6401:6416   */\n      mstore\n        /* \"#utility.yul\":6435:6439   */\n      0x24\n        /* \"#utility.yul\":6432:6433   */\n      0x00\n        /* \"#utility.yul\":6425:6440   */\n      revert\n        /* \"#utility.yul\":6452:6632   */\n    tag_70:\n        /* \"#utility.yul\":6500:6577   */\n      0x4e487b7100000000000000000000000000000000000000000000000000000000\n        /* \"#utility.yul\":6497:6498   */\n      0x00\n        /* \"#utility.yul\":6490:6578   */\n      mstore\n        /* \"#utility.yul\":6597:6601   */\n      0x22\n        /* \"#utility.yul\":6594:6595   */\n      0x04\n        /* \"#utility.yul\":6587:6602   */\n      mstore\n        /* \"#utility.yul\":6621:6625   */\n      0x24\n        /* \"#utility.yul\":6618:6619   */\n      0x00\n        /* \"#utility.yul\":6611:6626   */\n      revert\n        /* \"#utility.yul\":6638:6958   */\n    tag_22:\n        /* \"#utility.yul\":6682:6688   */\n      0x00\n        /* \"#utility.yul\":6719:6720   */\n      0x02\n        /* \"#utility.yul\":6713:6717   */\n      dup3\n        /* \"#utility.yul\":6709:6721   */\n      div\n        /* \"#utility.yul\":6699:6721   */\n      swap1\n      pop\n        /* \"#utility.yul\":6766:6767   */\n      0x01\n        /* \"#utility.yul\":6760:6764   */\n      dup3\n        /* \"#utility.yul\":6756:6768   */\n      and\n        /* \"#utility.yul\":6787:6805   */\n      dup1\n        /* \"#utility.yul\":6777:6858   */\n      tag_155\n      jumpi\n        /* \"#utility.yul\":6843:6847   */\n      0x7f\n        /* \"#utility.yul\":6835:6841   */\n      dup3\n        /* \"#utility.yul\":6831:6848   */\n      and\n        /* \"#utility.yul\":6821:6848   */\n      swap2\n      pop\n        /* \"#utility.yul\":6777:6858   */\n    tag_155:\n        /* \"#utility.yul\":6905:6907   */\n      0x20\n        /* \"#utility.yul\":6897:6903   */\n      dup3\n        /* \"#utility.yul\":6894:6908   */\n      lt\n        /* \"#utility.yul\":6874:6892   */\n      dup2\n        /* \"#utility.yul\":6871:6909   */\n      sub\n        /* \"#utility.yul\":6868:6952   */\n      tag_156\n      jumpi\n        /* \"#utility.yul\":6924:6942   */\n      tag_157\n      tag_70\n      jump\t// in\n    tag_157:\n        /* \"#utility.yul\":6868:6952   */\n    tag_156:\n        /* \"#utility.yul\":6689:6958   */\n      pop\n        /* \"#utility.yul\":6638:6958   */\n      swap2\n      swap1\n      pop\n      jump\t// out\n        /* \"#utility.yul\":6964:7105   */\n    tag_71:\n        /* \"#utility.yul\":7013:7017   */\n      0x00\n        /* \"#utility.yul\":7036:7039   */\n      dup2\n        /* \"#utility.yul\":7028:7039   */\n      swap1\n      pop\n        /* \"#utility.yul\":7059:7062   */\n      dup2\n        /* \"#utility.yul\":7056:7057   */\n      0x00\n        /* \"#utility.yul\":7049:7063   */\n      mstore\n        /* \"#utility.yul\":7093:7097   */\n      0x20\n        /* \"#utility.yul\":7090:7091   */\n      0x00\n        /* \"#utility.yul\":7080:7098   */\n      keccak256\n        /* \"#utility.yul\":7072:7098   */\n      swap1\n      pop\n        /* \"#utility.yul\":6964:7105   */\n      swap2\n      swap1\n      pop\n      jump\t// out\n        /* \"#utility.yul\":7111:7204   */\n    tag_72:\n        /* \"#utility.yul\":7148:7154   */\n      0x00\n        /* \"#utility.yul\":7195:7197   */\n      0x20\n        /* \"#utility.yul\":7190:7192   */\n      0x1f\n        /* \"#utility.yul\":7183:7188   */\n      dup4\n        /* \"#utility.yul\":7179:7193   */\n      add\n        /* \"#utility.yul\":7175:7198   */\n      div\n        /* \"#utility.yul\":7165:7198   */\n      swap1\n      pop\n        /* \"#utility.yul\":7111:7204   */\n      swap2\n      swap1\n      pop\n      jump\t// out\n        /* \"#utility.yul\":7210:7317   */\n    tag_73:\n        /* \"#utility.yul\":7254:7262   */\n      0x00\n        /* \"#utility.yul\":7304:7309   */\n      dup3\n        /* \"#utility.yul\":7298:7302   */\n      dup3\n        /* \"#utility.yul\":7294:7310   */\n      shl\n        /* \"#utility.yul\":7273:7310   */\n      swap1\n      pop\n        /* \"#utility.yul\":7210:7317   */\n      swap3\n      swap2\n      pop\n      pop\n      jump\t// out\n        /* \"#utility.yul\":7323:7716   */\n    tag_74:\n        /* \"#utility.yul\":7392:7398   */\n      0x00\n        /* \"#utility.yul\":7442:7443   */\n      0x08\n        /* \"#utility.yul\":7430:7440   */\n      dup4\n        /* \"#utility.yul\":7426:7444   */\n      mul\n        /* \"#utility.yul\":7465:7562   */\n      tag_162\n        /* \"#utility.yul\":7495:7561   */\n      0xffffffffffffffffffffffffffffffffffffffffffffffffffffffffffffffff\n        /* \"#utility.yul\":7484:7493   */\n      dup3\n        /* \"#utility.yul\":7465:7562   */\n      tag_73\n      jump\t// in\n    tag_162:\n        /* \"#utility.yul\":7583:7622   */\n      tag_163\n        /* \"#utility.yul\":7613:7621   */\n      dup7\n        /* \"#utility.yul\":7602:7611   */\n      dup4\n        /* \"#utility.yul\":7583:7622   */\n      tag_73\n      jump\t// in\n    tag_163:\n        /* \"#utility.yul\":7571:7622   */\n      swap6\n      pop\n        /* \"#utility.yul\":7655:7659   */\n      dup1\n        /* \"#utility.yul\":7651:7660   */\n      not\n        /* \"#utility.yul\":7644:7649   */\n      dup5\n        /* \"#utility.yul\":7640:7661   */\n      and\n        /* \"#utility.yul\":7631:7661   */\n      swap4\n      pop\n        /* \"#utility.yul\":7704:7708   */\n      dup1\n        /* \"#utility.yul\":7694:7702   */\n      dup7\n        /* \"#utility.yul\":7690:7709   */\n      and\n        /* \"#utility.yul\":7683:7688   */\n      dup5\n        /* \"#utility.yul\":7680:7710   */\n      or\n        /* \"#utility.yul\":7670:7710   */\n      swap3\n      pop\n        /* \"#utility.yul\":7399:7716   */\n      pop\n      pop\n        /* \"#utility.yul\":7323:7716   */\n      swap4\n      swap3\n      pop\n      pop\n      pop\n      jump\t// out\n        /* \"#utility.yul\":7722:7782   */\n    tag_75:\n        /* \"#utility.yul\":7750:7753   */\n      0x00\n        /* \"#utility.yul\":7771:7776   */\n      dup2\n        /* \"#utility.yul\":7764:7776   */\n      swap1\n      pop\n        /* \"#utility.yul\":7722:7782   */\n      swap2\n      swap1\n      pop\n      jump\t// out\n        /* \"#utility.yul\":7788:7930   */\n    tag_76:\n        /* \"#utility.yul\":7838:7847   */\n      0x00\n        /* \"#utility.yul\":7871:7924   */\n      tag_166\n        /* \"#utility.yul\":7889:7923   */\n      tag_167\n        /* \"#utility.yul\":7898:7922   */\n      tag_168\n        /* \"#utility.yul\":7916:7921   */\n      dup5\n        /* \"#utility.yul\":7898:7922   */\n      tag_55\n      jump\t// in\n    tag_168:\n        /* \"#utility.yul\":7889:7923   */\n      tag_75\n      jump\t// in\n    tag_167:\n        /* \"#utility.yul\":7871:7924   */\n      tag_55\n      jump\t// in\n    tag_166:\n        /* \"#utility.yul\":7858:7924   */\n      swap1\n      pop\n        /* \"#utility.yul\":7788:7930   */\n      swap2\n      swap1\n      pop\n      jump\t// out\n        /* \"#utility.yul\":7936:8011   */\n    tag_77:\n        /* \"#utility.yul\":7979:7982   */\n      0x00\n        /* \"#utility.yul\":8000:8005   */\n      dup2\n        /* \"#utility.yul\":7993:8005   */\n      swap1\n      pop\n        /* \"#utility.yul\":7936:8011   */\n      swap2\n      swap1\n      pop\n      jump\t// out\n        /* \"#utility.yul\":8017:8286   */\n    tag_78:\n        /* \"#utility.yul\":8127:8166   */\n      tag_171\n        /* \"#utility.yul\":8158:8165   */\n      dup4\n        /* \"#utility.yul\":8127:8166   */\n      tag_76\n      jump\t// in\n    tag_171:\n        /* \"#utility.yul\":8188:8279   */\n      tag_172\n        /* \"#utility.yul\":8237:8278   */\n      tag_173\n        /* \"#utility.yul\":8261:8277   */\n      dup3\n        /* \"#utility.yul\":8237:8278   */\n      tag_77\n      jump\t// in\n    tag_173:\n        /* \"#utility.yul\":8229:8235   */\n      dup5\n        /* \"#utility.yul\":8222:8226   */\n      dup5\n        /* \"#utility.yul\":8216:8227   */\n      sload\n        /* \"#utility.yul\":8188:8279   */\n      tag_74\n      jump\t// in\n    tag_172:\n        /* \"#utility.yul\":8182:8186   */\n      dup3\n        /* \"#utility.yul\":8175:8280   */\n      sstore\n        /* \"#utility.yul\":8093:8286   */\n      pop\n        /* \"#utility.yul\":8017:8286   */\n      pop\n      pop\n      pop\n      jump\t// out\n        /* \"#utility.yul\":8292:8365   */\n    tag_79:\n        /* \"#utility.yul\":8337:8340   */\n      0x00\n        /* \"#utility.yul\":8358:8359   */\n      0x00\n        /* \"#utility.yul\":8351:8359   */\n      swap1\n      pop\n        /* \"#utility.yul\":8292:8365   */\n      swap1\n      jump\t// out\n        /* \"#utility.yul\":8371:8560   */\n    tag_80:\n        /* \"#utility.yul\":8448:8480   */\n      tag_176\n      tag_79\n      jump\t// in\n    tag_176:\n        /* \"#utility.yul\":8489:8554   */\n      tag_177\n        /* \"#utility.yul\":8547:8553   */\n      dup2\n        /* \"#utility.yul\":8539:8545   */\n      dup5\n        /* \"#utility.yul\":8533:8537   */\n      dup5\n        /* \"#utility.yul\":8489:8554   */\n      tag_78\n      jump\t// in\n    tag_177:\n        /* \"#utility.yul\":8424:8560   */\n      pop\n        /* \"#utility.yul\":8371:8560   */\n      pop\n      pop\n      jump\t// out\n        /* \"#utility.yul\":8566:8752   */\n    tag_81:\n        /* \"#utility.yul\":8626:8746   */\n    tag_179:\n        /* \"#utility.yul\":8643:8646   */\n      dup2\n        /* \"#utility.yul\":8636:8641   */\n      dup2\n        /* \"#utility.yul\":8633:8647   */\n      lt\n        /* \"#utility.yul\":8626:8746   */\n      iszero\n      tag_181\n      jumpi\n        /* \"#utility.yul\":8697:8736   */\n      tag_182\n        /* \"#utility.yul\":8734:8735   */\n      0x00\n        /* \"#utility.yul\":8727:8732   */\n      dup3\n        /* \"#utility.yul\":8697:8736   */\n      tag_80\n      jump\t// in\n    tag_182:\n        /* \"#utility.yul\":8670:8671   */\n      0x01\n        /* \"#utility.yul\":8663:8668   */\n      dup2\n        /* \"#utility.yul\":8659:8672   */\n      add\n        /* \"#utility.yul\":8650:8672   */\n      swap1\n      pop\n        /* \"#utility.yul\":8626:8746   */\n      jump(tag_179)\n    tag_181:\n        /* \"#utility.yul\":8566:8752   */\n      pop\n      pop\n      jump\t// out\n        /* \"#utility.yul\":8758:9301   */\n    tag_82:\n        /* \"#utility.yul\":8859:8861   */\n      0x1f\n        /* \"#utility.yul\":8854:8857   */\n      dup3\n        /* \"#utility.yul\":8851:8862   */\n      gt\n        /* \"#utility.yul\":8848:9294   */\n      iszero\n      tag_184\n      jumpi\n        /* \"#utility.yul\":8893:8931   */\n      tag_185\n        /* \"#utility.yul\":8925:8930   */\n      dup2\n        /* \"#utility.yul\":8893:8931   */\n      tag_71\n      jump\t// in\n    tag_185:\n        /* \"#utility.yul\":8977:9006   */\n      tag_186\n        /* \"#utility.yul\":8995:9005   */\n      dup5\n        /* \"#utility.yul\":8977:9006   */\n      tag_72\n      jump\t// in\n    tag_186:\n        /* \"#utility.yul\":8967:8975   */\n      dup2\n        /* \"#utility.yul\":8963:9007   */\n      add\n        /* \"#utility.yul\":9160:9162   */\n      0x20\n        /* \"#utility.yul\":9148:9158   */\n      dup6\n        /* \"#utility.yul\":9145:9163   */\n      lt\n        /* \"#utility.yul\":9142:9191   */\n      iszero\n      tag_187\n      jumpi\n        /* \"#utility.yul\":9181:9189   */\n      dup2\n        /* \"#utility.yul\":9166:9189   */\n      swap1\n      pop\n        /* \"#utility.yul\":9142:9191   */\n    tag_187:\n        /* \"#utility.yul\":9204:9284   */\n      tag_188\n        /* \"#utility.yul\":9260:9282   */\n      tag_189\n        /* \"#utility.yul\":9278:9281   */\n      dup6\n        /* \"#utility.yul\":9260:9282   */\n      tag_72\n      jump\t// in\n    tag_189:\n        /* \"#utility.yul\":9250:9258   */\n      dup4\n        /* \"#utility.yul\":9246:9283   */\n      add\n        /* \"#utility.yul\":9233:9244   */\n      dup3\n        /* \"#utility.yul\":9204:9284   */\n      tag_81\n      jump\t// in\n    tag_188:\n        /* \"#utility.yul\":8863:9294   */\n      pop\n      pop\n        /* \"#utility.yul\":8848:9294   */\n    tag_184:\n        /* \"#utility.yul\":8758:9301   */\n      pop\n      pop\n      pop\n      jump\t// out\n        /* \"#utility.yul\":9307:9424   */\n    tag_83:\n        /* \"#utility.yul\":9361:9369   */\n      0x00\n        /* \"#utility.yul\":9411:9416   */\n      dup3\n        /* \"#utility.yul\":9405:9409   */\n      dup3\n        /* \"#utility.yul\":9401:9417   */\n      shr\n        /* \"#utility.yul\":9380:9417   */\n      swap1\n      pop\n        /* \"#utility.yul\":9307:9424   */\n      swap3\n      swap2\n      pop\n      pop\n      jump\t// out\n        /* \"#utility.yul\":9430:9599   */\n    tag_84:\n        /* \"#utility.yul\":9474:9480   */\n      0x00\n        /* \"#utility.yul\":9507:9558   */\n      tag_192\n        /* \"#utility.yul\":9555:9556   */\n      0x00\n        /* \"#utility.yul\":9551:9557   */\n      not\n        /* \"#utility.yul\":9543:9548   */\n      dup5\n        /* \"#utility.yul\":9540:9541   */\n      0x08\n        /* \"#utility.yul\":9536:9549   */\n      mul\n        /* \"#utility.yul\":9507:9558   */\n      tag_83\n      jump\t// in\n    tag_192:\n        /* \"#utility.yul\":9503:9559   */\n      not\n        /* \"#utility.yul\":9588:9592   */\n      dup1\n        /* \"#utility.yul\":9582:9586   */\n      dup4\n        /* \"#utility.yul\":9578:9593   */\n      and\n        /* \"#utility.yul\":9568:9593   */\n      swap2\n      pop\n        /* \"#utility.yul\":9481:9599   */\n      pop\n        /* \"#utility.yul\":9430:9599   */\n      swap3\n      swap2\n      pop\n      pop\n      jump\t// out\n        /* \"#utility.yul\":9604:9899   */\n    tag_85:\n        /* \"#utility.yul\":9680:9684   */\n      0x00\n        /* \"#utility.yul\":9826:9855   */\n      tag_194\n        /* \"#utility.yul\":9851:9854   */\n      dup4\n        /* \"#utility.yul\":9845:9849   */\n      dup4\n        /* \"#utility.yul\":9826:9855   */\n      tag_84\n      jump\t// in\n    tag_194:\n        /* \"#utility.yul\":9818:9855   */\n      swap2\n      pop\n        /* \"#utility.yul\":9888:9891   */\n      dup3\n        /* \"#utility.yul\":9885:9886   */\n      0x02\n        /* \"#utility.yul\":9881:9892   */\n      mul\n        /* \"#utility.yul\":9875:9879   */\n      dup3\n        /* \"#utility.yul\":9872:9893   */\n      or\n        /* \"#utility.yul\":9864:9893   */\n      swap1\n      pop\n        /* \"#utility.yul\":9604:9899   */\n      swap3\n      swap2\n      pop\n      pop\n      jump\t// out\n        /* \"#utility.yul\":9904:11299   */\n    tag_19:\n        /* \"#utility.yul\":10021:10058   */\n      tag_196\n        /* \"#utility.yul\":10054:10057   */\n      dup3\n        /* \"#utility.yul\":10021:10058   */\n      tag_65\n      jump\t// in\n    tag_196:\n        /* \"#utility.yul\":10123:10141   */\n      0xffffffffffffffff\n        /* \"#utility.yul\":10115:10121   */\n      dup2\n        /* \"#utility.yul\":10112:10142   */\n      gt\n        /* \"#utility.yul\":10109:10165   */\n      iszero\n      tag_197\n      jumpi\n        /* \"#utility.yul\":10145:10163   */\n      tag_198\n      tag_31\n      jump\t// in\n    tag_198:\n        /* \"#utility.yul\":10109:10165   */\n    tag_197:\n        /* \"#utility.yul\":10189:10227   */\n      tag_199\n        /* \"#utility.yul\":10221:10225   */\n      dup3\n        /* \"#utility.yul\":10215:10226   */\n      sload\n        /* \"#utility.yul\":10189:10227   */\n      tag_22\n      jump\t// in\n    tag_199:\n        /* \"#utility.yul\":10274:10341   */\n      tag_200\n        /* \"#utility.yul\":10334:10340   */\n      dup3\n        /* \"#utility.yul\":10326:10332   */\n      dup3\n        /* \"#utility.yul\":10320:10324   */\n      dup6\n        /* \"#utility.yul\":10274:10341   */\n      tag_82\n      jump\t// in\n    tag_200:\n        /* \"#utility.yul\":10368:10369   */\n      0x00\n        /* \"#utility.yul\":10392:10396   */\n      0x20\n        /* \"#utility.yul\":10379:10396   */\n      swap1\n      pop\n        /* \"#utility.yul\":10424:10426   */\n      0x1f\n        /* \"#utility.yul\":10416:10422   */\n      dup4\n        /* \"#utility.yul\":10413:10427   */\n      gt\n        /* \"#utility.yul\":10441:10442   */\n      0x01\n        /* \"#utility.yul\":10436:11054   */\n      dup2\n      eq\n      tag_202\n      jumpi\n        /* \"#utility.yul\":11098:11099   */\n      0x00\n        /* \"#utility.yul\":11115:11121   */\n      dup5\n        /* \"#utility.yul\":11112:11189   */\n      iszero\n      tag_203\n      jumpi\n        /* \"#utility.yul\":11164:11173   */\n      dup3\n        /* \"#utility.yul\":11159:11162   */\n      dup8\n        /* \"#utility.yul\":11155:11174   */\n      add\n        /* \"#utility.yul\":11149:11175   */\n      mload\n        /* \"#utility.yul\":11140:11175   */\n      swap1\n      pop\n        /* \"#utility.yul\":11112:11189   */\n    tag_203:\n        /* \"#utility.yul\":11215:11282   */\n      tag_204\n        /* \"#utility.yul\":11275:11281   */\n      dup6\n        /* \"#utility.yul\":11268:11273   */\n      dup3\n        /* \"#utility.yul\":11215:11282   */\n      tag_85\n      jump\t// in\n    tag_204:\n        /* \"#utility.yul\":11209:11213   */\n      dup7\n        /* \"#utility.yul\":11202:11283   */\n      sstore\n        /* \"#utility.yul\":11071:11293   */\n      pop\n        /* \"#utility.yul\":10406:11293   */\n      jump(tag_201)\n        /* \"#utility.yul\":10436:11054   */\n    tag_202:\n        /* \"#utility.yul\":10488:10492   */\n      0x1f\n        /* \"#utility.yul\":10484:10493   */\n      not\n        /* \"#utility.yul\":10476:10482   */\n      dup5\n        /* \"#utility.yul\":10472:10494   */\n      and\n        /* \"#utility.yul\":10522:10559   */\n      tag_205\n        /* \"#utility.yul\":10554:10558   */\n      dup7\n        /* \"#utility.yul\":10522:10559   */\n      tag_71\n      jump\t// in\n    tag_205:\n        /* \"#utility.yul\":10581:10582   */\n      0x00\n        /* \"#utility.yul\":10595:10803   */\n    tag_206:\n        /* \"#utility.yul\":10609:10616   */\n      dup3\n        /* \"#utility.yul\":10606:10607   */\n      dup2\n        /* \"#utility.yul\":10603:10617   */\n      lt\n        /* \"#utility.yul\":10595:10803   */\n      iszero\n      tag_208\n      jumpi\n        /* \"#utility.yul\":10688:10697   */\n      dup5\n        /* \"#utility.yul\":10683:10686   */\n      dup10\n        /* \"#utility.yul\":10679:10698   */\n      add\n        /* \"#utility.yul\":10673:10699   */\n      mload\n        /* \"#utility.yul\":10665:10671   */\n      dup3\n        /* \"#utility.yul\":10658:10700   */\n      sstore\n        /* \"#utility.yul\":10739:10740   */\n      0x01\n        /* \"#utility.yul\":10731:10737   */\n      dup3\n        /* \"#utility.yul\":10727:10741   */\n      add\n        /* \"#utility.yul\":10717:10741   */\n      swap2\n      pop\n        /* \"#utility.yul\":10786:10788   */\n      0x20\n        /* \"#utility.yul\":10775:10784   */\n      dup6\n        /* \"#utility.yul\":10771:10789   */\n      add\n        /* \"#utility.yul\":10758:10789   */\n      swap5\n      pop\n        /* \"#utility.yul\":10632:10636   */\n      0x20\n        /* \"#utility.yul\":10629:10630   */\n      dup2\n        /* \"#utility.yul\":10625:10637   */\n      add\n        /* \"#utility.yul\":10620:10637   */\n      swap1\n      pop\n        /* \"#utility.yul\":10595:10803   */\n      jump(tag_206)\n    tag_208:\n        /* \"#utility.yul\":10831:10837   */\n      dup7\n        /* \"#utility.yul\":10822:10829   */\n      dup4\n        /* \"#utility.yul\":10819:10838   */\n      lt\n        /* \"#utility.yul\":10816:10995   */\n      iszero\n      tag_209\n      jumpi\n        /* \"#utility.yul\":10889:10898   */\n      dup5\n        /* \"#utility.yul\":10884:10887   */\n      dup10\n        /* \"#utility.yul\":10880:10899   */\n      add\n        /* \"#utility.yul\":10874:10900   */\n      mload\n        /* \"#utility.yul\":10932:10980   */\n      tag_210\n        /* \"#utility.yul\":10974:10978   */\n      0x1f\n        /* \"#utility.yul\":10966:10972   */\n      dup10\n        /* \"#utility.yul\":10962:10979   */\n      and\n        /* \"#utility.yul\":10951:10960   */\n      dup3\n        /* \"#utility.yul\":10932:10980   */\n      tag_84\n      jump\t// in\n    tag_210:\n        /* \"#utility.yul\":10924:10930   */\n      dup4\n        /* \"#utility.yul\":10917:10981   */\n      sstore\n        /* \"#utility.yul\":10839:10995   */\n      pop\n        /* \"#utility.yul\":10816:10995   */\n    tag_209:\n        /* \"#utility.yul\":11041:11042   */\n      0x01\n        /* \"#utility.yul\":11037:11038   */\n      0x02\n        /* \"#utility.yul\":11029:11035   */\n      dup9\n        /* \"#utility.yul\":11025:11039   */\n      mul\n        /* \"#utility.yul\":11021:11043   */\n      add\n        /* \"#utility.yul\":11015:11019   */\n      dup9\n        /* \"#utility.yul\":11008:11044   */\n      sstore\n        /* \"#utility.yul\":10443:11054   */\n      pop\n      pop\n      pop\n        /* \"#utility.yul\":10406:11293   */\n    tag_201:\n      pop\n        /* \"#utility.yul\":9996:11299   */\n      pop\n      pop\n      pop\n        /* \"#utility.yul\":9904:11299   */\n      pop\n      pop\n      jump\t// out\n        /* \"#utility.yul\":11305:11485   */\n    tag_35:\n        /* \"#utility.yul\":11353:11430   */\n      0x4e487b7100000000000000000000000000000000000000000000000000000000\n        /* \"#utility.yul\":11350:11351   */\n      0x00\n        /* \"#utility.yul\":11343:11431   */\n      mstore\n        /* \"#utility.yul\":11450:11454   */\n      0x32\n        /* \"#utility.yul\":11447:11448   */\n      0x04\n        /* \"#utility.yul\":11440:11455   */\n      mstore\n        /* \"#utility.yul\":11474:11478   */\n      0x24\n        /* \"#utility.yul\":11471:11472   */\n      0x00\n        /* \"#utility.yul\":11464:11479   */\n      revert\n\n    auxdata: 0xa26469706673582212206d7df735da61db468a4b1ca9760909f9b061c63bba1ef54ad64c84e79db4e0ab64736f6c634300081e0033\n}\n",
				"bytecode": {
					"linkReferences": {},
					"object": "6080604052348015600e575f5ffd5b50610a308061001c5f395ff3fe608060405234801561000f575f5ffd5b5060043610610034575f3560e01c80634fd58b1914610038578063b43c5d3314610068575b5f5ffd5b610052600480360381019061004d9190610477565b610099565b60405161005f9190610582565b60405180910390f35b610082600480360381019061007d91906105fc565b61033b565b6040516100909291906106a6565b60405180910390f35b60606040518060400160405280607b81526020016040518060400160405280600381526020017f62617200000000000000000000000000000000000000000000000000000000008152508152505f5f3373ffffffffffffffffffffffffffffffffffffffff1673ffffffffffffffffffffffffffffffffffffffff1681526020019081526020015f205f820151815f0155602082015181600101908161013f91906108fe565b509050505f5f5f3373ffffffffffffffffffffffffffffffffffffffff1673ffffffffffffffffffffffffffffffffffffffff1681526020019081526020015f2090506040518060400160405280600381526020017f666f6f00000000000000000000000000000000000000000000000000000000008152508160010190816101c891906108fe565b505f5f5f3373ffffffffffffffffffffffffffffffffffffffff1673ffffffffffffffffffffffffffffffffffffffff1681526020019081526020015f206040518060400160405290815f820154815260200160018201805461022a9061072e565b80601f01602080910402602001604051908101604052809291908181526020018280546102569061072e565b80156102a15780601f10610278576101008083540402835291602001916102a1565b820191905f5260205f20905b81548152906001019060200180831161028457829003601f168201915b50505050508152505090506101c8815f0181815250506102c185856103e0565b5f600367ffffffffffffffff8111156102dd576102dc6106d4565b5b60405190808252806020026020018201604052801561030b5781602001602082028036833780820191505090505b50905060ea815f81518110610323576103226109cd565b5b60200260200101818152505080935050505092915050565b5f602052805f5260405f205f91509050805f01549080600101805461035f9061072e565b80601f016020809104026020016040519081016040528092919081815260200182805461038b9061072e565b80156103d65780601f106103ad576101008083540402835291602001916103d6565b820191905f5260205f20905b8154815290600101906020018083116103b957829003601f168201915b5050505050905082565b5f82829050111561040a575f82825f8181106103ff576103fe6109cd565b5b905060200201359050505b5050565b5f5ffd5b5f5ffd5b5f5ffd5b5f5ffd5b5f5ffd5b5f5f83601f84011261043757610436610416565b5b8235905067ffffffffffffffff8111156104545761045361041a565b5b6020830191508360208202830111156104705761046f61041e565b5b9250929050565b5f5f6020838503121561048d5761048c61040e565b5b5f83013567ffffffffffffffff8111156104aa576104a9610412565b5b6104b685828601610422565b92509250509250929050565b5f81519050919050565b5f82825260208201905092915050565b5f819050602082019050919050565b5f819050919050565b6104fd816104eb565b82525050565b5f61050e83836104f4565b60208301905092915050565b5f602082019050919050565b5f610530826104c2565b61053a81856104cc565b9350610545836104dc565b805f5b8381101561057557815161055c8882610503565b97506105678361051a565b925050600181019050610548565b5085935050505092915050565b5f6020820190508181035f83015261059a8184610526565b905092915050565b5f73ffffffffffffffffffffffffffffffffffffffff82169050919050565b5f6105cb826105a2565b9050919050565b6105db816105c1565b81146105e5575f5ffd5b50565b5f813590506105f6816105d2565b92915050565b5f602082840312156106115761061061040e565b5b5f61061e848285016105e8565b91505092915050565b610630816104eb565b82525050565b5f81519050919050565b5f82825260208201905092915050565b8281835e5f83830152505050565b5f601f19601f8301169050919050565b5f61067882610636565b6106828185610640565b9350610692818560208601610650565b61069b8161065e565b840191505092915050565b5f6040820190506106b95f830185610627565b81810360208301526106cb818461066e565b90509392505050565b7f4e487b71000000000000000000000000000000000000000000000000000000005f52604160045260245ffd5b7f4e487b71000000000000000000000000000000000000000000000000000000005f52602260045260245ffd5b5f600282049050600182168061074557607f821691505b60208210810361075857610757610701565b5b50919050565b5f819050815f5260205f209050919050565b5f6020601f8301049050919050565b5f82821b905092915050565b5f600883026107ba7fffffffffffffffffffffffffffffffffffffffffffffffffffffffffffffffff8261077f565b6107c4868361077f565b95508019841693508086168417925050509392505050565b5f819050919050565b5f6107ff6107fa6107f5846104eb565b6107dc565b6104eb565b9050919050565b5f819050919050565b610818836107e5565b61082c61082482610806565b84845461078b565b825550505050565b5f5f905090565b610843610834565b61084e81848461080f565b505050565b5b81811015610871576108665f8261083b565b600181019050610854565b5050565b601f8211156108b6576108878161075e565b61089084610770565b8101602085101561089f578190505b6108b36108ab85610770565b830182610853565b50505b505050565b5f82821c905092915050565b5f6108d65f19846008026108bb565b1980831691505092915050565b5f6108ee83836108c7565b9150826002028217905092915050565b61090782610636565b67ffffffffffffffff8111156109205761091f6106d4565b5b61092a825461072e565b610935828285610875565b5f60209050601f831160018114610966575f8415610954578287015190505b61095e85826108e3565b8655506109c5565b601f1984166109748661075e565b5f5b8281101561099b57848901518255600182019150602085019450602081019050610976565b868310156109b857848901516109b4601f8916826108c7565b8355505b6001600288020188555050505b505050505050565b7f4e487b71000000000000000000000000000000000000000000000000000000005f52603260045260245ffdfea26469706673582212206d7df735da61db468a4b1ca9760909f9b061c63bba1ef54ad64c84e79db4e0ab64736f6c634300081e0033",
					"opcodes": "PUSH1 0x80 PUSH1 0x40 MSTORE CALLVALUE DUP1 ISZERO PUSH1 0xE JUMPI PUSH0 PUSH0 REVERT JUMPDEST POP PUSH2 0xA30 DUP1 PUSH2 0x1C PUSH0 CODECOPY PUSH0 RETURN INVALID PUSH1 0x80 PUSH1 0x40 MSTORE CALLVALUE DUP1 ISZERO PUSH2 0xF JUMPI PUSH0 PUSH0 REVERT JUMPDEST POP PUSH1 0x4 CALLDATASIZE LT PUSH2 0x34 JUMPI PUSH0 CALLDATALOAD PUSH1 0xE0 SHR DUP1 PUSH4 0x4FD58B19 EQ PUSH2 0x38 JUMPI DUP1 PUSH4 0xB43C5D33 EQ PUSH2 0x68 JUMPI JUMPDEST PUSH0 PUSH0 REVERT JUMPDEST PUSH2 0x52 PUSH1 0x4 DUP1 CALLDATASIZE SUB DUP2 ADD SWAP1 PUSH2 0x4D SWAP2 SWAP1 PUSH2 0x477 JUMP JUMPDEST PUSH2 0x99 JUMP JUMPDEST PUSH1 0x40 MLOAD PUSH2 0x5F SWAP2 SWAP1 PUSH2 0x582 JUMP JUMPDEST PUSH1 0x40 MLOAD DUP1 SWAP2 SUB SWAP1 RETURN JUMPDEST PUSH2 0x82 PUSH1 0x4 DUP1 CALLDATASIZE SUB DUP2 ADD SWAP1 PUSH2 0x7D SWAP2 SWAP1 PUSH2 0x5FC JUMP JUMPDEST PUSH2 0x33B JUMP JUMPDEST PUSH1 0x40 MLOAD PUSH2 0x90 SWAP3 SWAP2 SWAP1 PUSH2 0x6A6 JUMP JUMPDEST PUSH1 0x40 MLOAD DUP1 SWAP2 SUB SWAP1 RETURN JUMPDEST PUSH1 0x60 PUSH1 0x40 MLOAD DUP1 PUSH1 0x40 ADD PUSH1 0x40 MSTORE DUP1 PUSH1 0x7B DUP2 MSTORE PUSH1 0x20 ADD PUSH1 0x40 MLOAD DUP1 PUSH1 0x40 ADD PUSH1 0x40 MSTORE DUP1 PUSH1 0x3 DUP2 MSTORE PUSH1 0x20 ADD PUSH32 0x6261720000000000000000000000000000000000000000000000000000000000 DUP2 MSTORE POP DUP2 MSTORE POP PUSH0 PUSH0 CALLER PUSH20 0xFFFFFFFFFFFFFFFFFFFFFFFFFFFFFFFFFFFFFFFF AND PUSH20 0xFFFFFFFFFFFFFFFFFFFFFFFFFFFFFFFFFFFFFFFF AND DUP2 MSTORE PUSH1 0x20 ADD SWAP1 DUP2 MSTORE PUSH1 0x20 ADD PUSH0 KECCAK256 PUSH0 DUP3 ADD MLOAD DUP2 PUSH0 ADD SSTORE PUSH1 0x20 DUP3 ADD MLOAD DUP2 PUSH1 0x1 ADD SWAP1 DUP2 PUSH2 0x13F SWAP2 SWAP1 PUSH2 0x8FE JUMP JUMPDEST POP SWAP1 POP POP PUSH0 PUSH0 PUSH0 CALLER PUSH20 0xFFFFFFFFFFFFFFFFFFFFFFFFFFFFFFFFFFFFFFFF AND PUSH20 0xFFFFFFFFFFFFFFFFFFFFFFFFFFFFFFFFFFFFFFFF AND DUP2 MSTORE PUSH1 0x20 ADD SWAP1 DUP2 MSTORE PUSH1 0x20 ADD PUSH0 KECCAK256 SWAP1 POP PUSH1 0x40 MLOAD DUP1 PUSH1 0x40 ADD PUSH1 0x40 MSTORE DUP1 PUSH1 0x3 DUP2 MSTORE PUSH1 0x20 ADD PUSH32 0x666F6F0000000000000000000000000000000000000000000000000000000000 DUP2 MSTORE POP DUP2 PUSH1 0x1 ADD SWAP1 DUP2 PUSH2 0x1C8 SWAP2 SWAP1 PUSH2 0x8FE JUMP JUMPDEST POP PUSH0 PUSH0 PUSH0 CALLER PUSH20 0xFFFFFFFFFFFFFFFFFFFFFFFFFFFFFFFFFFFFFFFF AND PUSH20 0xFFFFFFFFFFFFFFFFFFFFFFFFFFFFFFFFFFFFFFFF AND DUP2 MSTORE PUSH1 0x20 ADD SWAP1 DUP2 MSTORE PUSH1 0x20 ADD PUSH0 KECCAK256 PUSH1 0x40 MLOAD DUP1 PUSH1 0x40 ADD PUSH1 0x40 MSTORE SWAP1 DUP2 PUSH0 DUP3 ADD SLOAD DUP2 MSTORE PUSH1 0x20 ADD PUSH1 0x1 DUP3 ADD DUP1 SLOAD PUSH2 0x22A SWAP1 PUSH2 0x72E JUMP JUMPDEST DUP1 PUSH1 0x1F ADD PUSH1 0x20 DUP1 SWAP2 DIV MUL PUSH1 0x20 ADD PUSH1 0x40 MLOAD SWAP1 DUP2 ADD PUSH1 0x40 MSTORE DUP1 SWAP3 SWAP2 SWAP1 DUP2 DUP2 MSTORE PUSH1 0x20 ADD DUP3 DUP1 SLOAD PUSH2 0x256 SWAP1 PUSH2 0x72E JUMP JUMPDEST DUP1 ISZERO PUSH2 0x2A1 JUMPI DUP1 PUSH1 0x1F LT PUSH2 0x278 JUMPI PUSH2 0x100 DUP1 DUP4 SLOAD DIV MUL DUP4 MSTORE SWAP2 PUSH1 0x20 ADD SWAP2 PUSH2 0x2A1 JUMP JUMPDEST DUP3 ADD SWAP2 SWAP1 PUSH0 MSTORE PUSH1 0x20 PUSH0 KECCAK256 SWAP1 JUMPDEST DUP2 SLOAD DUP2 MSTORE SWAP1 PUSH1 0x1 ADD SWAP1 PUSH1 0x20 ADD DUP1 DUP4 GT PUSH2 0x284 JUMPI DUP3 SWAP1 SUB PUSH1 0x1F AND DUP3 ADD SWAP2 JUMPDEST POP POP POP POP POP DUP2 MSTORE POP POP SWAP1 POP PUSH2 0x1C8 DUP2 PUSH0 ADD DUP2 DUP2 MSTORE POP POP PUSH2 0x2C1 DUP6 DUP6 PUSH2 0x3E0 JUMP JUMPDEST PUSH0 PUSH1 0x3 PUSH8 0xFFFFFFFFFFFFFFFF DUP2 GT ISZERO PUSH2 0x2DD JUMPI PUSH2 0x2DC PUSH2 0x6D4 JUMP JUMPDEST JUMPDEST PUSH1 0x40 MLOAD SWAP1 DUP1 DUP3 MSTORE DUP1 PUSH1 0x20 MUL PUSH1 0x20 ADD DUP3 ADD PUSH1 0x40 MSTORE DUP1 ISZERO PUSH2 0x30B JUMPI DUP2 PUSH1 0x20 ADD PUSH1 0x20 DUP3 MUL DUP1 CALLDATASIZE DUP4 CALLDATACOPY DUP1 DUP3 ADD SWAP2 POP POP SWAP1 POP JUMPDEST POP SWAP1 POP PUSH1 0xEA DUP2 PUSH0 DUP2 MLOAD DUP2 LT PUSH2 0x323 JUMPI PUSH2 0x322 PUSH2 0x9CD JUMP JUMPDEST JUMPDEST PUSH1 0x20 MUL PUSH1 0x20 ADD ADD DUP2 DUP2 MSTORE POP POP DUP1 SWAP4 POP POP POP POP SWAP3 SWAP2 POP POP JUMP JUMPDEST PUSH0 PUSH1 0x20 MSTORE DUP1 PUSH0 MSTORE PUSH1 0x40 PUSH0 KECCAK256 PUSH0 SWAP2 POP SWAP1 POP DUP1 PUSH0 ADD SLOAD SWAP1 DUP1 PUSH1 0x1 ADD DUP1 SLOAD PUSH2 0x35F SWAP1 PUSH2 0x72E JUMP JUMPDEST DUP1 PUSH1 0x1F ADD PUSH1 0x20 DUP1 SWAP2 DIV MUL PUSH1 0x20 ADD PUSH1 0x40 MLOAD SWAP1 DUP2 ADD PUSH1 0x40 MSTORE DUP1 SWAP3 SWAP2 SWAP1 DUP2 DUP2 MSTORE PUSH1 0x20 ADD DUP3 DUP1 SLOAD PUSH2 0x38B SWAP1 PUSH2 0x72E JUMP JUMPDEST DUP1 ISZERO PUSH2 0x3D6 JUMPI DUP1 PUSH1 0x1F LT PUSH2 0x3AD JUMPI PUSH2 0x100 DUP1 DUP4 SLOAD DIV MUL DUP4 MSTORE SWAP2 PUSH1 0x20 ADD SWAP2 PUSH2 0x3D6 JUMP JUMPDEST DUP3 ADD SWAP2 SWAP1 PUSH0 MSTORE PUSH1 0x20 PUSH0 KECCAK256 SWAP1 JUMPDEST DUP2 SLOAD DUP2 MSTORE SWAP1 PUSH1 0x1 ADD SWAP1 PUSH1 0x20 ADD DUP1 DUP4 GT PUSH2 0x3B9 JUMPI DUP3 SWAP1 SUB PUSH1 0x1F AND DUP3 ADD SWAP2 JUMPDEST POP POP POP POP POP SWAP1 POP DUP3 JUMP JUMPDEST PUSH0 DUP3 DUP3 SWAP1 POP GT ISZERO PUSH2 0x40A JUMPI PUSH0 DUP3 DUP3 PUSH0 DUP2 DUP2 LT PUSH2 0x3FF JUMPI PUSH2 0x3FE PUSH2 0x9CD JUMP JUMPDEST JUMPDEST SWAP1 POP PUSH1 0x20 MUL ADD CALLDATALOAD SWAP1 POP POP JUMPDEST POP POP JUMP JUMPDEST PUSH0 PUSH0 REVERT JUMPDEST PUSH0 PUSH0 REVERT JUMPDEST PUSH0 PUSH0 REVERT JUMPDEST PUSH0 PUSH0 REVERT JUMPDEST PUSH0 PUSH0 REVERT JUMPDEST PUSH0 PUSH0 DUP4 PUSH1 0x1F DUP5 ADD SLT PUSH2 0x437 JUMPI PUSH2 0x436 PUSH2 0x416 JUMP JUMPDEST JUMPDEST DUP3 CALLDATALOAD SWAP1 POP PUSH8 0xFFFFFFFFFFFFFFFF DUP2 GT ISZERO PUSH2 0x454 JUMPI PUSH2 0x453 PUSH2 0x41A JUMP JUMPDEST JUMPDEST PUSH1 0x20 DUP4 ADD SWAP2 POP DUP4 PUSH1 0x20 DUP3 MUL DUP4 ADD GT ISZERO PUSH2 0x470 JUMPI PUSH2 0x46F PUSH2 0x41E JUMP JUMPDEST JUMPDEST SWAP3 POP SWAP3 SWAP1 POP JUMP JUMPDEST PUSH0 PUSH0 PUSH1 0x20 DUP4 DUP6 SUB SLT ISZERO PUSH2 0x48D JUMPI PUSH2 0x48C PUSH2 0x40E JUMP JUMPDEST JUMPDEST PUSH0 DUP4 ADD CALLDATALOAD PUSH8 0xFFFFFFFFFFFFFFFF DUP2 GT ISZERO PUSH2 0x4AA JUMPI PUSH2 0x4A9 PUSH2 0x412 JUMP JUMPDEST JUMPDEST PUSH2 0x4B6 DUP6 DUP3 DUP7 ADD PUSH2 0x422 JUMP JUMPDEST SWAP3 POP SWAP3 POP POP SWAP3 POP SWAP3 SWAP1 POP JUMP JUMPDEST PUSH0 DUP2 MLOAD SWAP1 POP SWAP2 SWAP1 POP JUMP JUMPDEST PUSH0 DUP3 DUP3 MSTORE PUSH1 0x20 DUP3 ADD SWAP1 POP SWAP3 SWAP2 POP POP JUMP JUMPDEST PUSH0 DUP2 SWAP1 POP PUSH1 0x20 DUP3 ADD SWAP1 POP SWAP2 SWAP1 POP JUMP JUMPDEST PUSH0 DUP2 SWAP1 POP SWAP2 SWAP1 POP JUMP JUMPDEST PUSH2 0x4FD DUP2 PUSH2 0x4EB JUMP JUMPDEST DUP3 MSTORE POP POP JUMP JUMPDEST PUSH0 PUSH2 0x50E DUP4 DUP4 PUSH2 0x4F4 JUMP JUMPDEST PUSH1 0x20 DUP4 ADD SWAP1 POP SWAP3 SWAP2 POP POP JUMP JUMPDEST PUSH0 PUSH1 0x20 DUP3 ADD SWAP1 POP SWAP2 SWAP1 POP JUMP JUMPDEST PUSH0 PUSH2 0x530 DUP3 PUSH2 0x4C2 JUMP JUMPDEST PUSH2 0x53A DUP2 DUP6 PUSH2 0x4CC JUMP JUMPDEST SWAP4 POP PUSH2 0x545 DUP4 PUSH2 0x4DC JUMP JUMPDEST DUP1 PUSH0 JUMPDEST DUP4 DUP2 LT ISZERO PUSH2 0x575 JUMPI DUP2 MLOAD PUSH2 0x55C DUP9 DUP3 PUSH2 0x503 JUMP JUMPDEST SWAP8 POP PUSH2 0x567 DUP4 PUSH2 0x51A JUMP JUMPDEST SWAP3 POP POP PUSH1 0x1 DUP2 ADD SWAP1 POP PUSH2 0x548 JUMP JUMPDEST POP DUP6 SWAP4 POP POP POP POP SWAP3 SWAP2 POP POP JUMP JUMPDEST PUSH0 PUSH1 0x20 DUP3 ADD SWAP1 POP DUP2 DUP2 SUB PUSH0 DUP4 ADD MSTORE PUSH2 0x59A DUP2 DUP5 PUSH2 0x526 JUMP JUMPDEST SWAP1 POP SWAP3 SWAP2 POP POP JUMP JUMPDEST PUSH0 PUSH20 0xFFFFFFFFFFFFFFFFFFFFFFFFFFFFFFFFFFFFFFFF DUP3 AND SWAP1 POP SWAP2 SWAP1 POP JUMP JUMPDEST PUSH0 PUSH2 0x5CB DUP3 PUSH2 0x5A2 JUMP JUMPDEST SWAP1 POP SWAP2 SWAP1 POP JUMP JUMPDEST PUSH2 0x5DB DUP2 PUSH2 0x5C1 JUMP JUMPDEST DUP2 EQ PUSH2 0x5E5 JUMPI PUSH0 PUSH0 REVERT JUMPDEST POP JUMP JUMPDEST PUSH0 DUP2 CALLDATALOAD SWAP1 POP PUSH2 0x5F6 DUP2 PUSH2 0x5D2 JUMP JUMPDEST SWAP3 SWAP2 POP POP JUMP JUMPDEST PUSH0 PUSH1 0x20 DUP3 DUP5 SUB SLT ISZERO PUSH2 0x611 JUMPI PUSH2 0x610 PUSH2 0x40E JUMP JUMPDEST JUMPDEST PUSH0 PUSH2 0x61E DUP5 DUP3 DUP6 ADD PUSH2 0x5E8 JUMP JUMPDEST SWAP2 POP POP SWAP3 SWAP2 POP POP JUMP JUMPDEST PUSH2 0x630 DUP2 PUSH2 0x4EB JUMP JUMPDEST DUP3 MSTORE POP POP JUMP JUMPDEST PUSH0 DUP2 MLOAD SWAP1 POP SWAP2 SWAP1 POP JUMP JUMPDEST PUSH0 DUP3 DUP3 MSTORE PUSH1 0x20 DUP3 ADD SWAP1 POP SWAP3 SWAP2 POP POP JUMP JUMPDEST DUP3 DUP2 DUP4 MCOPY PUSH0 DUP4 DUP4 ADD MSTORE POP POP POP JUMP JUMPDEST PUSH0 PUSH1 0x1F NOT PUSH1 0x1F DUP4 ADD AND SWAP1 POP SWAP2 SWAP1 POP JUMP JUMPDEST PUSH0 PUSH2 0x678 DUP3 PUSH2 0x636 JUMP JUMPDEST PUSH2 0x682 DUP2 DUP6 PUSH2 0x640 JUMP JUMPDEST SWAP4 POP PUSH2 0x692 DUP2 DUP6 PUSH1 0x20 DUP7 ADD PUSH2 0x650 JUMP JUMPDEST PUSH2 0x69B DUP2 PUSH2 0x65E JUMP JUMPDEST DUP5 ADD SWAP2 POP POP SWAP3 SWAP2 POP POP JUMP JUMPDEST PUSH0 PUSH1 0x40 DUP3 ADD SWAP1 POP PUSH2 0x6B9 PUSH0 DUP4 ADD DUP6 PUSH2 0x627 JUMP JUMPDEST DUP2 DUP2 SUB PUSH1 0x20 DUP4 ADD MSTORE PUSH2 0x6CB DUP2 DUP5 PUSH2 0x66E JUMP JUMPDEST SWAP1 POP SWAP4 SWAP3 POP POP POP JUMP JUMPDEST PUSH32 0x4E487B7100000000000000000000000000000000000000000000000000000000 PUSH0 MSTORE PUSH1 0x41 PUSH1 0x4 MSTORE PUSH1 0x24 PUSH0 REVERT JUMPDEST PUSH32 0x4E487B7100000000000000000000000000000000000000000000000000000000 PUSH0 MSTORE PUSH1 0x22 PUSH1 0x4 MSTORE PUSH1 0x24 PUSH0 REVERT JUMPDEST PUSH0 PUSH1 0x2 DUP3 DIV SWAP1 POP PUSH1 0x1 DUP3 AND DUP1 PUSH2 0x745 JUMPI PUSH1 0x7F DUP3 AND SWAP2 POP JUMPDEST PUSH1 0x20 DUP3 LT DUP2 SUB PUSH2 0x758 JUMPI PUSH2 0x757 PUSH2 0x701 JUMP JUMPDEST JUMPDEST POP SWAP2 SWAP1 POP JUMP JUMPDEST PUSH0 DUP2 SWAP1 POP DUP2 PUSH0 MSTORE PUSH1 0x20 PUSH0 KECCAK256 SWAP1 POP SWAP2 SWAP1 POP JUMP JUMPDEST PUSH0 PUSH1 0x20 PUSH1 0x1F DUP4 ADD DIV SWAP1 POP SWAP2 SWAP1 POP JUMP JUMPDEST PUSH0 DUP3 DUP3 SHL SWAP1 POP SWAP3 SWAP2 POP POP JUMP JUMPDEST PUSH0 PUSH1 0x8 DUP4 MUL PUSH2 0x7BA PUSH32 0xFFFFFFFFFFFFFFFFFFFFFFFFFFFFFFFFFFFFFFFFFFFFFFFFFFFFFFFFFFFFFFFF DUP3 PUSH2 0x77F JUMP JUMPDEST PUSH2 0x7C4 DUP7 DUP4 PUSH2 0x77F JUMP JUMPDEST SWAP6 POP DUP1 NOT DUP5 AND SWAP4 POP DUP1 DUP7 AND DUP5 OR SWAP3 POP POP POP SWAP4 SWAP3 POP POP POP JUMP JUMPDEST PUSH0 DUP2 SWAP1 POP SWAP2 SWAP1 POP JUMP JUMPDEST PUSH0 PUSH2 0x7FF PUSH2 0x7FA PUSH2 0x7F5 DUP5 PUSH2 0x4EB JUMP JUMPDEST PUSH2 0x7DC JUMP JUMPDEST PUSH2 0x4EB JUMP JUMPDEST SWAP1 POP SWAP2 SWAP1 POP JUMP JUMPDEST PUSH0 DUP2 SWAP1 POP SWAP2 SWAP1 POP JUMP JUMPDEST PUSH2 0x818 DUP4 PUSH2 0x7E5 JUMP JUMPDEST PUSH2 0x82C PUSH2 0x824 DUP3 PUSH2 0x806 JUMP JUMPDEST DUP5 DUP5 SLOAD PUSH2 0x78B JUMP JUMPDEST DUP3 SSTORE POP POP POP POP JUMP JUMPDEST PUSH0 PUSH0 SWAP1 POP SWAP1 JUMP JUMPDEST PUSH2 0x843 PUSH2 0x834 JUMP JUMPDEST PUSH2 0x84E DUP2 DUP5 DUP5 PUSH2 0x80F JUMP JUMPDEST POP POP POP JUMP JUMPDEST JUMPDEST DUP2 DUP2 LT ISZERO PUSH2 0x871 JUMPI PUSH2 0x866 PUSH0 DUP3 PUSH2 0x83B JUMP JUMPDEST PUSH1 0x1 DUP2 ADD SWAP1 POP PUSH2 0x854 JUMP JUMPDEST POP POP JUMP JUMPDEST PUSH1 0x1F DUP3 GT ISZERO PUSH2 0x8B6 JUMPI PUSH2 0x887 DUP2 PUSH2 0x75E JUMP JUMPDEST PUSH2 0x890 DUP5 PUSH2 0x770 JUMP JUMPDEST DUP2 ADD PUSH1 0x20 DUP6 LT ISZERO PUSH2 0x89F JUMPI DUP2 SWAP1 POP JUMPDEST PUSH2 0x8B3 PUSH2 0x8AB DUP6 PUSH2 0x770 JUMP JUMPDEST DUP4 ADD DUP3 PUSH2 0x853 JUMP JUMPDEST POP POP JUMPDEST POP POP POP JUMP JUMPDEST PUSH0 DUP3 DUP3 SHR SWAP1 POP SWAP3 SWAP2 POP POP JUMP JUMPDEST PUSH0 PUSH2 0x8D6 PUSH0 NOT DUP5 PUSH1 0x8 MUL PUSH2 0x8BB JUMP JUMPDEST NOT DUP1 DUP4 AND SWAP2 POP POP SWAP3 SWAP2 POP POP JUMP JUMPDEST PUSH0 PUSH2 0x8EE DUP4 DUP4 PUSH2 0x8C7 JUMP JUMPDEST SWAP2 POP DUP3 PUSH1 0x2 MUL DUP3 OR SWAP1 POP SWAP3 SWAP2 POP POP JUMP JUMPDEST PUSH2 0x907 DUP3 PUSH2 0x636 JUMP JUMPDEST PUSH8 0xFFFFFFFFFFFFFFFF DUP2 GT ISZERO PUSH2 0x920 JUMPI PUSH2 0x91F PUSH2 0x6D4 JUMP JUMPDEST JUMPDEST PUSH2 0x92A DUP3 SLOAD PUSH2 0x72E JUMP JUMPDEST PUSH2 0x935 DUP3 DUP3 DUP6 PUSH2 0x875 JUMP JUMPDEST PUSH0 PUSH1 0x20 SWAP1 POP PUSH1 0x1F DUP4 GT PUSH1 0x1 DUP2 EQ PUSH2 0x966 JUMPI PUSH0 DUP5 ISZERO PUSH2 0x954 JUMPI DUP3 DUP8 ADD MLOAD SWAP1 POP JUMPDEST PUSH2 0x95E DUP6 DUP3 PUSH2 0x8E3 JUMP JUMPDEST DUP7 SSTORE POP PUSH2 0x9C5 JUMP JUMPDEST PUSH1 0x1F NOT DUP5 AND PUSH2 0x974 DUP7 PUSH2 0x75E JUMP JUMPDEST PUSH0 JUMPDEST DUP3 DUP2 LT ISZERO PUSH2 0x99B JUMPI DUP5 DUP10 ADD MLOAD DUP3 SSTORE PUSH1 0x1 DUP3 ADD SWAP2 POP PUSH1 0x20 DUP6 ADD SWAP5 POP PUSH1 0x20 DUP2 ADD SWAP1 POP PUSH2 0x976 JUMP JUMPDEST DUP7 DUP4 LT ISZERO PUSH2 0x9B8 JUMPI DUP5 DUP10 ADD MLOAD PUSH2 0x9B4 PUSH1 0x1F DUP10 AND DUP3 PUSH2 0x8C7 JUMP JUMPDEST DUP4 SSTORE POP JUMPDEST PUSH1 0x1 PUSH1 0x2 DUP9 MUL ADD DUP9 SSTORE POP POP POP JUMPDEST POP POP POP POP POP POP JUMP JUMPDEST PUSH32 0x4E487B7100000000000000000000000000000000000000000000000000000000 PUSH0 MSTORE PUSH1 0x32 PUSH1 0x4 MSTORE PUSH1 0x24 PUSH0 REVERT INVALID LOG2 PUSH5 0x6970667358 0x22 SLT KECCAK256 PUSH14 0x7DF735DA61DB468A4B1CA9760909 EXTDELEGATECALL 0xB0 PUSH2 0xC63B 0xBA 0x1E CREATE2 BLOBBASEFEE 0xD6 0x4C DUP5 SWAPN 0x9D 0xB4 RJUMP 0xAB64 PUSH20 0x6F6C634300081E00330000000000000000000000 "
				},
				"gasEstimates": {
					"creation": {
						"codeDepositCost": "521600",
						"executionCost": "554",
						"totalCost": "522154"
					},
					"external": {
						"examples(uint256[])": "infinite",
						"myStructs(address)": "infinite"
					},
					"internal": {
						"_internal(uint256[] calldata)": "108"
					}
				},
				"methodIdentifiers": {
					"examples(uint256[])": "4fd58b19",
					"myStructs(address)": "b43c5d33"
				}
			},
			"storageLayout": {
				"storage": [
					{
						"astId": 11,
						"contract": "DaraLocations.sol:DataLocations",
						"label": "myStructs",
						"offset": 0,
						"slot": "0",
						"type": "t_mapping(t_address,t_struct(MyStruct)6_storage)"
					}
				],
				"types": {
					"t_address": {
						"encoding": "inplace",
						"label": "address",
						"numberOfBytes": "20"
					},
					"t_mapping(t_address,t_struct(MyStruct)6_storage)": {
						"encoding": "mapping",
						"key": "t_address",
						"label": "mapping(address => struct DataLocations.MyStruct)",
						"numberOfBytes": "32",
						"value": "t_struct(MyStruct)6_storage"
					},
					"t_string_storage": {
						"encoding": "bytes",
						"label": "string",
						"numberOfBytes": "32"
					},
					"t_struct(MyStruct)6_storage": {
						"encoding": "inplace",
						"label": "struct DataLocations.MyStruct",
						"members": [
							{
								"astId": 3,
								"contract": "DaraLocations.sol:DataLocations",
								"label": "foo",
								"offset": 0,
								"slot": "0",
								"type": "t_uint256"
							},
							{
								"astId": 5,
								"contract": "DaraLocations.sol:DataLocations",
								"label": "text",
								"offset": 0,
								"slot": "1",
								"type": "t_string_storage"
							}
						],
						"numberOfBytes": "64"
					},
					"t_uint256": {
						"encoding": "inplace",
						"label": "uint256",
						"numberOfBytes": "32"
					}
				}
			},
			"userdoc": {
				"kind": "user",
				"methods": {},
				"version": 1
			}
		}
	}
}