{
	"DefaultValues.sol": {
		"DefaultValues": {
			"abi": [
				{
					"inputs": [],
					"name": "a",
					"outputs": [
						{
							"internalType": "address",
							"name": "",
							"type": "address"
						}
					],
					"stateMutability": "view",
					"type": "function"
				},
				{
					"inputs": [
						{
							"internalType": "uint256",
							"name": "",
							"type": "uint256"
						}
					],
					"name": "arr",
					"outputs": [
						{
							"internalType": "uint256",
							"name": "",
							"type": "uint256"
						}
					],
					"stateMutability": "view",
					"type": "function"
				},
				{
					"inputs": [],
					"name": "b32",
					"outputs": [
						{
							"internalType": "bytes32",
							"name": "",
							"type": "bytes32"
						}
					],
					"stateMutability": "view",
					"type": "function"
				},
				{
					"inputs": [],
					"name": "i",
					"outputs": [
						{
							"internalType": "int256",
							"name": "",
							"type": "int256"
						}
					],
					"stateMutability": "view",
					"type": "function"
				},
				{
					"inputs": [
						{
							"internalType": "int256",
							"name": "",
							"type": "int256"
						}
					],
					"name": "m",
					"outputs": [
						{
							"internalType": "string",
							"name": "",
							"type": "string"
						}
					],
					"stateMutability": "view",
					"type": "function"
				},
				{
					"inputs": [],
					"name": "u",
					"outputs": [
						{
							"internalType": "uint256",
							"name": "",
							"type": "uint256"
						}
					],
					"stateMutability": "view",
					"type": "function"
				}
			],
			"devdoc": {
				"kind": "dev",
				"methods": {},
				"version": 1
			},
			"evm": {
				"assembly": "    /* \"DefaultValues.sol\":60:362  contract DefaultValues {\r... */\n  mstore(0x40, 0x80)\n  callvalue\n  dup1\n  iszero\n  tag_1\n  jumpi\n  0x00\n  dup1\n  revert\ntag_1:\n  pop\n  dataSize(sub_0)\n  dup1\n  dataOffset(sub_0)\n  0x00\n  codecopy\n  0x00\n  return\nstop\n\nsub_0: assembly {\n        /* \"DefaultValues.sol\":60:362  contract DefaultValues {\r... */\n      mstore(0x40, 0x80)\n      callvalue\n      dup1\n      iszero\n      tag_1\n      jumpi\n      0x00\n      dup1\n      revert\n    tag_1:\n      pop\n      jumpi(tag_2, lt(calldatasize, 0x04))\n      shr(0xe0, calldataload(0x00))\n      dup1\n      0x0dbe671f\n      eq\n      tag_3\n      jumpi\n      dup1\n      0x59e9ec60\n      eq\n      tag_4\n      jumpi\n      dup1\n      0x71e5ee5f\n      eq\n      tag_5\n      jumpi\n      dup1\n      0xc6a898c5\n      eq\n      tag_6\n      jumpi\n      dup1\n      0xe5aa3d58\n      eq\n      tag_7\n      jumpi\n      dup1\n      0xf8aab238\n      eq\n      tag_8\n      jumpi\n    tag_2:\n      0x00\n      dup1\n      revert\n        /* \"DefaultValues.sol\":150:166  address public a */\n    tag_3:\n      tag_9\n      tag_10\n      jump\t// in\n    tag_9:\n      mload(0x40)\n      tag_11\n      swap2\n      swap1\n      tag_12\n      jump\t// in\n    tag_11:\n      mload(0x40)\n      dup1\n      swap2\n      sub\n      swap1\n      return\n        /* \"DefaultValues.sol\":201:232  mapping(int => string) public m */\n    tag_4:\n      tag_13\n      0x04\n      dup1\n      calldatasize\n      sub\n      dup2\n      add\n      swap1\n      tag_14\n      swap2\n      swap1\n      tag_15\n      jump\t// in\n    tag_14:\n      tag_16\n      jump\t// in\n    tag_13:\n      mload(0x40)\n      tag_17\n      swap2\n      swap1\n      tag_18\n      jump\t// in\n    tag_17:\n      mload(0x40)\n      dup1\n      swap2\n      sub\n      swap1\n      return\n        /* \"DefaultValues.sol\":239:256  uint[] public arr */\n    tag_5:\n      tag_19\n      0x04\n      dup1\n      calldatasize\n      sub\n      dup2\n      add\n      swap1\n      tag_20\n      swap2\n      swap1\n      tag_21\n      jump\t// in\n    tag_20:\n      tag_22\n      jump\t// in\n    tag_19:\n      mload(0x40)\n      tag_23\n      swap2\n      swap1\n      tag_24\n      jump\t// in\n    tag_23:\n      mload(0x40)\n      dup1\n      swap2\n      sub\n      swap1\n      return\n        /* \"DefaultValues.sol\":111:124  uint public u */\n    tag_6:\n      tag_25\n      tag_26\n      jump\t// in\n    tag_25:\n      mload(0x40)\n      tag_27\n      swap2\n      swap1\n      tag_24\n      jump\t// in\n    tag_27:\n      mload(0x40)\n      dup1\n      swap2\n      sub\n      swap1\n      return\n        /* \"DefaultValues.sol\":131:143  int public i */\n    tag_7:\n      tag_28\n      tag_29\n      jump\t// in\n    tag_28:\n      mload(0x40)\n      tag_30\n      swap2\n      swap1\n      tag_31\n      jump\t// in\n    tag_30:\n      mload(0x40)\n      dup1\n      swap2\n      sub\n      swap1\n      return\n        /* \"DefaultValues.sol\":173:191  bytes32 public b32 */\n    tag_8:\n      tag_32\n      tag_33\n      jump\t// in\n    tag_32:\n      mload(0x40)\n      tag_34\n      swap2\n      swap1\n      tag_35\n      jump\t// in\n    tag_34:\n      mload(0x40)\n      dup1\n      swap2\n      sub\n      swap1\n      return\n        /* \"DefaultValues.sol\":150:166  address public a */\n    tag_10:\n      0x03\n      0x00\n      swap1\n      sload\n      swap1\n      0x0100\n      exp\n      swap1\n      div\n      0xffffffffffffffffffffffffffffffffffffffff\n      and\n      dup2\n      jump\t// out\n        /* \"DefaultValues.sol\":201:232  mapping(int => string) public m */\n    tag_16:\n      mstore(0x20, 0x05)\n      dup1\n      0x00\n      mstore\n      keccak256(0x00, 0x40)\n      0x00\n      swap2\n      pop\n      swap1\n      pop\n      dup1\n      sload\n      tag_36\n      swap1\n      tag_37\n      jump\t// in\n    tag_36:\n      dup1\n      0x1f\n      add\n      0x20\n      dup1\n      swap2\n      div\n      mul\n      0x20\n      add\n      mload(0x40)\n      swap1\n      dup2\n      add\n      0x40\n      mstore\n      dup1\n      swap3\n      swap2\n      swap1\n      dup2\n      dup2\n      mstore\n      0x20\n      add\n      dup3\n      dup1\n      sload\n      tag_38\n      swap1\n      tag_37\n      jump\t// in\n    tag_38:\n      dup1\n      iszero\n      tag_39\n      jumpi\n      dup1\n      0x1f\n      lt\n      tag_40\n      jumpi\n      0x0100\n      dup1\n      dup4\n      sload\n      div\n      mul\n      dup4\n      mstore\n      swap2\n      0x20\n      add\n      swap2\n      jump(tag_39)\n    tag_40:\n      dup3\n      add\n      swap2\n      swap1\n      0x00\n      mstore\n      keccak256(0x00, 0x20)\n      swap1\n    tag_41:\n      dup2\n      sload\n      dup2\n      mstore\n      swap1\n      0x01\n      add\n      swap1\n      0x20\n      add\n      dup1\n      dup4\n      gt\n      tag_41\n      jumpi\n      dup3\n      swap1\n      sub\n      0x1f\n      and\n      dup3\n      add\n      swap2\n    tag_39:\n      pop\n      pop\n      pop\n      pop\n      pop\n      dup2\n      jump\t// out\n        /* \"DefaultValues.sol\":239:256  uint[] public arr */\n    tag_22:\n      0x06\n      dup2\n      dup2\n      sload\n      dup2\n      lt\n      tag_42\n      jumpi\n      0x00\n      dup1\n      revert\n    tag_42:\n      swap1\n      0x00\n      mstore\n      keccak256(0x00, 0x20)\n      add\n      0x00\n      swap2\n      pop\n      swap1\n      pop\n      sload\n      dup2\n      jump\t// out\n        /* \"DefaultValues.sol\":111:124  uint public u */\n    tag_26:\n      sload(0x01)\n      dup2\n      jump\t// out\n        /* \"DefaultValues.sol\":131:143  int public i */\n    tag_29:\n      sload(0x02)\n      dup2\n      jump\t// out\n        /* \"DefaultValues.sol\":173:191  bytes32 public b32 */\n    tag_33:\n      sload(0x04)\n      dup2\n      jump\t// out\n        /* \"#utility.yul\":7:144   */\n    tag_45:\n        /* \"#utility.yul\":52:57   */\n      0x00\n        /* \"#utility.yul\":90:96   */\n      dup2\n        /* \"#utility.yul\":77:97   */\n      calldataload\n        /* \"#utility.yul\":68:97   */\n      swap1\n      pop\n        /* \"#utility.yul\":106:138   */\n      tag_47\n        /* \"#utility.yul\":132:137   */\n      dup2\n        /* \"#utility.yul\":106:138   */\n      tag_48\n      jump\t// in\n    tag_47:\n        /* \"#utility.yul\":7:144   */\n      swap3\n      swap2\n      pop\n      pop\n      jump\t// out\n        /* \"#utility.yul\":150:289   */\n    tag_49:\n        /* \"#utility.yul\":196:201   */\n      0x00\n        /* \"#utility.yul\":234:240   */\n      dup2\n        /* \"#utility.yul\":221:241   */\n      calldataload\n        /* \"#utility.yul\":212:241   */\n      swap1\n      pop\n        /* \"#utility.yul\":250:283   */\n      tag_51\n        /* \"#utility.yul\":277:282   */\n      dup2\n        /* \"#utility.yul\":250:283   */\n      tag_52\n      jump\t// in\n    tag_51:\n        /* \"#utility.yul\":150:289   */\n      swap3\n      swap2\n      pop\n      pop\n      jump\t// out\n        /* \"#utility.yul\":295:622   */\n    tag_15:\n        /* \"#utility.yul\":353:359   */\n      0x00\n        /* \"#utility.yul\":402:404   */\n      0x20\n        /* \"#utility.yul\":390:399   */\n      dup3\n        /* \"#utility.yul\":381:388   */\n      dup5\n        /* \"#utility.yul\":377:400   */\n      sub\n        /* \"#utility.yul\":373:405   */\n      slt\n        /* \"#utility.yul\":370:489   */\n      iszero\n      tag_54\n      jumpi\n        /* \"#utility.yul\":408:487   */\n      tag_55\n      tag_56\n      jump\t// in\n    tag_55:\n        /* \"#utility.yul\":370:489   */\n    tag_54:\n        /* \"#utility.yul\":528:529   */\n      0x00\n        /* \"#utility.yul\":553:605   */\n      tag_57\n        /* \"#utility.yul\":597:604   */\n      dup5\n        /* \"#utility.yul\":588:594   */\n      dup3\n        /* \"#utility.yul\":577:586   */\n      dup6\n        /* \"#utility.yul\":573:595   */\n      add\n        /* \"#utility.yul\":553:605   */\n      tag_45\n      jump\t// in\n    tag_57:\n        /* \"#utility.yul\":543:605   */\n      swap2\n      pop\n        /* \"#utility.yul\":499:615   */\n      pop\n        /* \"#utility.yul\":295:622   */\n      swap3\n      swap2\n      pop\n      pop\n      jump\t// out\n        /* \"#utility.yul\":628:957   */\n    tag_21:\n        /* \"#utility.yul\":687:693   */\n      0x00\n        /* \"#utility.yul\":736:738   */\n      0x20\n        /* \"#utility.yul\":724:733   */\n      dup3\n        /* \"#utility.yul\":715:722   */\n      dup5\n        /* \"#utility.yul\":711:734   */\n      sub\n        /* \"#utility.yul\":707:739   */\n      slt\n        /* \"#utility.yul\":704:823   */\n      iszero\n      tag_59\n      jumpi\n        /* \"#utility.yul\":742:821   */\n      tag_60\n      tag_56\n      jump\t// in\n    tag_60:\n        /* \"#utility.yul\":704:823   */\n    tag_59:\n        /* \"#utility.yul\":862:863   */\n      0x00\n        /* \"#utility.yul\":887:940   */\n      tag_61\n        /* \"#utility.yul\":932:939   */\n      dup5\n        /* \"#utility.yul\":923:929   */\n      dup3\n        /* \"#utility.yul\":912:921   */\n      dup6\n        /* \"#utility.yul\":908:930   */\n      add\n        /* \"#utility.yul\":887:940   */\n      tag_49\n      jump\t// in\n    tag_61:\n        /* \"#utility.yul\":877:940   */\n      swap2\n      pop\n        /* \"#utility.yul\":833:950   */\n      pop\n        /* \"#utility.yul\":628:957   */\n      swap3\n      swap2\n      pop\n      pop\n      jump\t// out\n        /* \"#utility.yul\":963:1081   */\n    tag_62:\n        /* \"#utility.yul\":1050:1074   */\n      tag_64\n        /* \"#utility.yul\":1068:1073   */\n      dup2\n        /* \"#utility.yul\":1050:1074   */\n      tag_65\n      jump\t// in\n    tag_64:\n        /* \"#utility.yul\":1045:1048   */\n      dup3\n        /* \"#utility.yul\":1038:1075   */\n      mstore\n        /* \"#utility.yul\":963:1081   */\n      pop\n      pop\n      jump\t// out\n        /* \"#utility.yul\":1087:1205   */\n    tag_66:\n        /* \"#utility.yul\":1174:1198   */\n      tag_68\n        /* \"#utility.yul\":1192:1197   */\n      dup2\n        /* \"#utility.yul\":1174:1198   */\n      tag_69\n      jump\t// in\n    tag_68:\n        /* \"#utility.yul\":1169:1172   */\n      dup3\n        /* \"#utility.yul\":1162:1199   */\n      mstore\n        /* \"#utility.yul\":1087:1205   */\n      pop\n      pop\n      jump\t// out\n        /* \"#utility.yul\":1211:1326   */\n    tag_70:\n        /* \"#utility.yul\":1296:1319   */\n      tag_72\n        /* \"#utility.yul\":1313:1318   */\n      dup2\n        /* \"#utility.yul\":1296:1319   */\n      tag_73\n      jump\t// in\n    tag_72:\n        /* \"#utility.yul\":1291:1294   */\n      dup3\n        /* \"#utility.yul\":1284:1320   */\n      mstore\n        /* \"#utility.yul\":1211:1326   */\n      pop\n      pop\n      jump\t// out\n        /* \"#utility.yul\":1332:1696   */\n    tag_74:\n        /* \"#utility.yul\":1420:1423   */\n      0x00\n        /* \"#utility.yul\":1448:1487   */\n      tag_76\n        /* \"#utility.yul\":1481:1486   */\n      dup3\n        /* \"#utility.yul\":1448:1487   */\n      tag_77\n      jump\t// in\n    tag_76:\n        /* \"#utility.yul\":1503:1574   */\n      tag_78\n        /* \"#utility.yul\":1567:1573   */\n      dup2\n        /* \"#utility.yul\":1562:1565   */\n      dup6\n        /* \"#utility.yul\":1503:1574   */\n      tag_79\n      jump\t// in\n    tag_78:\n        /* \"#utility.yul\":1496:1574   */\n      swap4\n      pop\n        /* \"#utility.yul\":1583:1635   */\n      tag_80\n        /* \"#utility.yul\":1628:1634   */\n      dup2\n        /* \"#utility.yul\":1623:1626   */\n      dup6\n        /* \"#utility.yul\":1616:1620   */\n      0x20\n        /* \"#utility.yul\":1609:1614   */\n      dup7\n        /* \"#utility.yul\":1605:1621   */\n      add\n        /* \"#utility.yul\":1583:1635   */\n      tag_81\n      jump\t// in\n    tag_80:\n        /* \"#utility.yul\":1660:1689   */\n      tag_82\n        /* \"#utility.yul\":1682:1688   */\n      dup2\n        /* \"#utility.yul\":1660:1689   */\n      tag_83\n      jump\t// in\n    tag_82:\n        /* \"#utility.yul\":1655:1658   */\n      dup5\n        /* \"#utility.yul\":1651:1690   */\n      add\n        /* \"#utility.yul\":1644:1690   */\n      swap2\n      pop\n        /* \"#utility.yul\":1424:1696   */\n      pop\n        /* \"#utility.yul\":1332:1696   */\n      swap3\n      swap2\n      pop\n      pop\n      jump\t// out\n        /* \"#utility.yul\":1702:1820   */\n    tag_84:\n        /* \"#utility.yul\":1789:1813   */\n      tag_86\n        /* \"#utility.yul\":1807:1812   */\n      dup2\n        /* \"#utility.yul\":1789:1813   */\n      tag_87\n      jump\t// in\n    tag_86:\n        /* \"#utility.yul\":1784:1787   */\n      dup3\n        /* \"#utility.yul\":1777:1814   */\n      mstore\n        /* \"#utility.yul\":1702:1820   */\n      pop\n      pop\n      jump\t// out\n        /* \"#utility.yul\":1826:2048   */\n    tag_12:\n        /* \"#utility.yul\":1919:1923   */\n      0x00\n        /* \"#utility.yul\":1957:1959   */\n      0x20\n        /* \"#utility.yul\":1946:1955   */\n      dup3\n        /* \"#utility.yul\":1942:1960   */\n      add\n        /* \"#utility.yul\":1934:1960   */\n      swap1\n      pop\n        /* \"#utility.yul\":1970:2041   */\n      tag_89\n        /* \"#utility.yul\":2038:2039   */\n      0x00\n        /* \"#utility.yul\":2027:2036   */\n      dup4\n        /* \"#utility.yul\":2023:2040   */\n      add\n        /* \"#utility.yul\":2014:2020   */\n      dup5\n        /* \"#utility.yul\":1970:2041   */\n      tag_62\n      jump\t// in\n    tag_89:\n        /* \"#utility.yul\":1826:2048   */\n      swap3\n      swap2\n      pop\n      pop\n      jump\t// out\n        /* \"#utility.yul\":2054:2276   */\n    tag_35:\n        /* \"#utility.yul\":2147:2151   */\n      0x00\n        /* \"#utility.yul\":2185:2187   */\n      0x20\n        /* \"#utility.yul\":2174:2183   */\n      dup3\n        /* \"#utility.yul\":2170:2188   */\n      add\n        /* \"#utility.yul\":2162:2188   */\n      swap1\n      pop\n        /* \"#utility.yul\":2198:2269   */\n      tag_91\n        /* \"#utility.yul\":2266:2267   */\n      0x00\n        /* \"#utility.yul\":2255:2264   */\n      dup4\n        /* \"#utility.yul\":2251:2268   */\n      add\n        /* \"#utility.yul\":2242:2248   */\n      dup5\n        /* \"#utility.yul\":2198:2269   */\n      tag_66\n      jump\t// in\n    tag_91:\n        /* \"#utility.yul\":2054:2276   */\n      swap3\n      swap2\n      pop\n      pop\n      jump\t// out\n        /* \"#utility.yul\":2282:2500   */\n    tag_31:\n        /* \"#utility.yul\":2373:2377   */\n      0x00\n        /* \"#utility.yul\":2411:2413   */\n      0x20\n        /* \"#utility.yul\":2400:2409   */\n      dup3\n        /* \"#utility.yul\":2396:2414   */\n      add\n        /* \"#utility.yul\":2388:2414   */\n      swap1\n      pop\n        /* \"#utility.yul\":2424:2493   */\n      tag_93\n        /* \"#utility.yul\":2490:2491   */\n      0x00\n        /* \"#utility.yul\":2479:2488   */\n      dup4\n        /* \"#utility.yul\":2475:2492   */\n      add\n        /* \"#utility.yul\":2466:2472   */\n      dup5\n        /* \"#utility.yul\":2424:2493   */\n      tag_70\n      jump\t// in\n    tag_93:\n        /* \"#utility.yul\":2282:2500   */\n      swap3\n      swap2\n      pop\n      pop\n      jump\t// out\n        /* \"#utility.yul\":2506:2819   */\n    tag_18:\n        /* \"#utility.yul\":2619:2623   */\n      0x00\n        /* \"#utility.yul\":2657:2659   */\n      0x20\n        /* \"#utility.yul\":2646:2655   */\n      dup3\n        /* \"#utility.yul\":2642:2660   */\n      add\n        /* \"#utility.yul\":2634:2660   */\n      swap1\n      pop\n        /* \"#utility.yul\":2706:2715   */\n      dup2\n        /* \"#utility.yul\":2700:2704   */\n      dup2\n        /* \"#utility.yul\":2696:2716   */\n      sub\n        /* \"#utility.yul\":2692:2693   */\n      0x00\n        /* \"#utility.yul\":2681:2690   */\n      dup4\n        /* \"#utility.yul\":2677:2694   */\n      add\n        /* \"#utility.yul\":2670:2717   */\n      mstore\n        /* \"#utility.yul\":2734:2812   */\n      tag_95\n        /* \"#utility.yul\":2807:2811   */\n      dup2\n        /* \"#utility.yul\":2798:2804   */\n      dup5\n        /* \"#utility.yul\":2734:2812   */\n      tag_74\n      jump\t// in\n    tag_95:\n        /* \"#utility.yul\":2726:2812   */\n      swap1\n      pop\n        /* \"#utility.yul\":2506:2819   */\n      swap3\n      swap2\n      pop\n      pop\n      jump\t// out\n        /* \"#utility.yul\":2825:3047   */\n    tag_24:\n        /* \"#utility.yul\":2918:2922   */\n      0x00\n        /* \"#utility.yul\":2956:2958   */\n      0x20\n        /* \"#utility.yul\":2945:2954   */\n      dup3\n        /* \"#utility.yul\":2941:2959   */\n      add\n        /* \"#utility.yul\":2933:2959   */\n      swap1\n      pop\n        /* \"#utility.yul\":2969:3040   */\n      tag_97\n        /* \"#utility.yul\":3037:3038   */\n      0x00\n        /* \"#utility.yul\":3026:3035   */\n      dup4\n        /* \"#utility.yul\":3022:3039   */\n      add\n        /* \"#utility.yul\":3013:3019   */\n      dup5\n        /* \"#utility.yul\":2969:3040   */\n      tag_84\n      jump\t// in\n    tag_97:\n        /* \"#utility.yul\":2825:3047   */\n      swap3\n      swap2\n      pop\n      pop\n      jump\t// out\n        /* \"#utility.yul\":3134:3233   */\n    tag_77:\n        /* \"#utility.yul\":3186:3192   */\n      0x00\n        /* \"#utility.yul\":3220:3225   */\n      dup2\n        /* \"#utility.yul\":3214:3226   */\n      mload\n        /* \"#utility.yul\":3204:3226   */\n      swap1\n      pop\n        /* \"#utility.yul\":3134:3233   */\n      swap2\n      swap1\n      pop\n      jump\t// out\n        /* \"#utility.yul\":3239:3408   */\n    tag_79:\n        /* \"#utility.yul\":3323:3334   */\n      0x00\n        /* \"#utility.yul\":3357:3363   */\n      dup3\n        /* \"#utility.yul\":3352:3355   */\n      dup3\n        /* \"#utility.yul\":3345:3364   */\n      mstore\n        /* \"#utility.yul\":3397:3401   */\n      0x20\n        /* \"#utility.yul\":3392:3395   */\n      dup3\n        /* \"#utility.yul\":3388:3402   */\n      add\n        /* \"#utility.yul\":3373:3402   */\n      swap1\n      pop\n        /* \"#utility.yul\":3239:3408   */\n      swap3\n      swap2\n      pop\n      pop\n      jump\t// out\n        /* \"#utility.yul\":3414:3510   */\n    tag_65:\n        /* \"#utility.yul\":3451:3458   */\n      0x00\n        /* \"#utility.yul\":3480:3504   */\n      tag_103\n        /* \"#utility.yul\":3498:3503   */\n      dup3\n        /* \"#utility.yul\":3480:3504   */\n      tag_104\n      jump\t// in\n    tag_103:\n        /* \"#utility.yul\":3469:3504   */\n      swap1\n      pop\n        /* \"#utility.yul\":3414:3510   */\n      swap2\n      swap1\n      pop\n      jump\t// out\n        /* \"#utility.yul\":3516:3593   */\n    tag_69:\n        /* \"#utility.yul\":3553:3560   */\n      0x00\n        /* \"#utility.yul\":3582:3587   */\n      dup2\n        /* \"#utility.yul\":3571:3587   */\n      swap1\n      pop\n        /* \"#utility.yul\":3516:3593   */\n      swap2\n      swap1\n      pop\n      jump\t// out\n        /* \"#utility.yul\":3599:3675   */\n    tag_73:\n        /* \"#utility.yul\":3635:3642   */\n      0x00\n        /* \"#utility.yul\":3664:3669   */\n      dup2\n        /* \"#utility.yul\":3653:3669   */\n      swap1\n      pop\n        /* \"#utility.yul\":3599:3675   */\n      swap2\n      swap1\n      pop\n      jump\t// out\n        /* \"#utility.yul\":3681:3807   */\n    tag_104:\n        /* \"#utility.yul\":3718:3725   */\n      0x00\n        /* \"#utility.yul\":3758:3800   */\n      0xffffffffffffffffffffffffffffffffffffffff\n        /* \"#utility.yul\":3751:3756   */\n      dup3\n        /* \"#utility.yul\":3747:3801   */\n      and\n        /* \"#utility.yul\":3736:3801   */\n      swap1\n      pop\n        /* \"#utility.yul\":3681:3807   */\n      swap2\n      swap1\n      pop\n      jump\t// out\n        /* \"#utility.yul\":3813:3890   */\n    tag_87:\n        /* \"#utility.yul\":3850:3857   */\n      0x00\n        /* \"#utility.yul\":3879:3884   */\n      dup2\n        /* \"#utility.yul\":3868:3884   */\n      swap1\n      pop\n        /* \"#utility.yul\":3813:3890   */\n      swap2\n      swap1\n      pop\n      jump\t// out\n        /* \"#utility.yul\":3896:4203   */\n    tag_81:\n        /* \"#utility.yul\":3964:3965   */\n      0x00\n        /* \"#utility.yul\":3974:4087   */\n    tag_110:\n        /* \"#utility.yul\":3988:3994   */\n      dup4\n        /* \"#utility.yul\":3985:3986   */\n      dup2\n        /* \"#utility.yul\":3982:3995   */\n      lt\n        /* \"#utility.yul\":3974:4087   */\n      iszero\n      tag_112\n      jumpi\n        /* \"#utility.yul\":4073:4074   */\n      dup1\n        /* \"#utility.yul\":4068:4071   */\n      dup3\n        /* \"#utility.yul\":4064:4075   */\n      add\n        /* \"#utility.yul\":4058:4076   */\n      mload\n        /* \"#utility.yul\":4054:4055   */\n      dup2\n        /* \"#utility.yul\":4049:4052   */\n      dup5\n        /* \"#utility.yul\":4045:4056   */\n      add\n        /* \"#utility.yul\":4038:4077   */\n      mstore\n        /* \"#utility.yul\":4010:4012   */\n      0x20\n        /* \"#utility.yul\":4007:4008   */\n      dup2\n        /* \"#utility.yul\":4003:4013   */\n      add\n        /* \"#utility.yul\":3998:4013   */\n      swap1\n      pop\n        /* \"#utility.yul\":3974:4087   */\n      jump(tag_110)\n    tag_112:\n        /* \"#utility.yul\":4105:4111   */\n      dup4\n        /* \"#utility.yul\":4102:4103   */\n      dup2\n        /* \"#utility.yul\":4099:4112   */\n      gt\n        /* \"#utility.yul\":4096:4197   */\n      iszero\n      tag_113\n      jumpi\n        /* \"#utility.yul\":4185:4186   */\n      0x00\n        /* \"#utility.yul\":4176:4182   */\n      dup5\n        /* \"#utility.yul\":4171:4174   */\n      dup5\n        /* \"#utility.yul\":4167:4183   */\n      add\n        /* \"#utility.yul\":4160:4187   */\n      mstore\n        /* \"#utility.yul\":4096:4197   */\n    tag_113:\n        /* \"#utility.yul\":3945:4203   */\n      pop\n        /* \"#utility.yul\":3896:4203   */\n      pop\n      pop\n      pop\n      jump\t// out\n        /* \"#utility.yul\":4209:4529   */\n    tag_37:\n        /* \"#utility.yul\":4253:4259   */\n      0x00\n        /* \"#utility.yul\":4290:4291   */\n      0x02\n        /* \"#utility.yul\":4284:4288   */\n      dup3\n        /* \"#utility.yul\":4280:4292   */\n      div\n        /* \"#utility.yul\":4270:4292   */\n      swap1\n      pop\n        /* \"#utility.yul\":4337:4338   */\n      0x01\n        /* \"#utility.yul\":4331:4335   */\n      dup3\n        /* \"#utility.yul\":4327:4339   */\n      and\n        /* \"#utility.yul\":4358:4376   */\n      dup1\n        /* \"#utility.yul\":4348:4429   */\n      tag_115\n      jumpi\n        /* \"#utility.yul\":4414:4418   */\n      0x7f\n        /* \"#utility.yul\":4406:4412   */\n      dup3\n        /* \"#utility.yul\":4402:4419   */\n      and\n        /* \"#utility.yul\":4392:4419   */\n      swap2\n      pop\n        /* \"#utility.yul\":4348:4429   */\n    tag_115:\n        /* \"#utility.yul\":4476:4478   */\n      0x20\n        /* \"#utility.yul\":4468:4474   */\n      dup3\n        /* \"#utility.yul\":4465:4479   */\n      lt\n        /* \"#utility.yul\":4445:4463   */\n      dup2\n        /* \"#utility.yul\":4442:4480   */\n      eq\n        /* \"#utility.yul\":4439:4523   */\n      iszero\n      tag_116\n      jumpi\n        /* \"#utility.yul\":4495:4513   */\n      tag_117\n      tag_118\n      jump\t// in\n    tag_117:\n        /* \"#utility.yul\":4439:4523   */\n    tag_116:\n        /* \"#utility.yul\":4260:4529   */\n      pop\n        /* \"#utility.yul\":4209:4529   */\n      swap2\n      swap1\n      pop\n      jump\t// out\n        /* \"#utility.yul\":4535:4715   */\n    tag_118:\n        /* \"#utility.yul\":4583:4660   */\n      0x4e487b7100000000000000000000000000000000000000000000000000000000\n        /* \"#utility.yul\":4580:4581   */\n      0x00\n        /* \"#utility.yul\":4573:4661   */\n      mstore\n        /* \"#utility.yul\":4680:4684   */\n      0x22\n        /* \"#utility.yul\":4677:4678   */\n      0x04\n        /* \"#utility.yul\":4670:4685   */\n      mstore\n        /* \"#utility.yul\":4704:4708   */\n      0x24\n        /* \"#utility.yul\":4701:4702   */\n      0x00\n        /* \"#utility.yul\":4694:4709   */\n      revert\n        /* \"#utility.yul\":4844:4961   */\n    tag_56:\n        /* \"#utility.yul\":4953:4954   */\n      0x00\n        /* \"#utility.yul\":4950:4951   */\n      dup1\n        /* \"#utility.yul\":4943:4955   */\n      revert\n        /* \"#utility.yul\":4967:5069   */\n    tag_83:\n        /* \"#utility.yul\":5008:5014   */\n      0x00\n        /* \"#utility.yul\":5059:5061   */\n      0x1f\n        /* \"#utility.yul\":5055:5062   */\n      not\n        /* \"#utility.yul\":5050:5052   */\n      0x1f\n        /* \"#utility.yul\":5043:5048   */\n      dup4\n        /* \"#utility.yul\":5039:5053   */\n      add\n        /* \"#utility.yul\":5035:5063   */\n      and\n        /* \"#utility.yul\":5025:5063   */\n      swap1\n      pop\n        /* \"#utility.yul\":4967:5069   */\n      swap2\n      swap1\n      pop\n      jump\t// out\n        /* \"#utility.yul\":5075:5195   */\n    tag_48:\n        /* \"#utility.yul\":5147:5170   */\n      tag_125\n        /* \"#utility.yul\":5164:5169   */\n      dup2\n        /* \"#utility.yul\":5147:5170   */\n      tag_73\n      jump\t// in\n    tag_125:\n        /* \"#utility.yul\":5140:5145   */\n      dup2\n        /* \"#utility.yul\":5137:5171   */\n      eq\n        /* \"#utility.yul\":5127:5189   */\n      tag_126\n      jumpi\n        /* \"#utility.yul\":5185:5186   */\n      0x00\n        /* \"#utility.yul\":5182:5183   */\n      dup1\n        /* \"#utility.yul\":5175:5187   */\n      revert\n        /* \"#utility.yul\":5127:5189   */\n    tag_126:\n        /* \"#utility.yul\":5075:5195   */\n      pop\n      jump\t// out\n        /* \"#utility.yul\":5201:5323   */\n    tag_52:\n        /* \"#utility.yul\":5274:5298   */\n      tag_128\n        /* \"#utility.yul\":5292:5297   */\n      dup2\n        /* \"#utility.yul\":5274:5298   */\n      tag_87\n      jump\t// in\n    tag_128:\n        /* \"#utility.yul\":5267:5272   */\n      dup2\n        /* \"#utility.yul\":5264:5299   */\n      eq\n        /* \"#utility.yul\":5254:5317   */\n      tag_129\n      jumpi\n        /* \"#utility.yul\":5313:5314   */\n      0x00\n        /* \"#utility.yul\":5310:5311   */\n      dup1\n        /* \"#utility.yul\":5303:5315   */\n      revert\n        /* \"#utility.yul\":5254:5317   */\n    tag_129:\n        /* \"#utility.yul\":5201:5323   */\n      pop\n      jump\t// out\n\n    auxdata: 0xa2646970667358221220d1b5188fcc36cbdb9bc1b617f7970846653444bc2c1883255cd9cf2a1f5c49f364736f6c63430008070033\n}\n",
				"bytecode": {
					"linkReferences": {},
					"object": "608060405234801561001057600080fd5b5061053c806100206000396000f3fe608060405234801561001057600080fd5b50600436106100625760003560e01c80630dbe671f1461006757806359e9ec601461008557806371e5ee5f146100b5578063c6a898c5146100e5578063e5aa3d5814610103578063f8aab23814610121575b600080fd5b61006f61013f565b60405161007c9190610334565b60405180910390f35b61009f600480360381019061009a9190610265565b610165565b6040516100ac9190610385565b60405180910390f35b6100cf60048036038101906100ca9190610292565b610205565b6040516100dc91906103a7565b60405180910390f35b6100ed610229565b6040516100fa91906103a7565b60405180910390f35b61010b61022f565b604051610118919061036a565b60405180910390f35b610129610235565b604051610136919061034f565b60405180910390f35b600360009054906101000a900473ffffffffffffffffffffffffffffffffffffffff1681565b6005602052806000526040600020600091509050805461018490610461565b80601f01602080910402602001604051908101604052809291908181526020018280546101b090610461565b80156101fd5780601f106101d2576101008083540402835291602001916101fd565b820191906000526020600020905b8154815290600101906020018083116101e057829003601f168201915b505050505081565b6006818154811061021557600080fd5b906000526020600020016000915090505481565b60015481565b60025481565b60045481565b60008135905061024a816104d8565b92915050565b60008135905061025f816104ef565b92915050565b60006020828403121561027b5761027a6104c2565b5b60006102898482850161023b565b91505092915050565b6000602082840312156102a8576102a76104c2565b5b60006102b684828501610250565b91505092915050565b6102c8816103de565b82525050565b6102d7816103f0565b82525050565b6102e6816103fa565b82525050565b60006102f7826103c2565b61030181856103cd565b935061031181856020860161042e565b61031a816104c7565b840191505092915050565b61032e81610424565b82525050565b600060208201905061034960008301846102bf565b92915050565b600060208201905061036460008301846102ce565b92915050565b600060208201905061037f60008301846102dd565b92915050565b6000602082019050818103600083015261039f81846102ec565b905092915050565b60006020820190506103bc6000830184610325565b92915050565b600081519050919050565b600082825260208201905092915050565b60006103e982610404565b9050919050565b6000819050919050565b6000819050919050565b600073ffffffffffffffffffffffffffffffffffffffff82169050919050565b6000819050919050565b60005b8381101561044c578082015181840152602081019050610431565b8381111561045b576000848401525b50505050565b6000600282049050600182168061047957607f821691505b6020821081141561048d5761048c610493565b5b50919050565b7f4e487b7100000000000000000000000000000000000000000000000000000000600052602260045260246000fd5b600080fd5b6000601f19601f8301169050919050565b6104e1816103fa565b81146104ec57600080fd5b50565b6104f881610424565b811461050357600080fd5b5056fea2646970667358221220d1b5188fcc36cbdb9bc1b617f7970846653444bc2c1883255cd9cf2a1f5c49f364736f6c63430008070033",
					"opcodes": "PUSH1 0x80 PUSH1 0x40 MSTORE CALLVALUE DUP1 ISZERO PUSH2 0x10 JUMPI PUSH1 0x0 DUP1 REVERT JUMPDEST POP PUSH2 0x53C DUP1 PUSH2 0x20 PUSH1 0x0 CODECOPY PUSH1 0x0 RETURN INVALID PUSH1 0x80 PUSH1 0x40 MSTORE CALLVALUE DUP1 ISZERO PUSH2 0x10 JUMPI PUSH1 0x0 DUP1 REVERT JUMPDEST POP PUSH1 0x4 CALLDATASIZE LT PUSH2 0x62 JUMPI PUSH1 0x0 CALLDATALOAD PUSH1 0xE0 SHR DUP1 PUSH4 0xDBE671F EQ PUSH2 0x67 JUMPI DUP1 PUSH4 0x59E9EC60 EQ PUSH2 0x85 JUMPI DUP1 PUSH4 0x71E5EE5F EQ PUSH2 0xB5 JUMPI DUP1 PUSH4 0xC6A898C5 EQ PUSH2 0xE5 JUMPI DUP1 PUSH4 0xE5AA3D58 EQ PUSH2 0x103 JUMPI DUP1 PUSH4 0xF8AAB238 EQ PUSH2 0x121 JUMPI JUMPDEST PUSH1 0x0 DUP1 REVERT JUMPDEST PUSH2 0x6F PUSH2 0x13F JUMP JUMPDEST PUSH1 0x40 MLOAD PUSH2 0x7C SWAP2 SWAP1 PUSH2 0x334 JUMP JUMPDEST PUSH1 0x40 MLOAD DUP1 SWAP2 SUB SWAP1 RETURN JUMPDEST PUSH2 0x9F PUSH1 0x4 DUP1 CALLDATASIZE SUB DUP2 ADD SWAP1 PUSH2 0x9A SWAP2 SWAP1 PUSH2 0x265 JUMP JUMPDEST PUSH2 0x165 JUMP JUMPDEST PUSH1 0x40 MLOAD PUSH2 0xAC SWAP2 SWAP1 PUSH2 0x385 JUMP JUMPDEST PUSH1 0x40 MLOAD DUP1 SWAP2 SUB SWAP1 RETURN JUMPDEST PUSH2 0xCF PUSH1 0x4 DUP1 CALLDATASIZE SUB DUP2 ADD SWAP1 PUSH2 0xCA SWAP2 SWAP1 PUSH2 0x292 JUMP JUMPDEST PUSH2 0x205 JUMP JUMPDEST PUSH1 0x40 MLOAD PUSH2 0xDC SWAP2 SWAP1 PUSH2 0x3A7 JUMP JUMPDEST PUSH1 0x40 MLOAD DUP1 SWAP2 SUB SWAP1 RETURN JUMPDEST PUSH2 0xED PUSH2 0x229 JUMP JUMPDEST PUSH1 0x40 MLOAD PUSH2 0xFA SWAP2 SWAP1 PUSH2 0x3A7 JUMP JUMPDEST PUSH1 0x40 MLOAD DUP1 SWAP2 SUB SWAP1 RETURN JUMPDEST PUSH2 0x10B PUSH2 0x22F JUMP JUMPDEST PUSH1 0x40 MLOAD PUSH2 0x118 SWAP2 SWAP1 PUSH2 0x36A JUMP JUMPDEST PUSH1 0x40 MLOAD DUP1 SWAP2 SUB SWAP1 RETURN JUMPDEST PUSH2 0x129 PUSH2 0x235 JUMP JUMPDEST PUSH1 0x40 MLOAD PUSH2 0x136 SWAP2 SWAP1 PUSH2 0x34F JUMP JUMPDEST PUSH1 0x40 MLOAD DUP1 SWAP2 SUB SWAP1 RETURN JUMPDEST PUSH1 0x3 PUSH1 0x0 SWAP1 SLOAD SWAP1 PUSH2 0x100 EXP SWAP1 DIV PUSH20 0xFFFFFFFFFFFFFFFFFFFFFFFFFFFFFFFFFFFFFFFF AND DUP2 JUMP JUMPDEST PUSH1 0x5 PUSH1 0x20 MSTORE DUP1 PUSH1 0x0 MSTORE PUSH1 0x40 PUSH1 0x0 KECCAK256 PUSH1 0x0 SWAP2 POP SWAP1 POP DUP1 SLOAD PUSH2 0x184 SWAP1 PUSH2 0x461 JUMP JUMPDEST DUP1 PUSH1 0x1F ADD PUSH1 0x20 DUP1 SWAP2 DIV MUL PUSH1 0x20 ADD PUSH1 0x40 MLOAD SWAP1 DUP2 ADD PUSH1 0x40 MSTORE DUP1 SWAP3 SWAP2 SWAP1 DUP2 DUP2 MSTORE PUSH1 0x20 ADD DUP3 DUP1 SLOAD PUSH2 0x1B0 SWAP1 PUSH2 0x461 JUMP JUMPDEST DUP1 ISZERO PUSH2 0x1FD JUMPI DUP1 PUSH1 0x1F LT PUSH2 0x1D2 JUMPI PUSH2 0x100 DUP1 DUP4 SLOAD DIV MUL DUP4 MSTORE SWAP2 PUSH1 0x20 ADD SWAP2 PUSH2 0x1FD JUMP JUMPDEST DUP3 ADD SWAP2 SWAP1 PUSH1 0x0 MSTORE PUSH1 0x20 PUSH1 0x0 KECCAK256 SWAP1 JUMPDEST DUP2 SLOAD DUP2 MSTORE SWAP1 PUSH1 0x1 ADD SWAP1 PUSH1 0x20 ADD DUP1 DUP4 GT PUSH2 0x1E0 JUMPI DUP3 SWAP1 SUB PUSH1 0x1F AND DUP3 ADD SWAP2 JUMPDEST POP POP POP POP POP DUP2 JUMP JUMPDEST PUSH1 0x6 DUP2 DUP2 SLOAD DUP2 LT PUSH2 0x215 JUMPI PUSH1 0x0 DUP1 REVERT JUMPDEST SWAP1 PUSH1 0x0 MSTORE PUSH1 0x20 PUSH1 0x0 KECCAK256 ADD PUSH1 0x0 SWAP2 POP SWAP1 POP SLOAD DUP2 JUMP JUMPDEST PUSH1 0x1 SLOAD DUP2 JUMP JUMPDEST PUSH1 0x2 SLOAD DUP2 JUMP JUMPDEST PUSH1 0x4 SLOAD DUP2 JUMP JUMPDEST PUSH1 0x0 DUP2 CALLDATALOAD SWAP1 POP PUSH2 0x24A DUP2 PUSH2 0x4D8 JUMP JUMPDEST SWAP3 SWAP2 POP POP JUMP JUMPDEST PUSH1 0x0 DUP2 CALLDATALOAD SWAP1 POP PUSH2 0x25F DUP2 PUSH2 0x4EF JUMP JUMPDEST SWAP3 SWAP2 POP POP JUMP JUMPDEST PUSH1 0x0 PUSH1 0x20 DUP3 DUP5 SUB SLT ISZERO PUSH2 0x27B JUMPI PUSH2 0x27A PUSH2 0x4C2 JUMP JUMPDEST JUMPDEST PUSH1 0x0 PUSH2 0x289 DUP5 DUP3 DUP6 ADD PUSH2 0x23B JUMP JUMPDEST SWAP2 POP POP SWAP3 SWAP2 POP POP JUMP JUMPDEST PUSH1 0x0 PUSH1 0x20 DUP3 DUP5 SUB SLT ISZERO PUSH2 0x2A8 JUMPI PUSH2 0x2A7 PUSH2 0x4C2 JUMP JUMPDEST JUMPDEST PUSH1 0x0 PUSH2 0x2B6 DUP5 DUP3 DUP6 ADD PUSH2 0x250 JUMP JUMPDEST SWAP2 POP POP SWAP3 SWAP2 POP POP JUMP JUMPDEST PUSH2 0x2C8 DUP2 PUSH2 0x3DE JUMP JUMPDEST DUP3 MSTORE POP POP JUMP JUMPDEST PUSH2 0x2D7 DUP2 PUSH2 0x3F0 JUMP JUMPDEST DUP3 MSTORE POP POP JUMP JUMPDEST PUSH2 0x2E6 DUP2 PUSH2 0x3FA JUMP JUMPDEST DUP3 MSTORE POP POP JUMP JUMPDEST PUSH1 0x0 PUSH2 0x2F7 DUP3 PUSH2 0x3C2 JUMP JUMPDEST PUSH2 0x301 DUP2 DUP6 PUSH2 0x3CD JUMP JUMPDEST SWAP4 POP PUSH2 0x311 DUP2 DUP6 PUSH1 0x20 DUP7 ADD PUSH2 0x42E JUMP JUMPDEST PUSH2 0x31A DUP2 PUSH2 0x4C7 JUMP JUMPDEST DUP5 ADD SWAP2 POP POP SWAP3 SWAP2 POP POP JUMP JUMPDEST PUSH2 0x32E DUP2 PUSH2 0x424 JUMP JUMPDEST DUP3 MSTORE POP POP JUMP JUMPDEST PUSH1 0x0 PUSH1 0x20 DUP3 ADD SWAP1 POP PUSH2 0x349 PUSH1 0x0 DUP4 ADD DUP5 PUSH2 0x2BF JUMP JUMPDEST SWAP3 SWAP2 POP POP JUMP JUMPDEST PUSH1 0x0 PUSH1 0x20 DUP3 ADD SWAP1 POP PUSH2 0x364 PUSH1 0x0 DUP4 ADD DUP5 PUSH2 0x2CE JUMP JUMPDEST SWAP3 SWAP2 POP POP JUMP JUMPDEST PUSH1 0x0 PUSH1 0x20 DUP3 ADD SWAP1 POP PUSH2 0x37F PUSH1 0x0 DUP4 ADD DUP5 PUSH2 0x2DD JUMP JUMPDEST SWAP3 SWAP2 POP POP JUMP JUMPDEST PUSH1 0x0 PUSH1 0x20 DUP3 ADD SWAP1 POP DUP2 DUP2 SUB PUSH1 0x0 DUP4 ADD MSTORE PUSH2 0x39F DUP2 DUP5 PUSH2 0x2EC JUMP JUMPDEST SWAP1 POP SWAP3 SWAP2 POP POP JUMP JUMPDEST PUSH1 0x0 PUSH1 0x20 DUP3 ADD SWAP1 POP PUSH2 0x3BC PUSH1 0x0 DUP4 ADD DUP5 PUSH2 0x325 JUMP JUMPDEST SWAP3 SWAP2 POP POP JUMP JUMPDEST PUSH1 0x0 DUP2 MLOAD SWAP1 POP SWAP2 SWAP1 POP JUMP JUMPDEST PUSH1 0x0 DUP3 DUP3 MSTORE PUSH1 0x20 DUP3 ADD SWAP1 POP SWAP3 SWAP2 POP POP JUMP JUMPDEST PUSH1 0x0 PUSH2 0x3E9 DUP3 PUSH2 0x404 JUMP JUMPDEST SWAP1 POP SWAP2 SWAP1 POP JUMP JUMPDEST PUSH1 0x0 DUP2 SWAP1 POP SWAP2 SWAP1 POP JUMP JUMPDEST PUSH1 0x0 DUP2 SWAP1 POP SWAP2 SWAP1 POP JUMP JUMPDEST PUSH1 0x0 PUSH20 0xFFFFFFFFFFFFFFFFFFFFFFFFFFFFFFFFFFFFFFFF DUP3 AND SWAP1 POP SWAP2 SWAP1 POP JUMP JUMPDEST PUSH1 0x0 DUP2 SWAP1 POP SWAP2 SWAP1 POP JUMP JUMPDEST PUSH1 0x0 JUMPDEST DUP4 DUP2 LT ISZERO PUSH2 0x44C JUMPI DUP1 DUP3 ADD MLOAD DUP2 DUP5 ADD MSTORE PUSH1 0x20 DUP2 ADD SWAP1 POP PUSH2 0x431 JUMP JUMPDEST DUP4 DUP2 GT ISZERO PUSH2 0x45B JUMPI PUSH1 0x0 DUP5 DUP5 ADD MSTORE JUMPDEST POP POP POP POP JUMP JUMPDEST PUSH1 0x0 PUSH1 0x2 DUP3 DIV SWAP1 POP PUSH1 0x1 DUP3 AND DUP1 PUSH2 0x479 JUMPI PUSH1 0x7F DUP3 AND SWAP2 POP JUMPDEST PUSH1 0x20 DUP3 LT DUP2 EQ ISZERO PUSH2 0x48D JUMPI PUSH2 0x48C PUSH2 0x493 JUMP JUMPDEST JUMPDEST POP SWAP2 SWAP1 POP JUMP JUMPDEST PUSH32 0x4E487B7100000000000000000000000000000000000000000000000000000000 PUSH1 0x0 MSTORE PUSH1 0x22 PUSH1 0x4 MSTORE PUSH1 0x24 PUSH1 0x0 REVERT JUMPDEST PUSH1 0x0 DUP1 REVERT JUMPDEST PUSH1 0x0 PUSH1 0x1F NOT PUSH1 0x1F DUP4 ADD AND SWAP1 POP SWAP2 SWAP1 POP JUMP JUMPDEST PUSH2 0x4E1 DUP2 PUSH2 0x3FA JUMP JUMPDEST DUP2 EQ PUSH2 0x4EC JUMPI PUSH1 0x0 DUP1 REVERT JUMPDEST POP JUMP JUMPDEST PUSH2 0x4F8 DUP2 PUSH2 0x424 JUMP JUMPDEST DUP2 EQ PUSH2 0x503 JUMPI PUSH1 0x0 DUP1 REVERT JUMPDEST POP JUMP INVALID LOG2 PUSH5 0x6970667358 0x22 SLT KECCAK256 0xD1 0xB5 XOR DUP16 0xCC CALLDATASIZE 0xCB 0xDB SWAP12 0xC1 0xB6 OR 0xF7 SWAP8 ADDMOD CHAINID PUSH6 0x3444BC2C1883 0x25 0x5C 0xD9 0xCF 0x2A 0x1F 0x5C 0x49 RETURN PUSH5 0x736F6C6343 STOP ADDMOD SMOD STOP CALLER "
				},
				"gasEstimates": {
					"creation": {
						"codeDepositCost": "268000",
						"executionCost": "306",
						"totalCost": "268306"
					},
					"external": {
						"a()": "2492",
						"arr(uint256)": "infinite",
						"b32()": "2517",
						"i()": "2495",
						"m(int256)": "infinite",
						"u()": "2473"
					}
				},
				"methodIdentifiers": {
					"a()": "0dbe671f",
					"arr(uint256)": "71e5ee5f",
					"b32()": "f8aab238",
					"i()": "e5aa3d58",
					"m(int256)": "59e9ec60",
					"u()": "c6a898c5"
				}
			},
			"storageLayout": {
				"storage": [
					{
						"astId": 3,
						"contract": "DefaultValues.sol:DefaultValues",
						"label": "b",
						"offset": 0,
						"slot": "0",
						"type": "t_bool"
					},
					{
						"astId": 5,
						"contract": "DefaultValues.sol:DefaultValues",
						"label": "u",
						"offset": 0,
						"slot": "1",
						"type": "t_uint256"
					},
					{
						"astId": 7,
						"contract": "DefaultValues.sol:DefaultValues",
						"label": "i",
						"offset": 0,
						"slot": "2",
						"type": "t_int256"
					},
					{
						"astId": 9,
						"contract": "DefaultValues.sol:DefaultValues",
						"label": "a",
						"offset": 0,
						"slot": "3",
						"type": "t_address"
					},
					{
						"astId": 11,
						"contract": "DefaultValues.sol:DefaultValues",
						"label": "b32",
						"offset": 0,
						"slot": "4",
						"type": "t_bytes32"
					},
					{
						"astId": 15,
						"contract": "DefaultValues.sol:DefaultValues",
						"label": "m",
						"offset": 0,
						"slot": "5",
						"type": "t_mapping(t_int256,t_string_storage)"
					},
					{
						"astId": 18,
						"contract": "DefaultValues.sol:DefaultValues",
						"label": "arr",
						"offset": 0,
						"slot": "6",
						"type": "t_array(t_uint256)dyn_storage"
					}
				],
				"types": {
					"t_address": {
						"encoding": "inplace",
						"label": "address",
						"numberOfBytes": "20"
					},
					"t_array(t_uint256)dyn_storage": {
						"base": "t_uint256",
						"encoding": "dynamic_array",
						"label": "uint256[]",
						"numberOfBytes": "32"
					},
					"t_bool": {
						"encoding": "inplace",
						"label": "bool",
						"numberOfBytes": "1"
					},
					"t_bytes32": {
						"encoding": "inplace",
						"label": "bytes32",
						"numberOfBytes": "32"
					},
					"t_int256": {
						"encoding": "inplace",
						"label": "int256",
						"numberOfBytes": "32"
					},
					"t_mapping(t_int256,t_string_storage)": {
						"encoding": "mapping",
						"key": "t_int256",
						"label": "mapping(int256 => string)",
						"numberOfBytes": "32",
						"value": "t_string_storage"
					},
					"t_string_storage": {
						"encoding": "bytes",
						"label": "string",
						"numberOfBytes": "32"
					},
					"t_uint256": {
						"encoding": "inplace",
						"label": "uint256",
						"numberOfBytes": "32"
					}
				}
			},
			"userdoc": {
				"kind": "user",
				"methods": {},
				"version": 1
			}
		}
	}
}