{
	"Bank2.sol": {
		"Bank": {
			"abi": [
				{
					"inputs": [],
					"stateMutability": "nonpayable",
					"type": "constructor"
				},
				{
					"inputs": [],
					"name": "admin",
					"outputs": [
						{
							"internalType": "address",
							"name": "",
							"type": "address"
						}
					],
					"stateMutability": "view",
					"type": "function"
				},
				{
					"inputs": [
						{
							"internalType": "address",
							"name": "",
							"type": "address"
						}
					],
					"name": "balances",
					"outputs": [
						{
							"internalType": "uint256",
							"name": "",
							"type": "uint256"
						}
					],
					"stateMutability": "view",
					"type": "function"
				},
				{
					"inputs": [],
					"name": "deposit",
					"outputs": [],
					"stateMutability": "payable",
					"type": "function"
				},
				{
					"inputs": [],
					"name": "getTop3",
					"outputs": [
						{
							"internalType": "address[3]",
							"name": "",
							"type": "address[3]"
						},
						{
							"internalType": "uint256[3]",
							"name": "",
							"type": "uint256[3]"
						}
					],
					"stateMutability": "view",
					"type": "function"
				},
				{
					"inputs": [
						{
							"internalType": "uint256",
							"name": "",
							"type": "uint256"
						}
					],
					"name": "topAmounts",
					"outputs": [
						{
							"internalType": "uint256",
							"name": "",
							"type": "uint256"
						}
					],
					"stateMutability": "view",
					"type": "function"
				},
				{
					"inputs": [
						{
							"internalType": "uint256",
							"name": "",
							"type": "uint256"
						}
					],
					"name": "topUsers",
					"outputs": [
						{
							"internalType": "address",
							"name": "",
							"type": "address"
						}
					],
					"stateMutability": "view",
					"type": "function"
				},
				{
					"inputs": [],
					"name": "withdraw",
					"outputs": [],
					"stateMutability": "nonpayable",
					"type": "function"
				},
				{
					"stateMutability": "payable",
					"type": "receive"
				}
			],
			"devdoc": {
				"kind": "dev",
				"methods": {},
				"version": 1
			},
			"evm": {
				"assembly": "    /* \"Bank2.sol\":60:2422  contract Bank {... */\n  mstore(0x40, 0x80)\n    /* \"Bank2.sol\":272:323  constructor() {... */\n  callvalue\n  dup1\n  iszero\n  tag_1\n  jumpi\n  revert(0x00, 0x00)\ntag_1:\n  pop\n    /* \"Bank2.sol\":305:315  msg.sender */\n  caller\n    /* \"Bank2.sol\":297:302  admin */\n  0x00\n  0x00\n    /* \"Bank2.sol\":297:315  admin = msg.sender */\n  0x0100\n  exp\n  dup2\n  sload\n  dup2\n  0xffffffffffffffffffffffffffffffffffffffff\n  mul\n  not\n  and\n  swap1\n  dup4\n  0xffffffffffffffffffffffffffffffffffffffff\n  and\n  mul\n  or\n  swap1\n  sstore\n  pop\n    /* \"Bank2.sol\":60:2422  contract Bank {... */\n  dataSize(sub_0)\n  dup1\n  dataOffset(sub_0)\n  0x00\n  codecopy\n  0x00\n  return\nstop\n\nsub_0: assembly {\n        /* \"Bank2.sol\":60:2422  contract Bank {... */\n      mstore(0x40, 0x80)\n      jumpi(tag_1, lt(calldatasize, 0x04))\n      shr(0xe0, calldataload(0x00))\n      dup1\n      0x4061a5bf\n      gt\n      tag_10\n      jumpi\n      dup1\n      0x4061a5bf\n      eq\n      tag_6\n      jumpi\n      dup1\n      0x689dbf4e\n      eq\n      tag_7\n      jumpi\n      dup1\n      0xd0e30db0\n      eq\n      tag_8\n      jumpi\n      dup1\n      0xf851a440\n      eq\n      tag_9\n      jumpi\n      jump(tag_2)\n    tag_10:\n      dup1\n      0x27e235e3\n      eq\n      tag_3\n      jumpi\n      dup1\n      0x3b9b5f8e\n      eq\n      tag_4\n      jumpi\n      dup1\n      0x3ccfd60b\n      eq\n      tag_5\n      jumpi\n      jump(tag_2)\n    tag_1:\n      jumpi(tag_2, calldatasize)\n        /* \"Bank2.sol\":405:414  deposit() */\n      tag_13\n        /* \"Bank2.sol\":405:412  deposit */\n      tag_14\n        /* \"Bank2.sol\":405:414  deposit() */\n      jump\t// in\n    tag_13:\n        /* \"Bank2.sol\":60:2422  contract Bank {... */\n      stop\n    tag_2:\n      revert(0x00, 0x00)\n        /* \"Bank2.sol\":108:151  mapping(address => uint256) public balances */\n    tag_3:\n      callvalue\n      dup1\n      iszero\n      tag_15\n      jumpi\n      revert(0x00, 0x00)\n    tag_15:\n      pop\n      tag_16\n      0x04\n      dup1\n      calldatasize\n      sub\n      dup2\n      add\n      swap1\n      tag_17\n      swap2\n      swap1\n      tag_18\n      jump\t// in\n    tag_17:\n      tag_19\n      jump\t// in\n    tag_16:\n      mload(0x40)\n      tag_20\n      swap2\n      swap1\n      tag_21\n      jump\t// in\n    tag_20:\n      mload(0x40)\n      dup1\n      swap2\n      sub\n      swap1\n      return\n        /* \"Bank2.sol\":235:263  uint256[3] public topAmounts */\n    tag_4:\n      callvalue\n      dup1\n      iszero\n      tag_22\n      jumpi\n      revert(0x00, 0x00)\n    tag_22:\n      pop\n      tag_23\n      0x04\n      dup1\n      calldatasize\n      sub\n      dup2\n      add\n      swap1\n      tag_24\n      swap2\n      swap1\n      tag_25\n      jump\t// in\n    tag_24:\n      tag_26\n      jump\t// in\n    tag_23:\n      mload(0x40)\n      tag_27\n      swap2\n      swap1\n      tag_21\n      jump\t// in\n    tag_27:\n      mload(0x40)\n      dup1\n      swap2\n      sub\n      swap1\n      return\n        /* \"Bank2.sol\":709:879  function withdraw() public {... */\n    tag_5:\n      callvalue\n      dup1\n      iszero\n      tag_28\n      jumpi\n      revert(0x00, 0x00)\n    tag_28:\n      pop\n      tag_29\n      tag_30\n      jump\t// in\n    tag_29:\n      stop\n        /* \"Bank2.sol\":2293:2419  function getTop3() public view returns (address[3] memory, uint256[3] memory) {... */\n    tag_6:\n      callvalue\n      dup1\n      iszero\n      tag_31\n      jumpi\n      revert(0x00, 0x00)\n    tag_31:\n      pop\n      tag_32\n      tag_33\n      jump\t// in\n    tag_32:\n      mload(0x40)\n      tag_34\n      swap3\n      swap2\n      swap1\n      tag_35\n      jump\t// in\n    tag_34:\n      mload(0x40)\n      dup1\n      swap2\n      sub\n      swap1\n      return\n        /* \"Bank2.sol\":202:228  address[3] public topUsers */\n    tag_7:\n      callvalue\n      dup1\n      iszero\n      tag_36\n      jumpi\n      revert(0x00, 0x00)\n    tag_36:\n      pop\n      tag_37\n      0x04\n      dup1\n      calldatasize\n      sub\n      dup2\n      add\n      swap1\n      tag_38\n      swap2\n      swap1\n      tag_25\n      jump\t// in\n    tag_38:\n      tag_39\n      jump\t// in\n    tag_37:\n      mload(0x40)\n      tag_40\n      swap2\n      swap1\n      tag_41\n      jump\t// in\n    tag_40:\n      mload(0x40)\n      dup1\n      swap2\n      sub\n      swap1\n      return\n        /* \"Bank2.sol\":475:659  function deposit() public payable {... */\n    tag_8:\n      tag_42\n      tag_14\n      jump\t// in\n    tag_42:\n      stop\n        /* \"Bank2.sol\":81:101  address public admin */\n    tag_9:\n      callvalue\n      dup1\n      iszero\n      tag_43\n      jumpi\n      revert(0x00, 0x00)\n    tag_43:\n      pop\n      tag_44\n      tag_45\n      jump\t// in\n    tag_44:\n      mload(0x40)\n      tag_46\n      swap2\n      swap1\n      tag_41\n      jump\t// in\n    tag_46:\n      mload(0x40)\n      dup1\n      swap2\n      sub\n      swap1\n      return\n        /* \"Bank2.sol\":475:659  function deposit() public payable {... */\n    tag_14:\n        /* \"Bank2.sol\":540:541  0 */\n      0x00\n        /* \"Bank2.sol\":528:537  msg.value */\n      callvalue\n        /* \"Bank2.sol\":528:541  msg.value > 0 */\n      gt\n        /* \"Bank2.sol\":520:569  require(msg.value > 0, \"Must be greater than 0.\") */\n      tag_48\n      jumpi\n      mload(0x40)\n      0x08c379a000000000000000000000000000000000000000000000000000000000\n      dup2\n      mstore\n      0x04\n      add\n      tag_49\n      swap1\n      tag_50\n      jump\t// in\n    tag_49:\n      mload(0x40)\n      dup1\n      swap2\n      sub\n      swap1\n      revert\n    tag_48:\n        /* \"Bank2.sol\":604:613  msg.value */\n      callvalue\n        /* \"Bank2.sol\":580:588  balances */\n      0x01\n        /* \"Bank2.sol\":580:600  balances[msg.sender] */\n      0x00\n        /* \"Bank2.sol\":589:599  msg.sender */\n      caller\n        /* \"Bank2.sol\":580:600  balances[msg.sender] */\n      0xffffffffffffffffffffffffffffffffffffffff\n      and\n      0xffffffffffffffffffffffffffffffffffffffff\n      and\n      dup2\n      mstore\n      0x20\n      add\n      swap1\n      dup2\n      mstore\n      0x20\n      add\n      0x00\n      keccak256\n      0x00\n        /* \"Bank2.sol\":580:613  balances[msg.sender] += msg.value */\n      dup3\n      dup3\n      sload\n      tag_51\n      swap2\n      swap1\n      tag_52\n      jump\t// in\n    tag_51:\n      swap3\n      pop\n      pop\n      dup2\n      swap1\n      sstore\n      pop\n        /* \"Bank2.sol\":624:651  _updateTopUsers(msg.sender) */\n      tag_53\n        /* \"Bank2.sol\":640:650  msg.sender */\n      caller\n        /* \"Bank2.sol\":624:639  _updateTopUsers */\n      tag_54\n        /* \"Bank2.sol\":624:651  _updateTopUsers(msg.sender) */\n      jump\t// in\n    tag_53:\n        /* \"Bank2.sol\":475:659  function deposit() public payable {... */\n      jump\t// out\n        /* \"Bank2.sol\":108:151  mapping(address => uint256) public balances */\n    tag_19:\n      mstore(0x20, 0x01)\n      dup1\n      0x00\n      mstore\n      keccak256(0x00, 0x40)\n      0x00\n      swap2\n      pop\n      swap1\n      pop\n      sload\n      dup2\n      jump\t// out\n        /* \"Bank2.sol\":235:263  uint256[3] public topAmounts */\n    tag_26:\n      0x05\n      dup2\n      0x03\n      dup2\n      lt\n      tag_55\n      jumpi\n      0x00\n      dup1\n      revert\n    tag_55:\n      add\n      0x00\n      swap2\n      pop\n      swap1\n      pop\n      sload\n      dup2\n      jump\t// out\n        /* \"Bank2.sol\":709:879  function withdraw() public {... */\n    tag_30:\n        /* \"Bank2.sol\":769:774  admin */\n      0x00\n      0x00\n      swap1\n      sload\n      swap1\n      0x0100\n      exp\n      swap1\n      div\n      0xffffffffffffffffffffffffffffffffffffffff\n      and\n        /* \"Bank2.sol\":755:774  msg.sender == admin */\n      0xffffffffffffffffffffffffffffffffffffffff\n      and\n        /* \"Bank2.sol\":755:765  msg.sender */\n      caller\n        /* \"Bank2.sol\":755:774  msg.sender == admin */\n      0xffffffffffffffffffffffffffffffffffffffff\n      and\n      eq\n        /* \"Bank2.sol\":747:814  require(msg.sender == admin, \"Only the administrator can extract.\") */\n      tag_58\n      jumpi\n      mload(0x40)\n      0x08c379a000000000000000000000000000000000000000000000000000000000\n      dup2\n      mstore\n      0x04\n      add\n      tag_59\n      swap1\n      tag_60\n      jump\t// in\n    tag_59:\n      mload(0x40)\n      dup1\n      swap2\n      sub\n      swap1\n      revert\n    tag_58:\n        /* \"Bank2.sol\":833:838  admin */\n      0x00\n      0x00\n      swap1\n      sload\n      swap1\n      0x0100\n      exp\n      swap1\n      div\n      0xffffffffffffffffffffffffffffffffffffffff\n      and\n        /* \"Bank2.sol\":825:848  payable(admin).transfer */\n      0xffffffffffffffffffffffffffffffffffffffff\n      and\n        /* \"Bank2.sol\":825:871  payable(admin).transfer(address(this).balance) */\n      0x08fc\n        /* \"Bank2.sol\":849:870  address(this).balance */\n      selfbalance\n        /* \"Bank2.sol\":825:871  payable(admin).transfer(address(this).balance) */\n      swap1\n      dup2\n      iszero\n      mul\n      swap1\n      mload(0x40)\n      0x00\n      mload(0x40)\n      dup1\n      dup4\n      sub\n      dup2\n      dup6\n      dup9\n      dup9\n      call\n      swap4\n      pop\n      pop\n      pop\n      pop\n      iszero\n      dup1\n      iszero\n      tag_62\n      jumpi\n      returndatacopy(0x00, 0x00, returndatasize)\n      revert(0x00, returndatasize)\n    tag_62:\n      pop\n        /* \"Bank2.sol\":709:879  function withdraw() public {... */\n      jump\t// out\n        /* \"Bank2.sol\":2293:2419  function getTop3() public view returns (address[3] memory, uint256[3] memory) {... */\n    tag_33:\n        /* \"Bank2.sol\":2333:2350  address[3] memory */\n      tag_63\n      tag_64\n      jump\t// in\n    tag_63:\n        /* \"Bank2.sol\":2352:2369  uint256[3] memory */\n      tag_65\n      tag_66\n      jump\t// in\n    tag_65:\n        /* \"Bank2.sol\":2390:2398  topUsers */\n      0x02\n        /* \"Bank2.sol\":2400:2410  topAmounts */\n      0x05\n        /* \"Bank2.sol\":2382:2411  return (topUsers, topAmounts) */\n      dup2\n      0x03\n      dup1\n      0x20\n      mul\n      mload(0x40)\n      swap1\n      dup2\n      add\n      0x40\n      mstore\n      dup1\n      swap3\n      swap2\n      swap1\n      dup3\n      0x03\n      dup1\n      iszero\n      tag_68\n      jumpi\n      0x20\n      mul\n      dup3\n      add\n      swap2\n    tag_69:\n      dup2\n      0x00\n      swap1\n      sload\n      swap1\n      0x0100\n      exp\n      swap1\n      div\n      0xffffffffffffffffffffffffffffffffffffffff\n      and\n      0xffffffffffffffffffffffffffffffffffffffff\n      and\n      dup2\n      mstore\n      0x20\n      add\n      swap1\n      0x01\n      add\n      swap1\n      dup1\n      dup4\n      gt\n      tag_69\n      jumpi\n    tag_68:\n      pop\n      pop\n      pop\n      pop\n      pop\n      swap2\n      pop\n      dup1\n      0x03\n      dup1\n      0x20\n      mul\n      mload(0x40)\n      swap1\n      dup2\n      add\n      0x40\n      mstore\n      dup1\n      swap3\n      swap2\n      swap1\n      dup3\n      0x03\n      dup1\n      iszero\n      tag_70\n      jumpi\n      0x20\n      mul\n      dup3\n      add\n      swap2\n    tag_71:\n      dup2\n      sload\n      dup2\n      mstore\n      0x20\n      add\n      swap1\n      0x01\n      add\n      swap1\n      dup1\n      dup4\n      gt\n      tag_71\n      jumpi\n    tag_70:\n      pop\n      pop\n      pop\n      pop\n      pop\n      swap1\n      pop\n      swap2\n      pop\n      swap2\n      pop\n        /* \"Bank2.sol\":2293:2419  function getTop3() public view returns (address[3] memory, uint256[3] memory) {... */\n      swap1\n      swap2\n      jump\t// out\n        /* \"Bank2.sol\":202:228  address[3] public topUsers */\n    tag_39:\n      0x02\n      dup2\n      0x03\n      dup2\n      lt\n      tag_72\n      jumpi\n      0x00\n      dup1\n      revert\n    tag_72:\n      add\n      0x00\n      swap2\n      pop\n      sload\n      swap1\n      0x0100\n      exp\n      swap1\n      div\n      0xffffffffffffffffffffffffffffffffffffffff\n      and\n      dup2\n      jump\t// out\n        /* \"Bank2.sol\":81:101  address public admin */\n    tag_45:\n      0x00\n      0x00\n      swap1\n      sload\n      swap1\n      0x0100\n      exp\n      swap1\n      div\n      0xffffffffffffffffffffffffffffffffffffffff\n      and\n      dup2\n      jump\t// out\n        /* \"Bank2.sol\":926:1762  function _updateTopUsers(address user) internal {... */\n    tag_54:\n        /* \"Bank2.sol\":985:1004  uint256 userBalance */\n      0x00\n        /* \"Bank2.sol\":1007:1015  balances */\n      0x01\n        /* \"Bank2.sol\":1007:1021  balances[user] */\n      0x00\n        /* \"Bank2.sol\":1016:1020  user */\n      dup4\n        /* \"Bank2.sol\":1007:1021  balances[user] */\n      0xffffffffffffffffffffffffffffffffffffffff\n      and\n      0xffffffffffffffffffffffffffffffffffffffff\n      and\n      dup2\n      mstore\n      0x20\n      add\n      swap1\n      dup2\n      mstore\n      0x20\n      add\n      0x00\n      keccak256\n      sload\n        /* \"Bank2.sol\":985:1021  uint256 userBalance = balances[user] */\n      swap1\n      pop\n        /* \"Bank2.sol\":1079:1085  uint i */\n      0x00\n        /* \"Bank2.sol\":1088:1089  0 */\n      0x00\n        /* \"Bank2.sol\":1079:1089  uint i = 0 */\n      swap1\n      pop\n        /* \"Bank2.sol\":1074:1275  for (uint i = 0; i < 3; i++) {... */\n    tag_75:\n        /* \"Bank2.sol\":1095:1096  3 */\n      0x03\n        /* \"Bank2.sol\":1091:1092  i */\n      dup2\n        /* \"Bank2.sol\":1091:1096  i < 3 */\n      lt\n        /* \"Bank2.sol\":1074:1275  for (uint i = 0; i < 3; i++) {... */\n      iszero\n      tag_76\n      jumpi\n        /* \"Bank2.sol\":1137:1141  user */\n      dup3\n        /* \"Bank2.sol\":1122:1141  topUsers[i] == user */\n      0xffffffffffffffffffffffffffffffffffffffff\n      and\n        /* \"Bank2.sol\":1122:1130  topUsers */\n      0x02\n        /* \"Bank2.sol\":1131:1132  i */\n      dup3\n        /* \"Bank2.sol\":1122:1133  topUsers[i] */\n      0x03\n      dup2\n      lt\n      tag_78\n      jumpi\n      tag_79\n      tag_80\n      jump\t// in\n    tag_79:\n    tag_78:\n      add\n      0x00\n      swap1\n      sload\n      swap1\n      0x0100\n      exp\n      swap1\n      div\n      0xffffffffffffffffffffffffffffffffffffffff\n      and\n        /* \"Bank2.sol\":1122:1141  topUsers[i] == user */\n      0xffffffffffffffffffffffffffffffffffffffff\n      and\n      sub\n        /* \"Bank2.sol\":1118:1264  if (topUsers[i] == user) {... */\n      tag_82\n      jumpi\n        /* \"Bank2.sol\":1178:1189  userBalance */\n      dup2\n        /* \"Bank2.sol\":1162:1172  topAmounts */\n      0x05\n        /* \"Bank2.sol\":1173:1174  i */\n      dup3\n        /* \"Bank2.sol\":1162:1175  topAmounts[i] */\n      0x03\n      dup2\n      lt\n      tag_83\n      jumpi\n      tag_84\n      tag_80\n      jump\t// in\n    tag_84:\n    tag_83:\n      add\n        /* \"Bank2.sol\":1162:1189  topAmounts[i] = userBalance */\n      dup2\n      swap1\n      sstore\n      pop\n        /* \"Bank2.sol\":1208:1223  _sortTopUsers() */\n      tag_86\n        /* \"Bank2.sol\":1208:1221  _sortTopUsers */\n      tag_87\n        /* \"Bank2.sol\":1208:1223  _sortTopUsers() */\n      jump\t// in\n    tag_86:\n        /* \"Bank2.sol\":1242:1249  return; */\n      pop\n      pop\n      jump(tag_74)\n        /* \"Bank2.sol\":1118:1264  if (topUsers[i] == user) {... */\n    tag_82:\n        /* \"Bank2.sol\":1098:1101  i++ */\n      dup1\n      dup1\n      0x01\n      add\n      swap2\n      pop\n      pop\n        /* \"Bank2.sol\":1074:1275  for (uint i = 0; i < 3; i++) {... */\n      jump(tag_75)\n    tag_76:\n      pop\n        /* \"Bank2.sol\":1332:1338  uint i */\n      0x00\n        /* \"Bank2.sol\":1341:1342  0 */\n      0x00\n        /* \"Bank2.sol\":1332:1342  uint i = 0 */\n      swap1\n      pop\n        /* \"Bank2.sol\":1327:1755  for (uint i = 0; i < 3; i++) {... */\n    tag_88:\n        /* \"Bank2.sol\":1348:1349  3 */\n      0x03\n        /* \"Bank2.sol\":1344:1345  i */\n      dup2\n        /* \"Bank2.sol\":1344:1349  i < 3 */\n      lt\n        /* \"Bank2.sol\":1327:1755  for (uint i = 0; i < 3; i++) {... */\n      iszero\n      tag_89\n      jumpi\n        /* \"Bank2.sol\":1389:1399  topAmounts */\n      0x05\n        /* \"Bank2.sol\":1400:1401  i */\n      dup2\n        /* \"Bank2.sol\":1389:1402  topAmounts[i] */\n      0x03\n      dup2\n      lt\n      tag_91\n      jumpi\n      tag_92\n      tag_80\n      jump\t// in\n    tag_92:\n    tag_91:\n      add\n      sload\n        /* \"Bank2.sol\":1375:1386  userBalance */\n      dup3\n        /* \"Bank2.sol\":1375:1402  userBalance > topAmounts[i] */\n      gt\n        /* \"Bank2.sol\":1371:1744  if (userBalance > topAmounts[i]) {... */\n      iszero\n      tag_94\n      jumpi\n        /* \"Bank2.sol\":1474:1480  uint j */\n      0x00\n        /* \"Bank2.sol\":1483:1484  2 */\n      0x02\n        /* \"Bank2.sol\":1474:1484  uint j = 2 */\n      swap1\n      pop\n        /* \"Bank2.sol\":1469:1622  for (uint j = 2; j > i; j--) {... */\n    tag_95:\n        /* \"Bank2.sol\":1490:1491  i */\n      dup2\n        /* \"Bank2.sol\":1486:1487  j */\n      dup2\n        /* \"Bank2.sol\":1486:1491  j > i */\n      gt\n        /* \"Bank2.sol\":1469:1622  for (uint j = 2; j > i; j--) {... */\n      iszero\n      tag_96\n      jumpi\n        /* \"Bank2.sol\":1535:1543  topUsers */\n      0x02\n        /* \"Bank2.sol\":1546:1547  1 */\n      0x01\n        /* \"Bank2.sol\":1544:1545  j */\n      dup3\n        /* \"Bank2.sol\":1544:1547  j-1 */\n      tag_98\n      swap2\n      swap1\n      tag_99\n      jump\t// in\n    tag_98:\n        /* \"Bank2.sol\":1535:1548  topUsers[j-1] */\n      0x03\n      dup2\n      lt\n      tag_100\n      jumpi\n      tag_101\n      tag_80\n      jump\t// in\n    tag_101:\n    tag_100:\n      add\n      0x00\n      swap1\n      sload\n      swap1\n      0x0100\n      exp\n      swap1\n      div\n      0xffffffffffffffffffffffffffffffffffffffff\n      and\n        /* \"Bank2.sol\":1521:1529  topUsers */\n      0x02\n        /* \"Bank2.sol\":1530:1531  j */\n      dup3\n        /* \"Bank2.sol\":1521:1532  topUsers[j] */\n      0x03\n      dup2\n      lt\n      tag_103\n      jumpi\n      tag_104\n      tag_80\n      jump\t// in\n    tag_104:\n    tag_103:\n      add\n      0x00\n        /* \"Bank2.sol\":1521:1548  topUsers[j] = topUsers[j-1] */\n      0x0100\n      exp\n      dup2\n      sload\n      dup2\n      0xffffffffffffffffffffffffffffffffffffffff\n      mul\n      not\n      and\n      swap1\n      dup4\n      0xffffffffffffffffffffffffffffffffffffffff\n      and\n      mul\n      or\n      swap1\n      sstore\n      pop\n        /* \"Bank2.sol\":1587:1597  topAmounts */\n      0x05\n        /* \"Bank2.sol\":1600:1601  1 */\n      0x01\n        /* \"Bank2.sol\":1598:1599  j */\n      dup3\n        /* \"Bank2.sol\":1598:1601  j-1 */\n      tag_106\n      swap2\n      swap1\n      tag_99\n      jump\t// in\n    tag_106:\n        /* \"Bank2.sol\":1587:1602  topAmounts[j-1] */\n      0x03\n      dup2\n      lt\n      tag_107\n      jumpi\n      tag_108\n      tag_80\n      jump\t// in\n    tag_108:\n    tag_107:\n      add\n      sload\n        /* \"Bank2.sol\":1571:1581  topAmounts */\n      0x05\n        /* \"Bank2.sol\":1582:1583  j */\n      dup3\n        /* \"Bank2.sol\":1571:1584  topAmounts[j] */\n      0x03\n      dup2\n      lt\n      tag_110\n      jumpi\n      tag_111\n      tag_80\n      jump\t// in\n    tag_111:\n    tag_110:\n      add\n        /* \"Bank2.sol\":1571:1602  topAmounts[j] = topAmounts[j-1] */\n      dup2\n      swap1\n      sstore\n      pop\n        /* \"Bank2.sol\":1493:1496  j-- */\n      dup1\n      dup1\n      tag_113\n      swap1\n      tag_114\n      jump\t// in\n    tag_113:\n      swap2\n      pop\n      pop\n        /* \"Bank2.sol\":1469:1622  for (uint j = 2; j > i; j--) {... */\n      jump(tag_95)\n    tag_96:\n      pop\n        /* \"Bank2.sol\":1654:1658  user */\n      dup3\n        /* \"Bank2.sol\":1640:1648  topUsers */\n      0x02\n        /* \"Bank2.sol\":1649:1650  i */\n      dup3\n        /* \"Bank2.sol\":1640:1651  topUsers[i] */\n      0x03\n      dup2\n      lt\n      tag_115\n      jumpi\n      tag_116\n      tag_80\n      jump\t// in\n    tag_116:\n    tag_115:\n      add\n      0x00\n        /* \"Bank2.sol\":1640:1658  topUsers[i] = user */\n      0x0100\n      exp\n      dup2\n      sload\n      dup2\n      0xffffffffffffffffffffffffffffffffffffffff\n      mul\n      not\n      and\n      swap1\n      dup4\n      0xffffffffffffffffffffffffffffffffffffffff\n      and\n      mul\n      or\n      swap1\n      sstore\n      pop\n        /* \"Bank2.sol\":1693:1704  userBalance */\n      dup2\n        /* \"Bank2.sol\":1677:1687  topAmounts */\n      0x05\n        /* \"Bank2.sol\":1688:1689  i */\n      dup3\n        /* \"Bank2.sol\":1677:1690  topAmounts[i] */\n      0x03\n      dup2\n      lt\n      tag_118\n      jumpi\n      tag_119\n      tag_80\n      jump\t// in\n    tag_119:\n    tag_118:\n      add\n        /* \"Bank2.sol\":1677:1704  topAmounts[i] = userBalance */\n      dup2\n      swap1\n      sstore\n      pop\n        /* \"Bank2.sol\":1723:1728  break */\n      jump(tag_89)\n        /* \"Bank2.sol\":1371:1744  if (userBalance > topAmounts[i]) {... */\n    tag_94:\n        /* \"Bank2.sol\":1351:1354  i++ */\n      dup1\n      dup1\n      0x01\n      add\n      swap2\n      pop\n      pop\n        /* \"Bank2.sol\":1327:1755  for (uint i = 0; i < 3; i++) {... */\n      jump(tag_88)\n    tag_89:\n      pop\n        /* \"Bank2.sol\":974:1762  {... */\n      pop\n        /* \"Bank2.sol\":926:1762  function _updateTopUsers(address user) internal {... */\n    tag_74:\n      pop\n      jump\t// out\n        /* \"Bank2.sol\":1824:2246  function _sortTopUsers() internal {... */\n    tag_87:\n        /* \"Bank2.sol\":1874:1880  uint i */\n      0x00\n        /* \"Bank2.sol\":1883:1884  0 */\n      0x00\n        /* \"Bank2.sol\":1874:1884  uint i = 0 */\n      swap1\n      pop\n        /* \"Bank2.sol\":1869:2239  for (uint i = 0; i < 2; i++) {... */\n    tag_122:\n        /* \"Bank2.sol\":1890:1891  2 */\n      0x02\n        /* \"Bank2.sol\":1886:1887  i */\n      dup2\n        /* \"Bank2.sol\":1886:1891  i < 2 */\n      lt\n        /* \"Bank2.sol\":1869:2239  for (uint i = 0; i < 2; i++) {... */\n      iszero\n      tag_123\n      jumpi\n        /* \"Bank2.sol\":1918:1924  uint j */\n      0x00\n        /* \"Bank2.sol\":1929:1930  1 */\n      0x01\n        /* \"Bank2.sol\":1927:1928  i */\n      dup3\n        /* \"Bank2.sol\":1927:1930  i+1 */\n      tag_128\n      swap2\n      swap1\n      tag_52\n      jump\t// in\n    tag_128:\n        /* \"Bank2.sol\":1918:1930  uint j = i+1 */\n      swap1\n      pop\n        /* \"Bank2.sol\":1913:2228  for (uint j = i+1; j < 3; j++) {... */\n    tag_125:\n        /* \"Bank2.sol\":1936:1937  3 */\n      0x03\n        /* \"Bank2.sol\":1932:1933  j */\n      dup2\n        /* \"Bank2.sol\":1932:1937  j < 3 */\n      lt\n        /* \"Bank2.sol\":1913:2228  for (uint j = i+1; j < 3; j++) {... */\n      iszero\n      tag_126\n      jumpi\n        /* \"Bank2.sol\":1983:1993  topAmounts */\n      0x05\n        /* \"Bank2.sol\":1994:1995  i */\n      dup3\n        /* \"Bank2.sol\":1983:1996  topAmounts[i] */\n      0x03\n      dup2\n      lt\n      tag_129\n      jumpi\n      tag_130\n      tag_80\n      jump\t// in\n    tag_130:\n    tag_129:\n      add\n      sload\n        /* \"Bank2.sol\":1967:1977  topAmounts */\n      0x05\n        /* \"Bank2.sol\":1978:1979  j */\n      dup3\n        /* \"Bank2.sol\":1967:1980  topAmounts[j] */\n      0x03\n      dup2\n      lt\n      tag_132\n      jumpi\n      tag_133\n      tag_80\n      jump\t// in\n    tag_133:\n    tag_132:\n      add\n      sload\n        /* \"Bank2.sol\":1967:1996  topAmounts[j] > topAmounts[i] */\n      gt\n        /* \"Bank2.sol\":1963:2213  if (topAmounts[j] > topAmounts[i]) {... */\n      iszero\n      tag_135\n      jumpi\n        /* \"Bank2.sol\":2086:2096  topAmounts */\n      0x05\n        /* \"Bank2.sol\":2097:2098  j */\n      dup2\n        /* \"Bank2.sol\":2086:2099  topAmounts[j] */\n      0x03\n      dup2\n      lt\n      tag_136\n      jumpi\n      tag_137\n      tag_80\n      jump\t// in\n    tag_137:\n    tag_136:\n      add\n      sload\n        /* \"Bank2.sol\":2101:2111  topAmounts */\n      0x05\n        /* \"Bank2.sol\":2112:2113  i */\n      dup4\n        /* \"Bank2.sol\":2101:2114  topAmounts[i] */\n      0x03\n      dup2\n      lt\n      tag_139\n      jumpi\n      tag_140\n      tag_80\n      jump\t// in\n    tag_140:\n    tag_139:\n      add\n      sload\n        /* \"Bank2.sol\":2053:2063  topAmounts */\n      0x05\n        /* \"Bank2.sol\":2064:2065  i */\n      dup5\n        /* \"Bank2.sol\":2053:2066  topAmounts[i] */\n      0x03\n      dup2\n      lt\n      tag_142\n      jumpi\n      tag_143\n      tag_80\n      jump\t// in\n    tag_143:\n    tag_142:\n      add\n      0x00\n        /* \"Bank2.sol\":2068:2078  topAmounts */\n      0x05\n        /* \"Bank2.sol\":2079:2080  j */\n      dup6\n        /* \"Bank2.sol\":2068:2081  topAmounts[j] */\n      0x03\n      dup2\n      lt\n      tag_145\n      jumpi\n      tag_146\n      tag_80\n      jump\t// in\n    tag_146:\n    tag_145:\n      add\n      0x00\n        /* \"Bank2.sol\":2052:2115  (topAmounts[i], topAmounts[j]) = (topAmounts[j], topAmounts[i]) */\n      dup5\n      swap2\n      swap1\n      pop\n      sstore\n      dup4\n      swap2\n      swap1\n      pop\n      sstore\n      pop\n      pop\n        /* \"Bank2.sol\":2168:2176  topUsers */\n      0x02\n        /* \"Bank2.sol\":2177:2178  j */\n      dup2\n        /* \"Bank2.sol\":2168:2179  topUsers[j] */\n      0x03\n      dup2\n      lt\n      tag_148\n      jumpi\n      tag_149\n      tag_80\n      jump\t// in\n    tag_149:\n    tag_148:\n      add\n      0x00\n      swap1\n      sload\n      swap1\n      0x0100\n      exp\n      swap1\n      div\n      0xffffffffffffffffffffffffffffffffffffffff\n      and\n        /* \"Bank2.sol\":2181:2189  topUsers */\n      0x02\n        /* \"Bank2.sol\":2190:2191  i */\n      dup4\n        /* \"Bank2.sol\":2181:2192  topUsers[i] */\n      0x03\n      dup2\n      lt\n      tag_151\n      jumpi\n      tag_152\n      tag_80\n      jump\t// in\n    tag_152:\n    tag_151:\n      add\n      0x00\n      swap1\n      sload\n      swap1\n      0x0100\n      exp\n      swap1\n      div\n      0xffffffffffffffffffffffffffffffffffffffff\n      and\n        /* \"Bank2.sol\":2139:2147  topUsers */\n      0x02\n        /* \"Bank2.sol\":2148:2149  i */\n      dup5\n        /* \"Bank2.sol\":2139:2150  topUsers[i] */\n      0x03\n      dup2\n      lt\n      tag_154\n      jumpi\n      tag_155\n      tag_80\n      jump\t// in\n    tag_155:\n    tag_154:\n      add\n      0x00\n        /* \"Bank2.sol\":2152:2160  topUsers */\n      0x02\n        /* \"Bank2.sol\":2161:2162  j */\n      dup6\n        /* \"Bank2.sol\":2152:2163  topUsers[j] */\n      0x03\n      dup2\n      lt\n      tag_157\n      jumpi\n      tag_158\n      tag_80\n      jump\t// in\n    tag_158:\n    tag_157:\n      add\n      0x00\n        /* \"Bank2.sol\":2138:2193  (topUsers[i], topUsers[j]) = (topUsers[j], topUsers[i]) */\n      dup5\n      swap2\n      swap1\n      0x0100\n      exp\n      dup2\n      sload\n      dup2\n      0xffffffffffffffffffffffffffffffffffffffff\n      mul\n      not\n      and\n      swap1\n      dup4\n      0xffffffffffffffffffffffffffffffffffffffff\n      and\n      mul\n      or\n      swap1\n      sstore\n      pop\n      dup4\n      swap2\n      swap1\n      0x0100\n      exp\n      dup2\n      sload\n      dup2\n      0xffffffffffffffffffffffffffffffffffffffff\n      mul\n      not\n      and\n      swap1\n      dup4\n      0xffffffffffffffffffffffffffffffffffffffff\n      and\n      mul\n      or\n      swap1\n      sstore\n      pop\n      pop\n      pop\n        /* \"Bank2.sol\":1963:2213  if (topAmounts[j] > topAmounts[i]) {... */\n    tag_135:\n        /* \"Bank2.sol\":1939:1942  j++ */\n      dup1\n      dup1\n      0x01\n      add\n      swap2\n      pop\n      pop\n        /* \"Bank2.sol\":1913:2228  for (uint j = i+1; j < 3; j++) {... */\n      jump(tag_125)\n    tag_126:\n      pop\n        /* \"Bank2.sol\":1893:1896  i++ */\n      dup1\n      dup1\n      0x01\n      add\n      swap2\n      pop\n      pop\n        /* \"Bank2.sol\":1869:2239  for (uint i = 0; i < 2; i++) {... */\n      jump(tag_122)\n    tag_123:\n      pop\n        /* \"Bank2.sol\":1824:2246  function _sortTopUsers() internal {... */\n      jump\t// out\n    tag_64:\n      mload(0x40)\n      dup1\n      0x60\n      add\n      0x40\n      mstore\n      dup1\n      0x03\n      swap1\n      0x20\n      dup3\n      mul\n      dup1\n      calldatasize\n      dup4\n      calldatacopy\n      dup1\n      dup3\n      add\n      swap2\n      pop\n      pop\n      swap1\n      pop\n      pop\n      swap1\n      jump\t// out\n    tag_66:\n      mload(0x40)\n      dup1\n      0x60\n      add\n      0x40\n      mstore\n      dup1\n      0x03\n      swap1\n      0x20\n      dup3\n      mul\n      dup1\n      calldatasize\n      dup4\n      calldatacopy\n      dup1\n      dup3\n      add\n      swap2\n      pop\n      pop\n      swap1\n      pop\n      pop\n      swap1\n      jump\t// out\n        /* \"#utility.yul\":88:205   */\n    tag_161:\n        /* \"#utility.yul\":197:198   */\n      0x00\n        /* \"#utility.yul\":194:195   */\n      0x00\n        /* \"#utility.yul\":187:199   */\n      revert\n        /* \"#utility.yul\":334:460   */\n    tag_163:\n        /* \"#utility.yul\":371:378   */\n      0x00\n        /* \"#utility.yul\":411:453   */\n      0xffffffffffffffffffffffffffffffffffffffff\n        /* \"#utility.yul\":404:409   */\n      dup3\n        /* \"#utility.yul\":400:454   */\n      and\n        /* \"#utility.yul\":389:454   */\n      swap1\n      pop\n        /* \"#utility.yul\":334:460   */\n      swap2\n      swap1\n      pop\n      jump\t// out\n        /* \"#utility.yul\":466:562   */\n    tag_164:\n        /* \"#utility.yul\":503:510   */\n      0x00\n        /* \"#utility.yul\":532:556   */\n      tag_198\n        /* \"#utility.yul\":550:555   */\n      dup3\n        /* \"#utility.yul\":532:556   */\n      tag_163\n      jump\t// in\n    tag_198:\n        /* \"#utility.yul\":521:556   */\n      swap1\n      pop\n        /* \"#utility.yul\":466:562   */\n      swap2\n      swap1\n      pop\n      jump\t// out\n        /* \"#utility.yul\":568:690   */\n    tag_165:\n        /* \"#utility.yul\":641:665   */\n      tag_200\n        /* \"#utility.yul\":659:664   */\n      dup2\n        /* \"#utility.yul\":641:665   */\n      tag_164\n      jump\t// in\n    tag_200:\n        /* \"#utility.yul\":634:639   */\n      dup2\n        /* \"#utility.yul\":631:666   */\n      eq\n        /* \"#utility.yul\":621:684   */\n      tag_201\n      jumpi\n        /* \"#utility.yul\":680:681   */\n      0x00\n        /* \"#utility.yul\":677:678   */\n      0x00\n        /* \"#utility.yul\":670:682   */\n      revert\n        /* \"#utility.yul\":621:684   */\n    tag_201:\n        /* \"#utility.yul\":568:690   */\n      pop\n      jump\t// out\n        /* \"#utility.yul\":696:835   */\n    tag_166:\n        /* \"#utility.yul\":742:747   */\n      0x00\n        /* \"#utility.yul\":780:786   */\n      dup2\n        /* \"#utility.yul\":767:787   */\n      calldataload\n        /* \"#utility.yul\":758:787   */\n      swap1\n      pop\n        /* \"#utility.yul\":796:829   */\n      tag_203\n        /* \"#utility.yul\":823:828   */\n      dup2\n        /* \"#utility.yul\":796:829   */\n      tag_165\n      jump\t// in\n    tag_203:\n        /* \"#utility.yul\":696:835   */\n      swap3\n      swap2\n      pop\n      pop\n      jump\t// out\n        /* \"#utility.yul\":841:1170   */\n    tag_18:\n        /* \"#utility.yul\":900:906   */\n      0x00\n        /* \"#utility.yul\":949:951   */\n      0x20\n        /* \"#utility.yul\":937:946   */\n      dup3\n        /* \"#utility.yul\":928:935   */\n      dup5\n        /* \"#utility.yul\":924:947   */\n      sub\n        /* \"#utility.yul\":920:952   */\n      slt\n        /* \"#utility.yul\":917:1036   */\n      iszero\n      tag_205\n      jumpi\n        /* \"#utility.yul\":955:1034   */\n      tag_206\n      tag_161\n      jump\t// in\n    tag_206:\n        /* \"#utility.yul\":917:1036   */\n    tag_205:\n        /* \"#utility.yul\":1075:1076   */\n      0x00\n        /* \"#utility.yul\":1100:1153   */\n      tag_207\n        /* \"#utility.yul\":1145:1152   */\n      dup5\n        /* \"#utility.yul\":1136:1142   */\n      dup3\n        /* \"#utility.yul\":1125:1134   */\n      dup6\n        /* \"#utility.yul\":1121:1143   */\n      add\n        /* \"#utility.yul\":1100:1153   */\n      tag_166\n      jump\t// in\n    tag_207:\n        /* \"#utility.yul\":1090:1153   */\n      swap2\n      pop\n        /* \"#utility.yul\":1046:1163   */\n      pop\n        /* \"#utility.yul\":841:1170   */\n      swap3\n      swap2\n      pop\n      pop\n      jump\t// out\n        /* \"#utility.yul\":1176:1253   */\n    tag_167:\n        /* \"#utility.yul\":1213:1220   */\n      0x00\n        /* \"#utility.yul\":1242:1247   */\n      dup2\n        /* \"#utility.yul\":1231:1247   */\n      swap1\n      pop\n        /* \"#utility.yul\":1176:1253   */\n      swap2\n      swap1\n      pop\n      jump\t// out\n        /* \"#utility.yul\":1259:1377   */\n    tag_168:\n        /* \"#utility.yul\":1346:1370   */\n      tag_210\n        /* \"#utility.yul\":1364:1369   */\n      dup2\n        /* \"#utility.yul\":1346:1370   */\n      tag_167\n      jump\t// in\n    tag_210:\n        /* \"#utility.yul\":1341:1344   */\n      dup3\n        /* \"#utility.yul\":1334:1371   */\n      mstore\n        /* \"#utility.yul\":1259:1377   */\n      pop\n      pop\n      jump\t// out\n        /* \"#utility.yul\":1383:1605   */\n    tag_21:\n        /* \"#utility.yul\":1476:1480   */\n      0x00\n        /* \"#utility.yul\":1514:1516   */\n      0x20\n        /* \"#utility.yul\":1503:1512   */\n      dup3\n        /* \"#utility.yul\":1499:1517   */\n      add\n        /* \"#utility.yul\":1491:1517   */\n      swap1\n      pop\n        /* \"#utility.yul\":1527:1598   */\n      tag_212\n        /* \"#utility.yul\":1595:1596   */\n      0x00\n        /* \"#utility.yul\":1584:1593   */\n      dup4\n        /* \"#utility.yul\":1580:1597   */\n      add\n        /* \"#utility.yul\":1571:1577   */\n      dup5\n        /* \"#utility.yul\":1527:1598   */\n      tag_168\n      jump\t// in\n    tag_212:\n        /* \"#utility.yul\":1383:1605   */\n      swap3\n      swap2\n      pop\n      pop\n      jump\t// out\n        /* \"#utility.yul\":1611:1733   */\n    tag_169:\n        /* \"#utility.yul\":1684:1708   */\n      tag_214\n        /* \"#utility.yul\":1702:1707   */\n      dup2\n        /* \"#utility.yul\":1684:1708   */\n      tag_167\n      jump\t// in\n    tag_214:\n        /* \"#utility.yul\":1677:1682   */\n      dup2\n        /* \"#utility.yul\":1674:1709   */\n      eq\n        /* \"#utility.yul\":1664:1727   */\n      tag_215\n      jumpi\n        /* \"#utility.yul\":1723:1724   */\n      0x00\n        /* \"#utility.yul\":1720:1721   */\n      0x00\n        /* \"#utility.yul\":1713:1725   */\n      revert\n        /* \"#utility.yul\":1664:1727   */\n    tag_215:\n        /* \"#utility.yul\":1611:1733   */\n      pop\n      jump\t// out\n        /* \"#utility.yul\":1739:1878   */\n    tag_170:\n        /* \"#utility.yul\":1785:1790   */\n      0x00\n        /* \"#utility.yul\":1823:1829   */\n      dup2\n        /* \"#utility.yul\":1810:1830   */\n      calldataload\n        /* \"#utility.yul\":1801:1830   */\n      swap1\n      pop\n        /* \"#utility.yul\":1839:1872   */\n      tag_217\n        /* \"#utility.yul\":1866:1871   */\n      dup2\n        /* \"#utility.yul\":1839:1872   */\n      tag_169\n      jump\t// in\n    tag_217:\n        /* \"#utility.yul\":1739:1878   */\n      swap3\n      swap2\n      pop\n      pop\n      jump\t// out\n        /* \"#utility.yul\":1884:2213   */\n    tag_25:\n        /* \"#utility.yul\":1943:1949   */\n      0x00\n        /* \"#utility.yul\":1992:1994   */\n      0x20\n        /* \"#utility.yul\":1980:1989   */\n      dup3\n        /* \"#utility.yul\":1971:1978   */\n      dup5\n        /* \"#utility.yul\":1967:1990   */\n      sub\n        /* \"#utility.yul\":1963:1995   */\n      slt\n        /* \"#utility.yul\":1960:2079   */\n      iszero\n      tag_219\n      jumpi\n        /* \"#utility.yul\":1998:2077   */\n      tag_220\n      tag_161\n      jump\t// in\n    tag_220:\n        /* \"#utility.yul\":1960:2079   */\n    tag_219:\n        /* \"#utility.yul\":2118:2119   */\n      0x00\n        /* \"#utility.yul\":2143:2196   */\n      tag_221\n        /* \"#utility.yul\":2188:2195   */\n      dup5\n        /* \"#utility.yul\":2179:2185   */\n      dup3\n        /* \"#utility.yul\":2168:2177   */\n      dup6\n        /* \"#utility.yul\":2164:2186   */\n      add\n        /* \"#utility.yul\":2143:2196   */\n      tag_170\n      jump\t// in\n    tag_221:\n        /* \"#utility.yul\":2133:2196   */\n      swap2\n      pop\n        /* \"#utility.yul\":2089:2206   */\n      pop\n        /* \"#utility.yul\":1884:2213   */\n      swap3\n      swap2\n      pop\n      pop\n      jump\t// out\n        /* \"#utility.yul\":2219:2323   */\n    tag_171:\n        /* \"#utility.yul\":2284:2290   */\n      0x00\n        /* \"#utility.yul\":2312:2316   */\n      0x03\n        /* \"#utility.yul\":2302:2316   */\n      swap1\n      pop\n        /* \"#utility.yul\":2219:2323   */\n      swap2\n      swap1\n      pop\n      jump\t// out\n        /* \"#utility.yul\":2329:2472   */\n    tag_172:\n        /* \"#utility.yul\":2426:2437   */\n      0x00\n        /* \"#utility.yul\":2463:2466   */\n      dup2\n        /* \"#utility.yul\":2448:2466   */\n      swap1\n      pop\n        /* \"#utility.yul\":2329:2472   */\n      swap3\n      swap2\n      pop\n      pop\n      jump\t// out\n        /* \"#utility.yul\":2478:2576   */\n    tag_173:\n        /* \"#utility.yul\":2543:2547   */\n      0x00\n        /* \"#utility.yul\":2566:2569   */\n      dup2\n        /* \"#utility.yul\":2558:2569   */\n      swap1\n      pop\n        /* \"#utility.yul\":2478:2576   */\n      swap2\n      swap1\n      pop\n      jump\t// out\n        /* \"#utility.yul\":2582:2690   */\n    tag_174:\n        /* \"#utility.yul\":2659:2683   */\n      tag_226\n        /* \"#utility.yul\":2677:2682   */\n      dup2\n        /* \"#utility.yul\":2659:2683   */\n      tag_164\n      jump\t// in\n    tag_226:\n        /* \"#utility.yul\":2654:2657   */\n      dup3\n        /* \"#utility.yul\":2647:2684   */\n      mstore\n        /* \"#utility.yul\":2582:2690   */\n      pop\n      pop\n      jump\t// out\n        /* \"#utility.yul\":2696:2875   */\n    tag_175:\n        /* \"#utility.yul\":2765:2775   */\n      0x00\n        /* \"#utility.yul\":2786:2832   */\n      tag_228\n        /* \"#utility.yul\":2828:2831   */\n      dup4\n        /* \"#utility.yul\":2820:2826   */\n      dup4\n        /* \"#utility.yul\":2786:2832   */\n      tag_174\n      jump\t// in\n    tag_228:\n        /* \"#utility.yul\":2864:2868   */\n      0x20\n        /* \"#utility.yul\":2859:2862   */\n      dup4\n        /* \"#utility.yul\":2855:2869   */\n      add\n        /* \"#utility.yul\":2841:2869   */\n      swap1\n      pop\n        /* \"#utility.yul\":2696:2875   */\n      swap3\n      swap2\n      pop\n      pop\n      jump\t// out\n        /* \"#utility.yul\":2881:2992   */\n    tag_176:\n        /* \"#utility.yul\":2949:2953   */\n      0x00\n        /* \"#utility.yul\":2981:2985   */\n      0x20\n        /* \"#utility.yul\":2976:2979   */\n      dup3\n        /* \"#utility.yul\":2972:2986   */\n      add\n        /* \"#utility.yul\":2964:2986   */\n      swap1\n      pop\n        /* \"#utility.yul\":2881:2992   */\n      swap2\n      swap1\n      pop\n      jump\t// out\n        /* \"#utility.yul\":3030:3724   */\n    tag_177:\n        /* \"#utility.yul\":3166:3218   */\n      tag_231\n        /* \"#utility.yul\":3212:3217   */\n      dup2\n        /* \"#utility.yul\":3166:3218   */\n      tag_171\n      jump\t// in\n    tag_231:\n        /* \"#utility.yul\":3234:3318   */\n      tag_232\n        /* \"#utility.yul\":3311:3317   */\n      dup2\n        /* \"#utility.yul\":3306:3309   */\n      dup5\n        /* \"#utility.yul\":3234:3318   */\n      tag_172\n      jump\t// in\n    tag_232:\n        /* \"#utility.yul\":3227:3318   */\n      swap3\n      pop\n        /* \"#utility.yul\":3342:3396   */\n      tag_233\n        /* \"#utility.yul\":3390:3395   */\n      dup3\n        /* \"#utility.yul\":3342:3396   */\n      tag_173\n      jump\t// in\n    tag_233:\n        /* \"#utility.yul\":3419:3426   */\n      dup1\n        /* \"#utility.yul\":3450:3451   */\n      0x00\n        /* \"#utility.yul\":3435:3717   */\n    tag_234:\n        /* \"#utility.yul\":3460:3466   */\n      dup4\n        /* \"#utility.yul\":3457:3458   */\n      dup2\n        /* \"#utility.yul\":3454:3467   */\n      lt\n        /* \"#utility.yul\":3435:3717   */\n      iszero\n      tag_236\n      jumpi\n        /* \"#utility.yul\":3536:3542   */\n      dup2\n        /* \"#utility.yul\":3530:3543   */\n      mload\n        /* \"#utility.yul\":3563:3626   */\n      tag_237\n        /* \"#utility.yul\":3622:3625   */\n      dup8\n        /* \"#utility.yul\":3607:3620   */\n      dup3\n        /* \"#utility.yul\":3563:3626   */\n      tag_175\n      jump\t// in\n    tag_237:\n        /* \"#utility.yul\":3556:3626   */\n      swap7\n      pop\n        /* \"#utility.yul\":3649:3707   */\n      tag_238\n        /* \"#utility.yul\":3700:3706   */\n      dup4\n        /* \"#utility.yul\":3649:3707   */\n      tag_176\n      jump\t// in\n    tag_238:\n        /* \"#utility.yul\":3639:3707   */\n      swap3\n      pop\n        /* \"#utility.yul\":3495:3717   */\n      pop\n        /* \"#utility.yul\":3482:3483   */\n      0x01\n        /* \"#utility.yul\":3479:3480   */\n      dup2\n        /* \"#utility.yul\":3475:3484   */\n      add\n        /* \"#utility.yul\":3470:3484   */\n      swap1\n      pop\n        /* \"#utility.yul\":3435:3717   */\n      jump(tag_234)\n    tag_236:\n        /* \"#utility.yul\":3439:3453   */\n      pop\n        /* \"#utility.yul\":3142:3724   */\n      pop\n      pop\n      pop\n        /* \"#utility.yul\":3030:3724   */\n      pop\n      pop\n      jump\t// out\n        /* \"#utility.yul\":3730:3834   */\n    tag_178:\n        /* \"#utility.yul\":3795:3801   */\n      0x00\n        /* \"#utility.yul\":3823:3827   */\n      0x03\n        /* \"#utility.yul\":3813:3827   */\n      swap1\n      pop\n        /* \"#utility.yul\":3730:3834   */\n      swap2\n      swap1\n      pop\n      jump\t// out\n        /* \"#utility.yul\":3840:3983   */\n    tag_179:\n        /* \"#utility.yul\":3937:3948   */\n      0x00\n        /* \"#utility.yul\":3974:3977   */\n      dup2\n        /* \"#utility.yul\":3959:3977   */\n      swap1\n      pop\n        /* \"#utility.yul\":3840:3983   */\n      swap3\n      swap2\n      pop\n      pop\n      jump\t// out\n        /* \"#utility.yul\":3989:4087   */\n    tag_180:\n        /* \"#utility.yul\":4054:4058   */\n      0x00\n        /* \"#utility.yul\":4077:4080   */\n      dup2\n        /* \"#utility.yul\":4069:4080   */\n      swap1\n      pop\n        /* \"#utility.yul\":3989:4087   */\n      swap2\n      swap1\n      pop\n      jump\t// out\n        /* \"#utility.yul\":4093:4201   */\n    tag_181:\n        /* \"#utility.yul\":4170:4194   */\n      tag_243\n        /* \"#utility.yul\":4188:4193   */\n      dup2\n        /* \"#utility.yul\":4170:4194   */\n      tag_167\n      jump\t// in\n    tag_243:\n        /* \"#utility.yul\":4165:4168   */\n      dup3\n        /* \"#utility.yul\":4158:4195   */\n      mstore\n        /* \"#utility.yul\":4093:4201   */\n      pop\n      pop\n      jump\t// out\n        /* \"#utility.yul\":4207:4386   */\n    tag_182:\n        /* \"#utility.yul\":4276:4286   */\n      0x00\n        /* \"#utility.yul\":4297:4343   */\n      tag_245\n        /* \"#utility.yul\":4339:4342   */\n      dup4\n        /* \"#utility.yul\":4331:4337   */\n      dup4\n        /* \"#utility.yul\":4297:4343   */\n      tag_181\n      jump\t// in\n    tag_245:\n        /* \"#utility.yul\":4375:4379   */\n      0x20\n        /* \"#utility.yul\":4370:4373   */\n      dup4\n        /* \"#utility.yul\":4366:4380   */\n      add\n        /* \"#utility.yul\":4352:4380   */\n      swap1\n      pop\n        /* \"#utility.yul\":4207:4386   */\n      swap3\n      swap2\n      pop\n      pop\n      jump\t// out\n        /* \"#utility.yul\":4392:4503   */\n    tag_183:\n        /* \"#utility.yul\":4460:4464   */\n      0x00\n        /* \"#utility.yul\":4492:4496   */\n      0x20\n        /* \"#utility.yul\":4487:4490   */\n      dup3\n        /* \"#utility.yul\":4483:4497   */\n      add\n        /* \"#utility.yul\":4475:4497   */\n      swap1\n      pop\n        /* \"#utility.yul\":4392:4503   */\n      swap2\n      swap1\n      pop\n      jump\t// out\n        /* \"#utility.yul\":4541:5235   */\n    tag_184:\n        /* \"#utility.yul\":4677:4729   */\n      tag_248\n        /* \"#utility.yul\":4723:4728   */\n      dup2\n        /* \"#utility.yul\":4677:4729   */\n      tag_178\n      jump\t// in\n    tag_248:\n        /* \"#utility.yul\":4745:4829   */\n      tag_249\n        /* \"#utility.yul\":4822:4828   */\n      dup2\n        /* \"#utility.yul\":4817:4820   */\n      dup5\n        /* \"#utility.yul\":4745:4829   */\n      tag_179\n      jump\t// in\n    tag_249:\n        /* \"#utility.yul\":4738:4829   */\n      swap3\n      pop\n        /* \"#utility.yul\":4853:4907   */\n      tag_250\n        /* \"#utility.yul\":4901:4906   */\n      dup3\n        /* \"#utility.yul\":4853:4907   */\n      tag_180\n      jump\t// in\n    tag_250:\n        /* \"#utility.yul\":4930:4937   */\n      dup1\n        /* \"#utility.yul\":4961:4962   */\n      0x00\n        /* \"#utility.yul\":4946:5228   */\n    tag_251:\n        /* \"#utility.yul\":4971:4977   */\n      dup4\n        /* \"#utility.yul\":4968:4969   */\n      dup2\n        /* \"#utility.yul\":4965:4978   */\n      lt\n        /* \"#utility.yul\":4946:5228   */\n      iszero\n      tag_253\n      jumpi\n        /* \"#utility.yul\":5047:5053   */\n      dup2\n        /* \"#utility.yul\":5041:5054   */\n      mload\n        /* \"#utility.yul\":5074:5137   */\n      tag_254\n        /* \"#utility.yul\":5133:5136   */\n      dup8\n        /* \"#utility.yul\":5118:5131   */\n      dup3\n        /* \"#utility.yul\":5074:5137   */\n      tag_182\n      jump\t// in\n    tag_254:\n        /* \"#utility.yul\":5067:5137   */\n      swap7\n      pop\n        /* \"#utility.yul\":5160:5218   */\n      tag_255\n        /* \"#utility.yul\":5211:5217   */\n      dup4\n        /* \"#utility.yul\":5160:5218   */\n      tag_183\n      jump\t// in\n    tag_255:\n        /* \"#utility.yul\":5150:5218   */\n      swap3\n      pop\n        /* \"#utility.yul\":5006:5228   */\n      pop\n        /* \"#utility.yul\":4993:4994   */\n      0x01\n        /* \"#utility.yul\":4990:4991   */\n      dup2\n        /* \"#utility.yul\":4986:4995   */\n      add\n        /* \"#utility.yul\":4981:4995   */\n      swap1\n      pop\n        /* \"#utility.yul\":4946:5228   */\n      jump(tag_251)\n    tag_253:\n        /* \"#utility.yul\":4950:4964   */\n      pop\n        /* \"#utility.yul\":4653:5235   */\n      pop\n      pop\n      pop\n        /* \"#utility.yul\":4541:5235   */\n      pop\n      pop\n      jump\t// out\n        /* \"#utility.yul\":5241:5758   */\n    tag_35:\n        /* \"#utility.yul\":5454:5458   */\n      0x00\n        /* \"#utility.yul\":5492:5495   */\n      0xc0\n        /* \"#utility.yul\":5481:5490   */\n      dup3\n        /* \"#utility.yul\":5477:5496   */\n      add\n        /* \"#utility.yul\":5469:5496   */\n      swap1\n      pop\n        /* \"#utility.yul\":5506:5623   */\n      tag_257\n        /* \"#utility.yul\":5620:5621   */\n      0x00\n        /* \"#utility.yul\":5609:5618   */\n      dup4\n        /* \"#utility.yul\":5605:5622   */\n      add\n        /* \"#utility.yul\":5596:5602   */\n      dup6\n        /* \"#utility.yul\":5506:5623   */\n      tag_177\n      jump\t// in\n    tag_257:\n        /* \"#utility.yul\":5633:5751   */\n      tag_258\n        /* \"#utility.yul\":5747:5749   */\n      0x60\n        /* \"#utility.yul\":5736:5745   */\n      dup4\n        /* \"#utility.yul\":5732:5750   */\n      add\n        /* \"#utility.yul\":5723:5729   */\n      dup5\n        /* \"#utility.yul\":5633:5751   */\n      tag_184\n      jump\t// in\n    tag_258:\n        /* \"#utility.yul\":5241:5758   */\n      swap4\n      swap3\n      pop\n      pop\n      pop\n      jump\t// out\n        /* \"#utility.yul\":5764:5882   */\n    tag_185:\n        /* \"#utility.yul\":5851:5875   */\n      tag_260\n        /* \"#utility.yul\":5869:5874   */\n      dup2\n        /* \"#utility.yul\":5851:5875   */\n      tag_164\n      jump\t// in\n    tag_260:\n        /* \"#utility.yul\":5846:5849   */\n      dup3\n        /* \"#utility.yul\":5839:5876   */\n      mstore\n        /* \"#utility.yul\":5764:5882   */\n      pop\n      pop\n      jump\t// out\n        /* \"#utility.yul\":5888:6110   */\n    tag_41:\n        /* \"#utility.yul\":5981:5985   */\n      0x00\n        /* \"#utility.yul\":6019:6021   */\n      0x20\n        /* \"#utility.yul\":6008:6017   */\n      dup3\n        /* \"#utility.yul\":6004:6022   */\n      add\n        /* \"#utility.yul\":5996:6022   */\n      swap1\n      pop\n        /* \"#utility.yul\":6032:6103   */\n      tag_262\n        /* \"#utility.yul\":6100:6101   */\n      0x00\n        /* \"#utility.yul\":6089:6098   */\n      dup4\n        /* \"#utility.yul\":6085:6102   */\n      add\n        /* \"#utility.yul\":6076:6082   */\n      dup5\n        /* \"#utility.yul\":6032:6103   */\n      tag_185\n      jump\t// in\n    tag_262:\n        /* \"#utility.yul\":5888:6110   */\n      swap3\n      swap2\n      pop\n      pop\n      jump\t// out\n        /* \"#utility.yul\":6116:6285   */\n    tag_186:\n        /* \"#utility.yul\":6200:6211   */\n      0x00\n        /* \"#utility.yul\":6234:6240   */\n      dup3\n        /* \"#utility.yul\":6229:6232   */\n      dup3\n        /* \"#utility.yul\":6222:6241   */\n      mstore\n        /* \"#utility.yul\":6274:6278   */\n      0x20\n        /* \"#utility.yul\":6269:6272   */\n      dup3\n        /* \"#utility.yul\":6265:6279   */\n      add\n        /* \"#utility.yul\":6250:6279   */\n      swap1\n      pop\n        /* \"#utility.yul\":6116:6285   */\n      swap3\n      swap2\n      pop\n      pop\n      jump\t// out\n        /* \"#utility.yul\":6291:6464   */\n    tag_187:\n        /* \"#utility.yul\":6431:6456   */\n      0x4d7573742062652067726561746572207468616e20302e000000000000000000\n        /* \"#utility.yul\":6427:6428   */\n      0x00\n        /* \"#utility.yul\":6419:6425   */\n      dup3\n        /* \"#utility.yul\":6415:6429   */\n      add\n        /* \"#utility.yul\":6408:6457   */\n      mstore\n        /* \"#utility.yul\":6291:6464   */\n      pop\n      jump\t// out\n        /* \"#utility.yul\":6470:6836   */\n    tag_188:\n        /* \"#utility.yul\":6612:6615   */\n      0x00\n        /* \"#utility.yul\":6633:6700   */\n      tag_266\n        /* \"#utility.yul\":6697:6699   */\n      0x17\n        /* \"#utility.yul\":6692:6695   */\n      dup4\n        /* \"#utility.yul\":6633:6700   */\n      tag_186\n      jump\t// in\n    tag_266:\n        /* \"#utility.yul\":6626:6700   */\n      swap2\n      pop\n        /* \"#utility.yul\":6709:6802   */\n      tag_267\n        /* \"#utility.yul\":6798:6801   */\n      dup3\n        /* \"#utility.yul\":6709:6802   */\n      tag_187\n      jump\t// in\n    tag_267:\n        /* \"#utility.yul\":6827:6829   */\n      0x20\n        /* \"#utility.yul\":6822:6825   */\n      dup3\n        /* \"#utility.yul\":6818:6830   */\n      add\n        /* \"#utility.yul\":6811:6830   */\n      swap1\n      pop\n        /* \"#utility.yul\":6470:6836   */\n      swap2\n      swap1\n      pop\n      jump\t// out\n        /* \"#utility.yul\":6842:7261   */\n    tag_50:\n        /* \"#utility.yul\":7008:7012   */\n      0x00\n        /* \"#utility.yul\":7046:7048   */\n      0x20\n        /* \"#utility.yul\":7035:7044   */\n      dup3\n        /* \"#utility.yul\":7031:7049   */\n      add\n        /* \"#utility.yul\":7023:7049   */\n      swap1\n      pop\n        /* \"#utility.yul\":7095:7104   */\n      dup2\n        /* \"#utility.yul\":7089:7093   */\n      dup2\n        /* \"#utility.yul\":7085:7105   */\n      sub\n        /* \"#utility.yul\":7081:7082   */\n      0x00\n        /* \"#utility.yul\":7070:7079   */\n      dup4\n        /* \"#utility.yul\":7066:7083   */\n      add\n        /* \"#utility.yul\":7059:7106   */\n      mstore\n        /* \"#utility.yul\":7123:7254   */\n      tag_269\n        /* \"#utility.yul\":7249:7253   */\n      dup2\n        /* \"#utility.yul\":7123:7254   */\n      tag_188\n      jump\t// in\n    tag_269:\n        /* \"#utility.yul\":7115:7254   */\n      swap1\n      pop\n        /* \"#utility.yul\":6842:7261   */\n      swap2\n      swap1\n      pop\n      jump\t// out\n        /* \"#utility.yul\":7267:7447   */\n    tag_189:\n        /* \"#utility.yul\":7315:7392   */\n      0x4e487b7100000000000000000000000000000000000000000000000000000000\n        /* \"#utility.yul\":7312:7313   */\n      0x00\n        /* \"#utility.yul\":7305:7393   */\n      mstore\n        /* \"#utility.yul\":7412:7416   */\n      0x11\n        /* \"#utility.yul\":7409:7410   */\n      0x04\n        /* \"#utility.yul\":7402:7417   */\n      mstore\n        /* \"#utility.yul\":7436:7440   */\n      0x24\n        /* \"#utility.yul\":7433:7434   */\n      0x00\n        /* \"#utility.yul\":7426:7441   */\n      revert\n        /* \"#utility.yul\":7453:7644   */\n    tag_52:\n        /* \"#utility.yul\":7493:7496   */\n      0x00\n        /* \"#utility.yul\":7512:7532   */\n      tag_272\n        /* \"#utility.yul\":7530:7531   */\n      dup3\n        /* \"#utility.yul\":7512:7532   */\n      tag_167\n      jump\t// in\n    tag_272:\n        /* \"#utility.yul\":7507:7532   */\n      swap2\n      pop\n        /* \"#utility.yul\":7546:7566   */\n      tag_273\n        /* \"#utility.yul\":7564:7565   */\n      dup4\n        /* \"#utility.yul\":7546:7566   */\n      tag_167\n      jump\t// in\n    tag_273:\n        /* \"#utility.yul\":7541:7566   */\n      swap3\n      pop\n        /* \"#utility.yul\":7589:7590   */\n      dup3\n        /* \"#utility.yul\":7586:7587   */\n      dup3\n        /* \"#utility.yul\":7582:7591   */\n      add\n        /* \"#utility.yul\":7575:7591   */\n      swap1\n      pop\n        /* \"#utility.yul\":7610:7613   */\n      dup1\n        /* \"#utility.yul\":7607:7608   */\n      dup3\n        /* \"#utility.yul\":7604:7614   */\n      gt\n        /* \"#utility.yul\":7601:7637   */\n      iszero\n      tag_274\n      jumpi\n        /* \"#utility.yul\":7617:7635   */\n      tag_275\n      tag_189\n      jump\t// in\n    tag_275:\n        /* \"#utility.yul\":7601:7637   */\n    tag_274:\n        /* \"#utility.yul\":7453:7644   */\n      swap3\n      swap2\n      pop\n      pop\n      jump\t// out\n        /* \"#utility.yul\":7650:7872   */\n    tag_190:\n        /* \"#utility.yul\":7790:7824   */\n      0x4f6e6c79207468652061646d696e6973747261746f722063616e206578747261\n        /* \"#utility.yul\":7786:7787   */\n      0x00\n        /* \"#utility.yul\":7778:7784   */\n      dup3\n        /* \"#utility.yul\":7774:7788   */\n      add\n        /* \"#utility.yul\":7767:7825   */\n      mstore\n        /* \"#utility.yul\":7859:7864   */\n      0x63742e0000000000000000000000000000000000000000000000000000000000\n        /* \"#utility.yul\":7854:7856   */\n      0x20\n        /* \"#utility.yul\":7846:7852   */\n      dup3\n        /* \"#utility.yul\":7842:7857   */\n      add\n        /* \"#utility.yul\":7835:7865   */\n      mstore\n        /* \"#utility.yul\":7650:7872   */\n      pop\n      jump\t// out\n        /* \"#utility.yul\":7878:8244   */\n    tag_191:\n        /* \"#utility.yul\":8020:8023   */\n      0x00\n        /* \"#utility.yul\":8041:8108   */\n      tag_278\n        /* \"#utility.yul\":8105:8107   */\n      0x23\n        /* \"#utility.yul\":8100:8103   */\n      dup4\n        /* \"#utility.yul\":8041:8108   */\n      tag_186\n      jump\t// in\n    tag_278:\n        /* \"#utility.yul\":8034:8108   */\n      swap2\n      pop\n        /* \"#utility.yul\":8117:8210   */\n      tag_279\n        /* \"#utility.yul\":8206:8209   */\n      dup3\n        /* \"#utility.yul\":8117:8210   */\n      tag_190\n      jump\t// in\n    tag_279:\n        /* \"#utility.yul\":8235:8237   */\n      0x40\n        /* \"#utility.yul\":8230:8233   */\n      dup3\n        /* \"#utility.yul\":8226:8238   */\n      add\n        /* \"#utility.yul\":8219:8238   */\n      swap1\n      pop\n        /* \"#utility.yul\":7878:8244   */\n      swap2\n      swap1\n      pop\n      jump\t// out\n        /* \"#utility.yul\":8250:8669   */\n    tag_60:\n        /* \"#utility.yul\":8416:8420   */\n      0x00\n        /* \"#utility.yul\":8454:8456   */\n      0x20\n        /* \"#utility.yul\":8443:8452   */\n      dup3\n        /* \"#utility.yul\":8439:8457   */\n      add\n        /* \"#utility.yul\":8431:8457   */\n      swap1\n      pop\n        /* \"#utility.yul\":8503:8512   */\n      dup2\n        /* \"#utility.yul\":8497:8501   */\n      dup2\n        /* \"#utility.yul\":8493:8513   */\n      sub\n        /* \"#utility.yul\":8489:8490   */\n      0x00\n        /* \"#utility.yul\":8478:8487   */\n      dup4\n        /* \"#utility.yul\":8474:8491   */\n      add\n        /* \"#utility.yul\":8467:8514   */\n      mstore\n        /* \"#utility.yul\":8531:8662   */\n      tag_281\n        /* \"#utility.yul\":8657:8661   */\n      dup2\n        /* \"#utility.yul\":8531:8662   */\n      tag_191\n      jump\t// in\n    tag_281:\n        /* \"#utility.yul\":8523:8662   */\n      swap1\n      pop\n        /* \"#utility.yul\":8250:8669   */\n      swap2\n      swap1\n      pop\n      jump\t// out\n        /* \"#utility.yul\":8675:8855   */\n    tag_80:\n        /* \"#utility.yul\":8723:8800   */\n      0x4e487b7100000000000000000000000000000000000000000000000000000000\n        /* \"#utility.yul\":8720:8721   */\n      0x00\n        /* \"#utility.yul\":8713:8801   */\n      mstore\n        /* \"#utility.yul\":8820:8824   */\n      0x32\n        /* \"#utility.yul\":8817:8818   */\n      0x04\n        /* \"#utility.yul\":8810:8825   */\n      mstore\n        /* \"#utility.yul\":8844:8848   */\n      0x24\n        /* \"#utility.yul\":8841:8842   */\n      0x00\n        /* \"#utility.yul\":8834:8849   */\n      revert\n        /* \"#utility.yul\":8861:9055   */\n    tag_99:\n        /* \"#utility.yul\":8901:8905   */\n      0x00\n        /* \"#utility.yul\":8921:8941   */\n      tag_284\n        /* \"#utility.yul\":8939:8940   */\n      dup3\n        /* \"#utility.yul\":8921:8941   */\n      tag_167\n      jump\t// in\n    tag_284:\n        /* \"#utility.yul\":8916:8941   */\n      swap2\n      pop\n        /* \"#utility.yul\":8955:8975   */\n      tag_285\n        /* \"#utility.yul\":8973:8974   */\n      dup4\n        /* \"#utility.yul\":8955:8975   */\n      tag_167\n      jump\t// in\n    tag_285:\n        /* \"#utility.yul\":8950:8975   */\n      swap3\n      pop\n        /* \"#utility.yul\":8999:9000   */\n      dup3\n        /* \"#utility.yul\":8996:8997   */\n      dup3\n        /* \"#utility.yul\":8992:9001   */\n      sub\n        /* \"#utility.yul\":8984:9001   */\n      swap1\n      pop\n        /* \"#utility.yul\":9023:9024   */\n      dup2\n        /* \"#utility.yul\":9017:9021   */\n      dup2\n        /* \"#utility.yul\":9014:9025   */\n      gt\n        /* \"#utility.yul\":9011:9048   */\n      iszero\n      tag_286\n      jumpi\n        /* \"#utility.yul\":9028:9046   */\n      tag_287\n      tag_189\n      jump\t// in\n    tag_287:\n        /* \"#utility.yul\":9011:9048   */\n    tag_286:\n        /* \"#utility.yul\":8861:9055   */\n      swap3\n      swap2\n      pop\n      pop\n      jump\t// out\n        /* \"#utility.yul\":9061:9232   */\n    tag_114:\n        /* \"#utility.yul\":9100:9103   */\n      0x00\n        /* \"#utility.yul\":9123:9147   */\n      tag_289\n        /* \"#utility.yul\":9141:9146   */\n      dup3\n        /* \"#utility.yul\":9123:9147   */\n      tag_167\n      jump\t// in\n    tag_289:\n        /* \"#utility.yul\":9114:9147   */\n      swap2\n      pop\n        /* \"#utility.yul\":9169:9173   */\n      0x00\n        /* \"#utility.yul\":9162:9167   */\n      dup3\n        /* \"#utility.yul\":9159:9174   */\n      sub\n        /* \"#utility.yul\":9156:9197   */\n      tag_290\n      jumpi\n        /* \"#utility.yul\":9177:9195   */\n      tag_291\n      tag_189\n      jump\t// in\n    tag_291:\n        /* \"#utility.yul\":9156:9197   */\n    tag_290:\n        /* \"#utility.yul\":9224:9225   */\n      0x01\n        /* \"#utility.yul\":9217:9222   */\n      dup3\n        /* \"#utility.yul\":9213:9226   */\n      sub\n        /* \"#utility.yul\":9206:9226   */\n      swap1\n      pop\n        /* \"#utility.yul\":9061:9232   */\n      swap2\n      swap1\n      pop\n      jump\t// out\n\n    auxdata: 0xa26469706673582212206da3384481da746ebc3249d7afb188df30f7c681dbac7b114e0a76f1d52228d164736f6c634300081e0033\n}\n",
				"bytecode": {
					"linkReferences": {},
					"object": "6080604052348015600e575f5ffd5b50335f5f6101000a81548173ffffffffffffffffffffffffffffffffffffffff021916908373ffffffffffffffffffffffffffffffffffffffff160217905550610e278061005b5f395ff3fe608060405260043610610073575f3560e01c80634061a5bf1161004d5780634061a5bf14610114578063689dbf4e1461013f578063d0e30db01461017b578063f851a4401461018557610082565b806327e235e3146100865780633b9b5f8e146100c25780633ccfd60b146100fe57610082565b36610082576100806101af565b005b5f5ffd5b348015610091575f5ffd5b506100ac60048036038101906100a791906109ba565b61024f565b6040516100b991906109fd565b60405180910390f35b3480156100cd575f5ffd5b506100e860048036038101906100e39190610a40565b610264565b6040516100f591906109fd565b60405180910390f35b348015610109575f5ffd5b5061011261027d565b005b34801561011f575f5ffd5b50610128610371565b604051610136929190610bb5565b60405180910390f35b34801561014a575f5ffd5b5061016560048036038101906101609190610a40565b610440565b6040516101729190610beb565b60405180910390f35b6101836101af565b005b348015610190575f5ffd5b50610199610474565b6040516101a69190610beb565b60405180910390f35b5f34116101f1576040517f08c379a00000000000000000000000000000000000000000000000000000000081526004016101e890610c5e565b60405180910390fd5b3460015f3373ffffffffffffffffffffffffffffffffffffffff1673ffffffffffffffffffffffffffffffffffffffff1681526020019081526020015f205f82825461023d9190610ca9565b9250508190555061024d33610498565b565b6001602052805f5260405f205f915090505481565b60058160038110610273575f80fd5b015f915090505481565b5f5f9054906101000a900473ffffffffffffffffffffffffffffffffffffffff1673ffffffffffffffffffffffffffffffffffffffff163373ffffffffffffffffffffffffffffffffffffffff161461030b576040517f08c379a000000000000000000000000000000000000000000000000000000000815260040161030290610d4c565b60405180910390fd5b5f5f9054906101000a900473ffffffffffffffffffffffffffffffffffffffff1673ffffffffffffffffffffffffffffffffffffffff166108fc4790811502906040515f60405180830381858888f1935050505015801561036e573d5f5f3e3d5ffd5b50565b610379610918565b61038161093a565b60026005816003806020026040519081016040528092919082600380156103f2576020028201915b815f9054906101000a900473ffffffffffffffffffffffffffffffffffffffff1673ffffffffffffffffffffffffffffffffffffffff16815260200190600101908083116103a9575b5050505050915080600380602002604051908101604052809291908260038015610431576020028201915b81548152602001906001019080831161041d575b50505050509050915091509091565b6002816003811061044f575f80fd5b015f915054906101000a900473ffffffffffffffffffffffffffffffffffffffff1681565b5f5f9054906101000a900473ffffffffffffffffffffffffffffffffffffffff1681565b5f60015f8373ffffffffffffffffffffffffffffffffffffffff1673ffffffffffffffffffffffffffffffffffffffff1681526020019081526020015f205490505f5f90505b6003811015610584578273ffffffffffffffffffffffffffffffffffffffff166002826003811061051257610511610d6a565b5b015f9054906101000a900473ffffffffffffffffffffffffffffffffffffffff1673ffffffffffffffffffffffffffffffffffffffff160361057757816005826003811061056357610562610d6a565b5b0181905550610570610725565b5050610722565b80806001019150506104de565b505f5f90505b600381101561071f57600581600381106105a7576105a6610d6a565b5b0154821115610712575f600290505b8181111561069f5760026001826105cd9190610d97565b600381106105de576105dd610d6a565b5b015f9054906101000a900473ffffffffffffffffffffffffffffffffffffffff166002826003811061061357610612610d6a565b5b015f6101000a81548173ffffffffffffffffffffffffffffffffffffffff021916908373ffffffffffffffffffffffffffffffffffffffff16021790555060056001826106609190610d97565b6003811061067157610670610d6a565b5b01546005826003811061068757610686610d6a565b5b0181905550808061069790610dca565b9150506105b6565b5082600282600381106106b5576106b4610d6a565b5b015f6101000a81548173ffffffffffffffffffffffffffffffffffffffff021916908373ffffffffffffffffffffffffffffffffffffffff160217905550816005826003811061070857610707610d6a565b5b018190555061071f565b808060010191505061058a565b50505b50565b5f5f90505b6002811015610915575f6001826107419190610ca9565b90505b6003811015610907576005826003811061076157610760610d6a565b5b01546005826003811061077757610776610d6a565b5b015411156108fa576005816003811061079357610792610d6a565b5b0154600583600381106107a9576107a8610d6a565b5b0154600584600381106107bf576107be610d6a565b5b015f600585600381106107d5576107d4610d6a565b5b015f849190505583919050555050600281600381106107f7576107f6610d6a565b5b015f9054906101000a900473ffffffffffffffffffffffffffffffffffffffff166002836003811061082c5761082b610d6a565b5b015f9054906101000a900473ffffffffffffffffffffffffffffffffffffffff166002846003811061086157610860610d6a565b5b015f6002856003811061087757610876610d6a565b5b015f8491906101000a81548173ffffffffffffffffffffffffffffffffffffffff021916908373ffffffffffffffffffffffffffffffffffffffff1602179055508391906101000a81548173ffffffffffffffffffffffffffffffffffffffff021916908373ffffffffffffffffffffffffffffffffffffffff16021790555050505b8080600101915050610744565b50808060010191505061072a565b50565b6040518060600160405280600390602082028036833780820191505090505090565b6040518060600160405280600390602082028036833780820191505090505090565b5f5ffd5b5f73ffffffffffffffffffffffffffffffffffffffff82169050919050565b5f61098982610960565b9050919050565b6109998161097f565b81146109a3575f5ffd5b50565b5f813590506109b481610990565b92915050565b5f602082840312156109cf576109ce61095c565b5b5f6109dc848285016109a6565b91505092915050565b5f819050919050565b6109f7816109e5565b82525050565b5f602082019050610a105f8301846109ee565b92915050565b610a1f816109e5565b8114610a29575f5ffd5b50565b5f81359050610a3a81610a16565b92915050565b5f60208284031215610a5557610a5461095c565b5b5f610a6284828501610a2c565b91505092915050565b5f60039050919050565b5f81905092915050565b5f819050919050565b610a918161097f565b82525050565b5f610aa28383610a88565b60208301905092915050565b5f602082019050919050565b610ac381610a6b565b610acd8184610a75565b9250610ad882610a7f565b805f5b83811015610b08578151610aef8782610a97565b9650610afa83610aae565b925050600181019050610adb565b505050505050565b5f60039050919050565b5f81905092915050565b5f819050919050565b610b36816109e5565b82525050565b5f610b478383610b2d565b60208301905092915050565b5f602082019050919050565b610b6881610b10565b610b728184610b1a565b9250610b7d82610b24565b805f5b83811015610bad578151610b948782610b3c565b9650610b9f83610b53565b925050600181019050610b80565b505050505050565b5f60c082019050610bc85f830185610aba565b610bd56060830184610b5f565b9392505050565b610be58161097f565b82525050565b5f602082019050610bfe5f830184610bdc565b92915050565b5f82825260208201905092915050565b7f4d7573742062652067726561746572207468616e20302e0000000000000000005f82015250565b5f610c48601783610c04565b9150610c5382610c14565b602082019050919050565b5f6020820190508181035f830152610c7581610c3c565b9050919050565b7f4e487b71000000000000000000000000000000000000000000000000000000005f52601160045260245ffd5b5f610cb3826109e5565b9150610cbe836109e5565b9250828201905080821115610cd657610cd5610c7c565b5b92915050565b7f4f6e6c79207468652061646d696e6973747261746f722063616e2065787472615f8201527f63742e0000000000000000000000000000000000000000000000000000000000602082015250565b5f610d36602383610c04565b9150610d4182610cdc565b604082019050919050565b5f6020820190508181035f830152610d6381610d2a565b9050919050565b7f4e487b71000000000000000000000000000000000000000000000000000000005f52603260045260245ffd5b5f610da1826109e5565b9150610dac836109e5565b9250828203905081811115610dc457610dc3610c7c565b5b92915050565b5f610dd4826109e5565b91505f8203610de657610de5610c7c565b5b60018203905091905056fea26469706673582212206da3384481da746ebc3249d7afb188df30f7c681dbac7b114e0a76f1d52228d164736f6c634300081e0033",
					"opcodes": "PUSH1 0x80 PUSH1 0x40 MSTORE CALLVALUE DUP1 ISZERO PUSH1 0xE JUMPI PUSH0 PUSH0 REVERT JUMPDEST POP CALLER PUSH0 PUSH0 PUSH2 0x100 EXP DUP2 SLOAD DUP2 PUSH20 0xFFFFFFFFFFFFFFFFFFFFFFFFFFFFFFFFFFFFFFFF MUL NOT AND SWAP1 DUP4 PUSH20 0xFFFFFFFFFFFFFFFFFFFFFFFFFFFFFFFFFFFFFFFF AND MUL OR SWAP1 SSTORE POP PUSH2 0xE27 DUP1 PUSH2 0x5B PUSH0 CODECOPY PUSH0 RETURN INVALID PUSH1 0x80 PUSH1 0x40 MSTORE PUSH1 0x4 CALLDATASIZE LT PUSH2 0x73 JUMPI PUSH0 CALLDATALOAD PUSH1 0xE0 SHR DUP1 PUSH4 0x4061A5BF GT PUSH2 0x4D JUMPI DUP1 PUSH4 0x4061A5BF EQ PUSH2 0x114 JUMPI DUP1 PUSH4 0x689DBF4E EQ PUSH2 0x13F JUMPI DUP1 PUSH4 0xD0E30DB0 EQ PUSH2 0x17B JUMPI DUP1 PUSH4 0xF851A440 EQ PUSH2 0x185 JUMPI PUSH2 0x82 JUMP JUMPDEST DUP1 PUSH4 0x27E235E3 EQ PUSH2 0x86 JUMPI DUP1 PUSH4 0x3B9B5F8E EQ PUSH2 0xC2 JUMPI DUP1 PUSH4 0x3CCFD60B EQ PUSH2 0xFE JUMPI PUSH2 0x82 JUMP JUMPDEST CALLDATASIZE PUSH2 0x82 JUMPI PUSH2 0x80 PUSH2 0x1AF JUMP JUMPDEST STOP JUMPDEST PUSH0 PUSH0 REVERT JUMPDEST CALLVALUE DUP1 ISZERO PUSH2 0x91 JUMPI PUSH0 PUSH0 REVERT JUMPDEST POP PUSH2 0xAC PUSH1 0x4 DUP1 CALLDATASIZE SUB DUP2 ADD SWAP1 PUSH2 0xA7 SWAP2 SWAP1 PUSH2 0x9BA JUMP JUMPDEST PUSH2 0x24F JUMP JUMPDEST PUSH1 0x40 MLOAD PUSH2 0xB9 SWAP2 SWAP1 PUSH2 0x9FD JUMP JUMPDEST PUSH1 0x40 MLOAD DUP1 SWAP2 SUB SWAP1 RETURN JUMPDEST CALLVALUE DUP1 ISZERO PUSH2 0xCD JUMPI PUSH0 PUSH0 REVERT JUMPDEST POP PUSH2 0xE8 PUSH1 0x4 DUP1 CALLDATASIZE SUB DUP2 ADD SWAP1 PUSH2 0xE3 SWAP2 SWAP1 PUSH2 0xA40 JUMP JUMPDEST PUSH2 0x264 JUMP JUMPDEST PUSH1 0x40 MLOAD PUSH2 0xF5 SWAP2 SWAP1 PUSH2 0x9FD JUMP JUMPDEST PUSH1 0x40 MLOAD DUP1 SWAP2 SUB SWAP1 RETURN JUMPDEST CALLVALUE DUP1 ISZERO PUSH2 0x109 JUMPI PUSH0 PUSH0 REVERT JUMPDEST POP PUSH2 0x112 PUSH2 0x27D JUMP JUMPDEST STOP JUMPDEST CALLVALUE DUP1 ISZERO PUSH2 0x11F JUMPI PUSH0 PUSH0 REVERT JUMPDEST POP PUSH2 0x128 PUSH2 0x371 JUMP JUMPDEST PUSH1 0x40 MLOAD PUSH2 0x136 SWAP3 SWAP2 SWAP1 PUSH2 0xBB5 JUMP JUMPDEST PUSH1 0x40 MLOAD DUP1 SWAP2 SUB SWAP1 RETURN JUMPDEST CALLVALUE DUP1 ISZERO PUSH2 0x14A JUMPI PUSH0 PUSH0 REVERT JUMPDEST POP PUSH2 0x165 PUSH1 0x4 DUP1 CALLDATASIZE SUB DUP2 ADD SWAP1 PUSH2 0x160 SWAP2 SWAP1 PUSH2 0xA40 JUMP JUMPDEST PUSH2 0x440 JUMP JUMPDEST PUSH1 0x40 MLOAD PUSH2 0x172 SWAP2 SWAP1 PUSH2 0xBEB JUMP JUMPDEST PUSH1 0x40 MLOAD DUP1 SWAP2 SUB SWAP1 RETURN JUMPDEST PUSH2 0x183 PUSH2 0x1AF JUMP JUMPDEST STOP JUMPDEST CALLVALUE DUP1 ISZERO PUSH2 0x190 JUMPI PUSH0 PUSH0 REVERT JUMPDEST POP PUSH2 0x199 PUSH2 0x474 JUMP JUMPDEST PUSH1 0x40 MLOAD PUSH2 0x1A6 SWAP2 SWAP1 PUSH2 0xBEB JUMP JUMPDEST PUSH1 0x40 MLOAD DUP1 SWAP2 SUB SWAP1 RETURN JUMPDEST PUSH0 CALLVALUE GT PUSH2 0x1F1 JUMPI PUSH1 0x40 MLOAD PUSH32 0x8C379A000000000000000000000000000000000000000000000000000000000 DUP2 MSTORE PUSH1 0x4 ADD PUSH2 0x1E8 SWAP1 PUSH2 0xC5E JUMP JUMPDEST PUSH1 0x40 MLOAD DUP1 SWAP2 SUB SWAP1 REVERT JUMPDEST CALLVALUE PUSH1 0x1 PUSH0 CALLER PUSH20 0xFFFFFFFFFFFFFFFFFFFFFFFFFFFFFFFFFFFFFFFF AND PUSH20 0xFFFFFFFFFFFFFFFFFFFFFFFFFFFFFFFFFFFFFFFF AND DUP2 MSTORE PUSH1 0x20 ADD SWAP1 DUP2 MSTORE PUSH1 0x20 ADD PUSH0 KECCAK256 PUSH0 DUP3 DUP3 SLOAD PUSH2 0x23D SWAP2 SWAP1 PUSH2 0xCA9 JUMP JUMPDEST SWAP3 POP POP DUP2 SWAP1 SSTORE POP PUSH2 0x24D CALLER PUSH2 0x498 JUMP JUMPDEST JUMP JUMPDEST PUSH1 0x1 PUSH1 0x20 MSTORE DUP1 PUSH0 MSTORE PUSH1 0x40 PUSH0 KECCAK256 PUSH0 SWAP2 POP SWAP1 POP SLOAD DUP2 JUMP JUMPDEST PUSH1 0x5 DUP2 PUSH1 0x3 DUP2 LT PUSH2 0x273 JUMPI PUSH0 DUP1 REVERT JUMPDEST ADD PUSH0 SWAP2 POP SWAP1 POP SLOAD DUP2 JUMP JUMPDEST PUSH0 PUSH0 SWAP1 SLOAD SWAP1 PUSH2 0x100 EXP SWAP1 DIV PUSH20 0xFFFFFFFFFFFFFFFFFFFFFFFFFFFFFFFFFFFFFFFF AND PUSH20 0xFFFFFFFFFFFFFFFFFFFFFFFFFFFFFFFFFFFFFFFF AND CALLER PUSH20 0xFFFFFFFFFFFFFFFFFFFFFFFFFFFFFFFFFFFFFFFF AND EQ PUSH2 0x30B JUMPI PUSH1 0x40 MLOAD PUSH32 0x8C379A000000000000000000000000000000000000000000000000000000000 DUP2 MSTORE PUSH1 0x4 ADD PUSH2 0x302 SWAP1 PUSH2 0xD4C JUMP JUMPDEST PUSH1 0x40 MLOAD DUP1 SWAP2 SUB SWAP1 REVERT JUMPDEST PUSH0 PUSH0 SWAP1 SLOAD SWAP1 PUSH2 0x100 EXP SWAP1 DIV PUSH20 0xFFFFFFFFFFFFFFFFFFFFFFFFFFFFFFFFFFFFFFFF AND PUSH20 0xFFFFFFFFFFFFFFFFFFFFFFFFFFFFFFFFFFFFFFFF AND PUSH2 0x8FC SELFBALANCE SWAP1 DUP2 ISZERO MUL SWAP1 PUSH1 0x40 MLOAD PUSH0 PUSH1 0x40 MLOAD DUP1 DUP4 SUB DUP2 DUP6 DUP9 DUP9 CALL SWAP4 POP POP POP POP ISZERO DUP1 ISZERO PUSH2 0x36E JUMPI RETURNDATASIZE PUSH0 PUSH0 RETURNDATACOPY RETURNDATASIZE PUSH0 REVERT JUMPDEST POP JUMP JUMPDEST PUSH2 0x379 PUSH2 0x918 JUMP JUMPDEST PUSH2 0x381 PUSH2 0x93A JUMP JUMPDEST PUSH1 0x2 PUSH1 0x5 DUP2 PUSH1 0x3 DUP1 PUSH1 0x20 MUL PUSH1 0x40 MLOAD SWAP1 DUP2 ADD PUSH1 0x40 MSTORE DUP1 SWAP3 SWAP2 SWAP1 DUP3 PUSH1 0x3 DUP1 ISZERO PUSH2 0x3F2 JUMPI PUSH1 0x20 MUL DUP3 ADD SWAP2 JUMPDEST DUP2 PUSH0 SWAP1 SLOAD SWAP1 PUSH2 0x100 EXP SWAP1 DIV PUSH20 0xFFFFFFFFFFFFFFFFFFFFFFFFFFFFFFFFFFFFFFFF AND PUSH20 0xFFFFFFFFFFFFFFFFFFFFFFFFFFFFFFFFFFFFFFFF AND DUP2 MSTORE PUSH1 0x20 ADD SWAP1 PUSH1 0x1 ADD SWAP1 DUP1 DUP4 GT PUSH2 0x3A9 JUMPI JUMPDEST POP POP POP POP POP SWAP2 POP DUP1 PUSH1 0x3 DUP1 PUSH1 0x20 MUL PUSH1 0x40 MLOAD SWAP1 DUP2 ADD PUSH1 0x40 MSTORE DUP1 SWAP3 SWAP2 SWAP1 DUP3 PUSH1 0x3 DUP1 ISZERO PUSH2 0x431 JUMPI PUSH1 0x20 MUL DUP3 ADD SWAP2 JUMPDEST DUP2 SLOAD DUP2 MSTORE PUSH1 0x20 ADD SWAP1 PUSH1 0x1 ADD SWAP1 DUP1 DUP4 GT PUSH2 0x41D JUMPI JUMPDEST POP POP POP POP POP SWAP1 POP SWAP2 POP SWAP2 POP SWAP1 SWAP2 JUMP JUMPDEST PUSH1 0x2 DUP2 PUSH1 0x3 DUP2 LT PUSH2 0x44F JUMPI PUSH0 DUP1 REVERT JUMPDEST ADD PUSH0 SWAP2 POP SLOAD SWAP1 PUSH2 0x100 EXP SWAP1 DIV PUSH20 0xFFFFFFFFFFFFFFFFFFFFFFFFFFFFFFFFFFFFFFFF AND DUP2 JUMP JUMPDEST PUSH0 PUSH0 SWAP1 SLOAD SWAP1 PUSH2 0x100 EXP SWAP1 DIV PUSH20 0xFFFFFFFFFFFFFFFFFFFFFFFFFFFFFFFFFFFFFFFF AND DUP2 JUMP JUMPDEST PUSH0 PUSH1 0x1 PUSH0 DUP4 PUSH20 0xFFFFFFFFFFFFFFFFFFFFFFFFFFFFFFFFFFFFFFFF AND PUSH20 0xFFFFFFFFFFFFFFFFFFFFFFFFFFFFFFFFFFFFFFFF AND DUP2 MSTORE PUSH1 0x20 ADD SWAP1 DUP2 MSTORE PUSH1 0x20 ADD PUSH0 KECCAK256 SLOAD SWAP1 POP PUSH0 PUSH0 SWAP1 POP JUMPDEST PUSH1 0x3 DUP2 LT ISZERO PUSH2 0x584 JUMPI DUP3 PUSH20 0xFFFFFFFFFFFFFFFFFFFFFFFFFFFFFFFFFFFFFFFF AND PUSH1 0x2 DUP3 PUSH1 0x3 DUP2 LT PUSH2 0x512 JUMPI PUSH2 0x511 PUSH2 0xD6A JUMP JUMPDEST JUMPDEST ADD PUSH0 SWAP1 SLOAD SWAP1 PUSH2 0x100 EXP SWAP1 DIV PUSH20 0xFFFFFFFFFFFFFFFFFFFFFFFFFFFFFFFFFFFFFFFF AND PUSH20 0xFFFFFFFFFFFFFFFFFFFFFFFFFFFFFFFFFFFFFFFF AND SUB PUSH2 0x577 JUMPI DUP2 PUSH1 0x5 DUP3 PUSH1 0x3 DUP2 LT PUSH2 0x563 JUMPI PUSH2 0x562 PUSH2 0xD6A JUMP JUMPDEST JUMPDEST ADD DUP2 SWAP1 SSTORE POP PUSH2 0x570 PUSH2 0x725 JUMP JUMPDEST POP POP PUSH2 0x722 JUMP JUMPDEST DUP1 DUP1 PUSH1 0x1 ADD SWAP2 POP POP PUSH2 0x4DE JUMP JUMPDEST POP PUSH0 PUSH0 SWAP1 POP JUMPDEST PUSH1 0x3 DUP2 LT ISZERO PUSH2 0x71F JUMPI PUSH1 0x5 DUP2 PUSH1 0x3 DUP2 LT PUSH2 0x5A7 JUMPI PUSH2 0x5A6 PUSH2 0xD6A JUMP JUMPDEST JUMPDEST ADD SLOAD DUP3 GT ISZERO PUSH2 0x712 JUMPI PUSH0 PUSH1 0x2 SWAP1 POP JUMPDEST DUP2 DUP2 GT ISZERO PUSH2 0x69F JUMPI PUSH1 0x2 PUSH1 0x1 DUP3 PUSH2 0x5CD SWAP2 SWAP1 PUSH2 0xD97 JUMP JUMPDEST PUSH1 0x3 DUP2 LT PUSH2 0x5DE JUMPI PUSH2 0x5DD PUSH2 0xD6A JUMP JUMPDEST JUMPDEST ADD PUSH0 SWAP1 SLOAD SWAP1 PUSH2 0x100 EXP SWAP1 DIV PUSH20 0xFFFFFFFFFFFFFFFFFFFFFFFFFFFFFFFFFFFFFFFF AND PUSH1 0x2 DUP3 PUSH1 0x3 DUP2 LT PUSH2 0x613 JUMPI PUSH2 0x612 PUSH2 0xD6A JUMP JUMPDEST JUMPDEST ADD PUSH0 PUSH2 0x100 EXP DUP2 SLOAD DUP2 PUSH20 0xFFFFFFFFFFFFFFFFFFFFFFFFFFFFFFFFFFFFFFFF MUL NOT AND SWAP1 DUP4 PUSH20 0xFFFFFFFFFFFFFFFFFFFFFFFFFFFFFFFFFFFFFFFF AND MUL OR SWAP1 SSTORE POP PUSH1 0x5 PUSH1 0x1 DUP3 PUSH2 0x660 SWAP2 SWAP1 PUSH2 0xD97 JUMP JUMPDEST PUSH1 0x3 DUP2 LT PUSH2 0x671 JUMPI PUSH2 0x670 PUSH2 0xD6A JUMP JUMPDEST JUMPDEST ADD SLOAD PUSH1 0x5 DUP3 PUSH1 0x3 DUP2 LT PUSH2 0x687 JUMPI PUSH2 0x686 PUSH2 0xD6A JUMP JUMPDEST JUMPDEST ADD DUP2 SWAP1 SSTORE POP DUP1 DUP1 PUSH2 0x697 SWAP1 PUSH2 0xDCA JUMP JUMPDEST SWAP2 POP POP PUSH2 0x5B6 JUMP JUMPDEST POP DUP3 PUSH1 0x2 DUP3 PUSH1 0x3 DUP2 LT PUSH2 0x6B5 JUMPI PUSH2 0x6B4 PUSH2 0xD6A JUMP JUMPDEST JUMPDEST ADD PUSH0 PUSH2 0x100 EXP DUP2 SLOAD DUP2 PUSH20 0xFFFFFFFFFFFFFFFFFFFFFFFFFFFFFFFFFFFFFFFF MUL NOT AND SWAP1 DUP4 PUSH20 0xFFFFFFFFFFFFFFFFFFFFFFFFFFFFFFFFFFFFFFFF AND MUL OR SWAP1 SSTORE POP DUP2 PUSH1 0x5 DUP3 PUSH1 0x3 DUP2 LT PUSH2 0x708 JUMPI PUSH2 0x707 PUSH2 0xD6A JUMP JUMPDEST JUMPDEST ADD DUP2 SWAP1 SSTORE POP PUSH2 0x71F JUMP JUMPDEST DUP1 DUP1 PUSH1 0x1 ADD SWAP2 POP POP PUSH2 0x58A JUMP JUMPDEST POP POP JUMPDEST POP JUMP JUMPDEST PUSH0 PUSH0 SWAP1 POP JUMPDEST PUSH1 0x2 DUP2 LT ISZERO PUSH2 0x915 JUMPI PUSH0 PUSH1 0x1 DUP3 PUSH2 0x741 SWAP2 SWAP1 PUSH2 0xCA9 JUMP JUMPDEST SWAP1 POP JUMPDEST PUSH1 0x3 DUP2 LT ISZERO PUSH2 0x907 JUMPI PUSH1 0x5 DUP3 PUSH1 0x3 DUP2 LT PUSH2 0x761 JUMPI PUSH2 0x760 PUSH2 0xD6A JUMP JUMPDEST JUMPDEST ADD SLOAD PUSH1 0x5 DUP3 PUSH1 0x3 DUP2 LT PUSH2 0x777 JUMPI PUSH2 0x776 PUSH2 0xD6A JUMP JUMPDEST JUMPDEST ADD SLOAD GT ISZERO PUSH2 0x8FA JUMPI PUSH1 0x5 DUP2 PUSH1 0x3 DUP2 LT PUSH2 0x793 JUMPI PUSH2 0x792 PUSH2 0xD6A JUMP JUMPDEST JUMPDEST ADD SLOAD PUSH1 0x5 DUP4 PUSH1 0x3 DUP2 LT PUSH2 0x7A9 JUMPI PUSH2 0x7A8 PUSH2 0xD6A JUMP JUMPDEST JUMPDEST ADD SLOAD PUSH1 0x5 DUP5 PUSH1 0x3 DUP2 LT PUSH2 0x7BF JUMPI PUSH2 0x7BE PUSH2 0xD6A JUMP JUMPDEST JUMPDEST ADD PUSH0 PUSH1 0x5 DUP6 PUSH1 0x3 DUP2 LT PUSH2 0x7D5 JUMPI PUSH2 0x7D4 PUSH2 0xD6A JUMP JUMPDEST JUMPDEST ADD PUSH0 DUP5 SWAP2 SWAP1 POP SSTORE DUP4 SWAP2 SWAP1 POP SSTORE POP POP PUSH1 0x2 DUP2 PUSH1 0x3 DUP2 LT PUSH2 0x7F7 JUMPI PUSH2 0x7F6 PUSH2 0xD6A JUMP JUMPDEST JUMPDEST ADD PUSH0 SWAP1 SLOAD SWAP1 PUSH2 0x100 EXP SWAP1 DIV PUSH20 0xFFFFFFFFFFFFFFFFFFFFFFFFFFFFFFFFFFFFFFFF AND PUSH1 0x2 DUP4 PUSH1 0x3 DUP2 LT PUSH2 0x82C JUMPI PUSH2 0x82B PUSH2 0xD6A JUMP JUMPDEST JUMPDEST ADD PUSH0 SWAP1 SLOAD SWAP1 PUSH2 0x100 EXP SWAP1 DIV PUSH20 0xFFFFFFFFFFFFFFFFFFFFFFFFFFFFFFFFFFFFFFFF AND PUSH1 0x2 DUP5 PUSH1 0x3 DUP2 LT PUSH2 0x861 JUMPI PUSH2 0x860 PUSH2 0xD6A JUMP JUMPDEST JUMPDEST ADD PUSH0 PUSH1 0x2 DUP6 PUSH1 0x3 DUP2 LT PUSH2 0x877 JUMPI PUSH2 0x876 PUSH2 0xD6A JUMP JUMPDEST JUMPDEST ADD PUSH0 DUP5 SWAP2 SWAP1 PUSH2 0x100 EXP DUP2 SLOAD DUP2 PUSH20 0xFFFFFFFFFFFFFFFFFFFFFFFFFFFFFFFFFFFFFFFF MUL NOT AND SWAP1 DUP4 PUSH20 0xFFFFFFFFFFFFFFFFFFFFFFFFFFFFFFFFFFFFFFFF AND MUL OR SWAP1 SSTORE POP DUP4 SWAP2 SWAP1 PUSH2 0x100 EXP DUP2 SLOAD DUP2 PUSH20 0xFFFFFFFFFFFFFFFFFFFFFFFFFFFFFFFFFFFFFFFF MUL NOT AND SWAP1 DUP4 PUSH20 0xFFFFFFFFFFFFFFFFFFFFFFFFFFFFFFFFFFFFFFFF AND MUL OR SWAP1 SSTORE POP POP POP JUMPDEST DUP1 DUP1 PUSH1 0x1 ADD SWAP2 POP POP PUSH2 0x744 JUMP JUMPDEST POP DUP1 DUP1 PUSH1 0x1 ADD SWAP2 POP POP PUSH2 0x72A JUMP JUMPDEST POP JUMP JUMPDEST PUSH1 0x40 MLOAD DUP1 PUSH1 0x60 ADD PUSH1 0x40 MSTORE DUP1 PUSH1 0x3 SWAP1 PUSH1 0x20 DUP3 MUL DUP1 CALLDATASIZE DUP4 CALLDATACOPY DUP1 DUP3 ADD SWAP2 POP POP SWAP1 POP POP SWAP1 JUMP JUMPDEST PUSH1 0x40 MLOAD DUP1 PUSH1 0x60 ADD PUSH1 0x40 MSTORE DUP1 PUSH1 0x3 SWAP1 PUSH1 0x20 DUP3 MUL DUP1 CALLDATASIZE DUP4 CALLDATACOPY DUP1 DUP3 ADD SWAP2 POP POP SWAP1 POP POP SWAP1 JUMP JUMPDEST PUSH0 PUSH0 REVERT JUMPDEST PUSH0 PUSH20 0xFFFFFFFFFFFFFFFFFFFFFFFFFFFFFFFFFFFFFFFF DUP3 AND SWAP1 POP SWAP2 SWAP1 POP JUMP JUMPDEST PUSH0 PUSH2 0x989 DUP3 PUSH2 0x960 JUMP JUMPDEST SWAP1 POP SWAP2 SWAP1 POP JUMP JUMPDEST PUSH2 0x999 DUP2 PUSH2 0x97F JUMP JUMPDEST DUP2 EQ PUSH2 0x9A3 JUMPI PUSH0 PUSH0 REVERT JUMPDEST POP JUMP JUMPDEST PUSH0 DUP2 CALLDATALOAD SWAP1 POP PUSH2 0x9B4 DUP2 PUSH2 0x990 JUMP JUMPDEST SWAP3 SWAP2 POP POP JUMP JUMPDEST PUSH0 PUSH1 0x20 DUP3 DUP5 SUB SLT ISZERO PUSH2 0x9CF JUMPI PUSH2 0x9CE PUSH2 0x95C JUMP JUMPDEST JUMPDEST PUSH0 PUSH2 0x9DC DUP5 DUP3 DUP6 ADD PUSH2 0x9A6 JUMP JUMPDEST SWAP2 POP POP SWAP3 SWAP2 POP POP JUMP JUMPDEST PUSH0 DUP2 SWAP1 POP SWAP2 SWAP1 POP JUMP JUMPDEST PUSH2 0x9F7 DUP2 PUSH2 0x9E5 JUMP JUMPDEST DUP3 MSTORE POP POP JUMP JUMPDEST PUSH0 PUSH1 0x20 DUP3 ADD SWAP1 POP PUSH2 0xA10 PUSH0 DUP4 ADD DUP5 PUSH2 0x9EE JUMP JUMPDEST SWAP3 SWAP2 POP POP JUMP JUMPDEST PUSH2 0xA1F DUP2 PUSH2 0x9E5 JUMP JUMPDEST DUP2 EQ PUSH2 0xA29 JUMPI PUSH0 PUSH0 REVERT JUMPDEST POP JUMP JUMPDEST PUSH0 DUP2 CALLDATALOAD SWAP1 POP PUSH2 0xA3A DUP2 PUSH2 0xA16 JUMP JUMPDEST SWAP3 SWAP2 POP POP JUMP JUMPDEST PUSH0 PUSH1 0x20 DUP3 DUP5 SUB SLT ISZERO PUSH2 0xA55 JUMPI PUSH2 0xA54 PUSH2 0x95C JUMP JUMPDEST JUMPDEST PUSH0 PUSH2 0xA62 DUP5 DUP3 DUP6 ADD PUSH2 0xA2C JUMP JUMPDEST SWAP2 POP POP SWAP3 SWAP2 POP POP JUMP JUMPDEST PUSH0 PUSH1 0x3 SWAP1 POP SWAP2 SWAP1 POP JUMP JUMPDEST PUSH0 DUP2 SWAP1 POP SWAP3 SWAP2 POP POP JUMP JUMPDEST PUSH0 DUP2 SWAP1 POP SWAP2 SWAP1 POP JUMP JUMPDEST PUSH2 0xA91 DUP2 PUSH2 0x97F JUMP JUMPDEST DUP3 MSTORE POP POP JUMP JUMPDEST PUSH0 PUSH2 0xAA2 DUP4 DUP4 PUSH2 0xA88 JUMP JUMPDEST PUSH1 0x20 DUP4 ADD SWAP1 POP SWAP3 SWAP2 POP POP JUMP JUMPDEST PUSH0 PUSH1 0x20 DUP3 ADD SWAP1 POP SWAP2 SWAP1 POP JUMP JUMPDEST PUSH2 0xAC3 DUP2 PUSH2 0xA6B JUMP JUMPDEST PUSH2 0xACD DUP2 DUP5 PUSH2 0xA75 JUMP JUMPDEST SWAP3 POP PUSH2 0xAD8 DUP3 PUSH2 0xA7F JUMP JUMPDEST DUP1 PUSH0 JUMPDEST DUP4 DUP2 LT ISZERO PUSH2 0xB08 JUMPI DUP2 MLOAD PUSH2 0xAEF DUP8 DUP3 PUSH2 0xA97 JUMP JUMPDEST SWAP7 POP PUSH2 0xAFA DUP4 PUSH2 0xAAE JUMP JUMPDEST SWAP3 POP POP PUSH1 0x1 DUP2 ADD SWAP1 POP PUSH2 0xADB JUMP JUMPDEST POP POP POP POP POP POP JUMP JUMPDEST PUSH0 PUSH1 0x3 SWAP1 POP SWAP2 SWAP1 POP JUMP JUMPDEST PUSH0 DUP2 SWAP1 POP SWAP3 SWAP2 POP POP JUMP JUMPDEST PUSH0 DUP2 SWAP1 POP SWAP2 SWAP1 POP JUMP JUMPDEST PUSH2 0xB36 DUP2 PUSH2 0x9E5 JUMP JUMPDEST DUP3 MSTORE POP POP JUMP JUMPDEST PUSH0 PUSH2 0xB47 DUP4 DUP4 PUSH2 0xB2D JUMP JUMPDEST PUSH1 0x20 DUP4 ADD SWAP1 POP SWAP3 SWAP2 POP POP JUMP JUMPDEST PUSH0 PUSH1 0x20 DUP3 ADD SWAP1 POP SWAP2 SWAP1 POP JUMP JUMPDEST PUSH2 0xB68 DUP2 PUSH2 0xB10 JUMP JUMPDEST PUSH2 0xB72 DUP2 DUP5 PUSH2 0xB1A JUMP JUMPDEST SWAP3 POP PUSH2 0xB7D DUP3 PUSH2 0xB24 JUMP JUMPDEST DUP1 PUSH0 JUMPDEST DUP4 DUP2 LT ISZERO PUSH2 0xBAD JUMPI DUP2 MLOAD PUSH2 0xB94 DUP8 DUP3 PUSH2 0xB3C JUMP JUMPDEST SWAP7 POP PUSH2 0xB9F DUP4 PUSH2 0xB53 JUMP JUMPDEST SWAP3 POP POP PUSH1 0x1 DUP2 ADD SWAP1 POP PUSH2 0xB80 JUMP JUMPDEST POP POP POP POP POP POP JUMP JUMPDEST PUSH0 PUSH1 0xC0 DUP3 ADD SWAP1 POP PUSH2 0xBC8 PUSH0 DUP4 ADD DUP6 PUSH2 0xABA JUMP JUMPDEST PUSH2 0xBD5 PUSH1 0x60 DUP4 ADD DUP5 PUSH2 0xB5F JUMP JUMPDEST SWAP4 SWAP3 POP POP POP JUMP JUMPDEST PUSH2 0xBE5 DUP2 PUSH2 0x97F JUMP JUMPDEST DUP3 MSTORE POP POP JUMP JUMPDEST PUSH0 PUSH1 0x20 DUP3 ADD SWAP1 POP PUSH2 0xBFE PUSH0 DUP4 ADD DUP5 PUSH2 0xBDC JUMP JUMPDEST SWAP3 SWAP2 POP POP JUMP JUMPDEST PUSH0 DUP3 DUP3 MSTORE PUSH1 0x20 DUP3 ADD SWAP1 POP SWAP3 SWAP2 POP POP JUMP JUMPDEST PUSH32 0x4D7573742062652067726561746572207468616E20302E000000000000000000 PUSH0 DUP3 ADD MSTORE POP JUMP JUMPDEST PUSH0 PUSH2 0xC48 PUSH1 0x17 DUP4 PUSH2 0xC04 JUMP JUMPDEST SWAP2 POP PUSH2 0xC53 DUP3 PUSH2 0xC14 JUMP JUMPDEST PUSH1 0x20 DUP3 ADD SWAP1 POP SWAP2 SWAP1 POP JUMP JUMPDEST PUSH0 PUSH1 0x20 DUP3 ADD SWAP1 POP DUP2 DUP2 SUB PUSH0 DUP4 ADD MSTORE PUSH2 0xC75 DUP2 PUSH2 0xC3C JUMP JUMPDEST SWAP1 POP SWAP2 SWAP1 POP JUMP JUMPDEST PUSH32 0x4E487B7100000000000000000000000000000000000000000000000000000000 PUSH0 MSTORE PUSH1 0x11 PUSH1 0x4 MSTORE PUSH1 0x24 PUSH0 REVERT JUMPDEST PUSH0 PUSH2 0xCB3 DUP3 PUSH2 0x9E5 JUMP JUMPDEST SWAP2 POP PUSH2 0xCBE DUP4 PUSH2 0x9E5 JUMP JUMPDEST SWAP3 POP DUP3 DUP3 ADD SWAP1 POP DUP1 DUP3 GT ISZERO PUSH2 0xCD6 JUMPI PUSH2 0xCD5 PUSH2 0xC7C JUMP JUMPDEST JUMPDEST SWAP3 SWAP2 POP POP JUMP JUMPDEST PUSH32 0x4F6E6C79207468652061646D696E6973747261746F722063616E206578747261 PUSH0 DUP3 ADD MSTORE PUSH32 0x63742E0000000000000000000000000000000000000000000000000000000000 PUSH1 0x20 DUP3 ADD MSTORE POP JUMP JUMPDEST PUSH0 PUSH2 0xD36 PUSH1 0x23 DUP4 PUSH2 0xC04 JUMP JUMPDEST SWAP2 POP PUSH2 0xD41 DUP3 PUSH2 0xCDC JUMP JUMPDEST PUSH1 0x40 DUP3 ADD SWAP1 POP SWAP2 SWAP1 POP JUMP JUMPDEST PUSH0 PUSH1 0x20 DUP3 ADD SWAP1 POP DUP2 DUP2 SUB PUSH0 DUP4 ADD MSTORE PUSH2 0xD63 DUP2 PUSH2 0xD2A JUMP JUMPDEST SWAP1 POP SWAP2 SWAP1 POP JUMP JUMPDEST PUSH32 0x4E487B7100000000000000000000000000000000000000000000000000000000 PUSH0 MSTORE PUSH1 0x32 PUSH1 0x4 MSTORE PUSH1 0x24 PUSH0 REVERT JUMPDEST PUSH0 PUSH2 0xDA1 DUP3 PUSH2 0x9E5 JUMP JUMPDEST SWAP2 POP PUSH2 0xDAC DUP4 PUSH2 0x9E5 JUMP JUMPDEST SWAP3 POP DUP3 DUP3 SUB SWAP1 POP DUP2 DUP2 GT ISZERO PUSH2 0xDC4 JUMPI PUSH2 0xDC3 PUSH2 0xC7C JUMP JUMPDEST JUMPDEST SWAP3 SWAP2 POP POP JUMP JUMPDEST PUSH0 PUSH2 0xDD4 DUP3 PUSH2 0x9E5 JUMP JUMPDEST SWAP2 POP PUSH0 DUP3 SUB PUSH2 0xDE6 JUMPI PUSH2 0xDE5 PUSH2 0xC7C JUMP JUMPDEST JUMPDEST PUSH1 0x1 DUP3 SUB SWAP1 POP SWAP2 SWAP1 POP JUMP INVALID LOG2 PUSH5 0x6970667358 0x22 SLT KECCAK256 PUSH14 0xA3384481DA746EBC3249D7AFB188 0xDF ADDRESS 0xF7 0xC6 DUP2 0xDB 0xAC PUSH28 0x114E0A76F1D52228D164736F6C634300081E00330000000000000000 "
				},
				"gasEstimates": {
					"creation": {
						"codeDepositCost": "724600",
						"executionCost": "25022",
						"totalCost": "749622"
					},
					"external": {
						"admin()": "2573",
						"balances(address)": "2803",
						"deposit()": "infinite",
						"getTop3()": "infinite",
						"topAmounts(uint256)": "infinite",
						"topUsers(uint256)": "2817",
						"withdraw()": "infinite"
					},
					"internal": {
						"_sortTopUsers()": "infinite",
						"_updateTopUsers(address)": "infinite"
					}
				},
				"methodIdentifiers": {
					"admin()": "f851a440",
					"balances(address)": "27e235e3",
					"deposit()": "d0e30db0",
					"getTop3()": "4061a5bf",
					"topAmounts(uint256)": "3b9b5f8e",
					"topUsers(uint256)": "689dbf4e",
					"withdraw()": "3ccfd60b"
				}
			},
			"storageLayout": {
				"storage": [
					{
						"astId": 3,
						"contract": "Bank2.sol:Bank",
						"label": "admin",
						"offset": 0,
						"slot": "0",
						"type": "t_address"
					},
					{
						"astId": 7,
						"contract": "Bank2.sol:Bank",
						"label": "balances",
						"offset": 0,
						"slot": "1",
						"type": "t_mapping(t_address,t_uint256)"
					},
					{
						"astId": 11,
						"contract": "Bank2.sol:Bank",
						"label": "topUsers",
						"offset": 0,
						"slot": "2",
						"type": "t_array(t_address)3_storage"
					},
					{
						"astId": 15,
						"contract": "Bank2.sol:Bank",
						"label": "topAmounts",
						"offset": 0,
						"slot": "5",
						"type": "t_array(t_uint256)3_storage"
					}
				],
				"types": {
					"t_address": {
						"encoding": "inplace",
						"label": "address",
						"numberOfBytes": "20"
					},
					"t_array(t_address)3_storage": {
						"base": "t_address",
						"encoding": "inplace",
						"label": "address[3]",
						"numberOfBytes": "96"
					},
					"t_array(t_uint256)3_storage": {
						"base": "t_uint256",
						"encoding": "inplace",
						"label": "uint256[3]",
						"numberOfBytes": "96"
					},
					"t_mapping(t_address,t_uint256)": {
						"encoding": "mapping",
						"key": "t_address",
						"label": "mapping(address => uint256)",
						"numberOfBytes": "32",
						"value": "t_uint256"
					},
					"t_uint256": {
						"encoding": "inplace",
						"label": "uint256",
						"numberOfBytes": "32"
					}
				}
			},
			"userdoc": {
				"kind": "user",
				"methods": {},
				"version": 1
			}
		}
	}
}