{
	"data": {
		"bytecode": {
			"linkReferences": {},
			"object": "6080604052348015600e575f5ffd5b506105368061001c5f395ff3fe60806040526004361061003e575f3560e01c806337e2621b146100425780634a2ad99f1461007f5780637c94c8ca146100a7578063d44abc42146100e3575b5f5ffd5b34801561004d575f5ffd5b506100686004803603810190610063919061031f565b6100ff565b604051610076929190610362565b60405180910390f35b34801561008a575f5ffd5b506100a560048036038101906100a091906103ee565b610176565b005b3480156100b2575f5ffd5b506100cd60048036038101906100c8919061031f565b6101e0565b6040516100da919061042c565b60405180910390f35b6100fd60048036038101906100f89190610445565b610255565b005b5f5f8273ffffffffffffffffffffffffffffffffffffffff1663d6c7a3be6040518163ffffffff1660e01b81526004016040805180830381865afa158015610149573d5f5f3e3d5ffd5b505050506040513d601f19601f8201168201806040525081019061016d9190610497565b91509150915091565b8173ffffffffffffffffffffffffffffffffffffffff16634018d9aa826040518263ffffffff1660e01b81526004016101af919061042c565b5f604051808303815f87803b1580156101c6575f5ffd5b505af11580156101d8573d5f5f3e3d5ffd5b505050505050565b5f8173ffffffffffffffffffffffffffffffffffffffff16635197c7aa6040518163ffffffff1660e01b8152600401602060405180830381865afa15801561022a573d5f5f3e3d5ffd5b505050506040513d601f19601f8201168201806040525081019061024e91906104d5565b9050919050565b8173ffffffffffffffffffffffffffffffffffffffff166302f42be934836040518363ffffffff1660e01b815260040161028f919061042c565b5f604051808303818588803b1580156102a6575f5ffd5b505af11580156102b8573d5f5f3e3d5ffd5b50505050505050565b5f5ffd5b5f73ffffffffffffffffffffffffffffffffffffffff82169050919050565b5f6102ee826102c5565b9050919050565b6102fe816102e4565b8114610308575f5ffd5b50565b5f81359050610319816102f5565b92915050565b5f60208284031215610334576103336102c1565b5b5f6103418482850161030b565b91505092915050565b5f819050919050565b61035c8161034a565b82525050565b5f6040820190506103755f830185610353565b6103826020830184610353565b9392505050565b5f610393826102e4565b9050919050565b6103a381610389565b81146103ad575f5ffd5b50565b5f813590506103be8161039a565b92915050565b6103cd8161034a565b81146103d7575f5ffd5b50565b5f813590506103e8816103c4565b92915050565b5f5f60408385031215610404576104036102c1565b5b5f610411858286016103b0565b9250506020610422858286016103da565b9150509250929050565b5f60208201905061043f5f830184610353565b92915050565b5f5f6040838503121561045b5761045a6102c1565b5b5f6104688582860161030b565b9250506020610479858286016103da565b9150509250929050565b5f81519050610491816103c4565b92915050565b5f5f604083850312156104ad576104ac6102c1565b5b5f6104ba85828601610483565b92505060206104cb85828601610483565b9150509250929050565b5f602082840312156104ea576104e96102c1565b5b5f6104f784828501610483565b9150509291505056fea26469706673582212200d56f055b1ec2b34a3a4f7dcd7451fd515e4e98a06ed578f25376ef3fc2ded7264736f6c634300081e0033",
			"opcodes": "PUSH1 0x80 PUSH1 0x40 MSTORE CALLVALUE DUP1 ISZERO PUSH1 0xE JUMPI PUSH0 PUSH0 REVERT JUMPDEST POP PUSH2 0x536 DUP1 PUSH2 0x1C PUSH0 CODECOPY PUSH0 RETURN INVALID PUSH1 0x80 PUSH1 0x40 MSTORE PUSH1 0x4 CALLDATASIZE LT PUSH2 0x3E JUMPI PUSH0 CALLDATALOAD PUSH1 0xE0 SHR DUP1 PUSH4 0x37E2621B EQ PUSH2 0x42 JUMPI DUP1 PUSH4 0x4A2AD99F EQ PUSH2 0x7F JUMPI DUP1 PUSH4 0x7C94C8CA EQ PUSH2 0xA7 JUMPI DUP1 PUSH4 0xD44ABC42 EQ PUSH2 0xE3 JUMPI JUMPDEST PUSH0 PUSH0 REVERT JUMPDEST CALLVALUE DUP1 ISZERO PUSH2 0x4D JUMPI PUSH0 PUSH0 REVERT JUMPDEST POP PUSH2 0x68 PUSH1 0x4 DUP1 CALLDATASIZE SUB DUP2 ADD SWAP1 PUSH2 0x63 SWAP2 SWAP1 PUSH2 0x31F JUMP JUMPDEST PUSH2 0xFF JUMP JUMPDEST PUSH1 0x40 MLOAD PUSH2 0x76 SWAP3 SWAP2 SWAP1 PUSH2 0x362 JUMP JUMPDEST PUSH1 0x40 MLOAD DUP1 SWAP2 SUB SWAP1 RETURN JUMPDEST CALLVALUE DUP1 ISZERO PUSH2 0x8A JUMPI PUSH0 PUSH0 REVERT JUMPDEST POP PUSH2 0xA5 PUSH1 0x4 DUP1 CALLDATASIZE SUB DUP2 ADD SWAP1 PUSH2 0xA0 SWAP2 SWAP1 PUSH2 0x3EE JUMP JUMPDEST PUSH2 0x176 JUMP JUMPDEST STOP JUMPDEST CALLVALUE DUP1 ISZERO PUSH2 0xB2 JUMPI PUSH0 PUSH0 REVERT JUMPDEST POP PUSH2 0xCD PUSH1 0x4 DUP1 CALLDATASIZE SUB DUP2 ADD SWAP1 PUSH2 0xC8 SWAP2 SWAP1 PUSH2 0x31F JUMP JUMPDEST PUSH2 0x1E0 JUMP JUMPDEST PUSH1 0x40 MLOAD PUSH2 0xDA SWAP2 SWAP1 PUSH2 0x42C JUMP JUMPDEST PUSH1 0x40 MLOAD DUP1 SWAP2 SUB SWAP1 RETURN JUMPDEST PUSH2 0xFD PUSH1 0x4 DUP1 CALLDATASIZE SUB DUP2 ADD SWAP1 PUSH2 0xF8 SWAP2 SWAP1 PUSH2 0x445 JUMP JUMPDEST PUSH2 0x255 JUMP JUMPDEST STOP JUMPDEST PUSH0 PUSH0 DUP3 PUSH20 0xFFFFFFFFFFFFFFFFFFFFFFFFFFFFFFFFFFFFFFFF AND PUSH4 0xD6C7A3BE PUSH1 0x40 MLOAD DUP2 PUSH4 0xFFFFFFFF AND PUSH1 0xE0 SHL DUP2 MSTORE PUSH1 0x4 ADD PUSH1 0x40 DUP1 MLOAD DUP1 DUP4 SUB DUP2 DUP7 GAS STATICCALL ISZERO DUP1 ISZERO PUSH2 0x149 JUMPI RETURNDATASIZE PUSH0 PUSH0 RETURNDATACOPY RETURNDATASIZE PUSH0 REVERT JUMPDEST POP POP POP POP PUSH1 0x40 MLOAD RETURNDATASIZE PUSH1 0x1F NOT PUSH1 0x1F DUP3 ADD AND DUP3 ADD DUP1 PUSH1 0x40 MSTORE POP DUP2 ADD SWAP1 PUSH2 0x16D SWAP2 SWAP1 PUSH2 0x497 JUMP JUMPDEST SWAP2 POP SWAP2 POP SWAP2 POP SWAP2 JUMP JUMPDEST DUP2 PUSH20 0xFFFFFFFFFFFFFFFFFFFFFFFFFFFFFFFFFFFFFFFF AND PUSH4 0x4018D9AA DUP3 PUSH1 0x40 MLOAD DUP3 PUSH4 0xFFFFFFFF AND PUSH1 0xE0 SHL DUP2 MSTORE PUSH1 0x4 ADD PUSH2 0x1AF SWAP2 SWAP1 PUSH2 0x42C JUMP JUMPDEST PUSH0 PUSH1 0x40 MLOAD DUP1 DUP4 SUB DUP2 PUSH0 DUP8 DUP1 EXTCODESIZE ISZERO DUP1 ISZERO PUSH2 0x1C6 JUMPI PUSH0 PUSH0 REVERT JUMPDEST POP GAS CALL ISZERO DUP1 ISZERO PUSH2 0x1D8 JUMPI RETURNDATASIZE PUSH0 PUSH0 RETURNDATACOPY RETURNDATASIZE PUSH0 REVERT JUMPDEST POP POP POP POP POP POP JUMP JUMPDEST PUSH0 DUP2 PUSH20 0xFFFFFFFFFFFFFFFFFFFFFFFFFFFFFFFFFFFFFFFF AND PUSH4 0x5197C7AA PUSH1 0x40 MLOAD DUP2 PUSH4 0xFFFFFFFF AND PUSH1 0xE0 SHL DUP2 MSTORE PUSH1 0x4 ADD PUSH1 0x20 PUSH1 0x40 MLOAD DUP1 DUP4 SUB DUP2 DUP7 GAS STATICCALL ISZERO DUP1 ISZERO PUSH2 0x22A JUMPI RETURNDATASIZE PUSH0 PUSH0 RETURNDATACOPY RETURNDATASIZE PUSH0 REVERT JUMPDEST POP POP POP POP PUSH1 0x40 MLOAD RETURNDATASIZE PUSH1 0x1F NOT PUSH1 0x1F DUP3 ADD AND DUP3 ADD DUP1 PUSH1 0x40 MSTORE POP DUP2 ADD SWAP1 PUSH2 0x24E SWAP2 SWAP1 PUSH2 0x4D5 JUMP JUMPDEST SWAP1 POP SWAP2 SWAP1 POP JUMP JUMPDEST DUP2 PUSH20 0xFFFFFFFFFFFFFFFFFFFFFFFFFFFFFFFFFFFFFFFF AND PUSH4 0x2F42BE9 CALLVALUE DUP4 PUSH1 0x40 MLOAD DUP4 PUSH4 0xFFFFFFFF AND PUSH1 0xE0 SHL DUP2 MSTORE PUSH1 0x4 ADD PUSH2 0x28F SWAP2 SWAP1 PUSH2 0x42C JUMP JUMPDEST PUSH0 PUSH1 0x40 MLOAD DUP1 DUP4 SUB DUP2 DUP6 DUP9 DUP1 EXTCODESIZE ISZERO DUP1 ISZERO PUSH2 0x2A6 JUMPI PUSH0 PUSH0 REVERT JUMPDEST POP GAS CALL ISZERO DUP1 ISZERO PUSH2 0x2B8 JUMPI RETURNDATASIZE PUSH0 PUSH0 RETURNDATACOPY RETURNDATASIZE PUSH0 REVERT JUMPDEST POP POP POP POP POP POP POP JUMP JUMPDEST PUSH0 PUSH0 REVERT JUMPDEST PUSH0 PUSH20 0xFFFFFFFFFFFFFFFFFFFFFFFFFFFFFFFFFFFFFFFF DUP3 AND SWAP1 POP SWAP2 SWAP1 POP JUMP JUMPDEST PUSH0 PUSH2 0x2EE DUP3 PUSH2 0x2C5 JUMP JUMPDEST SWAP1 POP SWAP2 SWAP1 POP JUMP JUMPDEST PUSH2 0x2FE DUP2 PUSH2 0x2E4 JUMP JUMPDEST DUP2 EQ PUSH2 0x308 JUMPI PUSH0 PUSH0 REVERT JUMPDEST POP JUMP JUMPDEST PUSH0 DUP2 CALLDATALOAD SWAP1 POP PUSH2 0x319 DUP2 PUSH2 0x2F5 JUMP JUMPDEST SWAP3 SWAP2 POP POP JUMP JUMPDEST PUSH0 PUSH1 0x20 DUP3 DUP5 SUB SLT ISZERO PUSH2 0x334 JUMPI PUSH2 0x333 PUSH2 0x2C1 JUMP JUMPDEST JUMPDEST PUSH0 PUSH2 0x341 DUP5 DUP3 DUP6 ADD PUSH2 0x30B JUMP JUMPDEST SWAP2 POP POP SWAP3 SWAP2 POP POP JUMP JUMPDEST PUSH0 DUP2 SWAP1 POP SWAP2 SWAP1 POP JUMP JUMPDEST PUSH2 0x35C DUP2 PUSH2 0x34A JUMP JUMPDEST DUP3 MSTORE POP POP JUMP JUMPDEST PUSH0 PUSH1 0x40 DUP3 ADD SWAP1 POP PUSH2 0x375 PUSH0 DUP4 ADD DUP6 PUSH2 0x353 JUMP JUMPDEST PUSH2 0x382 PUSH1 0x20 DUP4 ADD DUP5 PUSH2 0x353 JUMP JUMPDEST SWAP4 SWAP3 POP POP POP JUMP JUMPDEST PUSH0 PUSH2 0x393 DUP3 PUSH2 0x2E4 JUMP JUMPDEST SWAP1 POP SWAP2 SWAP1 POP JUMP JUMPDEST PUSH2 0x3A3 DUP2 PUSH2 0x389 JUMP JUMPDEST DUP2 EQ PUSH2 0x3AD JUMPI PUSH0 PUSH0 REVERT JUMPDEST POP JUMP JUMPDEST PUSH0 DUP2 CALLDATALOAD SWAP1 POP PUSH2 0x3BE DUP2 PUSH2 0x39A JUMP JUMPDEST SWAP3 SWAP2 POP POP JUMP JUMPDEST PUSH2 0x3CD DUP2 PUSH2 0x34A JUMP JUMPDEST DUP2 EQ PUSH2 0x3D7 JUMPI PUSH0 PUSH0 REVERT JUMPDEST POP JUMP JUMPDEST PUSH0 DUP2 CALLDATALOAD SWAP1 POP PUSH2 0x3E8 DUP2 PUSH2 0x3C4 JUMP JUMPDEST SWAP3 SWAP2 POP POP JUMP JUMPDEST PUSH0 PUSH0 PUSH1 0x40 DUP4 DUP6 SUB SLT ISZERO PUSH2 0x404 JUMPI PUSH2 0x403 PUSH2 0x2C1 JUMP JUMPDEST JUMPDEST PUSH0 PUSH2 0x411 DUP6 DUP3 DUP7 ADD PUSH2 0x3B0 JUMP JUMPDEST SWAP3 POP POP PUSH1 0x20 PUSH2 0x422 DUP6 DUP3 DUP7 ADD PUSH2 0x3DA JUMP JUMPDEST SWAP2 POP POP SWAP3 POP SWAP3 SWAP1 POP JUMP JUMPDEST PUSH0 PUSH1 0x20 DUP3 ADD SWAP1 POP PUSH2 0x43F PUSH0 DUP4 ADD DUP5 PUSH2 0x353 JUMP JUMPDEST SWAP3 SWAP2 POP POP JUMP JUMPDEST PUSH0 PUSH0 PUSH1 0x40 DUP4 DUP6 SUB SLT ISZERO PUSH2 0x45B JUMPI PUSH2 0x45A PUSH2 0x2C1 JUMP JUMPDEST JUMPDEST PUSH0 PUSH2 0x468 DUP6 DUP3 DUP7 ADD PUSH2 0x30B JUMP JUMPDEST SWAP3 POP POP PUSH1 0x20 PUSH2 0x479 DUP6 DUP3 DUP7 ADD PUSH2 0x3DA JUMP JUMPDEST SWAP2 POP POP SWAP3 POP SWAP3 SWAP1 POP JUMP JUMPDEST PUSH0 DUP2 MLOAD SWAP1 POP PUSH2 0x491 DUP2 PUSH2 0x3C4 JUMP JUMPDEST SWAP3 SWAP2 POP POP JUMP JUMPDEST PUSH0 PUSH0 PUSH1 0x40 DUP4 DUP6 SUB SLT ISZERO PUSH2 0x4AD JUMPI PUSH2 0x4AC PUSH2 0x2C1 JUMP JUMPDEST JUMPDEST PUSH0 PUSH2 0x4BA DUP6 DUP3 DUP7 ADD PUSH2 0x483 JUMP JUMPDEST SWAP3 POP POP PUSH1 0x20 PUSH2 0x4CB DUP6 DUP3 DUP7 ADD PUSH2 0x483 JUMP JUMPDEST SWAP2 POP POP SWAP3 POP SWAP3 SWAP1 POP JUMP JUMPDEST PUSH0 PUSH1 0x20 DUP3 DUP5 SUB SLT ISZERO PUSH2 0x4EA JUMPI PUSH2 0x4E9 PUSH2 0x2C1 JUMP JUMPDEST JUMPDEST PUSH0 PUSH2 0x4F7 DUP5 DUP3 DUP6 ADD PUSH2 0x483 JUMP JUMPDEST SWAP2 POP POP SWAP3 SWAP2 POP POP JUMP INVALID LOG2 PUSH5 0x6970667358 0x22 SLT KECCAK256 0xD JUMP CREATE SSTORE 0xB1 EOFCREATE 0x2B CALLVALUE LOG3 LOG4 0xF7 0xDC 0xD7 GASLIMIT 0x1F 0xD5 ISZERO RETF 0xE9 DUP11 MOD 0xED JUMPI DUP16 0x25 CALLDATACOPY PUSH15 0xF3FC2DED7264736F6C634300081E00 CALLER "
		},
		"gasEstimates": {
			"creation": {
				"codeDepositCost": "266800",
				"executionCost": "304",
				"totalCost": "267104"
			},
			"external": {
				"getX(address)": "infinite",
				"getXandValue(address)": "infinite",
				"setX(address,uint256)": "infinite",
				"setXandSendEther(address,uint256)": "infinite"
			}
		},
		"methodIdentifiers": {
			"getX(address)": "7c94c8ca",
			"getXandValue(address)": "37e2621b",
			"setX(address,uint256)": "4a2ad99f",
			"setXandSendEther(address,uint256)": "d44abc42"
		}
	},
	"abi": [
		{
			"inputs": [
				{
					"internalType": "address",
					"name": "_test",
					"type": "address"
				}
			],
			"name": "getX",
			"outputs": [
				{
					"internalType": "uint256",
					"name": "",
					"type": "uint256"
				}
			],
			"stateMutability": "view",
			"type": "function"
		},
		{
			"inputs": [
				{
					"internalType": "address",
					"name": "_test",
					"type": "address"
				}
			],
			"name": "getXandValue",
			"outputs": [
				{
					"internalType": "uint256",
					"name": "",
					"type": "uint256"
				},
				{
					"internalType": "uint256",
					"name": "",
					"type": "uint256"
				}
			],
			"stateMutability": "view",
			"type": "function"
		},
		{
			"inputs": [
				{
					"internalType": "contract TestContract",
					"name": "_test",
					"type": "address"
				},
				{
					"internalType": "uint256",
					"name": "_x",
					"type": "uint256"
				}
			],
			"name": "setX",
			"outputs": [],
			"stateMutability": "nonpayable",
			"type": "function"
		},
		{
			"inputs": [
				{
					"internalType": "address",
					"name": "_test",
					"type": "address"
				},
				{
					"internalType": "uint256",
					"name": "_x",
					"type": "uint256"
				}
			],
			"name": "setXandSendEther",
			"outputs": [],
			"stateMutability": "payable",
			"type": "function"
		}
	]
}