{
	"data": {
		"bytecode": {
			"linkReferences": {},
			"object": "610160604052348015610010575f5ffd5b50604051610c6d380380610c6d833981810160405281019061003291906101be565b3373ffffffffffffffffffffffffffffffffffffffff1660c08173ffffffffffffffffffffffffffffffffffffffff16815250508360e0818152505082610140818152505042610100818152505062093a804261008f919061024f565b610120818152505062093a80836100a69190610282565b8410156100e8576040517f08c379a00000000000000000000000000000000000000000000000000000000081526004016100df9061031d565b60405180910390fd5b8173ffffffffffffffffffffffffffffffffffffffff1660808173ffffffffffffffffffffffffffffffffffffffff16815250508060a081815250505050505061033b565b5f5ffd5b5f819050919050565b61014381610131565b811461014d575f5ffd5b50565b5f8151905061015e8161013a565b92915050565b5f73ffffffffffffffffffffffffffffffffffffffff82169050919050565b5f61018d82610164565b9050919050565b61019d81610183565b81146101a7575f5ffd5b50565b5f815190506101b881610194565b92915050565b5f5f5f5f608085870312156101d6576101d561012d565b5b5f6101e387828801610150565b94505060206101f487828801610150565b9350506040610205878288016101aa565b925050606061021687828801610150565b91505092959194509250565b7f4e487b71000000000000000000000000000000000000000000000000000000005f52601160045260245ffd5b5f61025982610131565b915061026483610131565b925082820190508082111561027c5761027b610222565b5b92915050565b5f61028c82610131565b915061029783610131565b92508282026102a581610131565b915082820484148315176102bc576102bb610222565b5b5092915050565b5f82825260208201905092915050565b7f7374617274696e67207072696365203c20646973636f756e74000000000000005f82015250565b5f6103076019836102c3565b9150610312826102d3565b602082019050919050565b5f6020820190508181035f830152610334816102fb565b9050919050565b60805160a05160c05160e0516101005161012051610140516108a96103c45f395f8181610283015261055e01525f818161022d01526102e301525f8181610253015261051601525f81816102b1015261053a01525f81816101e5015281816103cf01526104b901525f81816103f101526104f201525f8181610209015261039301526108a95ff3fe608060405260043610610085575f3560e01c8063a6f2ae3a11610058578063a6f2ae3a14610131578063c6bc51821461013b578063c744656514610165578063d6fbf2021461018f578063e6c0e6d5146101b957610085565b806308551a531461008957806347ccca02146100b35780638622a689146100dd57806398d5fdca14610107575b5f5ffd5b348015610094575f5ffd5b5061009d6101e3565b6040516100aa91906105bf565b60405180910390f35b3480156100be575f5ffd5b506100c7610207565b6040516100d49190610633565b60405180910390f35b3480156100e8575f5ffd5b506100f161022b565b6040516100fe9190610664565b60405180910390f35b348015610112575f5ffd5b5061011b61024f565b6040516101289190610664565b60405180910390f35b6101396102e1565b005b348015610146575f5ffd5b5061014f6104f0565b60405161015c9190610664565b60405180910390f35b348015610170575f5ffd5b50610179610514565b6040516101869190610664565b60405180910390f35b34801561019a575f5ffd5b506101a3610538565b6040516101b09190610664565b60405180910390f35b3480156101c4575f5ffd5b506101cd61055c565b6040516101da9190610664565b60405180910390f35b7f000000000000000000000000000000000000000000000000000000000000000081565b7f000000000000000000000000000000000000000000000000000000000000000081565b7f000000000000000000000000000000000000000000000000000000000000000081565b5f5f7f00000000000000000000000000000000000000000000000000000000000000004261027d91906106aa565b90505f817f00000000000000000000000000000000000000000000000000000000000000006102ac91906106dd565b9050807f00000000000000000000000000000000000000000000000000000000000000006102da91906106aa565b9250505090565b7f00000000000000000000000000000000000000000000000000000000000000004210610343576040517f08c379a000000000000000000000000000000000000000000000000000000000815260040161033a90610778565b60405180910390fd5b5f61034c61024f565b905080341015610391576040517f08c379a0000000000000000000000000000000000000000000000000000000008152600401610388906107e0565b60405180910390fd5b7f000000000000000000000000000000000000000000000000000000000000000073ffffffffffffffffffffffffffffffffffffffff166323b872dd7f0000000000000000000000000000000000000000000000000000000000000000337f00000000000000000000000000000000000000000000000000000000000000006040518463ffffffff1660e01b815260040161042e9392919061083e565b5f604051808303815f87803b158015610445575f5ffd5b505af1158015610457573d5f5f3e3d5ffd5b505050505f813461046891906106aa565b90505f8111156104b7573373ffffffffffffffffffffffffffffffffffffffff166108fc8290811502906040515f60405180830381858888f193505050501580156104b5573d5f5f3e3d5ffd5b505b7f000000000000000000000000000000000000000000000000000000000000000073ffffffffffffffffffffffffffffffffffffffff16ff5b7f000000000000000000000000000000000000000000000000000000000000000081565b7f000000000000000000000000000000000000000000000000000000000000000081565b7f000000000000000000000000000000000000000000000000000000000000000081565b7f000000000000000000000000000000000000000000000000000000000000000081565b5f73ffffffffffffffffffffffffffffffffffffffff82169050919050565b5f6105a982610580565b9050919050565b6105b98161059f565b82525050565b5f6020820190506105d25f8301846105b0565b92915050565b5f819050919050565b5f6105fb6105f66105f184610580565b6105d8565b610580565b9050919050565b5f61060c826105e1565b9050919050565b5f61061d82610602565b9050919050565b61062d81610613565b82525050565b5f6020820190506106465f830184610624565b92915050565b5f819050919050565b61065e8161064c565b82525050565b5f6020820190506106775f830184610655565b92915050565b7f4e487b71000000000000000000000000000000000000000000000000000000005f52601160045260245ffd5b5f6106b48261064c565b91506106bf8361064c565b92508282039050818111156106d7576106d661067d565b5b92915050565b5f6106e78261064c565b91506106f28361064c565b92508282026107008161064c565b915082820484148315176107175761071661067d565b5b5092915050565b5f82825260208201905092915050565b7f2061756374696f6e2065787069726564200000000000000000000000000000005f82015250565b5f61076260118361071e565b915061076d8261072e565b602082019050919050565b5f6020820190508181035f83015261078f81610756565b9050919050565b7f455448203c2070726963650000000000000000000000000000000000000000005f82015250565b5f6107ca600b8361071e565b91506107d582610796565b602082019050919050565b5f6020820190508181035f8301526107f7816107be565b9050919050565b5f61080882610602565b9050919050565b610818816107fe565b82525050565b5f61082882610580565b9050919050565b6108388161081e565b82525050565b5f6060820190506108515f83018661080f565b61085e602083018561082f565b61086b6040830184610655565b94935050505056fea2646970667358221220c1b2272fbfc2fd78fc98274232ad93fa67d8333b40a71eb96594823ee27eed3464736f6c634300081e0033",
			"opcodes": "PUSH2 0x160 PUSH1 0x40 MSTORE CALLVALUE DUP1 ISZERO PUSH2 0x10 JUMPI PUSH0 PUSH0 REVERT JUMPDEST POP PUSH1 0x40 MLOAD PUSH2 0xC6D CODESIZE SUB DUP1 PUSH2 0xC6D DUP4 CODECOPY DUP2 DUP2 ADD PUSH1 0x40 MSTORE DUP2 ADD SWAP1 PUSH2 0x32 SWAP2 SWAP1 PUSH2 0x1BE JUMP JUMPDEST CALLER PUSH20 0xFFFFFFFFFFFFFFFFFFFFFFFFFFFFFFFFFFFFFFFF AND PUSH1 0xC0 DUP2 PUSH20 0xFFFFFFFFFFFFFFFFFFFFFFFFFFFFFFFFFFFFFFFF AND DUP2 MSTORE POP POP DUP4 PUSH1 0xE0 DUP2 DUP2 MSTORE POP POP DUP3 PUSH2 0x140 DUP2 DUP2 MSTORE POP POP TIMESTAMP PUSH2 0x100 DUP2 DUP2 MSTORE POP POP PUSH3 0x93A80 TIMESTAMP PUSH2 0x8F SWAP2 SWAP1 PUSH2 0x24F JUMP JUMPDEST PUSH2 0x120 DUP2 DUP2 MSTORE POP POP PUSH3 0x93A80 DUP4 PUSH2 0xA6 SWAP2 SWAP1 PUSH2 0x282 JUMP JUMPDEST DUP5 LT ISZERO PUSH2 0xE8 JUMPI PUSH1 0x40 MLOAD PUSH32 0x8C379A000000000000000000000000000000000000000000000000000000000 DUP2 MSTORE PUSH1 0x4 ADD PUSH2 0xDF SWAP1 PUSH2 0x31D JUMP JUMPDEST PUSH1 0x40 MLOAD DUP1 SWAP2 SUB SWAP1 REVERT JUMPDEST DUP2 PUSH20 0xFFFFFFFFFFFFFFFFFFFFFFFFFFFFFFFFFFFFFFFF AND PUSH1 0x80 DUP2 PUSH20 0xFFFFFFFFFFFFFFFFFFFFFFFFFFFFFFFFFFFFFFFF AND DUP2 MSTORE POP POP DUP1 PUSH1 0xA0 DUP2 DUP2 MSTORE POP POP POP POP POP POP PUSH2 0x33B JUMP JUMPDEST PUSH0 PUSH0 REVERT JUMPDEST PUSH0 DUP2 SWAP1 POP SWAP2 SWAP1 POP JUMP JUMPDEST PUSH2 0x143 DUP2 PUSH2 0x131 JUMP JUMPDEST DUP2 EQ PUSH2 0x14D JUMPI PUSH0 PUSH0 REVERT JUMPDEST POP JUMP JUMPDEST PUSH0 DUP2 MLOAD SWAP1 POP PUSH2 0x15E DUP2 PUSH2 0x13A JUMP JUMPDEST SWAP3 SWAP2 POP POP JUMP JUMPDEST PUSH0 PUSH20 0xFFFFFFFFFFFFFFFFFFFFFFFFFFFFFFFFFFFFFFFF DUP3 AND SWAP1 POP SWAP2 SWAP1 POP JUMP JUMPDEST PUSH0 PUSH2 0x18D DUP3 PUSH2 0x164 JUMP JUMPDEST SWAP1 POP SWAP2 SWAP1 POP JUMP JUMPDEST PUSH2 0x19D DUP2 PUSH2 0x183 JUMP JUMPDEST DUP2 EQ PUSH2 0x1A7 JUMPI PUSH0 PUSH0 REVERT JUMPDEST POP JUMP JUMPDEST PUSH0 DUP2 MLOAD SWAP1 POP PUSH2 0x1B8 DUP2 PUSH2 0x194 JUMP JUMPDEST SWAP3 SWAP2 POP POP JUMP JUMPDEST PUSH0 PUSH0 PUSH0 PUSH0 PUSH1 0x80 DUP6 DUP8 SUB SLT ISZERO PUSH2 0x1D6 JUMPI PUSH2 0x1D5 PUSH2 0x12D JUMP JUMPDEST JUMPDEST PUSH0 PUSH2 0x1E3 DUP8 DUP3 DUP9 ADD PUSH2 0x150 JUMP JUMPDEST SWAP5 POP POP PUSH1 0x20 PUSH2 0x1F4 DUP8 DUP3 DUP9 ADD PUSH2 0x150 JUMP JUMPDEST SWAP4 POP POP PUSH1 0x40 PUSH2 0x205 DUP8 DUP3 DUP9 ADD PUSH2 0x1AA JUMP JUMPDEST SWAP3 POP POP PUSH1 0x60 PUSH2 0x216 DUP8 DUP3 DUP9 ADD PUSH2 0x150 JUMP JUMPDEST SWAP2 POP POP SWAP3 SWAP6 SWAP2 SWAP5 POP SWAP3 POP JUMP JUMPDEST PUSH32 0x4E487B7100000000000000000000000000000000000000000000000000000000 PUSH0 MSTORE PUSH1 0x11 PUSH1 0x4 MSTORE PUSH1 0x24 PUSH0 REVERT JUMPDEST PUSH0 PUSH2 0x259 DUP3 PUSH2 0x131 JUMP JUMPDEST SWAP2 POP PUSH2 0x264 DUP4 PUSH2 0x131 JUMP JUMPDEST SWAP3 POP DUP3 DUP3 ADD SWAP1 POP DUP1 DUP3 GT ISZERO PUSH2 0x27C JUMPI PUSH2 0x27B PUSH2 0x222 JUMP JUMPDEST JUMPDEST SWAP3 SWAP2 POP POP JUMP JUMPDEST PUSH0 PUSH2 0x28C DUP3 PUSH2 0x131 JUMP JUMPDEST SWAP2 POP PUSH2 0x297 DUP4 PUSH2 0x131 JUMP JUMPDEST SWAP3 POP DUP3 DUP3 MUL PUSH2 0x2A5 DUP2 PUSH2 0x131 JUMP JUMPDEST SWAP2 POP DUP3 DUP3 DIV DUP5 EQ DUP4 ISZERO OR PUSH2 0x2BC JUMPI PUSH2 0x2BB PUSH2 0x222 JUMP JUMPDEST JUMPDEST POP SWAP3 SWAP2 POP POP JUMP JUMPDEST PUSH0 DUP3 DUP3 MSTORE PUSH1 0x20 DUP3 ADD SWAP1 POP SWAP3 SWAP2 POP POP JUMP JUMPDEST PUSH32 0x7374617274696E67207072696365203C20646973636F756E7400000000000000 PUSH0 DUP3 ADD MSTORE POP JUMP JUMPDEST PUSH0 PUSH2 0x307 PUSH1 0x19 DUP4 PUSH2 0x2C3 JUMP JUMPDEST SWAP2 POP PUSH2 0x312 DUP3 PUSH2 0x2D3 JUMP JUMPDEST PUSH1 0x20 DUP3 ADD SWAP1 POP SWAP2 SWAP1 POP JUMP JUMPDEST PUSH0 PUSH1 0x20 DUP3 ADD SWAP1 POP DUP2 DUP2 SUB PUSH0 DUP4 ADD MSTORE PUSH2 0x334 DUP2 PUSH2 0x2FB JUMP JUMPDEST SWAP1 POP SWAP2 SWAP1 POP JUMP JUMPDEST PUSH1 0x80 MLOAD PUSH1 0xA0 MLOAD PUSH1 0xC0 MLOAD PUSH1 0xE0 MLOAD PUSH2 0x100 MLOAD PUSH2 0x120 MLOAD PUSH2 0x140 MLOAD PUSH2 0x8A9 PUSH2 0x3C4 PUSH0 CODECOPY PUSH0 DUP2 DUP2 PUSH2 0x283 ADD MSTORE PUSH2 0x55E ADD MSTORE PUSH0 DUP2 DUP2 PUSH2 0x22D ADD MSTORE PUSH2 0x2E3 ADD MSTORE PUSH0 DUP2 DUP2 PUSH2 0x253 ADD MSTORE PUSH2 0x516 ADD MSTORE PUSH0 DUP2 DUP2 PUSH2 0x2B1 ADD MSTORE PUSH2 0x53A ADD MSTORE PUSH0 DUP2 DUP2 PUSH2 0x1E5 ADD MSTORE DUP2 DUP2 PUSH2 0x3CF ADD MSTORE PUSH2 0x4B9 ADD MSTORE PUSH0 DUP2 DUP2 PUSH2 0x3F1 ADD MSTORE PUSH2 0x4F2 ADD MSTORE PUSH0 DUP2 DUP2 PUSH2 0x209 ADD MSTORE PUSH2 0x393 ADD MSTORE PUSH2 0x8A9 PUSH0 RETURN INVALID PUSH1 0x80 PUSH1 0x40 MSTORE PUSH1 0x4 CALLDATASIZE LT PUSH2 0x85 JUMPI PUSH0 CALLDATALOAD PUSH1 0xE0 SHR DUP1 PUSH4 0xA6F2AE3A GT PUSH2 0x58 JUMPI DUP1 PUSH4 0xA6F2AE3A EQ PUSH2 0x131 JUMPI DUP1 PUSH4 0xC6BC5182 EQ PUSH2 0x13B JUMPI DUP1 PUSH4 0xC7446565 EQ PUSH2 0x165 JUMPI DUP1 PUSH4 0xD6FBF202 EQ PUSH2 0x18F JUMPI DUP1 PUSH4 0xE6C0E6D5 EQ PUSH2 0x1B9 JUMPI PUSH2 0x85 JUMP JUMPDEST DUP1 PUSH4 0x8551A53 EQ PUSH2 0x89 JUMPI DUP1 PUSH4 0x47CCCA02 EQ PUSH2 0xB3 JUMPI DUP1 PUSH4 0x8622A689 EQ PUSH2 0xDD JUMPI DUP1 PUSH4 0x98D5FDCA EQ PUSH2 0x107 JUMPI JUMPDEST PUSH0 PUSH0 REVERT JUMPDEST CALLVALUE DUP1 ISZERO PUSH2 0x94 JUMPI PUSH0 PUSH0 REVERT JUMPDEST POP PUSH2 0x9D PUSH2 0x1E3 JUMP JUMPDEST PUSH1 0x40 MLOAD PUSH2 0xAA SWAP2 SWAP1 PUSH2 0x5BF JUMP JUMPDEST PUSH1 0x40 MLOAD DUP1 SWAP2 SUB SWAP1 RETURN JUMPDEST CALLVALUE DUP1 ISZERO PUSH2 0xBE JUMPI PUSH0 PUSH0 REVERT JUMPDEST POP PUSH2 0xC7 PUSH2 0x207 JUMP JUMPDEST PUSH1 0x40 MLOAD PUSH2 0xD4 SWAP2 SWAP1 PUSH2 0x633 JUMP JUMPDEST PUSH1 0x40 MLOAD DUP1 SWAP2 SUB SWAP1 RETURN JUMPDEST CALLVALUE DUP1 ISZERO PUSH2 0xE8 JUMPI PUSH0 PUSH0 REVERT JUMPDEST POP PUSH2 0xF1 PUSH2 0x22B JUMP JUMPDEST PUSH1 0x40 MLOAD PUSH2 0xFE SWAP2 SWAP1 PUSH2 0x664 JUMP JUMPDEST PUSH1 0x40 MLOAD DUP1 SWAP2 SUB SWAP1 RETURN JUMPDEST CALLVALUE DUP1 ISZERO PUSH2 0x112 JUMPI PUSH0 PUSH0 REVERT JUMPDEST POP PUSH2 0x11B PUSH2 0x24F JUMP JUMPDEST PUSH1 0x40 MLOAD PUSH2 0x128 SWAP2 SWAP1 PUSH2 0x664 JUMP JUMPDEST PUSH1 0x40 MLOAD DUP1 SWAP2 SUB SWAP1 RETURN JUMPDEST PUSH2 0x139 PUSH2 0x2E1 JUMP JUMPDEST STOP JUMPDEST CALLVALUE DUP1 ISZERO PUSH2 0x146 JUMPI PUSH0 PUSH0 REVERT JUMPDEST POP PUSH2 0x14F PUSH2 0x4F0 JUMP JUMPDEST PUSH1 0x40 MLOAD PUSH2 0x15C SWAP2 SWAP1 PUSH2 0x664 JUMP JUMPDEST PUSH1 0x40 MLOAD DUP1 SWAP2 SUB SWAP1 RETURN JUMPDEST CALLVALUE DUP1 ISZERO PUSH2 0x170 JUMPI PUSH0 PUSH0 REVERT JUMPDEST POP PUSH2 0x179 PUSH2 0x514 JUMP JUMPDEST PUSH1 0x40 MLOAD PUSH2 0x186 SWAP2 SWAP1 PUSH2 0x664 JUMP JUMPDEST PUSH1 0x40 MLOAD DUP1 SWAP2 SUB SWAP1 RETURN JUMPDEST CALLVALUE DUP1 ISZERO PUSH2 0x19A JUMPI PUSH0 PUSH0 REVERT JUMPDEST POP PUSH2 0x1A3 PUSH2 0x538 JUMP JUMPDEST PUSH1 0x40 MLOAD PUSH2 0x1B0 SWAP2 SWAP1 PUSH2 0x664 JUMP JUMPDEST PUSH1 0x40 MLOAD DUP1 SWAP2 SUB SWAP1 RETURN JUMPDEST CALLVALUE DUP1 ISZERO PUSH2 0x1C4 JUMPI PUSH0 PUSH0 REVERT JUMPDEST POP PUSH2 0x1CD PUSH2 0x55C JUMP JUMPDEST PUSH1 0x40 MLOAD PUSH2 0x1DA SWAP2 SWAP1 PUSH2 0x664 JUMP JUMPDEST PUSH1 0x40 MLOAD DUP1 SWAP2 SUB SWAP1 RETURN JUMPDEST PUSH32 0x0 DUP2 JUMP JUMPDEST PUSH32 0x0 DUP2 JUMP JUMPDEST PUSH32 0x0 DUP2 JUMP JUMPDEST PUSH0 PUSH0 PUSH32 0x0 TIMESTAMP PUSH2 0x27D SWAP2 SWAP1 PUSH2 0x6AA JUMP JUMPDEST SWAP1 POP PUSH0 DUP2 PUSH32 0x0 PUSH2 0x2AC SWAP2 SWAP1 PUSH2 0x6DD JUMP JUMPDEST SWAP1 POP DUP1 PUSH32 0x0 PUSH2 0x2DA SWAP2 SWAP1 PUSH2 0x6AA JUMP JUMPDEST SWAP3 POP POP POP SWAP1 JUMP JUMPDEST PUSH32 0x0 TIMESTAMP LT PUSH2 0x343 JUMPI PUSH1 0x40 MLOAD PUSH32 0x8C379A000000000000000000000000000000000000000000000000000000000 DUP2 MSTORE PUSH1 0x4 ADD PUSH2 0x33A SWAP1 PUSH2 0x778 JUMP JUMPDEST PUSH1 0x40 MLOAD DUP1 SWAP2 SUB SWAP1 REVERT JUMPDEST PUSH0 PUSH2 0x34C PUSH2 0x24F JUMP JUMPDEST SWAP1 POP DUP1 CALLVALUE LT ISZERO PUSH2 0x391 JUMPI PUSH1 0x40 MLOAD PUSH32 0x8C379A000000000000000000000000000000000000000000000000000000000 DUP2 MSTORE PUSH1 0x4 ADD PUSH2 0x388 SWAP1 PUSH2 0x7E0 JUMP JUMPDEST PUSH1 0x40 MLOAD DUP1 SWAP2 SUB SWAP1 REVERT JUMPDEST PUSH32 0x0 PUSH20 0xFFFFFFFFFFFFFFFFFFFFFFFFFFFFFFFFFFFFFFFF AND PUSH4 0x23B872DD PUSH32 0x0 CALLER PUSH32 0x0 PUSH1 0x40 MLOAD DUP5 PUSH4 0xFFFFFFFF AND PUSH1 0xE0 SHL DUP2 MSTORE PUSH1 0x4 ADD PUSH2 0x42E SWAP4 SWAP3 SWAP2 SWAP1 PUSH2 0x83E JUMP JUMPDEST PUSH0 PUSH1 0x40 MLOAD DUP1 DUP4 SUB DUP2 PUSH0 DUP8 DUP1 EXTCODESIZE ISZERO DUP1 ISZERO PUSH2 0x445 JUMPI PUSH0 PUSH0 REVERT JUMPDEST POP GAS CALL ISZERO DUP1 ISZERO PUSH2 0x457 JUMPI RETURNDATASIZE PUSH0 PUSH0 RETURNDATACOPY RETURNDATASIZE PUSH0 REVERT JUMPDEST POP POP POP POP PUSH0 DUP2 CALLVALUE PUSH2 0x468 SWAP2 SWAP1 PUSH2 0x6AA JUMP JUMPDEST SWAP1 POP PUSH0 DUP2 GT ISZERO PUSH2 0x4B7 JUMPI CALLER PUSH20 0xFFFFFFFFFFFFFFFFFFFFFFFFFFFFFFFFFFFFFFFF AND PUSH2 0x8FC DUP3 SWAP1 DUP2 ISZERO MUL SWAP1 PUSH1 0x40 MLOAD PUSH0 PUSH1 0x40 MLOAD DUP1 DUP4 SUB DUP2 DUP6 DUP9 DUP9 CALL SWAP4 POP POP POP POP ISZERO DUP1 ISZERO PUSH2 0x4B5 JUMPI RETURNDATASIZE PUSH0 PUSH0 RETURNDATACOPY RETURNDATASIZE PUSH0 REVERT JUMPDEST POP JUMPDEST PUSH32 0x0 PUSH20 0xFFFFFFFFFFFFFFFFFFFFFFFFFFFFFFFFFFFFFFFF AND SELFDESTRUCT JUMPDEST PUSH32 0x0 DUP2 JUMP JUMPDEST PUSH32 0x0 DUP2 JUMP JUMPDEST PUSH32 0x0 DUP2 JUMP JUMPDEST PUSH32 0x0 DUP2 JUMP JUMPDEST PUSH0 PUSH20 0xFFFFFFFFFFFFFFFFFFFFFFFFFFFFFFFFFFFFFFFF DUP3 AND SWAP1 POP SWAP2 SWAP1 POP JUMP JUMPDEST PUSH0 PUSH2 0x5A9 DUP3 PUSH2 0x580 JUMP JUMPDEST SWAP1 POP SWAP2 SWAP1 POP JUMP JUMPDEST PUSH2 0x5B9 DUP2 PUSH2 0x59F JUMP JUMPDEST DUP3 MSTORE POP POP JUMP JUMPDEST PUSH0 PUSH1 0x20 DUP3 ADD SWAP1 POP PUSH2 0x5D2 PUSH0 DUP4 ADD DUP5 PUSH2 0x5B0 JUMP JUMPDEST SWAP3 SWAP2 POP POP JUMP JUMPDEST PUSH0 DUP2 SWAP1 POP SWAP2 SWAP1 POP JUMP JUMPDEST PUSH0 PUSH2 0x5FB PUSH2 0x5F6 PUSH2 0x5F1 DUP5 PUSH2 0x580 JUMP JUMPDEST PUSH2 0x5D8 JUMP JUMPDEST PUSH2 0x580 JUMP JUMPDEST SWAP1 POP SWAP2 SWAP1 POP JUMP JUMPDEST PUSH0 PUSH2 0x60C DUP3 PUSH2 0x5E1 JUMP JUMPDEST SWAP1 POP SWAP2 SWAP1 POP JUMP JUMPDEST PUSH0 PUSH2 0x61D DUP3 PUSH2 0x602 JUMP JUMPDEST SWAP1 POP SWAP2 SWAP1 POP JUMP JUMPDEST PUSH2 0x62D DUP2 PUSH2 0x613 JUMP JUMPDEST DUP3 MSTORE POP POP JUMP JUMPDEST PUSH0 PUSH1 0x20 DUP3 ADD SWAP1 POP PUSH2 0x646 PUSH0 DUP4 ADD DUP5 PUSH2 0x624 JUMP JUMPDEST SWAP3 SWAP2 POP POP JUMP JUMPDEST PUSH0 DUP2 SWAP1 POP SWAP2 SWAP1 POP JUMP JUMPDEST PUSH2 0x65E DUP2 PUSH2 0x64C JUMP JUMPDEST DUP3 MSTORE POP POP JUMP JUMPDEST PUSH0 PUSH1 0x20 DUP3 ADD SWAP1 POP PUSH2 0x677 PUSH0 DUP4 ADD DUP5 PUSH2 0x655 JUMP JUMPDEST SWAP3 SWAP2 POP POP JUMP JUMPDEST PUSH32 0x4E487B7100000000000000000000000000000000000000000000000000000000 PUSH0 MSTORE PUSH1 0x11 PUSH1 0x4 MSTORE PUSH1 0x24 PUSH0 REVERT JUMPDEST PUSH0 PUSH2 0x6B4 DUP3 PUSH2 0x64C JUMP JUMPDEST SWAP2 POP PUSH2 0x6BF DUP4 PUSH2 0x64C JUMP JUMPDEST SWAP3 POP DUP3 DUP3 SUB SWAP1 POP DUP2 DUP2 GT ISZERO PUSH2 0x6D7 JUMPI PUSH2 0x6D6 PUSH2 0x67D JUMP JUMPDEST JUMPDEST SWAP3 SWAP2 POP POP JUMP JUMPDEST PUSH0 PUSH2 0x6E7 DUP3 PUSH2 0x64C JUMP JUMPDEST SWAP2 POP PUSH2 0x6F2 DUP4 PUSH2 0x64C JUMP JUMPDEST SWAP3 POP DUP3 DUP3 MUL PUSH2 0x700 DUP2 PUSH2 0x64C JUMP JUMPDEST SWAP2 POP DUP3 DUP3 DIV DUP5 EQ DUP4 ISZERO OR PUSH2 0x717 JUMPI PUSH2 0x716 PUSH2 0x67D JUMP JUMPDEST JUMPDEST POP SWAP3 SWAP2 POP POP JUMP JUMPDEST PUSH0 DUP3 DUP3 MSTORE PUSH1 0x20 DUP3 ADD SWAP1 POP SWAP3 SWAP2 POP POP JUMP JUMPDEST PUSH32 0x2061756374696F6E206578706972656420000000000000000000000000000000 PUSH0 DUP3 ADD MSTORE POP JUMP JUMPDEST PUSH0 PUSH2 0x762 PUSH1 0x11 DUP4 PUSH2 0x71E JUMP JUMPDEST SWAP2 POP PUSH2 0x76D DUP3 PUSH2 0x72E JUMP JUMPDEST PUSH1 0x20 DUP3 ADD SWAP1 POP SWAP2 SWAP1 POP JUMP JUMPDEST PUSH0 PUSH1 0x20 DUP3 ADD SWAP1 POP DUP2 DUP2 SUB PUSH0 DUP4 ADD MSTORE PUSH2 0x78F DUP2 PUSH2 0x756 JUMP JUMPDEST SWAP1 POP SWAP2 SWAP1 POP JUMP JUMPDEST PUSH32 0x455448203C207072696365000000000000000000000000000000000000000000 PUSH0 DUP3 ADD MSTORE POP JUMP JUMPDEST PUSH0 PUSH2 0x7CA PUSH1 0xB DUP4 PUSH2 0x71E JUMP JUMPDEST SWAP2 POP PUSH2 0x7D5 DUP3 PUSH2 0x796 JUMP JUMPDEST PUSH1 0x20 DUP3 ADD SWAP1 POP SWAP2 SWAP1 POP JUMP JUMPDEST PUSH0 PUSH1 0x20 DUP3 ADD SWAP1 POP DUP2 DUP2 SUB PUSH0 DUP4 ADD MSTORE PUSH2 0x7F7 DUP2 PUSH2 0x7BE JUMP JUMPDEST SWAP1 POP SWAP2 SWAP1 POP JUMP JUMPDEST PUSH0 PUSH2 0x808 DUP3 PUSH2 0x602 JUMP JUMPDEST SWAP1 POP SWAP2 SWAP1 POP JUMP JUMPDEST PUSH2 0x818 DUP2 PUSH2 0x7FE JUMP JUMPDEST DUP3 MSTORE POP POP JUMP JUMPDEST PUSH0 PUSH2 0x828 DUP3 PUSH2 0x580 JUMP JUMPDEST SWAP1 POP SWAP2 SWAP1 POP JUMP JUMPDEST PUSH2 0x838 DUP2 PUSH2 0x81E JUMP JUMPDEST DUP3 MSTORE POP POP JUMP JUMPDEST PUSH0 PUSH1 0x60 DUP3 ADD SWAP1 POP PUSH2 0x851 PUSH0 DUP4 ADD DUP7 PUSH2 0x80F JUMP JUMPDEST PUSH2 0x85E PUSH1 0x20 DUP4 ADD DUP6 PUSH2 0x82F JUMP JUMPDEST PUSH2 0x86B PUSH1 0x40 DUP4 ADD DUP5 PUSH2 0x655 JUMP JUMPDEST SWAP5 SWAP4 POP POP POP POP JUMP INVALID LOG2 PUSH5 0x6970667358 0x22 SLT KECCAK256 0xC1 0xB2 0x27 0x2F 0xBF 0xC2 REVERT PUSH25 0xFC98274232AD93FA67D8333B40A71EB96594823EE27EED3464 PUSH20 0x6F6C634300081E00330000000000000000000000 "
		},
		"gasEstimates": {
			"creation": {
				"codeDepositCost": "443400",
				"executionCost": "infinite",
				"totalCost": "infinite"
			},
			"external": {
				"buy()": "infinite",
				"discountRate()": "infinite",
				"expiresAt()": "infinite",
				"getPrice()": "infinite",
				"nft()": "infinite",
				"nftId()": "infinite",
				"seller()": "infinite",
				"startAt()": "infinite",
				"startingPrice()": "infinite"
			}
		},
		"methodIdentifiers": {
			"buy()": "a6f2ae3a",
			"discountRate()": "e6c0e6d5",
			"expiresAt()": "8622a689",
			"getPrice()": "98d5fdca",
			"nft()": "47ccca02",
			"nftId()": "c6bc5182",
			"seller()": "08551a53",
			"startAt()": "c7446565",
			"startingPrice()": "d6fbf202"
		}
	},
	"abi": [
		{
			"inputs": [
				{
					"internalType": "uint256",
					"name": "_startingPrice",
					"type": "uint256"
				},
				{
					"internalType": "uint256",
					"name": "_discountRate",
					"type": "uint256"
				},
				{
					"internalType": "address",
					"name": "_nft",
					"type": "address"
				},
				{
					"internalType": "uint256",
					"name": "_nftId",
					"type": "uint256"
				}
			],
			"stateMutability": "nonpayable",
			"type": "constructor"
		},
		{
			"inputs": [],
			"name": "buy",
			"outputs": [],
			"stateMutability": "payable",
			"type": "function"
		},
		{
			"inputs": [],
			"name": "discountRate",
			"outputs": [
				{
					"internalType": "uint256",
					"name": "",
					"type": "uint256"
				}
			],
			"stateMutability": "view",
			"type": "function"
		},
		{
			"inputs": [],
			"name": "expiresAt",
			"outputs": [
				{
					"internalType": "uint256",
					"name": "",
					"type": "uint256"
				}
			],
			"stateMutability": "view",
			"type": "function"
		},
		{
			"inputs": [],
			"name": "getPrice",
			"outputs": [
				{
					"internalType": "uint256",
					"name": "",
					"type": "uint256"
				}
			],
			"stateMutability": "view",
			"type": "function"
		},
		{
			"inputs": [],
			"name": "nft",
			"outputs": [
				{
					"internalType": "contract IERC721",
					"name": "",
					"type": "address"
				}
			],
			"stateMutability": "view",
			"type": "function"
		},
		{
			"inputs": [],
			"name": "nftId",
			"outputs": [
				{
					"internalType": "uint256",
					"name": "",
					"type": "uint256"
				}
			],
			"stateMutability": "view",
			"type": "function"
		},
		{
			"inputs": [],
			"name": "seller",
			"outputs": [
				{
					"internalType": "address payable",
					"name": "",
					"type": "address"
				}
			],
			"stateMutability": "view",
			"type": "function"
		},
		{
			"inputs": [],
			"name": "startAt",
			"outputs": [
				{
					"internalType": "uint256",
					"name": "",
					"type": "uint256"
				}
			],
			"stateMutability": "view",
			"type": "function"
		},
		{
			"inputs": [],
			"name": "startingPrice",
			"outputs": [
				{
					"internalType": "uint256",
					"name": "",
					"type": "uint256"
				}
			],
			"stateMutability": "view",
			"type": "function"
		}
	]
}